{
  "abi": [
    {
      "inputs": [
        {
          "internalType": "address",
          "name": "_defaultAdmin",
          "type": "address"
        },
        {
          "internalType": "string",
          "name": "_name",
          "type": "string"
        },
        {
          "internalType": "string",
          "name": "_symbol",
          "type": "string"
        },
        {
          "internalType": "address",
          "name": "_royaltyRecipient",
          "type": "address"
        },
        {
          "internalType": "uint128",
          "name": "_royaltyBps",
          "type": "uint128"
        }
      ],
      "stateMutability": "nonpayable",
      "type": "constructor"
    },
    {
      "inputs": [
        {
          "internalType": "uint256",
          "name": "index",
          "type": "uint256"
        }
      ],
      "name": "BatchMintInvalidBatchId",
      "type": "error"
    },
    {
      "inputs": [
        {
          "internalType": "uint256",
          "name": "tokenId",
          "type": "uint256"
        }
      ],
      "name": "BatchMintInvalidTokenId",
      "type": "error"
    },
    {
      "inputs": [
        {
          "internalType": "uint256",
          "name": "batchId",
          "type": "uint256"
        }
      ],
      "name": "BatchMintMetadataFrozen",
      "type": "error"
    },
    {
      "inputs": [],
      "name": "ContractMetadataUnauthorized",
      "type": "error"
    },
    {
      "inputs": [],
      "name": "LazyMintInvalidAmount",
      "type": "error"
    },
    {
      "inputs": [],
      "name": "LazyMintUnauthorized",
      "type": "error"
    },
    {
      "inputs": [],
      "name": "OwnableUnauthorized",
      "type": "error"
    },
    {
      "inputs": [
        {
          "internalType": "uint256",
          "name": "max",
          "type": "uint256"
        },
        {
          "internalType": "uint256",
          "name": "actual",
          "type": "uint256"
        }
      ],
      "name": "RoyaltyExceededMaxFeeBps",
      "type": "error"
    },
    {
      "inputs": [
        {
          "internalType": "address",
          "name": "recipient",
          "type": "address"
        }
      ],
      "name": "RoyaltyInvalidRecipient",
      "type": "error"
    },
    {
      "inputs": [],
      "name": "RoyaltyUnauthorized",
      "type": "error"
    },
    {
      "anonymous": false,
      "inputs": [
        {
          "indexed": true,
          "internalType": "address",
          "name": "_owner",
          "type": "address"
        },
        {
          "indexed": true,
          "internalType": "address",
          "name": "_operator",
          "type": "address"
        },
        {
          "indexed": false,
          "internalType": "bool",
          "name": "_approved",
          "type": "bool"
        }
      ],
      "name": "ApprovalForAll",
      "type": "event"
    },
    {
      "anonymous": false,
      "inputs": [
        {
          "indexed": false,
          "internalType": "uint256",
          "name": "_fromTokenId",
          "type": "uint256"
        },
        {
          "indexed": false,
          "internalType": "uint256",
          "name": "_toTokenId",
          "type": "uint256"
        }
      ],
      "name": "BatchMetadataUpdate",
      "type": "event"
    },
    {
      "anonymous": false,
      "inputs": [
        {
          "indexed": false,
          "internalType": "string",
          "name": "prevURI",
          "type": "string"
        },
        {
          "indexed": false,
          "internalType": "string",
          "name": "newURI",
          "type": "string"
        }
      ],
      "name": "ContractURIUpdated",
      "type": "event"
    },
    {
      "anonymous": false,
      "inputs": [
        {
          "indexed": true,
          "internalType": "address",
          "name": "newRoyaltyRecipient",
          "type": "address"
        },
        {
          "indexed": false,
          "internalType": "uint256",
          "name": "newRoyaltyBps",
          "type": "uint256"
        }
      ],
      "name": "DefaultRoyalty",
      "type": "event"
    },
    {
      "anonymous": false,
      "inputs": [],
      "name": "MetadataFrozen",
      "type": "event"
    },
    {
      "anonymous": false,
      "inputs": [
        {
          "indexed": true,
          "internalType": "address",
          "name": "prevOwner",
          "type": "address"
        },
        {
          "indexed": true,
          "internalType": "address",
          "name": "newOwner",
          "type": "address"
        }
      ],
      "name": "OwnerUpdated",
      "type": "event"
    },
    {
      "anonymous": false,
      "inputs": [
        {
          "indexed": true,
          "internalType": "uint256",
          "name": "tokenId",
          "type": "uint256"
        },
        {
          "indexed": true,
          "internalType": "address",
          "name": "royaltyRecipient",
          "type": "address"
        },
        {
          "indexed": false,
          "internalType": "uint256",
          "name": "royaltyBps",
          "type": "uint256"
        }
      ],
      "name": "RoyaltyForToken",
      "type": "event"
    },
    {
      "anonymous": false,
      "inputs": [
        {
          "indexed": true,
          "internalType": "address",
          "name": "claimer",
          "type": "address"
        },
        {
          "indexed": true,
          "internalType": "address",
          "name": "receiver",
          "type": "address"
        },
        {
          "indexed": true,
          "internalType": "uint256",
          "name": "tokenId",
          "type": "uint256"
        },
        {
          "indexed": false,
          "internalType": "uint256",
          "name": "quantityClaimed",
          "type": "uint256"
        }
      ],
      "name": "TokensClaimed",
      "type": "event"
    },
    {
      "anonymous": false,
      "inputs": [
        {
          "indexed": true,
          "internalType": "uint256",
          "name": "startTokenId",
          "type": "uint256"
        },
        {
          "indexed": false,
          "internalType": "uint256",
          "name": "endTokenId",
          "type": "uint256"
        },
        {
          "indexed": false,
          "internalType": "string",
          "name": "baseURI",
          "type": "string"
        },
        {
          "indexed": false,
          "internalType": "bytes",
          "name": "encryptedBaseURI",
          "type": "bytes"
        }
      ],
      "name": "TokensLazyMinted",
      "type": "event"
    },
    {
      "anonymous": false,
      "inputs": [
        {
          "indexed": true,
          "internalType": "address",
          "name": "_operator",
          "type": "address"
        },
        {
          "indexed": true,
          "internalType": "address",
          "name": "_from",
          "type": "address"
        },
        {
          "indexed": true,
          "internalType": "address",
          "name": "_to",
          "type": "address"
        },
        {
          "indexed": false,
          "internalType": "uint256[]",
          "name": "_ids",
          "type": "uint256[]"
        },
        {
          "indexed": false,
          "internalType": "uint256[]",
          "name": "_values",
          "type": "uint256[]"
        }
      ],
      "name": "TransferBatch",
      "type": "event"
    },
    {
      "anonymous": false,
      "inputs": [
        {
          "indexed": true,
          "internalType": "address",
          "name": "_operator",
          "type": "address"
        },
        {
          "indexed": true,
          "internalType": "address",
          "name": "_from",
          "type": "address"
        },
        {
          "indexed": true,
          "internalType": "address",
          "name": "_to",
          "type": "address"
        },
        {
          "indexed": false,
          "internalType": "uint256",
          "name": "_id",
          "type": "uint256"
        },
        {
          "indexed": false,
          "internalType": "uint256",
          "name": "_value",
          "type": "uint256"
        }
      ],
      "name": "TransferSingle",
      "type": "event"
    },
    {
      "anonymous": false,
      "inputs": [
        {
          "indexed": false,
          "internalType": "string",
          "name": "_value",
          "type": "string"
        },
        {
          "indexed": true,
          "internalType": "uint256",
          "name": "_id",
          "type": "uint256"
        }
      ],
      "name": "URI",
      "type": "event"
    },
    {
      "inputs": [
        {
          "internalType": "address",
          "name": "",
          "type": "address"
        },
        {
          "internalType": "uint256",
          "name": "",
          "type": "uint256"
        }
      ],
      "name": "balanceOf",
      "outputs": [
        {
          "internalType": "uint256",
          "name": "",
          "type": "uint256"
        }
      ],
      "stateMutability": "view",
      "type": "function"
    },
    {
      "inputs": [
        {
          "internalType": "address[]",
          "name": "accounts",
          "type": "address[]"
        },
        {
          "internalType": "uint256[]",
          "name": "ids",
          "type": "uint256[]"
        }
      ],
      "name": "balanceOfBatch",
      "outputs": [
        {
          "internalType": "uint256[]",
          "name": "",
          "type": "uint256[]"
        }
      ],
      "stateMutability": "view",
      "type": "function"
    },
    {
      "inputs": [
        {
          "internalType": "uint256",
          "name": "",
          "type": "uint256"
        }
      ],
      "name": "batchFrozen",
      "outputs": [
        {
          "internalType": "bool",
          "name": "",
          "type": "bool"
        }
      ],
      "stateMutability": "view",
      "type": "function"
    },
    {
      "inputs": [
        {
          "internalType": "address",
          "name": "_owner",
          "type": "address"
        },
        {
          "internalType": "uint256",
          "name": "_tokenId",
          "type": "uint256"
        },
        {
          "internalType": "uint256",
          "name": "_amount",
          "type": "uint256"
        }
      ],
      "name": "burn",
      "outputs": [],
      "stateMutability": "nonpayable",
      "type": "function"
    },
    {
      "inputs": [
        {
          "internalType": "address",
          "name": "_owner",
          "type": "address"
        },
        {
          "internalType": "uint256[]",
          "name": "_tokenIds",
          "type": "uint256[]"
        },
        {
          "internalType": "uint256[]",
          "name": "_amounts",
          "type": "uint256[]"
        }
      ],
      "name": "burnBatch",
      "outputs": [],
      "stateMutability": "nonpayable",
      "type": "function"
    },
    {
      "inputs": [
        {
          "internalType": "address",
          "name": "_receiver",
          "type": "address"
        },
        {
          "internalType": "uint256",
          "name": "_tokenId",
          "type": "uint256"
        },
        {
          "internalType": "uint256",
          "name": "_quantity",
          "type": "uint256"
        }
      ],
      "name": "claim",
      "outputs": [],
      "stateMutability": "payable",
      "type": "function"
    },
    {
      "inputs": [],
      "name": "contractURI",
      "outputs": [
        {
          "internalType": "string",
          "name": "",
          "type": "string"
        }
      ],
      "stateMutability": "view",
      "type": "function"
    },
    {
      "inputs": [],
      "name": "getBaseURICount",
      "outputs": [
        {
          "internalType": "uint256",
          "name": "",
          "type": "uint256"
        }
      ],
      "stateMutability": "view",
      "type": "function"
    },
    {
      "inputs": [
        {
          "internalType": "uint256",
          "name": "_index",
          "type": "uint256"
        }
      ],
      "name": "getBatchIdAtIndex",
      "outputs": [
        {
          "internalType": "uint256",
          "name": "",
          "type": "uint256"
        }
      ],
      "stateMutability": "view",
      "type": "function"
    },
    {
      "inputs": [],
      "name": "getDefaultRoyaltyInfo",
      "outputs": [
        {
          "internalType": "address",
          "name": "",
          "type": "address"
        },
        {
          "internalType": "uint16",
          "name": "",
          "type": "uint16"
        }
      ],
      "stateMutability": "view",
      "type": "function"
    },
    {
      "inputs": [
        {
          "internalType": "uint256",
          "name": "_tokenId",
          "type": "uint256"
        }
      ],
      "name": "getRoyaltyInfoForToken",
      "outputs": [
        {
          "internalType": "address",
          "name": "",
          "type": "address"
        },
        {
          "internalType": "uint16",
          "name": "",
          "type": "uint16"
        }
      ],
      "stateMutability": "view",
      "type": "function"
    },
    {
      "inputs": [
        {
          "internalType": "address",
          "name": "",
          "type": "address"
        },
        {
          "internalType": "address",
          "name": "",
          "type": "address"
        }
      ],
      "name": "isApprovedForAll",
      "outputs": [
        {
          "internalType": "bool",
          "name": "",
          "type": "bool"
        }
      ],
      "stateMutability": "view",
      "type": "function"
    },
    {
      "inputs": [
        {
          "internalType": "uint256",
          "name": "_amount",
          "type": "uint256"
        },
        {
          "internalType": "string",
          "name": "_baseURIForTokens",
          "type": "string"
        },
        {
          "internalType": "bytes",
          "name": "_data",
          "type": "bytes"
        }
      ],
      "name": "lazyMint",
      "outputs": [
        {
          "internalType": "uint256",
          "name": "batchId",
          "type": "uint256"
        }
      ],
      "stateMutability": "nonpayable",
      "type": "function"
    },
    {
      "inputs": [
        {
          "internalType": "bytes[]",
          "name": "data",
          "type": "bytes[]"
        }
      ],
      "name": "multicall",
      "outputs": [
        {
          "internalType": "bytes[]",
          "name": "results",
          "type": "bytes[]"
        }
      ],
      "stateMutability": "nonpayable",
      "type": "function"
    },
    {
      "inputs": [],
      "name": "name",
      "outputs": [
        {
          "internalType": "string",
          "name": "",
          "type": "string"
        }
      ],
      "stateMutability": "view",
      "type": "function"
    },
    {
      "inputs": [],
      "name": "nextTokenIdToMint",
      "outputs": [
        {
          "internalType": "uint256",
          "name": "",
          "type": "uint256"
        }
      ],
      "stateMutability": "view",
      "type": "function"
    },
    {
      "inputs": [],
      "name": "owner",
      "outputs": [
        {
          "internalType": "address",
          "name": "",
          "type": "address"
        }
      ],
      "stateMutability": "view",
      "type": "function"
    },
    {
      "inputs": [
        {
          "internalType": "uint256",
          "name": "tokenId",
          "type": "uint256"
        },
        {
          "internalType": "uint256",
          "name": "salePrice",
          "type": "uint256"
        }
      ],
      "name": "royaltyInfo",
      "outputs": [
        {
          "internalType": "address",
          "name": "receiver",
          "type": "address"
        },
        {
          "internalType": "uint256",
          "name": "royaltyAmount",
          "type": "uint256"
        }
      ],
      "stateMutability": "view",
      "type": "function"
    },
    {
      "inputs": [
        {
          "internalType": "address",
          "name": "from",
          "type": "address"
        },
        {
          "internalType": "address",
          "name": "to",
          "type": "address"
        },
        {
          "internalType": "uint256[]",
          "name": "ids",
          "type": "uint256[]"
        },
        {
          "internalType": "uint256[]",
          "name": "amounts",
          "type": "uint256[]"
        },
        {
          "internalType": "bytes",
          "name": "data",
          "type": "bytes"
        }
      ],
      "name": "safeBatchTransferFrom",
      "outputs": [],
      "stateMutability": "nonpayable",
      "type": "function"
    },
    {
      "inputs": [
        {
          "internalType": "address",
          "name": "from",
          "type": "address"
        },
        {
          "internalType": "address",
          "name": "to",
          "type": "address"
        },
        {
          "internalType": "uint256",
          "name": "id",
          "type": "uint256"
        },
        {
          "internalType": "uint256",
          "name": "amount",
          "type": "uint256"
        },
        {
          "internalType": "bytes",
          "name": "data",
          "type": "bytes"
        }
      ],
      "name": "safeTransferFrom",
      "outputs": [],
      "stateMutability": "nonpayable",
      "type": "function"
    },
    {
      "inputs": [
        {
          "internalType": "address",
          "name": "operator",
          "type": "address"
        },
        {
          "internalType": "bool",
          "name": "approved",
          "type": "bool"
        }
      ],
      "name": "setApprovalForAll",
      "outputs": [],
      "stateMutability": "nonpayable",
      "type": "function"
    },
    {
      "inputs": [
        {
          "internalType": "string",
          "name": "_uri",
          "type": "string"
        }
      ],
      "name": "setContractURI",
      "outputs": [],
      "stateMutability": "nonpayable",
      "type": "function"
    },
    {
      "inputs": [
        {
          "internalType": "address",
          "name": "_royaltyRecipient",
          "type": "address"
        },
        {
          "internalType": "uint256",
          "name": "_royaltyBps",
          "type": "uint256"
        }
      ],
      "name": "setDefaultRoyaltyInfo",
      "outputs": [],
      "stateMutability": "nonpayable",
      "type": "function"
    },
    {
      "inputs": [
        {
          "internalType": "address",
          "name": "_newOwner",
          "type": "address"
        }
      ],
      "name": "setOwner",
      "outputs": [],
      "stateMutability": "nonpayable",
      "type": "function"
    },
    {
      "inputs": [
        {
          "internalType": "uint256",
          "name": "_tokenId",
          "type": "uint256"
        },
        {
          "internalType": "address",
          "name": "_recipient",
          "type": "address"
        },
        {
          "internalType": "uint256",
          "name": "_bps",
          "type": "uint256"
        }
      ],
      "name": "setRoyaltyInfoForToken",
      "outputs": [],
      "stateMutability": "nonpayable",
      "type": "function"
    },
    {
      "inputs": [
        {
          "internalType": "bytes4",
          "name": "interfaceId",
          "type": "bytes4"
        }
      ],
      "name": "supportsInterface",
      "outputs": [
        {
          "internalType": "bool",
          "name": "",
          "type": "bool"
        }
      ],
      "stateMutability": "view",
      "type": "function"
    },
    {
      "inputs": [],
      "name": "symbol",
      "outputs": [
        {
          "internalType": "string",
          "name": "",
          "type": "string"
        }
      ],
      "stateMutability": "view",
      "type": "function"
    },
    {
      "inputs": [
        {
          "internalType": "uint256",
          "name": "",
          "type": "uint256"
        }
      ],
      "name": "totalSupply",
      "outputs": [
        {
          "internalType": "uint256",
          "name": "",
          "type": "uint256"
        }
      ],
      "stateMutability": "view",
      "type": "function"
    },
    {
      "inputs": [
        {
          "internalType": "uint256",
          "name": "_tokenId",
          "type": "uint256"
        }
      ],
      "name": "uri",
      "outputs": [
        {
          "internalType": "string",
          "name": "",
          "type": "string"
        }
      ],
      "stateMutability": "view",
      "type": "function"
    },
    {
      "inputs": [
        {
          "internalType": "address",
          "name": "_claimer",
          "type": "address"
        },
        {
          "internalType": "uint256",
          "name": "_tokenId",
          "type": "uint256"
        },
        {
          "internalType": "uint256",
          "name": "_quantity",
          "type": "uint256"
        }
      ],
      "name": "verifyClaim",
      "outputs": [],
      "stateMutability": "view",
      "type": "function"
    }
  ],
  "devdoc": {
    "errors": {
      "BatchMintInvalidBatchId(uint256)": [
        {
          "details": "Invalid index for batch"
        }
      ],
      "BatchMintInvalidTokenId(uint256)": [
        {
          "details": "Invalid token"
        }
      ],
      "BatchMintMetadataFrozen(uint256)": [
        {
          "details": "Metadata frozen"
        }
      ],
      "ContractMetadataUnauthorized()": [
        {
          "details": "The sender is not authorized to perform the action"
        }
      ],
      "LazyMintUnauthorized()": [
        {
          "details": "The sender is not authorized to perform the action"
        }
      ],
      "OwnableUnauthorized()": [
        {
          "details": "The sender is not authorized to perform the action"
        }
      ],
      "RoyaltyExceededMaxFeeBps(uint256,uint256)": [
        {
          "details": "The fee bps exceeded the max value"
        }
      ],
      "RoyaltyInvalidRecipient(address)": [
        {
          "details": "The recipient is invalid"
        }
      ],
      "RoyaltyUnauthorized()": [
        {
          "details": "The sender is not authorized to perform the action"
        }
      ]
    },
    "events": {
      "ApprovalForAll(address,address,bool)": {
        "details": "MUST emit when approval for a second party/operator address to manage all tokens for an owner address is enabled or disabled (absense of an event assumes disabled)."
      },
      "ContractURIUpdated(string,string)": {
        "details": "Emitted when the contract URI is updated."
      },
      "DefaultRoyalty(address,uint256)": {
        "details": "Emitted when royalty info is updated."
      },
      "MetadataFrozen()": {
        "details": "This event emits when the metadata of all tokens are frozen. While not currently supported by marketplaces, this event allows future indexing if desired."
      },
      "OwnerUpdated(address,address)": {
        "details": "Emitted when a new Owner is set."
      },
      "RoyaltyForToken(uint256,address,uint256)": {
        "details": "Emitted when royalty recipient for tokenId is set"
      },
      "TokensClaimed(address,address,uint256,uint256)": {
        "details": "Emitted when tokens are claimed"
      },
      "TokensLazyMinted(uint256,uint256,string,bytes)": {
        "details": "Emitted when tokens are lazy minted."
      },
      "TransferBatch(address,address,address,uint256[],uint256[])": {
        "details": "Either `TransferSingle` or `TransferBatch` MUST emit when tokens are transferred, including zero value transfers as well as minting or burning (see \"Safe Transfer Rules\" section of the standard). The `_operator` argument MUST be msg.sender. The `_from` argument MUST be the address of the holder whose balance is decreased. The `_to` argument MUST be the address of the recipient whose balance is increased. The `_ids` argument MUST be the list of tokens being transferred. The `_values` argument MUST be the list of number of tokens (matching the list and order of tokens specified in _ids) the holder balance is decreased by and match what the recipient balance is increased by. When minting/creating tokens, the `_from` argument MUST be set to `0x0` (i.e. zero address). When burning/destroying tokens, the `_to` argument MUST be set to `0x0` (i.e. zero address)."
      },
      "TransferSingle(address,address,address,uint256,uint256)": {
        "details": "Either `TransferSingle` or `TransferBatch` MUST emit when tokens are transferred, including zero value transfers as well as minting or burning (see \"Safe Transfer Rules\" section of the standard). The `_operator` argument MUST be msg.sender. The `_from` argument MUST be the address of the holder whose balance is decreased. The `_to` argument MUST be the address of the recipient whose balance is increased. The `_id` argument MUST be the token type being transferred. The `_value` argument MUST be the number of tokens the holder balance is decreased by and match what the recipient balance is increased by. When minting/creating tokens, the `_from` argument MUST be set to `0x0` (i.e. zero address). When burning/destroying tokens, the `_to` argument MUST be set to `0x0` (i.e. zero address)."
      },
      "URI(string,uint256)": {
        "details": "MUST emit when the URI is updated for a token ID. URIs are defined in RFC 3986. The URI MUST point a JSON file that conforms to the \"ERC-1155 Metadata URI JSON Schema\"."
      }
    },
    "kind": "dev",
    "methods": {
      "burn(address,uint256,uint256)": {
        "params": {
          "_amount": "The amount of the NFT to burn.",
          "_owner": "The owner of the NFT to burn.",
          "_tokenId": "The tokenId of the NFT to burn."
        }
      },
      "burnBatch(address,uint256[],uint256[])": {
        "params": {
          "_amounts": "The amounts of the NFTs to burn.",
          "_owner": "The owner of the NFTs to burn.",
          "_tokenIds": "The tokenIds of the NFTs to burn."
        }
      },
      "claim(address,uint256,uint256)": {
        "details": "The logic in `verifyClaim` determines whether the caller is authorized to mint NFTs.                   The logic in `transferTokensOnClaim` does actual minting of tokens,                   can also be used to apply other state changes.",
        "params": {
          "_quantity": "The number of tokens to mint.",
          "_receiver": "The recipient of the tokens to mint.",
          "_tokenId": "The tokenId of the lazy minted NFT to mint."
        }
      },
      "getBaseURICount()": {
        "details": "Each batch of tokens has an in ID and an associated `baseURI`.                  See {batchIds}."
      },
      "getBatchIdAtIndex(uint256)": {
        "details": "See {getBaseURICount}.",
        "params": {
          "_index": "Index of the desired batch in batchIds array."
        }
      },
      "getRoyaltyInfoForToken(uint256)": {
        "details": "Returns royalty recipient and bps for `_tokenId`.",
        "params": {
          "_tokenId": "The tokenID of the NFT for which to query royalty info."
        }
      },
      "lazyMint(uint256,string,bytes)": {
        "params": {
          "_amount": "The number of NFTs to lazy mint.",
          "_baseURIForTokens": "The base URI for the 'n' number of NFTs being lazy minted, where the metadata for each                           of those NFTs is `${baseURIForTokens}/${tokenId}`.",
          "_data": "Additional bytes data to be used at the discretion of the consumer of the contract."
        },
        "returns": {
          "batchId": "         A unique integer identifier for the batch of NFTs lazy minted together."
        }
      },
      "multicall(bytes[])": {
        "details": "Receives and executes a batch of function calls on this contract.",
        "params": {
          "data": "The bytes data that makes up the batch of function calls to execute."
        },
        "returns": {
          "results": "The bytes data that makes up the result of the batch of function calls executed."
        }
      },
      "royaltyInfo(uint256,uint256)": {
        "details": "Returns royalty amount and recipient for `tokenId` and `salePrice`.",
        "params": {
          "salePrice": "Sale price of the token.",
          "tokenId": "The tokenID of the NFT for which to query royalty info."
        },
        "returns": {
          "receiver": "       Address of royalty recipient account.",
          "royaltyAmount": "  Royalty amount calculated at current royaltyBps value."
        }
      },
      "setContractURI(string)": {
        "details": "Caller should be authorized to setup contractURI, e.g. contract admin.                  See {_canSetContractURI}.                  Emits {ContractURIUpdated Event}.",
        "params": {
          "_uri": "keccak256 hash of the role. e.g. keccak256(\"TRANSFER_ROLE\")"
        }
      },
      "setDefaultRoyaltyInfo(address,uint256)": {
        "details": "Caller should be authorized to set royalty info.                  See {_canSetRoyaltyInfo}.                  Emits {DefaultRoyalty Event}; See {_setupDefaultRoyaltyInfo}.",
        "params": {
          "_royaltyBps": "Updated royalty bps.",
          "_royaltyRecipient": "Address to be set as default royalty recipient."
        }
      },
      "setOwner(address)": {
        "params": {
          "_newOwner": "The address to set as the new owner of the contract."
        }
      },
      "setRoyaltyInfoForToken(uint256,address,uint256)": {
        "details": "Sets royalty info for `_tokenId`. Caller should be authorized to set royalty info.                  See {_canSetRoyaltyInfo}.                  Emits {RoyaltyForToken Event}; See {_setupRoyaltyInfoForToken}.",
        "params": {
          "_bps": "Updated royalty bps for the token Id.",
          "_recipient": "Address to be set as royalty recipient for given token Id."
        }
      },
      "supportsInterface(bytes4)": {
        "details": "See ERC165: https://eips.ethereum.org/EIPS/eip-165"
      },
      "uri(uint256)": {
        "params": {
          "_tokenId": "The tokenId of the NFT."
        },
        "returns": {
          "_0": "The metadata URI for the given tokenId."
        }
      },
      "verifyClaim(address,uint256,uint256)": {
        "details": "Checks a request to claim NFTs against a custom condition.",
        "params": {
          "_claimer": "Caller of the claim function.",
          "_quantity": "The number of NFTs being claimed.",
          "_tokenId": "The tokenId of the lazy minted NFT to mint."
        }
      }
    },
    "version": 1
  },
  "evm": {
    "assembly": "    /* \"PublicEditionDrop.sol\":129:639  contract PublicEditionDrop is ERC1155LazyMint {... */\n  mstore(0x40, 0x80)\n    /* \"PublicEditionDrop.sol\":182:494  constructor(... */\n  callvalue\n  dup1\n  iszero\n  tag_1\n  jumpi\n  0x00\n  dup1\n  revert\ntag_1:\n  pop\n  mload(0x40)\n  sub(codesize, bytecodeSize)\n  dup1\n  bytecodeSize\n  dup4\n  codecopy\n  dup2\n  add\n  0x40\n  dup2\n  swap1\n  mstore\n  tag_2\n  swap2\n  tag_3\n  jump\t// in\ntag_2:\n    /* \"PublicEditionDrop.sol\":387:400  _defaultAdmin */\n  dup5\n    /* \"PublicEditionDrop.sol\":411:416  _name */\n  dup5\n    /* \"PublicEditionDrop.sol\":427:434  _symbol */\n  dup5\n    /* \"PublicEditionDrop.sol\":445:462  _royaltyRecipient */\n  dup5\n    /* \"PublicEditionDrop.sol\":473:484  _royaltyBps */\n  dup5\n    /* \"PublicEditionDrop.sol\":411:416  _name */\n  dup4\n    /* \"PublicEditionDrop.sol\":427:434  _symbol */\n  dup4\n    /* \"@thirdweb-dev/contracts/eip/ERC1155.sol\":1083:1087   */\n  0x00\n    /* \"@thirdweb-dev/contracts/eip/ERC1155.sol\":1083:1095   */\n  tag_9\n    /* \"PublicEditionDrop.sol\":411:416  _name */\n  dup4\n    /* \"@thirdweb-dev/contracts/eip/ERC1155.sol\":1083:1087   */\n  dup3\n    /* \"@thirdweb-dev/contracts/eip/ERC1155.sol\":1083:1095   */\n  tag_10\n  jump\t// in\ntag_9:\n  pop\n    /* \"@thirdweb-dev/contracts/eip/ERC1155.sol\":1105:1111   */\n  0x01\n    /* \"@thirdweb-dev/contracts/eip/ERC1155.sol\":1105:1121   */\n  tag_11\n    /* \"@thirdweb-dev/contracts/eip/ERC1155.sol\":1114:1121   */\n  dup3\n    /* \"@thirdweb-dev/contracts/eip/ERC1155.sol\":1105:1111   */\n  dup3\n    /* \"@thirdweb-dev/contracts/eip/ERC1155.sol\":1105:1121   */\n  tag_10\n  jump\t// in\ntag_11:\n  pop\n  pop\n    /* \"@thirdweb-dev/contracts/external-deps/openzeppelin/security/ReentrancyGuard.sol\":202:203   */\n  0x01\n    /* \"@thirdweb-dev/contracts/external-deps/openzeppelin/security/ReentrancyGuard.sol\":307:314   */\n  0x0d\n    /* \"@thirdweb-dev/contracts/external-deps/openzeppelin/security/ReentrancyGuard.sol\":307:329   */\n  sstore\n  pop\n    /* \"@thirdweb-dev/contracts/base/ERC1155LazyMint.sol\":3154:3180   */\n  tag_14\n    /* \"@thirdweb-dev/contracts/base/ERC1155LazyMint.sol\":3166:3179   */\n  dup6\n    /* \"@thirdweb-dev/contracts/base/ERC1155LazyMint.sol\":3154:3165   */\n  tag_15\n    /* \"@thirdweb-dev/contracts/base/ERC1155LazyMint.sol\":3154:3180   */\n  jump\t// in\ntag_14:\n    /* \"@thirdweb-dev/contracts/base/ERC1155LazyMint.sol\":3190:3246   */\n  tag_16\n    /* \"@thirdweb-dev/contracts/base/ERC1155LazyMint.sol\":3215:3232   */\n  dup3\n  sub(shl(0x80, 0x01), 0x01)\n    /* \"@thirdweb-dev/contracts/base/ERC1155LazyMint.sol\":3190:3246   */\n  dup4\n  and\n    /* \"@thirdweb-dev/contracts/base/ERC1155LazyMint.sol\":3190:3214   */\n  tag_17\n    /* \"@thirdweb-dev/contracts/base/ERC1155LazyMint.sol\":3190:3246   */\n  jump\t// in\ntag_16:\n    /* \"@thirdweb-dev/contracts/base/ERC1155LazyMint.sol\":2947:3253   */\n  pop\n  pop\n  pop\n  pop\n  pop\n    /* \"PublicEditionDrop.sol\":182:494  constructor(... */\n  pop\n  pop\n  pop\n  pop\n  pop\n    /* \"PublicEditionDrop.sol\":129:639  contract PublicEditionDrop is ERC1155LazyMint {... */\n  jump(tag_34)\n    /* \"@thirdweb-dev/contracts/extension/Ownable.sol\":1527:1699   */\ntag_15:\n    /* \"@thirdweb-dev/contracts/extension/Ownable.sol\":1607:1613   */\n  0x06\n  dup1\n  sload\n  sub(shl(0xa0, 0x01), 0x01)\n    /* \"@thirdweb-dev/contracts/extension/Ownable.sol\":1623:1641   */\n  dup4\n  dup2\n  and\n  not(sub(shl(0xa0, 0x01), 0x01))\n  dup4\n  and\n  dup2\n  or\n  swap1\n  swap4\n  sstore\n    /* \"@thirdweb-dev/contracts/extension/Ownable.sol\":1657:1692   */\n  mload(0x40)\n    /* \"@thirdweb-dev/contracts/extension/Ownable.sol\":1607:1613   */\n  swap2\n  and\n  swap2\n    /* \"@thirdweb-dev/contracts/extension/Ownable.sol\":1623:1641   */\n  swap1\n    /* \"@thirdweb-dev/contracts/extension/Ownable.sol\":1607:1613   */\n  dup3\n  swap1\n    /* \"@thirdweb-dev/contracts/extension/Ownable.sol\":1657:1692   */\n  0x8292fce18fa69edf4db7b94ea2e58241df0ae57f97e0a6c9b29067028bf92d76\n  swap1\n    /* \"@thirdweb-dev/contracts/extension/Ownable.sol\":1586:1604   */\n  0x00\n  swap1\n    /* \"@thirdweb-dev/contracts/extension/Ownable.sol\":1657:1692   */\n  log3\n    /* \"@thirdweb-dev/contracts/extension/Ownable.sol\":1576:1699   */\n  pop\n    /* \"@thirdweb-dev/contracts/extension/Ownable.sol\":1527:1699   */\n  pop\n  jump\t// out\n    /* \"@thirdweb-dev/contracts/extension/Royalty.sol\":3717:4078   */\ntag_17:\n    /* \"@thirdweb-dev/contracts/extension/Royalty.sol\":3836:3842   */\n  0x2710\n    /* \"@thirdweb-dev/contracts/extension/Royalty.sol\":3822:3833   */\n  dup2\n    /* \"@thirdweb-dev/contracts/extension/Royalty.sol\":3822:3842   */\n  gt\n    /* \"@thirdweb-dev/contracts/extension/Royalty.sol\":3818:3921   */\n  iszero\n  tag_22\n  jumpi\n    /* \"@thirdweb-dev/contracts/extension/Royalty.sol\":3865:3910   */\n  mload(0x40)\n  shl(0xe3, 0x0a4930ad)\n  dup2\n  mstore\n    /* \"@thirdweb-dev/contracts/extension/Royalty.sol\":3890:3896   */\n  0x2710\n    /* \"@thirdweb-dev/contracts/extension/Royalty.sol\":3865:3910   */\n  0x04\n  dup3\n  add\n    /* \"#utility.yul\":4696:4721   */\n  mstore\n    /* \"#utility.yul\":4737:4755   */\n  0x24\n  dup2\n  add\n    /* \"#utility.yul\":4730:4764   */\n  dup3\n  swap1\n  mstore\n    /* \"#utility.yul\":4669:4687   */\n  0x44\n  add\n    /* \"@thirdweb-dev/contracts/extension/Royalty.sol\":3865:3910   */\n  mload(0x40)\n  dup1\n  swap2\n  sub\n  swap1\n  revert\n    /* \"@thirdweb-dev/contracts/extension/Royalty.sol\":3818:3921   */\ntag_22:\n    /* \"@thirdweb-dev/contracts/extension/Royalty.sol\":3931:3947   */\n  0x07\n    /* \"@thirdweb-dev/contracts/extension/Royalty.sol\":3931:3967   */\n  dup1\n  sload\n  sub(shl(0xa0, 0x01), 0x01)\n  dup5\n  and\n  not(sub(shl(0xb0, 0x01), 0x01))\n    /* \"@thirdweb-dev/contracts/extension/Royalty.sol\":3977:4009   */\n  swap1\n  swap2\n  and\n  dup2\n  or\n  shl(0xa0, 0x01)\n  0xffff\n  dup6\n  and\n  mul\n  or\n  swap1\n  swap2\n  sstore\n    /* \"@thirdweb-dev/contracts/extension/Royalty.sol\":4025:4071   */\n  mload(0x40)\n    /* \"#utility.yul\":4921:4946   */\n  dup3\n  dup2\n  mstore\n    /* \"@thirdweb-dev/contracts/extension/Royalty.sol\":4025:4071   */\n  0x90d7ec04bcb8978719414f82e52e4cb651db41d0e6f8cea6118c2191e6183adb\n  swap1\n    /* \"#utility.yul\":4909:4911   */\n  0x20\n    /* \"#utility.yul\":4894:4912   */\n  add\n    /* \"@thirdweb-dev/contracts/extension/Royalty.sol\":4025:4071   */\n  mload(0x40)\n  dup1\n  swap2\n  sub\n  swap1\n  log2\n    /* \"@thirdweb-dev/contracts/extension/Royalty.sol\":3717:4078   */\n  pop\n  pop\n  jump\t// out\n    /* \"#utility.yul\":14:191   */\ntag_27:\n    /* \"#utility.yul\":93:106   */\n  dup1\n  mload\n  sub(shl(0xa0, 0x01), 0x01)\n    /* \"#utility.yul\":135:166   */\n  dup2\n  and\n    /* \"#utility.yul\":125:167   */\n  dup2\n  eq\n    /* \"#utility.yul\":115:185   */\n  tag_36\n  jumpi\n    /* \"#utility.yul\":181:182   */\n  0x00\n    /* \"#utility.yul\":178:179   */\n  dup1\n    /* \"#utility.yul\":171:183   */\n  revert\n    /* \"#utility.yul\":115:185   */\ntag_36:\n    /* \"#utility.yul\":14:191   */\n  swap2\n  swap1\n  pop\n  jump\t// out\n    /* \"#utility.yul\":196:323   */\ntag_28:\n    /* \"#utility.yul\":257:267   */\n  0x4e487b71\n    /* \"#utility.yul\":252:255   */\n  0xe0\n    /* \"#utility.yul\":248:268   */\n  shl\n    /* \"#utility.yul\":245:246   */\n  0x00\n    /* \"#utility.yul\":238:269   */\n  mstore\n    /* \"#utility.yul\":288:292   */\n  0x41\n    /* \"#utility.yul\":285:286   */\n  0x04\n    /* \"#utility.yul\":278:293   */\n  mstore\n    /* \"#utility.yul\":312:316   */\n  0x24\n    /* \"#utility.yul\":309:310   */\n  0x00\n    /* \"#utility.yul\":302:317   */\n  revert\n    /* \"#utility.yul\":328:1044   */\ntag_29:\n    /* \"#utility.yul\":382:387   */\n  0x00\n    /* \"#utility.yul\":435:438   */\n  dup3\n    /* \"#utility.yul\":428:432   */\n  0x1f\n    /* \"#utility.yul\":420:426   */\n  dup4\n    /* \"#utility.yul\":416:433   */\n  add\n    /* \"#utility.yul\":412:439   */\n  slt\n    /* \"#utility.yul\":402:457   */\n  tag_39\n  jumpi\n    /* \"#utility.yul\":453:454   */\n  0x00\n    /* \"#utility.yul\":450:451   */\n  dup1\n    /* \"#utility.yul\":443:455   */\n  revert\n    /* \"#utility.yul\":402:457   */\ntag_39:\n    /* \"#utility.yul\":476:489   */\n  dup2\n  mload\n  sub(shl(0x40, 0x01), 0x01)\n    /* \"#utility.yul\":538:548   */\n  dup1\n  dup3\n  gt\n    /* \"#utility.yul\":535:571   */\n  iszero\n  tag_41\n  jumpi\n    /* \"#utility.yul\":551:569   */\n  tag_41\n  tag_28\n  jump\t// in\ntag_41:\n    /* \"#utility.yul\":626:628   */\n  0x40\n    /* \"#utility.yul\":620:629   */\n  mload\n    /* \"#utility.yul\":594:596   */\n  0x1f\n    /* \"#utility.yul\":680:693   */\n  dup4\n  add\n  not(0x1f)\n    /* \"#utility.yul\":676:698   */\n  swap1\n  dup2\n  and\n    /* \"#utility.yul\":700:702   */\n  0x3f\n    /* \"#utility.yul\":672:703   */\n  add\n    /* \"#utility.yul\":668:708   */\n  and\n    /* \"#utility.yul\":656:709   */\n  dup2\n  add\n  swap1\n    /* \"#utility.yul\":724:742   */\n  dup3\n  dup3\n  gt\n    /* \"#utility.yul\":744:766   */\n  dup2\n  dup4\n  lt\n    /* \"#utility.yul\":721:767   */\n  or\n    /* \"#utility.yul\":718:790   */\n  iszero\n  tag_43\n  jumpi\n    /* \"#utility.yul\":770:788   */\n  tag_43\n  tag_28\n  jump\t// in\ntag_43:\n    /* \"#utility.yul\":810:820   */\n  dup2\n    /* \"#utility.yul\":806:808   */\n  0x40\n    /* \"#utility.yul\":799:821   */\n  mstore\n    /* \"#utility.yul\":845:847   */\n  dup4\n    /* \"#utility.yul\":837:843   */\n  dup2\n    /* \"#utility.yul\":830:848   */\n  mstore\n    /* \"#utility.yul\":891:894   */\n  dup7\n    /* \"#utility.yul\":884:888   */\n  0x20\n    /* \"#utility.yul\":879:881   */\n  dup6\n    /* \"#utility.yul\":871:877   */\n  dup9\n    /* \"#utility.yul\":867:882   */\n  add\n    /* \"#utility.yul\":863:889   */\n  add\n    /* \"#utility.yul\":860:895   */\n  gt\n    /* \"#utility.yul\":857:912   */\n  iszero\n  tag_44\n  jumpi\n    /* \"#utility.yul\":908:909   */\n  0x00\n    /* \"#utility.yul\":905:906   */\n  dup1\n    /* \"#utility.yul\":898:910   */\n  revert\n    /* \"#utility.yul\":857:912   */\ntag_44:\n    /* \"#utility.yul\":965:967   */\n  dup4\n    /* \"#utility.yul\":958:962   */\n  0x20\n    /* \"#utility.yul\":950:956   */\n  dup8\n    /* \"#utility.yul\":946:963   */\n  add\n    /* \"#utility.yul\":939:943   */\n  0x20\n    /* \"#utility.yul\":931:937   */\n  dup4\n    /* \"#utility.yul\":927:944   */\n  add\n    /* \"#utility.yul\":921:968   */\n  mcopy\n    /* \"#utility.yul\":1012:1013   */\n  0x00\n    /* \"#utility.yul\":1005:1009   */\n  0x20\n    /* \"#utility.yul\":1000:1002   */\n  dup6\n    /* \"#utility.yul\":992:998   */\n  dup4\n    /* \"#utility.yul\":988:1003   */\n  add\n    /* \"#utility.yul\":984:1010   */\n  add\n    /* \"#utility.yul\":977:1014   */\n  mstore\n    /* \"#utility.yul\":1032:1038   */\n  dup1\n    /* \"#utility.yul\":1023:1038   */\n  swap5\n  pop\n  pop\n  pop\n  pop\n  pop\n    /* \"#utility.yul\":328:1044   */\n  swap3\n  swap2\n  pop\n  pop\n  jump\t// out\n    /* \"#utility.yul\":1049:1950   */\ntag_3:\n    /* \"#utility.yul\":1175:1181   */\n  0x00\n    /* \"#utility.yul\":1183:1189   */\n  dup1\n    /* \"#utility.yul\":1191:1197   */\n  0x00\n    /* \"#utility.yul\":1199:1205   */\n  dup1\n    /* \"#utility.yul\":1207:1213   */\n  0x00\n    /* \"#utility.yul\":1260:1263   */\n  0xa0\n    /* \"#utility.yul\":1248:1257   */\n  dup7\n    /* \"#utility.yul\":1239:1246   */\n  dup9\n    /* \"#utility.yul\":1235:1258   */\n  sub\n    /* \"#utility.yul\":1231:1264   */\n  slt\n    /* \"#utility.yul\":1228:1281   */\n  iszero\n  tag_46\n  jumpi\n    /* \"#utility.yul\":1277:1278   */\n  0x00\n    /* \"#utility.yul\":1274:1275   */\n  dup1\n    /* \"#utility.yul\":1267:1279   */\n  revert\n    /* \"#utility.yul\":1228:1281   */\ntag_46:\n    /* \"#utility.yul\":1300:1340   */\n  tag_47\n    /* \"#utility.yul\":1330:1339   */\n  dup7\n    /* \"#utility.yul\":1300:1340   */\n  tag_27\n  jump\t// in\ntag_47:\n    /* \"#utility.yul\":1384:1386   */\n  0x20\n    /* \"#utility.yul\":1369:1387   */\n  dup8\n  add\n    /* \"#utility.yul\":1363:1388   */\n  mload\n    /* \"#utility.yul\":1290:1340   */\n  swap1\n  swap6\n  pop\n  sub(shl(0x40, 0x01), 0x01)\n    /* \"#utility.yul\":1437:1451   */\n  dup1\n  dup3\n  gt\n    /* \"#utility.yul\":1434:1468   */\n  iszero\n  tag_48\n  jumpi\n    /* \"#utility.yul\":1464:1465   */\n  0x00\n    /* \"#utility.yul\":1461:1462   */\n  dup1\n    /* \"#utility.yul\":1454:1466   */\n  revert\n    /* \"#utility.yul\":1434:1468   */\ntag_48:\n    /* \"#utility.yul\":1487:1548   */\n  tag_49\n    /* \"#utility.yul\":1540:1547   */\n  dup10\n    /* \"#utility.yul\":1531:1537   */\n  dup4\n    /* \"#utility.yul\":1520:1529   */\n  dup11\n    /* \"#utility.yul\":1516:1538   */\n  add\n    /* \"#utility.yul\":1487:1548   */\n  tag_29\n  jump\t// in\ntag_49:\n    /* \"#utility.yul\":1477:1548   */\n  swap6\n  pop\n    /* \"#utility.yul\":1594:1596   */\n  0x40\n    /* \"#utility.yul\":1583:1592   */\n  dup9\n    /* \"#utility.yul\":1579:1597   */\n  add\n    /* \"#utility.yul\":1573:1598   */\n  mload\n    /* \"#utility.yul\":1557:1598   */\n  swap2\n  pop\n    /* \"#utility.yul\":1623:1625   */\n  dup1\n    /* \"#utility.yul\":1613:1621   */\n  dup3\n    /* \"#utility.yul\":1610:1626   */\n  gt\n    /* \"#utility.yul\":1607:1643   */\n  iszero\n  tag_50\n  jumpi\n    /* \"#utility.yul\":1639:1640   */\n  0x00\n    /* \"#utility.yul\":1636:1637   */\n  dup1\n    /* \"#utility.yul\":1629:1641   */\n  revert\n    /* \"#utility.yul\":1607:1643   */\ntag_50:\n  pop\n    /* \"#utility.yul\":1662:1725   */\n  tag_51\n    /* \"#utility.yul\":1717:1724   */\n  dup9\n    /* \"#utility.yul\":1706:1714   */\n  dup3\n    /* \"#utility.yul\":1695:1704   */\n  dup10\n    /* \"#utility.yul\":1691:1715   */\n  add\n    /* \"#utility.yul\":1662:1725   */\n  tag_29\n  jump\t// in\ntag_51:\n    /* \"#utility.yul\":1652:1725   */\n  swap4\n  pop\n  pop\n    /* \"#utility.yul\":1744:1793   */\n  tag_52\n    /* \"#utility.yul\":1789:1791   */\n  0x60\n    /* \"#utility.yul\":1778:1787   */\n  dup8\n    /* \"#utility.yul\":1774:1792   */\n  add\n    /* \"#utility.yul\":1744:1793   */\n  tag_27\n  jump\t// in\ntag_52:\n    /* \"#utility.yul\":1836:1839   */\n  0x80\n    /* \"#utility.yul\":1821:1840   */\n  dup8\n  add\n    /* \"#utility.yul\":1815:1841   */\n  mload\n    /* \"#utility.yul\":1734:1793   */\n  swap1\n  swap3\n  pop\n  sub(shl(0x80, 0x01), 0x01)\n    /* \"#utility.yul\":1870:1901   */\n  dup2\n  and\n    /* \"#utility.yul\":1860:1902   */\n  dup2\n  eq\n    /* \"#utility.yul\":1850:1920   */\n  tag_53\n  jumpi\n    /* \"#utility.yul\":1916:1917   */\n  0x00\n    /* \"#utility.yul\":1913:1914   */\n  dup1\n    /* \"#utility.yul\":1906:1918   */\n  revert\n    /* \"#utility.yul\":1850:1920   */\ntag_53:\n    /* \"#utility.yul\":1939:1944   */\n  dup1\n    /* \"#utility.yul\":1929:1944   */\n  swap2\n  pop\n  pop\n    /* \"#utility.yul\":1049:1950   */\n  swap3\n  swap6\n  pop\n  swap3\n  swap6\n  swap1\n  swap4\n  pop\n  jump\t// out\n    /* \"#utility.yul\":1955:2335   */\ntag_30:\n    /* \"#utility.yul\":2034:2035   */\n  0x01\n    /* \"#utility.yul\":2030:2042   */\n  dup2\n  dup2\n  shr\n  swap1\n    /* \"#utility.yul\":2077:2089   */\n  dup3\n  and\n  dup1\n    /* \"#utility.yul\":2098:2159   */\n  tag_55\n  jumpi\n    /* \"#utility.yul\":2152:2156   */\n  0x7f\n    /* \"#utility.yul\":2144:2150   */\n  dup3\n    /* \"#utility.yul\":2140:2157   */\n  and\n    /* \"#utility.yul\":2130:2157   */\n  swap2\n  pop\n    /* \"#utility.yul\":2098:2159   */\ntag_55:\n    /* \"#utility.yul\":2205:2207   */\n  0x20\n    /* \"#utility.yul\":2197:2203   */\n  dup3\n    /* \"#utility.yul\":2194:2208   */\n  lt\n    /* \"#utility.yul\":2174:2192   */\n  dup2\n    /* \"#utility.yul\":2171:2209   */\n  sub\n    /* \"#utility.yul\":2168:2329   */\n  tag_56\n  jumpi\n    /* \"#utility.yul\":2251:2261   */\n  0x4e487b71\n    /* \"#utility.yul\":2246:2249   */\n  0xe0\n    /* \"#utility.yul\":2242:2262   */\n  shl\n    /* \"#utility.yul\":2239:2240   */\n  0x00\n    /* \"#utility.yul\":2232:2263   */\n  mstore\n    /* \"#utility.yul\":2286:2290   */\n  0x22\n    /* \"#utility.yul\":2283:2284   */\n  0x04\n    /* \"#utility.yul\":2276:2291   */\n  mstore\n    /* \"#utility.yul\":2314:2318   */\n  0x24\n    /* \"#utility.yul\":2311:2312   */\n  0x00\n    /* \"#utility.yul\":2304:2319   */\n  revert\n    /* \"#utility.yul\":2168:2329   */\ntag_56:\n  pop\n    /* \"#utility.yul\":1955:2335   */\n  swap2\n  swap1\n  pop\n  jump\t// out\n    /* \"#utility.yul\":2466:2984   */\ntag_32:\n    /* \"#utility.yul\":2568:2570   */\n  0x1f\n    /* \"#utility.yul\":2563:2566   */\n  dup3\n    /* \"#utility.yul\":2560:2571   */\n  gt\n    /* \"#utility.yul\":2557:2978   */\n  iszero\n  tag_59\n  jumpi\n    /* \"#utility.yul\":2604:2609   */\n  dup1\n    /* \"#utility.yul\":2601:2602   */\n  0x00\n    /* \"#utility.yul\":2594:2610   */\n  mstore\n    /* \"#utility.yul\":2648:2652   */\n  0x20\n    /* \"#utility.yul\":2645:2646   */\n  0x00\n    /* \"#utility.yul\":2635:2653   */\n  keccak256\n    /* \"#utility.yul\":2718:2720   */\n  0x1f\n    /* \"#utility.yul\":2706:2716   */\n  dup5\n    /* \"#utility.yul\":2702:2721   */\n  add\n    /* \"#utility.yul\":2699:2700   */\n  0x05\n    /* \"#utility.yul\":2695:2722   */\n  shr\n    /* \"#utility.yul\":2689:2693   */\n  dup2\n    /* \"#utility.yul\":2685:2723   */\n  add\n    /* \"#utility.yul\":2754:2758   */\n  0x20\n    /* \"#utility.yul\":2742:2752   */\n  dup6\n    /* \"#utility.yul\":2739:2759   */\n  lt\n    /* \"#utility.yul\":2736:2783   */\n  iszero\n  tag_60\n  jumpi\n  pop\n    /* \"#utility.yul\":2777:2781   */\n  dup1\n    /* \"#utility.yul\":2736:2783   */\ntag_60:\n    /* \"#utility.yul\":2832:2834   */\n  0x1f\n    /* \"#utility.yul\":2827:2830   */\n  dup5\n    /* \"#utility.yul\":2823:2835   */\n  add\n    /* \"#utility.yul\":2820:2821   */\n  0x05\n    /* \"#utility.yul\":2816:2836   */\n  shr\n    /* \"#utility.yul\":2810:2814   */\n  dup3\n    /* \"#utility.yul\":2806:2837   */\n  add\n    /* \"#utility.yul\":2796:2837   */\n  swap2\n  pop\n    /* \"#utility.yul\":2887:2968   */\ntag_61:\n    /* \"#utility.yul\":2905:2907   */\n  dup2\n    /* \"#utility.yul\":2898:2903   */\n  dup2\n    /* \"#utility.yul\":2895:2908   */\n  lt\n    /* \"#utility.yul\":2887:2968   */\n  iszero\n  tag_63\n  jumpi\n    /* \"#utility.yul\":2964:2965   */\n  0x00\n    /* \"#utility.yul\":2950:2966   */\n  dup2\n  sstore\n    /* \"#utility.yul\":2931:2932   */\n  0x01\n    /* \"#utility.yul\":2920:2933   */\n  add\n    /* \"#utility.yul\":2887:2968   */\n  jump(tag_61)\ntag_63:\n    /* \"#utility.yul\":2891:2894   */\n  pop\n  pop\n    /* \"#utility.yul\":2557:2978   */\ntag_59:\n    /* \"#utility.yul\":2466:2984   */\n  pop\n  pop\n  pop\n  jump\t// out\n    /* \"#utility.yul\":3160:4505   */\ntag_10:\n    /* \"#utility.yul\":3280:3290   */\n  dup2\n  mload\n  sub(shl(0x40, 0x01), 0x01)\n    /* \"#utility.yul\":3302:3332   */\n  dup2\n  gt\n    /* \"#utility.yul\":3299:3355   */\n  iszero\n  tag_67\n  jumpi\n    /* \"#utility.yul\":3335:3353   */\n  tag_67\n  tag_28\n  jump\t// in\ntag_67:\n    /* \"#utility.yul\":3364:3461   */\n  tag_68\n    /* \"#utility.yul\":3454:3460   */\n  dup2\n    /* \"#utility.yul\":3414:3452   */\n  tag_69\n    /* \"#utility.yul\":3446:3450   */\n  dup5\n    /* \"#utility.yul\":3440:3451   */\n  sload\n    /* \"#utility.yul\":3414:3452   */\n  tag_30\n  jump\t// in\ntag_69:\n    /* \"#utility.yul\":3408:3412   */\n  dup5\n    /* \"#utility.yul\":3364:3461   */\n  tag_32\n  jump\t// in\ntag_68:\n    /* \"#utility.yul\":3516:3520   */\n  0x20\n  dup1\n    /* \"#utility.yul\":3573:3575   */\n  0x1f\n    /* \"#utility.yul\":3562:3576   */\n  dup4\n  gt\n    /* \"#utility.yul\":3590:3591   */\n  0x01\n    /* \"#utility.yul\":3585:4248   */\n  dup2\n  eq\n  tag_71\n  jumpi\n    /* \"#utility.yul\":4292:4293   */\n  0x00\n    /* \"#utility.yul\":4309:4315   */\n  dup5\n    /* \"#utility.yul\":4306:4395   */\n  iszero\n  tag_72\n  jumpi\n  pop\n    /* \"#utility.yul\":4361:4380   */\n  dup6\n  dup4\n  add\n    /* \"#utility.yul\":4355:4381   */\n  mload\n    /* \"#utility.yul\":4306:4395   */\ntag_72:\n  not(0x00)\n    /* \"#utility.yul\":3117:3118   */\n  0x03\n    /* \"#utility.yul\":3113:3124   */\n  dup7\n  swap1\n  shl\n    /* \"#utility.yul\":3109:3133   */\n  shr\n    /* \"#utility.yul\":3105:3134   */\n  not\n    /* \"#utility.yul\":3095:3135   */\n  and\n    /* \"#utility.yul\":3141:3142   */\n  0x01\n    /* \"#utility.yul\":3137:3148   */\n  dup6\n  swap1\n  shl\n    /* \"#utility.yul\":3092:3149   */\n  or\n    /* \"#utility.yul\":4408:4489   */\n  dup6\n  sstore\n    /* \"#utility.yul\":3555:4499   */\n  jump(tag_70)\n    /* \"#utility.yul\":3585:4248   */\ntag_71:\n    /* \"#utility.yul\":2413:2414   */\n  0x00\n    /* \"#utility.yul\":2406:2420   */\n  dup6\n  dup2\n  mstore\n    /* \"#utility.yul\":2450:2454   */\n  0x20\n    /* \"#utility.yul\":2437:2455   */\n  dup2\n  keccak256\n  not(0x1f)\n    /* \"#utility.yul\":3621:3641   */\n  dup7\n  and\n  swap2\n    /* \"#utility.yul\":3739:3975   */\ntag_75:\n    /* \"#utility.yul\":3753:3760   */\n  dup3\n    /* \"#utility.yul\":3750:3751   */\n  dup2\n    /* \"#utility.yul\":3747:3761   */\n  lt\n    /* \"#utility.yul\":3739:3975   */\n  iszero\n  tag_77\n  jumpi\n    /* \"#utility.yul\":3842:3861   */\n  dup9\n  dup7\n  add\n    /* \"#utility.yul\":3836:3862   */\n  mload\n    /* \"#utility.yul\":3821:3863   */\n  dup3\n  sstore\n    /* \"#utility.yul\":3934:3961   */\n  swap5\n  dup5\n  add\n  swap5\n    /* \"#utility.yul\":3902:3903   */\n  0x01\n    /* \"#utility.yul\":3890:3904   */\n  swap1\n  swap2\n  add\n  swap1\n    /* \"#utility.yul\":3769:3788   */\n  dup5\n  add\n    /* \"#utility.yul\":3739:3975   */\n  jump(tag_75)\ntag_77:\n    /* \"#utility.yul\":3743:3746   */\n  pop\n    /* \"#utility.yul\":4003:4009   */\n  dup6\n    /* \"#utility.yul\":3994:4001   */\n  dup3\n    /* \"#utility.yul\":3991:4010   */\n  lt\n    /* \"#utility.yul\":3988:4189   */\n  iszero\n  tag_78\n  jumpi\n    /* \"#utility.yul\":4064:4083   */\n  dup8\n  dup6\n  add\n    /* \"#utility.yul\":4058:4084   */\n  mload\n  not(0x00)\n    /* \"#utility.yul\":4147:4148   */\n  0x03\n    /* \"#utility.yul\":4143:4157   */\n  dup9\n  swap1\n  shl\n    /* \"#utility.yul\":4159:4162   */\n  0xf8\n    /* \"#utility.yul\":4139:4163   */\n  and\n    /* \"#utility.yul\":4135:4172   */\n  shr\n    /* \"#utility.yul\":4131:4173   */\n  not\n    /* \"#utility.yul\":4116:4174   */\n  and\n    /* \"#utility.yul\":4101:4175   */\n  dup2\n  sstore\n    /* \"#utility.yul\":3988:4189   */\ntag_78:\n  pop\n  pop\n    /* \"#utility.yul\":4235:4236   */\n  0x01\n    /* \"#utility.yul\":4226:4232   */\n  dup5\n    /* \"#utility.yul\":4223:4224   */\n  0x01\n    /* \"#utility.yul\":4219:4233   */\n  shl\n    /* \"#utility.yul\":4215:4237   */\n  add\n    /* \"#utility.yul\":4209:4213   */\n  dup6\n    /* \"#utility.yul\":4202:4238   */\n  sstore\n    /* \"#utility.yul\":3555:4499   */\ntag_70:\n  pop\n  pop\n  pop\n  pop\n    /* \"#utility.yul\":3160:4505   */\n  pop\n  pop\n  jump\t// out\n    /* \"#utility.yul\":4775:4952   */\ntag_34:\n    /* \"PublicEditionDrop.sol\":129:639  contract PublicEditionDrop is ERC1155LazyMint {... */\n  dataSize(sub_0)\n  dup1\n  dataOffset(sub_0)\n  0x00\n  codecopy\n  0x00\n  return\nstop\n\nsub_0: assembly {\n        /* \"PublicEditionDrop.sol\":129:639  contract PublicEditionDrop is ERC1155LazyMint {... */\n      mstore(0x40, 0x80)\n      jumpi(tag_1, lt(calldatasize, 0x04))\n      shr(0xe0, calldataload(0x00))\n      dup1\n      0x6b20c454\n      gt\n      tag_32\n      jumpi\n      dup1\n      0xac9650d8\n      gt\n      tag_33\n      jumpi\n      dup1\n      0xe8a3d485\n      gt\n      tag_34\n      jumpi\n      dup1\n      0xe8a3d485\n      eq\n      tag_28\n      jumpi\n      dup1\n      0xe985e9c5\n      eq\n      tag_29\n      jumpi\n      dup1\n      0xf242432a\n      eq\n      tag_30\n      jumpi\n      dup1\n      0xf5298aca\n      eq\n      tag_31\n      jumpi\n      0x00\n      dup1\n      revert\n    tag_34:\n      dup1\n      0xac9650d8\n      eq\n      tag_24\n      jumpi\n      dup1\n      0xb24f2d39\n      eq\n      tag_25\n      jumpi\n      dup1\n      0xbd85b039\n      eq\n      tag_26\n      jumpi\n      dup1\n      0xd37c353b\n      eq\n      tag_27\n      jumpi\n      0x00\n      dup1\n      revert\n    tag_33:\n      dup1\n      0x938e3d7b\n      gt\n      tag_35\n      jumpi\n      dup1\n      0x938e3d7b\n      eq\n      tag_20\n      jumpi\n      dup1\n      0x95d89b41\n      eq\n      tag_21\n      jumpi\n      dup1\n      0x9bcf7a15\n      eq\n      tag_22\n      jumpi\n      dup1\n      0xa22cb465\n      eq\n      tag_23\n      jumpi\n      0x00\n      dup1\n      revert\n    tag_35:\n      dup1\n      0x6b20c454\n      eq\n      tag_17\n      jumpi\n      dup1\n      0x83040532\n      eq\n      tag_18\n      jumpi\n      dup1\n      0x8da5cb5b\n      eq\n      tag_19\n      jumpi\n      0x00\n      dup1\n      revert\n    tag_32:\n      dup1\n      0x2bc43fd9\n      gt\n      tag_36\n      jumpi\n      dup1\n      0x4cc157df\n      gt\n      tag_37\n      jumpi\n      dup1\n      0x4cc157df\n      eq\n      tag_13\n      jumpi\n      dup1\n      0x4e1273f4\n      eq\n      tag_14\n      jumpi\n      dup1\n      0x600dd5ea\n      eq\n      tag_15\n      jumpi\n      dup1\n      0x63b45e2d\n      eq\n      tag_16\n      jumpi\n      0x00\n      dup1\n      revert\n    tag_37:\n      dup1\n      0x2bc43fd9\n      eq\n      tag_9\n      jumpi\n      dup1\n      0x2eb2c2d6\n      eq\n      tag_10\n      jumpi\n      dup1\n      0x3b1475a7\n      eq\n      tag_11\n      jumpi\n      dup1\n      0x4bbb1abf\n      eq\n      tag_12\n      jumpi\n      0x00\n      dup1\n      revert\n    tag_36:\n      dup1\n      0x0e89341c\n      gt\n      tag_38\n      jumpi\n      dup1\n      0x0e89341c\n      eq\n      tag_5\n      jumpi\n      dup1\n      0x13af4035\n      eq\n      tag_6\n      jumpi\n      dup1\n      0x2419f51b\n      eq\n      tag_7\n      jumpi\n      dup1\n      0x2a55205a\n      eq\n      tag_8\n      jumpi\n      0x00\n      dup1\n      revert\n    tag_38:\n      dup1\n      0xfdd58e\n      eq\n      tag_2\n      jumpi\n      dup1\n      0x01ffc9a7\n      eq\n      tag_3\n      jumpi\n      dup1\n      0x06fdde03\n      eq\n      tag_4\n      jumpi\n    tag_1:\n      0x00\n      dup1\n      revert\n        /* \"@thirdweb-dev/contracts/eip/ERC1155.sol\":645:709   */\n    tag_2:\n      callvalue\n      dup1\n      iszero\n      tag_39\n      jumpi\n      0x00\n      dup1\n      revert\n    tag_39:\n      pop\n      tag_40\n      tag_41\n      calldatasize\n      0x04\n      tag_42\n      jump\t// in\n    tag_41:\n      0x02\n      0x20\n      swap1\n      dup2\n      mstore\n      0x00\n      swap3\n      dup4\n      mstore\n      0x40\n      dup1\n      dup5\n      keccak256\n      swap1\n      swap2\n      mstore\n      swap1\n      dup3\n      mstore\n      swap1\n      keccak256\n      sload\n      dup2\n      jump\n    tag_40:\n      mload(0x40)\n        /* \"#utility.yul\":620:645   */\n      swap1\n      dup2\n      mstore\n        /* \"#utility.yul\":608:610   */\n      0x20\n        /* \"#utility.yul\":593:611   */\n      add\n        /* \"@thirdweb-dev/contracts/eip/ERC1155.sol\":645:709   */\n    tag_44:\n      mload(0x40)\n      dup1\n      swap2\n      sub\n      swap1\n      return\n        /* \"@thirdweb-dev/contracts/base/ERC1155LazyMint.sol\":7844:8293   */\n    tag_3:\n      callvalue\n      dup1\n      iszero\n      tag_46\n      jumpi\n      0x00\n      dup1\n      revert\n    tag_46:\n      pop\n      tag_47\n      tag_48\n      calldatasize\n      0x04\n      tag_49\n      jump\t// in\n    tag_48:\n      tag_50\n      jump\t// in\n    tag_47:\n      mload(0x40)\n        /* \"#utility.yul\":1207:1221   */\n      swap1\n      iszero\n        /* \"#utility.yul\":1200:1222   */\n      iszero\n        /* \"#utility.yul\":1182:1223   */\n      dup2\n      mstore\n        /* \"#utility.yul\":1170:1172   */\n      0x20\n        /* \"#utility.yul\":1155:1173   */\n      add\n        /* \"@thirdweb-dev/contracts/base/ERC1155LazyMint.sol\":7844:8293   */\n      tag_44\n        /* \"#utility.yul\":1042:1229   */\n      jump\n        /* \"@thirdweb-dev/contracts/eip/ERC1155.sol\":418:436   */\n    tag_4:\n      callvalue\n      dup1\n      iszero\n      tag_53\n      jumpi\n      0x00\n      dup1\n      revert\n    tag_53:\n      pop\n      tag_54\n      tag_55\n      jump\t// in\n    tag_54:\n      mload(0x40)\n      tag_44\n      swap2\n      swap1\n      tag_57\n      jump\t// in\n        /* \"@thirdweb-dev/contracts/base/ERC1155LazyMint.sol\":3631:3850   */\n    tag_5:\n      callvalue\n      dup1\n      iszero\n      tag_58\n      jumpi\n      0x00\n      dup1\n      revert\n    tag_58:\n      pop\n      tag_54\n      tag_60\n      calldatasize\n      0x04\n      tag_61\n      jump\t// in\n    tag_60:\n      tag_62\n      jump\t// in\n        /* \"@thirdweb-dev/contracts/extension/Ownable.sol\":1235:1412   */\n    tag_6:\n      callvalue\n      dup1\n      iszero\n      tag_64\n      jumpi\n      0x00\n      dup1\n      revert\n    tag_64:\n      pop\n      tag_65\n      tag_66\n      calldatasize\n      0x04\n      tag_67\n      jump\t// in\n    tag_66:\n      tag_68\n      jump\t// in\n    tag_65:\n      stop\n        /* \"@thirdweb-dev/contracts/extension/BatchMintMetadata.sol\":2279:2497   */\n    tag_7:\n      callvalue\n      dup1\n      iszero\n      tag_69\n      jumpi\n      0x00\n      dup1\n      revert\n    tag_69:\n      pop\n      tag_40\n      tag_71\n      calldatasize\n      0x04\n      tag_61\n      jump\t// in\n    tag_71:\n      tag_72\n      jump\t// in\n        /* \"@thirdweb-dev/contracts/extension/Royalty.sol\":1726:2051   */\n    tag_8:\n      callvalue\n      dup1\n      iszero\n      tag_74\n      jumpi\n      0x00\n      dup1\n      revert\n    tag_74:\n      pop\n      tag_75\n      tag_76\n      calldatasize\n      0x04\n      tag_77\n      jump\t// in\n    tag_76:\n      tag_78\n      jump\t// in\n    tag_75:\n      0x40\n      dup1\n      mload\n      sub(shl(0xa0, 0x01), 0x01)\n        /* \"#utility.yul\":2596:2651   */\n      swap1\n      swap4\n      and\n        /* \"#utility.yul\":2578:2652   */\n      dup4\n      mstore\n        /* \"#utility.yul\":2683:2685   */\n      0x20\n        /* \"#utility.yul\":2668:2686   */\n      dup4\n      add\n        /* \"#utility.yul\":2661:2695   */\n      swap2\n      swap1\n      swap2\n      mstore\n        /* \"#utility.yul\":2551:2569   */\n      add\n        /* \"@thirdweb-dev/contracts/extension/Royalty.sol\":1726:2051   */\n      tag_44\n        /* \"#utility.yul\":2404:2701   */\n      jump\n        /* \"@thirdweb-dev/contracts/base/ERC1155LazyMint.sol\":5011:5515   */\n    tag_9:\n      tag_65\n      tag_82\n      calldatasize\n      0x04\n      tag_83\n      jump\t// in\n    tag_82:\n      tag_84\n      jump\t// in\n        /* \"@thirdweb-dev/contracts/eip/ERC1155.sol\":3066:3426   */\n    tag_10:\n      callvalue\n      dup1\n      iszero\n      tag_85\n      jumpi\n      0x00\n      dup1\n      revert\n    tag_85:\n      pop\n      tag_65\n      tag_87\n      calldatasize\n      0x04\n      tag_88\n      jump\t// in\n    tag_87:\n      tag_89\n      jump\t// in\n        /* \"@thirdweb-dev/contracts/base/ERC1155LazyMint.sol\":8557:8669   */\n    tag_11:\n      callvalue\n      dup1\n      iszero\n      tag_90\n      jumpi\n      0x00\n      dup1\n      revert\n    tag_90:\n      pop\n        /* \"@thirdweb-dev/contracts/base/ERC1155LazyMint.sol\":8641:8662   */\n      sload(0x0c)\n        /* \"@thirdweb-dev/contracts/base/ERC1155LazyMint.sol\":8557:8669   */\n      jump(tag_40)\n        /* \"@thirdweb-dev/contracts/base/ERC1155LazyMint.sol\":5995:6093   */\n    tag_12:\n      callvalue\n      dup1\n      iszero\n      tag_94\n      jumpi\n      0x00\n      dup1\n      revert\n    tag_94:\n      pop\n      tag_65\n      tag_96\n      calldatasize\n      0x04\n      tag_83\n      jump\t// in\n    tag_96:\n      pop\n      pop\n      pop\n      jump\n        /* \"@thirdweb-dev/contracts/extension/Royalty.sol\":2291:2672   */\n    tag_13:\n      callvalue\n      dup1\n      iszero\n      tag_98\n      jumpi\n      0x00\n      dup1\n      revert\n    tag_98:\n      pop\n      tag_99\n      tag_100\n      calldatasize\n      0x04\n      tag_61\n      jump\t// in\n    tag_100:\n      tag_101\n      jump\t// in\n    tag_99:\n      0x40\n      dup1\n      mload\n      sub(shl(0xa0, 0x01), 0x01)\n        /* \"#utility.yul\":6178:6233   */\n      swap1\n      swap4\n      and\n        /* \"#utility.yul\":6160:6234   */\n      dup4\n      mstore\n        /* \"#utility.yul\":6282:6288   */\n      0xffff\n        /* \"#utility.yul\":6270:6289   */\n      swap1\n      swap2\n      and\n        /* \"#utility.yul\":6265:6267   */\n      0x20\n        /* \"#utility.yul\":6250:6268   */\n      dup4\n      add\n        /* \"#utility.yul\":6243:6290   */\n      mstore\n        /* \"#utility.yul\":6133:6151   */\n      add\n        /* \"@thirdweb-dev/contracts/extension/Royalty.sol\":2291:2672   */\n      tag_44\n        /* \"#utility.yul\":5988:6296   */\n      jump\n        /* \"@thirdweb-dev/contracts/eip/ERC1155.sol\":1788:2248   */\n    tag_14:\n      callvalue\n      dup1\n      iszero\n      tag_104\n      jumpi\n      0x00\n      dup1\n      revert\n    tag_104:\n      pop\n      tag_105\n      tag_106\n      calldatasize\n      0x04\n      tag_107\n      jump\t// in\n    tag_106:\n      tag_108\n      jump\t// in\n    tag_105:\n      mload(0x40)\n      tag_44\n      swap2\n      swap1\n      tag_110\n      jump\t// in\n        /* \"@thirdweb-dev/contracts/extension/Royalty.sol\":3370:3630   */\n    tag_15:\n      callvalue\n      dup1\n      iszero\n      tag_111\n      jumpi\n      0x00\n      dup1\n      revert\n    tag_111:\n      pop\n      tag_65\n      tag_113\n      calldatasize\n      0x04\n      tag_42\n      jump\t// in\n    tag_113:\n      tag_114\n      jump\t// in\n        /* \"@thirdweb-dev/contracts/extension/BatchMintMetadata.sol\":1961:2057   */\n    tag_16:\n      callvalue\n      dup1\n      iszero\n      tag_115\n      jumpi\n      0x00\n      dup1\n      revert\n    tag_115:\n      pop\n        /* \"@thirdweb-dev/contracts/extension/BatchMintMetadata.sol\":2035:2043   */\n      0x09\n        /* \"@thirdweb-dev/contracts/extension/BatchMintMetadata.sol\":2035:2050   */\n      sload\n        /* \"@thirdweb-dev/contracts/extension/BatchMintMetadata.sol\":1961:2057   */\n      jump(tag_40)\n        /* \"@thirdweb-dev/contracts/base/ERC1155LazyMint.sol\":7018:7552   */\n    tag_17:\n      callvalue\n      dup1\n      iszero\n      tag_119\n      jumpi\n      0x00\n      dup1\n      revert\n    tag_119:\n      pop\n      tag_65\n      tag_121\n      calldatasize\n      0x04\n      tag_122\n      jump\t// in\n    tag_121:\n      tag_123\n      jump\t// in\n        /* \"@thirdweb-dev/contracts/extension/BatchMintMetadata.sol\":1204:1247   */\n    tag_18:\n      callvalue\n      dup1\n      iszero\n      tag_124\n      jumpi\n      0x00\n      dup1\n      revert\n    tag_124:\n      pop\n      tag_47\n      tag_126\n      calldatasize\n      0x04\n      tag_61\n      jump\t// in\n    tag_126:\n      mstore(0x20, 0x0b)\n      0x00\n      swap1\n      dup2\n      mstore\n      0x40\n      swap1\n      keccak256\n      sload\n      0xff\n      and\n      dup2\n      jump\n        /* \"@thirdweb-dev/contracts/extension/Ownable.sol\":973:1059   */\n    tag_19:\n      callvalue\n      dup1\n      iszero\n      tag_129\n      jumpi\n      0x00\n      dup1\n      revert\n    tag_129:\n      pop\n        /* \"@thirdweb-dev/contracts/extension/Ownable.sol\":1046:1052   */\n      sload(0x06)\n        /* \"@thirdweb-dev/contracts/extension/Ownable.sol\":973:1059   */\n      mload(0x40)\n      sub(shl(0xa0, 0x01), 0x01)\n        /* \"@thirdweb-dev/contracts/extension/Ownable.sol\":1046:1052   */\n      swap1\n      swap2\n      and\n        /* \"#utility.yul\":9044:9118   */\n      dup2\n      mstore\n        /* \"#utility.yul\":9032:9034   */\n      0x20\n        /* \"#utility.yul\":9017:9035   */\n      add\n        /* \"@thirdweb-dev/contracts/extension/Ownable.sol\":973:1059   */\n      tag_44\n        /* \"#utility.yul\":8898:9124   */\n      jump\n        /* \"@thirdweb-dev/contracts/extension/ContractMetadata.sol\":1110:1311   */\n    tag_20:\n      callvalue\n      dup1\n      iszero\n      tag_134\n      jumpi\n      0x00\n      dup1\n      revert\n    tag_134:\n      pop\n      tag_65\n      tag_136\n      calldatasize\n      0x04\n      tag_137\n      jump\t// in\n    tag_136:\n      tag_138\n      jump\t// in\n        /* \"@thirdweb-dev/contracts/eip/ERC1155.sol\":442:462   */\n    tag_21:\n      callvalue\n      dup1\n      iszero\n      tag_139\n      jumpi\n      0x00\n      dup1\n      revert\n    tag_139:\n      pop\n      tag_54\n      tag_141\n      jump\t// in\n        /* \"@thirdweb-dev/contracts/extension/Royalty.sol\":4595:4857   */\n    tag_22:\n      callvalue\n      dup1\n      iszero\n      tag_143\n      jumpi\n      0x00\n      dup1\n      revert\n    tag_143:\n      pop\n      tag_65\n      tag_145\n      calldatasize\n      0x04\n      tag_146\n      jump\t// in\n    tag_145:\n      tag_147\n      jump\t// in\n        /* \"@thirdweb-dev/contracts/eip/ERC1155.sol\":2435:2726   */\n    tag_23:\n      callvalue\n      dup1\n      iszero\n      tag_148\n      jumpi\n      0x00\n      dup1\n      revert\n    tag_148:\n      pop\n      tag_65\n      tag_150\n      calldatasize\n      0x04\n      tag_151\n      jump\t// in\n    tag_150:\n      tag_152\n      jump\t// in\n        /* \"@thirdweb-dev/contracts/extension/Multicall.sol\":696:1263   */\n    tag_24:\n      callvalue\n      dup1\n      iszero\n      tag_153\n      jumpi\n      0x00\n      dup1\n      revert\n    tag_153:\n      pop\n      tag_154\n      tag_155\n      calldatasize\n      0x04\n      tag_156\n      jump\t// in\n    tag_155:\n      tag_157\n      jump\t// in\n    tag_154:\n      mload(0x40)\n      tag_44\n      swap2\n      swap1\n      tag_159\n      jump\t// in\n        /* \"@thirdweb-dev/contracts/extension/Royalty.sol\":2782:2926   */\n    tag_25:\n      callvalue\n      dup1\n      iszero\n      tag_160\n      jumpi\n      0x00\n      dup1\n      revert\n    tag_160:\n      pop\n        /* \"@thirdweb-dev/contracts/extension/Royalty.sol\":2882:2898   */\n      sload(0x07)\n      sub(shl(0xa0, 0x01), 0x01)\n      dup2\n      and\n      swap1\n      shl(0xa0, 0x01)\n        /* \"@thirdweb-dev/contracts/extension/Royalty.sol\":2907:2917   */\n      swap1\n      div\n      0xffff\n      and\n        /* \"@thirdweb-dev/contracts/extension/Royalty.sol\":2782:2926   */\n      jump(tag_99)\n        /* \"@thirdweb-dev/contracts/base/ERC1155LazyMint.sol\":2269:2315   */\n    tag_26:\n      callvalue\n      dup1\n      iszero\n      tag_164\n      jumpi\n      0x00\n      dup1\n      revert\n    tag_164:\n      pop\n      tag_40\n      tag_166\n      calldatasize\n      0x04\n      tag_61\n      jump\t// in\n    tag_166:\n      mstore(0x20, 0x0e)\n      0x00\n      swap1\n      dup2\n      mstore\n      0x40\n      swap1\n      keccak256\n      sload\n      dup2\n      jump\n        /* \"@thirdweb-dev/contracts/extension/LazyMint.sol\":1388:2000   */\n    tag_27:\n      callvalue\n      dup1\n      iszero\n      tag_169\n      jumpi\n      0x00\n      dup1\n      revert\n    tag_169:\n      pop\n      tag_40\n      tag_171\n      calldatasize\n      0x04\n      tag_172\n      jump\t// in\n    tag_171:\n      tag_173\n      jump\t// in\n        /* \"@thirdweb-dev/contracts/extension/ContractMetadata.sol\":672:706   */\n    tag_28:\n      callvalue\n      dup1\n      iszero\n      tag_175\n      jumpi\n      0x00\n      dup1\n      revert\n    tag_175:\n      pop\n      tag_54\n      tag_177\n      jump\t// in\n        /* \"@thirdweb-dev/contracts/eip/ERC1155.sol\":716:784   */\n    tag_29:\n      callvalue\n      dup1\n      iszero\n      tag_179\n      jumpi\n      0x00\n      dup1\n      revert\n    tag_179:\n      pop\n      tag_47\n      tag_181\n      calldatasize\n      0x04\n      tag_182\n      jump\t// in\n    tag_181:\n      0x03\n      0x20\n      swap1\n      dup2\n      mstore\n      0x00\n      swap3\n      dup4\n      mstore\n      0x40\n      dup1\n      dup5\n      keccak256\n      swap1\n      swap2\n      mstore\n      swap1\n      dup3\n      mstore\n      swap1\n      keccak256\n      sload\n      0xff\n      and\n      dup2\n      jump\n        /* \"@thirdweb-dev/contracts/eip/ERC1155.sol\":2732:3060   */\n    tag_30:\n      callvalue\n      dup1\n      iszero\n      tag_185\n      jumpi\n      0x00\n      dup1\n      revert\n    tag_185:\n      pop\n      tag_65\n      tag_187\n      calldatasize\n      0x04\n      tag_188\n      jump\t// in\n    tag_187:\n      tag_189\n      jump\t// in\n        /* \"@thirdweb-dev/contracts/base/ERC1155LazyMint.sol\":6378:6724   */\n    tag_31:\n      callvalue\n      dup1\n      iszero\n      tag_190\n      jumpi\n      0x00\n      dup1\n      revert\n    tag_190:\n      pop\n      tag_65\n      tag_192\n      calldatasize\n      0x04\n      tag_83\n      jump\t// in\n    tag_192:\n      tag_193\n      jump\t// in\n        /* \"@thirdweb-dev/contracts/base/ERC1155LazyMint.sol\":7844:8293   */\n    tag_50:\n        /* \"@thirdweb-dev/contracts/base/ERC1155LazyMint.sol\":7947:7951   */\n      0x00\n      shl(0xe0, 0x01ffc9a7)\n      not(sub(shl(0xe0, 0x01), 0x01))\n        /* \"@thirdweb-dev/contracts/base/ERC1155LazyMint.sol\":7982:8007   */\n      dup4\n      and\n      eq\n      dup1\n        /* \"@thirdweb-dev/contracts/base/ERC1155LazyMint.sol\":7982:8082   */\n      tag_195\n      jumpi\n      pop\n      shl(0xe1, 0x6cdb3d13)\n      not(sub(shl(0xe0, 0x01), 0x01))\n        /* \"@thirdweb-dev/contracts/base/ERC1155LazyMint.sol\":8057:8082   */\n      dup4\n      and\n      eq\n        /* \"@thirdweb-dev/contracts/base/ERC1155LazyMint.sol\":7982:8082   */\n    tag_195:\n        /* \"@thirdweb-dev/contracts/base/ERC1155LazyMint.sol\":7982:8158   */\n      dup1\n      tag_196\n      jumpi\n      pop\n      shl(0xe2, 0x03a24d07)\n      not(sub(shl(0xe0, 0x01), 0x01))\n        /* \"@thirdweb-dev/contracts/base/ERC1155LazyMint.sol\":8133:8158   */\n      dup4\n      and\n      eq\n        /* \"@thirdweb-dev/contracts/base/ERC1155LazyMint.sol\":7982:8158   */\n    tag_196:\n        /* \"@thirdweb-dev/contracts/base/ERC1155LazyMint.sol\":7982:8261   */\n      dup1\n      tag_197\n      jumpi\n      pop\n      not(sub(shl(0xe0, 0x01), 0x01))\n        /* \"@thirdweb-dev/contracts/base/ERC1155LazyMint.sol\":8220:8261   */\n      dup3\n      and\n      shl(0xe1, 0x152a902d)\n      eq\n        /* \"@thirdweb-dev/contracts/base/ERC1155LazyMint.sol\":7982:8261   */\n    tag_197:\n        /* \"@thirdweb-dev/contracts/base/ERC1155LazyMint.sol\":7963:8261   */\n      swap3\n        /* \"@thirdweb-dev/contracts/base/ERC1155LazyMint.sol\":7844:8293   */\n      swap2\n      pop\n      pop\n      jump\t// out\n        /* \"@thirdweb-dev/contracts/eip/ERC1155.sol\":418:436   */\n    tag_55:\n      0x00\n      dup1\n      sload\n      tag_198\n      swap1\n      tag_199\n      jump\t// in\n    tag_198:\n      dup1\n      0x1f\n      add\n      0x20\n      dup1\n      swap2\n      div\n      mul\n      0x20\n      add\n      mload(0x40)\n      swap1\n      dup2\n      add\n      0x40\n      mstore\n      dup1\n      swap3\n      swap2\n      swap1\n      dup2\n      dup2\n      mstore\n      0x20\n      add\n      dup3\n      dup1\n      sload\n      tag_200\n      swap1\n      tag_199\n      jump\t// in\n    tag_200:\n      dup1\n      iszero\n      tag_201\n      jumpi\n      dup1\n      0x1f\n      lt\n      tag_202\n      jumpi\n      0x0100\n      dup1\n      dup4\n      sload\n      div\n      mul\n      dup4\n      mstore\n      swap2\n      0x20\n      add\n      swap2\n      jump(tag_201)\n    tag_202:\n      dup3\n      add\n      swap2\n      swap1\n      0x00\n      mstore\n      keccak256(0x00, 0x20)\n      swap1\n    tag_203:\n      dup2\n      sload\n      dup2\n      mstore\n      swap1\n      0x01\n      add\n      swap1\n      0x20\n      add\n      dup1\n      dup4\n      gt\n      tag_203\n      jumpi\n      dup3\n      swap1\n      sub\n      0x1f\n      and\n      dup3\n      add\n      swap2\n    tag_201:\n      pop\n      pop\n      pop\n      pop\n      pop\n      dup2\n      jump\t// out\n        /* \"@thirdweb-dev/contracts/base/ERC1155LazyMint.sol\":3631:3850   */\n    tag_62:\n        /* \"@thirdweb-dev/contracts/base/ERC1155LazyMint.sol\":3700:3713   */\n      0x60\n        /* \"@thirdweb-dev/contracts/base/ERC1155LazyMint.sol\":3725:3747   */\n      0x00\n        /* \"@thirdweb-dev/contracts/base/ERC1155LazyMint.sol\":3750:3771   */\n      tag_205\n        /* \"@thirdweb-dev/contracts/base/ERC1155LazyMint.sol\":3762:3770   */\n      dup4\n        /* \"@thirdweb-dev/contracts/base/ERC1155LazyMint.sol\":3750:3761   */\n      tag_206\n        /* \"@thirdweb-dev/contracts/base/ERC1155LazyMint.sol\":3750:3771   */\n      jump\t// in\n    tag_205:\n        /* \"@thirdweb-dev/contracts/base/ERC1155LazyMint.sol\":3725:3771   */\n      swap1\n      pop\n        /* \"@thirdweb-dev/contracts/base/ERC1155LazyMint.sol\":3812:3820   */\n      dup1\n        /* \"@thirdweb-dev/contracts/base/ERC1155LazyMint.sol\":3822:3841   */\n      tag_207\n        /* \"@thirdweb-dev/contracts/base/ERC1155LazyMint.sol\":3822:3830   */\n      dup5\n        /* \"@thirdweb-dev/contracts/base/ERC1155LazyMint.sol\":3822:3839   */\n      tag_208\n        /* \"@thirdweb-dev/contracts/base/ERC1155LazyMint.sol\":3822:3841   */\n      jump\t// in\n    tag_207:\n        /* \"@thirdweb-dev/contracts/base/ERC1155LazyMint.sol\":3795:3842   */\n      add(0x20, mload(0x40))\n      tag_209\n      swap3\n      swap2\n      swap1\n      tag_210\n      jump\t// in\n    tag_209:\n      mload(0x40)\n      0x20\n      dup2\n      dup4\n      sub\n      sub\n      dup2\n      mstore\n      swap1\n      0x40\n      mstore\n        /* \"@thirdweb-dev/contracts/base/ERC1155LazyMint.sol\":3781:3843   */\n      swap2\n      pop\n      pop\n        /* \"@thirdweb-dev/contracts/base/ERC1155LazyMint.sol\":3631:3850   */\n      swap2\n      swap1\n      pop\n      jump\t// out\n        /* \"@thirdweb-dev/contracts/extension/Ownable.sol\":1235:1412   */\n    tag_68:\n        /* \"@thirdweb-dev/contracts/extension/Ownable.sol\":1305:1319   */\n      tag_212\n        /* \"@thirdweb-dev/contracts/extension/Ownable.sol\":1305:1317   */\n      tag_213\n        /* \"@thirdweb-dev/contracts/extension/Ownable.sol\":1305:1319   */\n      jump\t// in\n    tag_212:\n        /* \"@thirdweb-dev/contracts/extension/Ownable.sol\":1300:1374   */\n      tag_214\n      jumpi\n        /* \"@thirdweb-dev/contracts/extension/Ownable.sol\":1342:1363   */\n      mload(0x40)\n      shl(0xe1, 0x16ccb9cb)\n      dup2\n      mstore\n      0x04\n      add\n      mload(0x40)\n      dup1\n      swap2\n      sub\n      swap1\n      revert\n        /* \"@thirdweb-dev/contracts/extension/Ownable.sol\":1300:1374   */\n    tag_214:\n        /* \"@thirdweb-dev/contracts/extension/Ownable.sol\":1383:1405   */\n      tag_215\n        /* \"@thirdweb-dev/contracts/extension/Ownable.sol\":1395:1404   */\n      dup2\n        /* \"@thirdweb-dev/contracts/extension/Ownable.sol\":1383:1394   */\n      tag_216\n        /* \"@thirdweb-dev/contracts/extension/Ownable.sol\":1383:1405   */\n      jump\t// in\n    tag_215:\n        /* \"@thirdweb-dev/contracts/extension/Ownable.sol\":1235:1412   */\n      pop\n      jump\t// out\n        /* \"@thirdweb-dev/contracts/extension/BatchMintMetadata.sol\":2279:2497   */\n    tag_72:\n        /* \"@thirdweb-dev/contracts/extension/BatchMintMetadata.sol\":2343:2350   */\n      0x00\n        /* \"@thirdweb-dev/contracts/extension/BatchMintMetadata.sol\":2376:2393   */\n      tag_218\n        /* \"@thirdweb-dev/contracts/extension/BatchMintMetadata.sol\":2035:2043   */\n      0x09\n        /* \"@thirdweb-dev/contracts/extension/BatchMintMetadata.sol\":2035:2050   */\n      sload\n      swap1\n        /* \"@thirdweb-dev/contracts/extension/BatchMintMetadata.sol\":1961:2057   */\n      jump\n        /* \"@thirdweb-dev/contracts/extension/BatchMintMetadata.sol\":2376:2393   */\n    tag_218:\n        /* \"@thirdweb-dev/contracts/extension/BatchMintMetadata.sol\":2366:2372   */\n      dup3\n        /* \"@thirdweb-dev/contracts/extension/BatchMintMetadata.sol\":2366:2393   */\n      lt\n        /* \"@thirdweb-dev/contracts/extension/BatchMintMetadata.sol\":2362:2458   */\n      tag_219\n      jumpi\n        /* \"@thirdweb-dev/contracts/extension/BatchMintMetadata.sol\":2416:2447   */\n      mload(0x40)\n      shl(0xe1, 0x07931277)\n      dup2\n      mstore\n      0x04\n      dup2\n      add\n        /* \"#utility.yul\":620:645   */\n      dup4\n      swap1\n      mstore\n        /* \"#utility.yul\":593:611   */\n      0x24\n      add\n        /* \"@thirdweb-dev/contracts/extension/BatchMintMetadata.sol\":2416:2447   */\n    tag_220:\n      mload(0x40)\n      dup1\n      swap2\n      sub\n      swap1\n      revert\n        /* \"@thirdweb-dev/contracts/extension/BatchMintMetadata.sol\":2362:2458   */\n    tag_219:\n        /* \"@thirdweb-dev/contracts/extension/BatchMintMetadata.sol\":2474:2482   */\n      0x09\n        /* \"@thirdweb-dev/contracts/extension/BatchMintMetadata.sol\":2483:2489   */\n      dup3\n        /* \"@thirdweb-dev/contracts/extension/BatchMintMetadata.sol\":2474:2490   */\n      dup2\n      sload\n      dup2\n      lt\n      tag_222\n      jumpi\n      tag_222\n      tag_223\n      jump\t// in\n    tag_222:\n      swap1\n      0x00\n      mstore\n      keccak256(0x00, 0x20)\n      add\n      sload\n        /* \"@thirdweb-dev/contracts/extension/BatchMintMetadata.sol\":2467:2490   */\n      swap1\n      pop\n        /* \"@thirdweb-dev/contracts/extension/BatchMintMetadata.sol\":2279:2497   */\n      swap2\n      swap1\n      pop\n      jump\t// out\n        /* \"@thirdweb-dev/contracts/extension/Royalty.sol\":1726:2051   */\n    tag_78:\n        /* \"@thirdweb-dev/contracts/extension/Royalty.sol\":1845:1861   */\n      0x00\n        /* \"@thirdweb-dev/contracts/extension/Royalty.sol\":1863:1884   */\n      dup1\n        /* \"@thirdweb-dev/contracts/extension/Royalty.sol\":1897:1914   */\n      0x00\n        /* \"@thirdweb-dev/contracts/extension/Royalty.sol\":1916:1927   */\n      dup1\n        /* \"@thirdweb-dev/contracts/extension/Royalty.sol\":1931:1962   */\n      tag_226\n        /* \"@thirdweb-dev/contracts/extension/Royalty.sol\":1954:1961   */\n      dup7\n        /* \"@thirdweb-dev/contracts/extension/Royalty.sol\":1931:1953   */\n      tag_101\n        /* \"@thirdweb-dev/contracts/extension/Royalty.sol\":1931:1962   */\n      jump\t// in\n    tag_226:\n        /* \"@thirdweb-dev/contracts/extension/Royalty.sol\":1896:1962   */\n      swap1\n      swap5\n      pop\n      dup5\n      swap3\n      pop\n      0xffff\n      and\n      swap1\n      pop\n        /* \"@thirdweb-dev/contracts/extension/Royalty.sol\":2038:2044   */\n      0x2710\n        /* \"@thirdweb-dev/contracts/extension/Royalty.sol\":2019:2034   */\n      tag_227\n        /* \"@thirdweb-dev/contracts/extension/Royalty.sol\":1896:1962   */\n      dup3\n        /* \"@thirdweb-dev/contracts/extension/Royalty.sol\":2019:2028   */\n      dup8\n        /* \"@thirdweb-dev/contracts/extension/Royalty.sol\":2019:2034   */\n      tag_228\n      jump\t// in\n    tag_227:\n        /* \"@thirdweb-dev/contracts/extension/Royalty.sol\":2018:2044   */\n      tag_229\n      swap2\n      swap1\n      tag_230\n      jump\t// in\n    tag_229:\n        /* \"@thirdweb-dev/contracts/extension/Royalty.sol\":2002:2044   */\n      swap3\n      pop\n        /* \"@thirdweb-dev/contracts/extension/Royalty.sol\":1886:2051   */\n      pop\n      pop\n        /* \"@thirdweb-dev/contracts/extension/Royalty.sol\":1726:2051   */\n      swap3\n      pop\n      swap3\n      swap1\n      pop\n      jump\t// out\n        /* \"@thirdweb-dev/contracts/base/ERC1155LazyMint.sol\":5011:5515   */\n    tag_84:\n        /* \"@thirdweb-dev/contracts/external-deps/openzeppelin/security/ReentrancyGuard.sol\":245:246   */\n      0x02\n        /* \"@thirdweb-dev/contracts/external-deps/openzeppelin/security/ReentrancyGuard.sol\":548:555   */\n      sload(0x0d)\n        /* \"@thirdweb-dev/contracts/external-deps/openzeppelin/security/ReentrancyGuard.sol\":548:567   */\n      sub\n        /* \"@thirdweb-dev/contracts/external-deps/openzeppelin/security/ReentrancyGuard.sol\":540:603   */\n      tag_232\n      jumpi\n      mload(0x40)\n      shl(0xe5, 0x461bcd)\n      dup2\n      mstore\n        /* \"#utility.yul\":15503:15505   */\n      0x20\n        /* \"@thirdweb-dev/contracts/external-deps/openzeppelin/security/ReentrancyGuard.sol\":540:603   */\n      0x04\n      dup3\n      add\n        /* \"#utility.yul\":15485:15506   */\n      mstore\n        /* \"#utility.yul\":15542:15544   */\n      0x1f\n        /* \"#utility.yul\":15522:15540   */\n      0x24\n      dup3\n      add\n        /* \"#utility.yul\":15515:15545   */\n      mstore\n        /* \"#utility.yul\":15581:15614   */\n      0x5265656e7472616e637947756172643a207265656e7472616e742063616c6c00\n        /* \"#utility.yul\":15561:15579   */\n      0x44\n      dup3\n      add\n        /* \"#utility.yul\":15554:15615   */\n      mstore\n        /* \"#utility.yul\":15632:15650   */\n      0x64\n      add\n        /* \"@thirdweb-dev/contracts/external-deps/openzeppelin/security/ReentrancyGuard.sol\":540:603   */\n      tag_220\n        /* \"#utility.yul\":15301:15656   */\n      jump\n        /* \"@thirdweb-dev/contracts/external-deps/openzeppelin/security/ReentrancyGuard.sol\":540:603   */\n    tag_232:\n        /* \"@thirdweb-dev/contracts/external-deps/openzeppelin/security/ReentrancyGuard.sol\":245:246   */\n      0x02\n        /* \"@thirdweb-dev/contracts/external-deps/openzeppelin/security/ReentrancyGuard.sol\":678:685   */\n      0x0d\n        /* \"@thirdweb-dev/contracts/external-deps/openzeppelin/security/ReentrancyGuard.sol\":678:696   */\n      sstore\n        /* \"@thirdweb-dev/contracts/base/ERC1155LazyMint.sol\":8641:8662   */\n      sload(0x0c)\n        /* \"@thirdweb-dev/contracts/base/ERC1155LazyMint.sol\":5136:5144   */\n      dup3\n        /* \"@thirdweb-dev/contracts/base/ERC1155LazyMint.sol\":5136:5166   */\n      lt\n        /* \"@thirdweb-dev/contracts/base/ERC1155LazyMint.sol\":5128:5181   */\n      tag_237\n      jumpi\n      mload(0x40)\n      shl(0xe5, 0x461bcd)\n      dup2\n      mstore\n        /* \"#utility.yul\":15863:15865   */\n      0x20\n        /* \"@thirdweb-dev/contracts/base/ERC1155LazyMint.sol\":5128:5181   */\n      0x04\n      dup3\n      add\n        /* \"#utility.yul\":15845:15866   */\n      mstore\n        /* \"#utility.yul\":15902:15904   */\n      0x0a\n        /* \"#utility.yul\":15882:15900   */\n      0x24\n      dup3\n      add\n        /* \"#utility.yul\":15875:15905   */\n      mstore\n        /* \"#utility.yul\":15941:15953   */\n      0x696e76616c696420696400000000000000000000000000000000000000000000\n        /* \"#utility.yul\":15921:15939   */\n      0x44\n      dup3\n      add\n        /* \"#utility.yul\":15914:15954   */\n      mstore\n        /* \"#utility.yul\":15971:15989   */\n      0x64\n      add\n        /* \"@thirdweb-dev/contracts/base/ERC1155LazyMint.sol\":5128:5181   */\n      tag_220\n        /* \"#utility.yul\":15661:15995   */\n      jump\n        /* \"@thirdweb-dev/contracts/base/ERC1155LazyMint.sol\":5128:5181   */\n    tag_237:\n        /* \"@thirdweb-dev/contracts/base/ERC1155LazyMint.sol\":5312:5366   */\n      tag_241\n        /* \"@thirdweb-dev/contracts/base/ERC1155LazyMint.sol\":5335:5344   */\n      dup4\n        /* \"@thirdweb-dev/contracts/base/ERC1155LazyMint.sol\":5346:5354   */\n      dup4\n        /* \"@thirdweb-dev/contracts/base/ERC1155LazyMint.sol\":5356:5365   */\n      dup4\n        /* \"@thirdweb-dev/contracts/base/ERC1155LazyMint.sol\":5312:5334   */\n      tag_242\n        /* \"@thirdweb-dev/contracts/base/ERC1155LazyMint.sol\":5312:5366   */\n      jump\t// in\n    tag_241:\n        /* \"@thirdweb-dev/contracts/base/ERC1155LazyMint.sol\":5488:5496   */\n      dup2\n        /* \"@thirdweb-dev/contracts/base/ERC1155LazyMint.sol\":5477:5486   */\n      dup4\n      sub(shl(0xa0, 0x01), 0x01)\n        /* \"@thirdweb-dev/contracts/base/ERC1155LazyMint.sol\":5451:5508   */\n      and\n        /* \"@thirdweb-dev/contracts/base/ERC1155LazyMint.sol\":5465:5475   */\n      caller\n      sub(shl(0xa0, 0x01), 0x01)\n        /* \"@thirdweb-dev/contracts/base/ERC1155LazyMint.sol\":5451:5508   */\n      and\n      0xff097c7d8b1957a4ff09ef1361b5fb54dcede3941ba836d0beb9d10bec725de6\n        /* \"@thirdweb-dev/contracts/base/ERC1155LazyMint.sol\":5498:5507   */\n      dup5\n        /* \"@thirdweb-dev/contracts/base/ERC1155LazyMint.sol\":5451:5508   */\n      mload(0x40)\n      tag_243\n      swap2\n        /* \"#utility.yul\":620:645   */\n      dup2\n      mstore\n        /* \"#utility.yul\":608:610   */\n      0x20\n        /* \"#utility.yul\":593:611   */\n      add\n      swap1\n        /* \"#utility.yul\":474:651   */\n      jump\n        /* \"@thirdweb-dev/contracts/base/ERC1155LazyMint.sol\":5451:5508   */\n    tag_243:\n      mload(0x40)\n      dup1\n      swap2\n      sub\n      swap1\n      log4\n      pop\n      pop\n        /* \"@thirdweb-dev/contracts/external-deps/openzeppelin/security/ReentrancyGuard.sol\":202:203   */\n      0x01\n        /* \"@thirdweb-dev/contracts/external-deps/openzeppelin/security/ReentrancyGuard.sol\":851:858   */\n      0x0d\n        /* \"@thirdweb-dev/contracts/external-deps/openzeppelin/security/ReentrancyGuard.sol\":851:873   */\n      sstore\n      pop\n        /* \"@thirdweb-dev/contracts/base/ERC1155LazyMint.sol\":5011:5515   */\n      jump\t// out\n        /* \"@thirdweb-dev/contracts/eip/ERC1155.sol\":3066:3426   */\n    tag_89:\n      sub(shl(0xa0, 0x01), 0x01)\n        /* \"@thirdweb-dev/contracts/eip/ERC1155.sol\":3278:3296   */\n      dup6\n      and\n        /* \"@thirdweb-dev/contracts/eip/ERC1155.sol\":3286:3296   */\n      caller\n        /* \"@thirdweb-dev/contracts/eip/ERC1155.sol\":3278:3296   */\n      eq\n      dup1\n        /* \"@thirdweb-dev/contracts/eip/ERC1155.sol\":3278:3334   */\n      tag_245\n      jumpi\n      pop\n      sub(shl(0xa0, 0x01), 0x01)\n        /* \"@thirdweb-dev/contracts/eip/ERC1155.sol\":3300:3322   */\n      dup6\n      and\n      0x00\n      swap1\n      dup2\n      mstore\n        /* \"@thirdweb-dev/contracts/eip/ERC1155.sol\":3300:3316   */\n      0x03\n        /* \"@thirdweb-dev/contracts/eip/ERC1155.sol\":3300:3322   */\n      0x20\n      swap1\n      dup2\n      mstore\n      0x40\n      dup1\n      dup4\n      keccak256\n        /* \"@thirdweb-dev/contracts/eip/ERC1155.sol\":3323:3333   */\n      caller\n        /* \"@thirdweb-dev/contracts/eip/ERC1155.sol\":3300:3334   */\n      dup5\n      mstore\n      swap1\n      swap2\n      mstore\n      swap1\n      keccak256\n      sload\n      0xff\n      and\n        /* \"@thirdweb-dev/contracts/eip/ERC1155.sol\":3278:3334   */\n    tag_245:\n        /* \"@thirdweb-dev/contracts/eip/ERC1155.sol\":3270:3357   */\n      tag_246\n      jumpi\n      mload(0x40)\n      shl(0xe5, 0x461bcd)\n      dup2\n      mstore\n        /* \"#utility.yul\":16202:16204   */\n      0x20\n        /* \"@thirdweb-dev/contracts/eip/ERC1155.sol\":3270:3357   */\n      0x04\n      dup3\n      add\n        /* \"#utility.yul\":16184:16205   */\n      mstore\n        /* \"#utility.yul\":16241:16243   */\n      0x12\n        /* \"#utility.yul\":16221:16239   */\n      0x24\n      dup3\n      add\n        /* \"#utility.yul\":16214:16244   */\n      mstore\n        /* \"#utility.yul\":16280:16300   */\n      0x214f574e45525f4f525f415050524f5645440000000000000000000000000000\n        /* \"#utility.yul\":16260:16278   */\n      0x44\n      dup3\n      add\n        /* \"#utility.yul\":16253:16301   */\n      mstore\n        /* \"#utility.yul\":16318:16336   */\n      0x64\n      add\n        /* \"@thirdweb-dev/contracts/eip/ERC1155.sol\":3270:3357   */\n      tag_220\n        /* \"#utility.yul\":16000:16342   */\n      jump\n        /* \"@thirdweb-dev/contracts/eip/ERC1155.sol\":3270:3357   */\n    tag_246:\n        /* \"@thirdweb-dev/contracts/eip/ERC1155.sol\":3367:3419   */\n      tag_249\n        /* \"@thirdweb-dev/contracts/eip/ERC1155.sol\":3390:3394   */\n      dup6\n        /* \"@thirdweb-dev/contracts/eip/ERC1155.sol\":3396:3398   */\n      dup6\n        /* \"@thirdweb-dev/contracts/eip/ERC1155.sol\":3400:3403   */\n      dup6\n        /* \"@thirdweb-dev/contracts/eip/ERC1155.sol\":3405:3412   */\n      dup6\n        /* \"@thirdweb-dev/contracts/eip/ERC1155.sol\":3414:3418   */\n      dup6\n        /* \"@thirdweb-dev/contracts/eip/ERC1155.sol\":3367:3389   */\n      tag_250\n        /* \"@thirdweb-dev/contracts/eip/ERC1155.sol\":3367:3419   */\n      jump\t// in\n    tag_249:\n        /* \"@thirdweb-dev/contracts/eip/ERC1155.sol\":3066:3426   */\n      pop\n      pop\n      pop\n      pop\n      pop\n      jump\t// out\n        /* \"@thirdweb-dev/contracts/extension/Royalty.sol\":2291:2672   */\n    tag_101:\n        /* \"@thirdweb-dev/contracts/extension/Royalty.sol\":2371:2378   */\n      0x00\n        /* \"@thirdweb-dev/contracts/extension/Royalty.sol\":2435:2464   */\n      dup2\n      dup2\n      mstore\n        /* \"@thirdweb-dev/contracts/extension/Royalty.sol\":2435:2454   */\n      0x08\n        /* \"@thirdweb-dev/contracts/extension/Royalty.sol\":2435:2464   */\n      0x20\n      swap1\n      dup2\n      mstore\n      0x40\n      dup1\n      dup4\n      keccak256\n        /* \"@thirdweb-dev/contracts/extension/Royalty.sol\":2398:2464   */\n      dup2\n      mload\n      dup1\n      dup4\n      add\n      swap1\n      swap3\n      mstore\n      dup1\n      sload\n      sub(shl(0xa0, 0x01), 0x01)\n      and\n      dup1\n      dup4\n      mstore\n      0x01\n      swap1\n      swap2\n      add\n      sload\n      swap3\n      dup3\n      add\n      swap3\n      swap1\n      swap3\n      mstore\n        /* \"@thirdweb-dev/contracts/extension/Royalty.sol\":2371:2378   */\n      dup3\n      swap2\n        /* \"@thirdweb-dev/contracts/extension/Royalty.sol\":2494:2533   */\n      iszero\n        /* \"@thirdweb-dev/contracts/extension/Royalty.sol\":2494:2665   */\n      tag_254\n      jumpi\n        /* \"@thirdweb-dev/contracts/extension/Royalty.sol\":2610:2635   */\n      dup1\n      mload\n        /* \"@thirdweb-dev/contracts/extension/Royalty.sol\":2644:2663   */\n      0x20\n      dup3\n      add\n      mload\n        /* \"@thirdweb-dev/contracts/extension/Royalty.sol\":2494:2665   */\n      jump(tag_255)\n    tag_254:\n        /* \"@thirdweb-dev/contracts/extension/Royalty.sol\":2553:2569   */\n      sload(0x07)\n      sub(shl(0xa0, 0x01), 0x01)\n      dup2\n      and\n      swap1\n      shl(0xa0, 0x01)\n        /* \"@thirdweb-dev/contracts/extension/Royalty.sol\":2578:2588   */\n      swap1\n      div\n      0xffff\n      and\n        /* \"@thirdweb-dev/contracts/extension/Royalty.sol\":2494:2665   */\n    tag_255:\n        /* \"@thirdweb-dev/contracts/extension/Royalty.sol\":2475:2665   */\n      swap3\n      pop\n      swap3\n      pop\n      pop\n        /* \"@thirdweb-dev/contracts/extension/Royalty.sol\":2291:2672   */\n      swap2\n      pop\n      swap2\n      jump\t// out\n        /* \"@thirdweb-dev/contracts/eip/ERC1155.sol\":1788:2248   */\n    tag_108:\n        /* \"@thirdweb-dev/contracts/eip/ERC1155.sol\":1921:1937   */\n      0x60\n        /* \"@thirdweb-dev/contracts/eip/ERC1155.sol\":1976:1979   */\n      dup2\n        /* \"@thirdweb-dev/contracts/eip/ERC1155.sol\":1976:1986   */\n      mload\n        /* \"@thirdweb-dev/contracts/eip/ERC1155.sol\":1957:1965   */\n      dup4\n        /* \"@thirdweb-dev/contracts/eip/ERC1155.sol\":1957:1972   */\n      mload\n        /* \"@thirdweb-dev/contracts/eip/ERC1155.sol\":1957:1986   */\n      eq\n        /* \"@thirdweb-dev/contracts/eip/ERC1155.sol\":1949:2006   */\n      tag_257\n      jumpi\n      mload(0x40)\n      shl(0xe5, 0x461bcd)\n      dup2\n      mstore\n        /* \"#utility.yul\":16549:16551   */\n      0x20\n        /* \"@thirdweb-dev/contracts/eip/ERC1155.sol\":1949:2006   */\n      0x04\n      dup3\n      add\n        /* \"#utility.yul\":16531:16552   */\n      mstore\n        /* \"#utility.yul\":16588:16590   */\n      0x0f\n        /* \"#utility.yul\":16568:16586   */\n      0x24\n      dup3\n      add\n        /* \"#utility.yul\":16561:16591   */\n      mstore\n      shl(0x8b, 0x0988a9c8ea890be9a92a69a82a8869)\n        /* \"#utility.yul\":16607:16625   */\n      0x44\n      dup3\n      add\n        /* \"#utility.yul\":16600:16645   */\n      mstore\n        /* \"#utility.yul\":16662:16680   */\n      0x64\n      add\n        /* \"@thirdweb-dev/contracts/eip/ERC1155.sol\":1949:2006   */\n      tag_220\n        /* \"#utility.yul\":16347:16686   */\n      jump\n        /* \"@thirdweb-dev/contracts/eip/ERC1155.sol\":1949:2006   */\n    tag_257:\n        /* \"@thirdweb-dev/contracts/eip/ERC1155.sol\":2017:2047   */\n      0x00\n        /* \"@thirdweb-dev/contracts/eip/ERC1155.sol\":2064:2072   */\n      dup4\n        /* \"@thirdweb-dev/contracts/eip/ERC1155.sol\":2064:2079   */\n      mload\n        /* \"@thirdweb-dev/contracts/eip/ERC1155.sol\":2050:2080   */\n      0xffffffffffffffff\n      dup2\n      gt\n      iszero\n      tag_261\n      jumpi\n      tag_261\n      tag_262\n      jump\t// in\n    tag_261:\n      mload(0x40)\n      swap1\n      dup1\n      dup3\n      mstore\n      dup1\n      0x20\n      mul\n      0x20\n      add\n      dup3\n      add\n      0x40\n      mstore\n      dup1\n      iszero\n      tag_263\n      jumpi\n      dup2\n      0x20\n      add\n      0x20\n      dup3\n      mul\n      dup1\n      calldatasize\n      dup4\n      calldatacopy\n      add\n      swap1\n      pop\n    tag_263:\n      pop\n        /* \"@thirdweb-dev/contracts/eip/ERC1155.sol\":2017:2080   */\n      swap1\n      pop\n        /* \"@thirdweb-dev/contracts/eip/ERC1155.sol\":2096:2105   */\n      0x00\n        /* \"@thirdweb-dev/contracts/eip/ERC1155.sol\":2091:2211   */\n    tag_264:\n        /* \"@thirdweb-dev/contracts/eip/ERC1155.sol\":2115:2123   */\n      dup5\n        /* \"@thirdweb-dev/contracts/eip/ERC1155.sol\":2115:2130   */\n      mload\n        /* \"@thirdweb-dev/contracts/eip/ERC1155.sol\":2111:2112   */\n      dup2\n        /* \"@thirdweb-dev/contracts/eip/ERC1155.sol\":2111:2130   */\n      lt\n        /* \"@thirdweb-dev/contracts/eip/ERC1155.sol\":2091:2211   */\n      iszero\n      tag_265\n      jumpi\n        /* \"@thirdweb-dev/contracts/eip/ERC1155.sol\":2170:2179   */\n      0x02\n        /* \"@thirdweb-dev/contracts/eip/ERC1155.sol\":2170:2192   */\n      0x00\n        /* \"@thirdweb-dev/contracts/eip/ERC1155.sol\":2180:2188   */\n      dup7\n        /* \"@thirdweb-dev/contracts/eip/ERC1155.sol\":2189:2190   */\n      dup4\n        /* \"@thirdweb-dev/contracts/eip/ERC1155.sol\":2180:2191   */\n      dup2\n      mload\n      dup2\n      lt\n      tag_268\n      jumpi\n      tag_268\n      tag_223\n      jump\t// in\n    tag_268:\n      0x20\n      mul\n      0x20\n      add\n      add\n      mload\n      sub(shl(0xa0, 0x01), 0x01)\n        /* \"@thirdweb-dev/contracts/eip/ERC1155.sol\":2170:2192   */\n      and\n      sub(shl(0xa0, 0x01), 0x01)\n      and\n      dup2\n      mstore\n      0x20\n      add\n      swap1\n      dup2\n      mstore\n      0x20\n      add\n      0x00\n      keccak256\n        /* \"@thirdweb-dev/contracts/eip/ERC1155.sol\":2170:2200   */\n      0x00\n        /* \"@thirdweb-dev/contracts/eip/ERC1155.sol\":2193:2196   */\n      dup6\n        /* \"@thirdweb-dev/contracts/eip/ERC1155.sol\":2197:2198   */\n      dup4\n        /* \"@thirdweb-dev/contracts/eip/ERC1155.sol\":2193:2199   */\n      dup2\n      mload\n      dup2\n      lt\n      tag_270\n      jumpi\n      tag_270\n      tag_223\n      jump\t// in\n    tag_270:\n      0x20\n      mul\n      0x20\n      add\n      add\n      mload\n        /* \"@thirdweb-dev/contracts/eip/ERC1155.sol\":2170:2200   */\n      dup2\n      mstore\n      0x20\n      add\n      swap1\n      dup2\n      mstore\n      0x20\n      add\n      0x00\n      keccak256\n      sload\n        /* \"@thirdweb-dev/contracts/eip/ERC1155.sol\":2151:2164   */\n      dup3\n        /* \"@thirdweb-dev/contracts/eip/ERC1155.sol\":2165:2166   */\n      dup3\n        /* \"@thirdweb-dev/contracts/eip/ERC1155.sol\":2151:2167   */\n      dup2\n      mload\n      dup2\n      lt\n      tag_272\n      jumpi\n      tag_272\n      tag_223\n      jump\t// in\n    tag_272:\n      0x20\n      swap1\n      dup2\n      mul\n      swap2\n      swap1\n      swap2\n      add\n      add\n        /* \"@thirdweb-dev/contracts/eip/ERC1155.sol\":2151:2200   */\n      mstore\n        /* \"@thirdweb-dev/contracts/eip/ERC1155.sol\":2132:2135   */\n      0x01\n      add\n        /* \"@thirdweb-dev/contracts/eip/ERC1155.sol\":2091:2211   */\n      jump(tag_264)\n    tag_265:\n      pop\n        /* \"@thirdweb-dev/contracts/eip/ERC1155.sol\":2228:2241   */\n      swap4\n        /* \"@thirdweb-dev/contracts/eip/ERC1155.sol\":1788:2248   */\n      swap3\n      pop\n      pop\n      pop\n      jump\t// out\n        /* \"@thirdweb-dev/contracts/extension/Royalty.sol\":3370:3630   */\n    tag_114:\n        /* \"@thirdweb-dev/contracts/extension/Royalty.sol\":3482:3502   */\n      tag_274\n        /* \"@thirdweb-dev/contracts/extension/Royalty.sol\":3482:3500   */\n      tag_213\n        /* \"@thirdweb-dev/contracts/extension/Royalty.sol\":3482:3502   */\n      jump\t// in\n    tag_274:\n        /* \"@thirdweb-dev/contracts/extension/Royalty.sol\":3477:3557   */\n      tag_276\n      jumpi\n        /* \"@thirdweb-dev/contracts/extension/Royalty.sol\":3525:3546   */\n      mload(0x40)\n      shl(0xe1, 0x6fae3581)\n      dup2\n      mstore\n      0x04\n      add\n      mload(0x40)\n      dup1\n      swap2\n      sub\n      swap1\n      revert\n        /* \"@thirdweb-dev/contracts/extension/Royalty.sol\":3477:3557   */\n    tag_276:\n        /* \"@thirdweb-dev/contracts/extension/Royalty.sol\":3567:3623   */\n      tag_277\n        /* \"@thirdweb-dev/contracts/extension/Royalty.sol\":3592:3609   */\n      dup3\n        /* \"@thirdweb-dev/contracts/extension/Royalty.sol\":3611:3622   */\n      dup3\n        /* \"@thirdweb-dev/contracts/extension/Royalty.sol\":3567:3591   */\n      tag_278\n        /* \"@thirdweb-dev/contracts/extension/Royalty.sol\":3567:3623   */\n      jump\t// in\n    tag_277:\n        /* \"@thirdweb-dev/contracts/extension/Royalty.sol\":3370:3630   */\n      pop\n      pop\n      jump\t// out\n        /* \"@thirdweb-dev/contracts/base/ERC1155LazyMint.sol\":7018:7552   */\n    tag_123:\n        /* \"@thirdweb-dev/contracts/base/ERC1155LazyMint.sol\":7152:7162   */\n      caller\n      sub(shl(0xa0, 0x01), 0x01)\n        /* \"@thirdweb-dev/contracts/base/ERC1155LazyMint.sol\":7181:7197   */\n      dup5\n      and\n      dup2\n      eq\n      dup1\n        /* \"@thirdweb-dev/contracts/base/ERC1155LazyMint.sol\":7181:7233   */\n      tag_281\n      jumpi\n      pop\n      sub(shl(0xa0, 0x01), 0x01)\n        /* \"@thirdweb-dev/contracts/base/ERC1155LazyMint.sol\":7201:7225   */\n      dup1\n      dup6\n      and\n      0x00\n      swap1\n      dup2\n      mstore\n        /* \"@thirdweb-dev/contracts/base/ERC1155LazyMint.sol\":7201:7217   */\n      0x03\n        /* \"@thirdweb-dev/contracts/base/ERC1155LazyMint.sol\":7201:7225   */\n      0x20\n      swap1\n      dup2\n      mstore\n      0x40\n      dup1\n      dup4\n      keccak256\n        /* \"@thirdweb-dev/contracts/base/ERC1155LazyMint.sol\":7201:7233   */\n      swap4\n      dup6\n      and\n      dup4\n      mstore\n      swap3\n      swap1\n      mstore\n      keccak256\n      sload\n      0xff\n      and\n        /* \"@thirdweb-dev/contracts/base/ERC1155LazyMint.sol\":7181:7233   */\n    tag_281:\n        /* \"@thirdweb-dev/contracts/base/ERC1155LazyMint.sol\":7173:7255   */\n      tag_282\n      jumpi\n      mload(0x40)\n      shl(0xe5, 0x461bcd)\n      dup2\n      mstore\n        /* \"#utility.yul\":16893:16895   */\n      0x20\n        /* \"@thirdweb-dev/contracts/base/ERC1155LazyMint.sol\":7173:7255   */\n      0x04\n      dup3\n      add\n        /* \"#utility.yul\":16875:16896   */\n      mstore\n        /* \"#utility.yul\":16932:16934   */\n      0x11\n        /* \"#utility.yul\":16912:16930   */\n      0x24\n      dup3\n      add\n        /* \"#utility.yul\":16905:16935   */\n      mstore\n        /* \"#utility.yul\":16971:16990   */\n      0x556e617070726f7665642063616c6c6572000000000000000000000000000000\n        /* \"#utility.yul\":16951:16969   */\n      0x44\n      dup3\n      add\n        /* \"#utility.yul\":16944:16991   */\n      mstore\n        /* \"#utility.yul\":17008:17026   */\n      0x64\n      add\n        /* \"@thirdweb-dev/contracts/base/ERC1155LazyMint.sol\":7173:7255   */\n      tag_220\n        /* \"#utility.yul\":16691:17032   */\n      jump\n        /* \"@thirdweb-dev/contracts/base/ERC1155LazyMint.sol\":7173:7255   */\n    tag_282:\n        /* \"@thirdweb-dev/contracts/base/ERC1155LazyMint.sol\":7293:7301   */\n      dup2\n        /* \"@thirdweb-dev/contracts/base/ERC1155LazyMint.sol\":7293:7308   */\n      mload\n        /* \"@thirdweb-dev/contracts/base/ERC1155LazyMint.sol\":7273:7282   */\n      dup4\n        /* \"@thirdweb-dev/contracts/base/ERC1155LazyMint.sol\":7273:7289   */\n      mload\n        /* \"@thirdweb-dev/contracts/base/ERC1155LazyMint.sol\":7273:7308   */\n      eq\n        /* \"@thirdweb-dev/contracts/base/ERC1155LazyMint.sol\":7265:7328   */\n      tag_285\n      jumpi\n      mload(0x40)\n      shl(0xe5, 0x461bcd)\n      dup2\n      mstore\n        /* \"#utility.yul\":17239:17241   */\n      0x20\n        /* \"@thirdweb-dev/contracts/base/ERC1155LazyMint.sol\":7265:7328   */\n      0x04\n      dup3\n      add\n        /* \"#utility.yul\":17221:17242   */\n      mstore\n        /* \"#utility.yul\":17278:17280   */\n      0x0f\n        /* \"#utility.yul\":17258:17276   */\n      0x24\n      dup3\n      add\n        /* \"#utility.yul\":17251:17281   */\n      mstore\n        /* \"#utility.yul\":17317:17334   */\n      0x4c656e677468206d69736d617463680000000000000000000000000000000000\n        /* \"#utility.yul\":17297:17315   */\n      0x44\n      dup3\n      add\n        /* \"#utility.yul\":17290:17335   */\n      mstore\n        /* \"#utility.yul\":17352:17370   */\n      0x64\n      add\n        /* \"@thirdweb-dev/contracts/base/ERC1155LazyMint.sol\":7265:7328   */\n      tag_220\n        /* \"#utility.yul\":17037:17376   */\n      jump\n        /* \"@thirdweb-dev/contracts/base/ERC1155LazyMint.sol\":7265:7328   */\n    tag_285:\n        /* \"@thirdweb-dev/contracts/base/ERC1155LazyMint.sol\":7344:7353   */\n      0x00\n        /* \"@thirdweb-dev/contracts/base/ERC1155LazyMint.sol\":7339:7496   */\n    tag_288:\n        /* \"@thirdweb-dev/contracts/base/ERC1155LazyMint.sol\":7363:7372   */\n      dup4\n        /* \"@thirdweb-dev/contracts/base/ERC1155LazyMint.sol\":7363:7379   */\n      mload\n        /* \"@thirdweb-dev/contracts/base/ERC1155LazyMint.sol\":7359:7360   */\n      dup2\n        /* \"@thirdweb-dev/contracts/base/ERC1155LazyMint.sol\":7359:7379   */\n      lt\n        /* \"@thirdweb-dev/contracts/base/ERC1155LazyMint.sol\":7339:7496   */\n      iszero\n      tag_289\n      jumpi\n        /* \"@thirdweb-dev/contracts/base/ERC1155LazyMint.sol\":7446:7454   */\n      dup3\n        /* \"@thirdweb-dev/contracts/base/ERC1155LazyMint.sol\":7455:7456   */\n      dup2\n        /* \"@thirdweb-dev/contracts/base/ERC1155LazyMint.sol\":7446:7457   */\n      dup2\n      mload\n      dup2\n      lt\n      tag_292\n      jumpi\n      tag_292\n      tag_223\n      jump\t// in\n    tag_292:\n      0x20\n      mul\n      0x20\n      add\n      add\n      mload\n        /* \"@thirdweb-dev/contracts/base/ERC1155LazyMint.sol\":7411:7420   */\n      0x02\n        /* \"@thirdweb-dev/contracts/base/ERC1155LazyMint.sol\":7411:7428   */\n      0x00\n        /* \"@thirdweb-dev/contracts/base/ERC1155LazyMint.sol\":7421:7427   */\n      dup8\n      sub(shl(0xa0, 0x01), 0x01)\n        /* \"@thirdweb-dev/contracts/base/ERC1155LazyMint.sol\":7411:7428   */\n      and\n      sub(shl(0xa0, 0x01), 0x01)\n      and\n      dup2\n      mstore\n      0x20\n      add\n      swap1\n      dup2\n      mstore\n      0x20\n      add\n      0x00\n      keccak256\n        /* \"@thirdweb-dev/contracts/base/ERC1155LazyMint.sol\":7411:7442   */\n      0x00\n        /* \"@thirdweb-dev/contracts/base/ERC1155LazyMint.sol\":7429:7438   */\n      dup7\n        /* \"@thirdweb-dev/contracts/base/ERC1155LazyMint.sol\":7439:7440   */\n      dup5\n        /* \"@thirdweb-dev/contracts/base/ERC1155LazyMint.sol\":7429:7441   */\n      dup2\n      mload\n      dup2\n      lt\n      tag_294\n      jumpi\n      tag_294\n      tag_223\n      jump\t// in\n    tag_294:\n      0x20\n      mul\n      0x20\n      add\n      add\n      mload\n        /* \"@thirdweb-dev/contracts/base/ERC1155LazyMint.sol\":7411:7442   */\n      dup2\n      mstore\n      0x20\n      add\n      swap1\n      dup2\n      mstore\n      0x20\n      add\n      0x00\n      keccak256\n      sload\n        /* \"@thirdweb-dev/contracts/base/ERC1155LazyMint.sol\":7411:7457   */\n      lt\n      iszero\n        /* \"@thirdweb-dev/contracts/base/ERC1155LazyMint.sol\":7403:7485   */\n      tag_295\n      jumpi\n      mload(0x40)\n      shl(0xe5, 0x461bcd)\n      dup2\n      mstore\n        /* \"#utility.yul\":17583:17585   */\n      0x20\n        /* \"@thirdweb-dev/contracts/base/ERC1155LazyMint.sol\":7403:7485   */\n      0x04\n      dup3\n      add\n        /* \"#utility.yul\":17565:17586   */\n      mstore\n        /* \"#utility.yul\":17622:17624   */\n      0x17\n        /* \"#utility.yul\":17602:17620   */\n      0x24\n      dup3\n      add\n        /* \"#utility.yul\":17595:17625   */\n      mstore\n        /* \"#utility.yul\":17661:17686   */\n      0x4e6f7420656e6f75676820746f6b656e73206f776e6564000000000000000000\n        /* \"#utility.yul\":17641:17659   */\n      0x44\n      dup3\n      add\n        /* \"#utility.yul\":17634:17687   */\n      mstore\n        /* \"#utility.yul\":17704:17722   */\n      0x64\n      add\n        /* \"@thirdweb-dev/contracts/base/ERC1155LazyMint.sol\":7403:7485   */\n      tag_220\n        /* \"#utility.yul\":17381:17728   */\n      jump\n        /* \"@thirdweb-dev/contracts/base/ERC1155LazyMint.sol\":7403:7485   */\n    tag_295:\n        /* \"@thirdweb-dev/contracts/base/ERC1155LazyMint.sol\":7381:7387   */\n      tag_298\n        /* \"@thirdweb-dev/contracts/base/ERC1155LazyMint.sol\":7386:7387   */\n      0x01\n        /* \"@thirdweb-dev/contracts/base/ERC1155LazyMint.sol\":7381:7387   */\n      dup3\n      tag_299\n      jump\t// in\n    tag_298:\n      swap1\n      pop\n        /* \"@thirdweb-dev/contracts/base/ERC1155LazyMint.sol\":7339:7496   */\n      jump(tag_288)\n    tag_289:\n      pop\n        /* \"@thirdweb-dev/contracts/base/ERC1155LazyMint.sol\":7506:7545   */\n      tag_300\n        /* \"@thirdweb-dev/contracts/base/ERC1155LazyMint.sol\":7517:7523   */\n      dup5\n        /* \"@thirdweb-dev/contracts/base/ERC1155LazyMint.sol\":7525:7534   */\n      dup5\n        /* \"@thirdweb-dev/contracts/base/ERC1155LazyMint.sol\":7536:7544   */\n      dup5\n        /* \"@thirdweb-dev/contracts/base/ERC1155LazyMint.sol\":7506:7516   */\n      tag_301\n        /* \"@thirdweb-dev/contracts/base/ERC1155LazyMint.sol\":7506:7545   */\n      jump\t// in\n    tag_300:\n        /* \"@thirdweb-dev/contracts/base/ERC1155LazyMint.sol\":7125:7552   */\n      pop\n        /* \"@thirdweb-dev/contracts/base/ERC1155LazyMint.sol\":7018:7552   */\n      pop\n      pop\n      pop\n      jump\t// out\n        /* \"@thirdweb-dev/contracts/extension/ContractMetadata.sol\":1110:1311   */\n    tag_138:\n        /* \"@thirdweb-dev/contracts/extension/ContractMetadata.sol\":1187:1207   */\n      tag_304\n        /* \"@thirdweb-dev/contracts/extension/ContractMetadata.sol\":1187:1205   */\n      tag_213\n        /* \"@thirdweb-dev/contracts/extension/ContractMetadata.sol\":1187:1207   */\n      jump\t// in\n    tag_304:\n        /* \"@thirdweb-dev/contracts/extension/ContractMetadata.sol\":1182:1271   */\n      tag_306\n      jumpi\n        /* \"@thirdweb-dev/contracts/extension/ContractMetadata.sol\":1230:1260   */\n      mload(0x40)\n      shl(0xe0, 0x9f7f0925)\n      dup2\n      mstore\n      0x04\n      add\n      mload(0x40)\n      dup1\n      swap2\n      sub\n      swap1\n      revert\n        /* \"@thirdweb-dev/contracts/extension/ContractMetadata.sol\":1182:1271   */\n    tag_306:\n        /* \"@thirdweb-dev/contracts/extension/ContractMetadata.sol\":1281:1304   */\n      tag_215\n        /* \"@thirdweb-dev/contracts/extension/ContractMetadata.sol\":1299:1303   */\n      dup2\n        /* \"@thirdweb-dev/contracts/extension/ContractMetadata.sol\":1281:1298   */\n      tag_308\n        /* \"@thirdweb-dev/contracts/extension/ContractMetadata.sol\":1281:1304   */\n      jump\t// in\n        /* \"@thirdweb-dev/contracts/eip/ERC1155.sol\":442:462   */\n    tag_141:\n      0x01\n      dup1\n      sload\n      tag_198\n      swap1\n      tag_199\n      jump\t// in\n        /* \"@thirdweb-dev/contracts/extension/Royalty.sol\":4595:4857   */\n    tag_147:\n        /* \"@thirdweb-dev/contracts/extension/Royalty.sol\":4712:4732   */\n      tag_315\n        /* \"@thirdweb-dev/contracts/extension/Royalty.sol\":4712:4730   */\n      tag_213\n        /* \"@thirdweb-dev/contracts/extension/Royalty.sol\":4712:4732   */\n      jump\t// in\n    tag_315:\n        /* \"@thirdweb-dev/contracts/extension/Royalty.sol\":4707:4787   */\n      tag_316\n      jumpi\n        /* \"@thirdweb-dev/contracts/extension/Royalty.sol\":4755:4776   */\n      mload(0x40)\n      shl(0xe1, 0x6fae3581)\n      dup2\n      mstore\n      0x04\n      add\n      mload(0x40)\n      dup1\n      swap2\n      sub\n      swap1\n      revert\n        /* \"@thirdweb-dev/contracts/extension/Royalty.sol\":4707:4787   */\n    tag_316:\n        /* \"@thirdweb-dev/contracts/extension/Royalty.sol\":4797:4850   */\n      tag_96\n        /* \"@thirdweb-dev/contracts/extension/Royalty.sol\":4823:4831   */\n      dup4\n        /* \"@thirdweb-dev/contracts/extension/Royalty.sol\":4833:4843   */\n      dup4\n        /* \"@thirdweb-dev/contracts/extension/Royalty.sol\":4845:4849   */\n      dup4\n        /* \"@thirdweb-dev/contracts/extension/Royalty.sol\":4797:4822   */\n      tag_318\n        /* \"@thirdweb-dev/contracts/extension/Royalty.sol\":4797:4850   */\n      jump\t// in\n        /* \"@thirdweb-dev/contracts/eip/ERC1155.sol\":2435:2726   */\n    tag_152:\n        /* \"@thirdweb-dev/contracts/eip/ERC1155.sol\":2545:2555   */\n      caller\n      sub(shl(0xa0, 0x01), 0x01)\n        /* \"@thirdweb-dev/contracts/eip/ERC1155.sol\":2573:2590   */\n      dup4\n      and\n      dup2\n      sub\n        /* \"@thirdweb-dev/contracts/eip/ERC1155.sol\":2565:2609   */\n      tag_320\n      jumpi\n      mload(0x40)\n      shl(0xe5, 0x461bcd)\n      dup2\n      mstore\n        /* \"#utility.yul\":18065:18067   */\n      0x20\n        /* \"@thirdweb-dev/contracts/eip/ERC1155.sol\":2565:2609   */\n      0x04\n      dup3\n      add\n        /* \"#utility.yul\":18047:18068   */\n      mstore\n        /* \"#utility.yul\":18104:18106   */\n      0x0e\n        /* \"#utility.yul\":18084:18102   */\n      0x24\n      dup3\n      add\n        /* \"#utility.yul\":18077:18107   */\n      mstore\n        /* \"#utility.yul\":18143:18159   */\n      0x415050524f56494e475f53454c46000000000000000000000000000000000000\n        /* \"#utility.yul\":18123:18141   */\n      0x44\n      dup3\n      add\n        /* \"#utility.yul\":18116:18160   */\n      mstore\n        /* \"#utility.yul\":18177:18195   */\n      0x64\n      add\n        /* \"@thirdweb-dev/contracts/eip/ERC1155.sol\":2565:2609   */\n      tag_220\n        /* \"#utility.yul\":17863:18201   */\n      jump\n        /* \"@thirdweb-dev/contracts/eip/ERC1155.sol\":2565:2609   */\n    tag_320:\n      sub(shl(0xa0, 0x01), 0x01)\n        /* \"@thirdweb-dev/contracts/eip/ERC1155.sol\":2619:2642   */\n      dup2\n      dup2\n      and\n      0x00\n      dup2\n      dup2\n      mstore\n        /* \"@thirdweb-dev/contracts/eip/ERC1155.sol\":2619:2635   */\n      0x03\n        /* \"@thirdweb-dev/contracts/eip/ERC1155.sol\":2619:2642   */\n      0x20\n      swap1\n      dup2\n      mstore\n      0x40\n      dup1\n      dup4\n      keccak256\n        /* \"@thirdweb-dev/contracts/eip/ERC1155.sol\":2619:2652   */\n      swap5\n      dup9\n      and\n      dup1\n      dup5\n      mstore\n      swap5\n      dup3\n      mstore\n      swap2\n      dup3\n      swap1\n      keccak256\n        /* \"@thirdweb-dev/contracts/eip/ERC1155.sol\":2619:2663   */\n      dup1\n      sload\n      not(0xff)\n      and\n      dup8\n      iszero\n      iszero\n      swap1\n      dup2\n      or\n      swap1\n      swap2\n      sstore\n        /* \"@thirdweb-dev/contracts/eip/ERC1155.sol\":2678:2719   */\n      swap2\n      mload\n        /* \"#utility.yul\":1182:1223   */\n      swap2\n      dup3\n      mstore\n        /* \"@thirdweb-dev/contracts/eip/ERC1155.sol\":2678:2719   */\n      0x17307eab39ab6107e8899845ad3d59bd9653f200f220920489ca2b5937696c31\n      swap2\n        /* \"#utility.yul\":1155:1173   */\n      add\n        /* \"@thirdweb-dev/contracts/eip/ERC1155.sol\":2678:2719   */\n    tag_323:\n      mload(0x40)\n      dup1\n      swap2\n      sub\n      swap1\n      log3\n        /* \"@thirdweb-dev/contracts/eip/ERC1155.sol\":2519:2726   */\n      pop\n        /* \"@thirdweb-dev/contracts/eip/ERC1155.sol\":2435:2726   */\n      pop\n      pop\n      jump\t// out\n        /* \"@thirdweb-dev/contracts/extension/Multicall.sol\":696:1263   */\n    tag_157:\n        /* \"@thirdweb-dev/contracts/extension/Multicall.sol\":756:778   */\n      0x60\n        /* \"@thirdweb-dev/contracts/extension/Multicall.sol\":812:816   */\n      dup2\n        /* \"@thirdweb-dev/contracts/extension/Multicall.sol\":800:824   */\n      0xffffffffffffffff\n      dup2\n      gt\n      iszero\n      tag_326\n      jumpi\n      tag_326\n      tag_262\n      jump\t// in\n    tag_326:\n      mload(0x40)\n      swap1\n      dup1\n      dup3\n      mstore\n      dup1\n      0x20\n      mul\n      0x20\n      add\n      dup3\n      add\n      0x40\n      mstore\n      dup1\n      iszero\n      tag_327\n      jumpi\n      dup2\n      0x20\n      add\n    tag_328:\n      0x60\n      dup2\n      mstore\n      0x20\n      add\n      swap1\n      0x01\n      swap1\n      sub\n      swap1\n      dup2\n      tag_328\n      jumpi\n      swap1\n      pop\n    tag_327:\n      pop\n        /* \"@thirdweb-dev/contracts/extension/Multicall.sol\":790:824   */\n      swap1\n      pop\n        /* \"@thirdweb-dev/contracts/extension/Multicall.sol\":1415:1425   */\n      caller\n        /* \"@thirdweb-dev/contracts/extension/Multicall.sol\":834:848   */\n      0x00\n      dup1\n        /* \"@thirdweb-dev/contracts/extension/Multicall.sol\":922:1233   */\n    tag_331:\n        /* \"@thirdweb-dev/contracts/extension/Multicall.sol\":942:957   */\n      dup5\n      dup2\n      lt\n        /* \"@thirdweb-dev/contracts/extension/Multicall.sol\":922:1233   */\n      iszero\n      tag_332\n      jumpi\n        /* \"@thirdweb-dev/contracts/extension/Multicall.sol\":982:993   */\n      dup2\n        /* \"@thirdweb-dev/contracts/extension/Multicall.sol\":978:1223   */\n      iszero\n      tag_334\n      jumpi\n        /* \"@thirdweb-dev/contracts/extension/Multicall.sol\":1026:1104   */\n      tag_335\n        /* \"@thirdweb-dev/contracts/extension/Multicall.sol\":1063:1067   */\n      address\n        /* \"@thirdweb-dev/contracts/extension/Multicall.sol\":1087:1091   */\n      dup8\n      dup8\n        /* \"@thirdweb-dev/contracts/extension/Multicall.sol\":1092:1093   */\n      dup5\n        /* \"@thirdweb-dev/contracts/extension/Multicall.sol\":1087:1094   */\n      dup2\n      dup2\n      lt\n      tag_337\n      jumpi\n      tag_337\n      tag_223\n      jump\t// in\n    tag_337:\n      swap1\n      pop\n      0x20\n      mul\n      dup2\n      add\n      swap1\n      tag_338\n      swap2\n      swap1\n      tag_339\n      jump\t// in\n    tag_338:\n        /* \"@thirdweb-dev/contracts/extension/Multicall.sol\":1096:1102   */\n      dup7\n        /* \"@thirdweb-dev/contracts/extension/Multicall.sol\":1070:1103   */\n      add(0x20, mload(0x40))\n      tag_340\n      swap4\n      swap3\n      swap2\n      swap1\n      tag_341\n      jump\t// in\n    tag_340:\n      mload(0x40)\n      0x20\n      dup2\n      dup4\n      sub\n      sub\n      dup2\n      mstore\n      swap1\n      0x40\n      mstore\n        /* \"@thirdweb-dev/contracts/extension/Multicall.sol\":1026:1054   */\n      tag_342\n        /* \"@thirdweb-dev/contracts/extension/Multicall.sol\":1026:1104   */\n      jump\t// in\n    tag_335:\n        /* \"@thirdweb-dev/contracts/extension/Multicall.sol\":1013:1020   */\n      dup5\n        /* \"@thirdweb-dev/contracts/extension/Multicall.sol\":1021:1022   */\n      dup3\n        /* \"@thirdweb-dev/contracts/extension/Multicall.sol\":1013:1023   */\n      dup2\n      mload\n      dup2\n      lt\n      tag_344\n      jumpi\n      tag_344\n      tag_223\n      jump\t// in\n    tag_344:\n      0x20\n      mul\n      0x20\n      add\n      add\n        /* \"@thirdweb-dev/contracts/extension/Multicall.sol\":1013:1104   */\n      dup2\n      swap1\n      mstore\n      pop\n        /* \"@thirdweb-dev/contracts/extension/Multicall.sol\":978:1223   */\n      jump(tag_345)\n    tag_334:\n        /* \"@thirdweb-dev/contracts/extension/Multicall.sol\":1156:1208   */\n      tag_346\n        /* \"@thirdweb-dev/contracts/extension/Multicall.sol\":1193:1197   */\n      address\n        /* \"@thirdweb-dev/contracts/extension/Multicall.sol\":1200:1204   */\n      dup8\n      dup8\n        /* \"@thirdweb-dev/contracts/extension/Multicall.sol\":1205:1206   */\n      dup5\n        /* \"@thirdweb-dev/contracts/extension/Multicall.sol\":1200:1207   */\n      dup2\n      dup2\n      lt\n      tag_348\n      jumpi\n      tag_348\n      tag_223\n      jump\t// in\n    tag_348:\n      swap1\n      pop\n      0x20\n      mul\n      dup2\n      add\n      swap1\n      tag_349\n      swap2\n      swap1\n      tag_339\n      jump\t// in\n    tag_349:\n        /* \"@thirdweb-dev/contracts/extension/Multicall.sol\":1156:1208   */\n      dup1\n      dup1\n      0x1f\n      add\n      0x20\n      dup1\n      swap2\n      div\n      mul\n      0x20\n      add\n      mload(0x40)\n      swap1\n      dup2\n      add\n      0x40\n      mstore\n      dup1\n      swap4\n      swap3\n      swap2\n      swap1\n      dup2\n      dup2\n      mstore\n      0x20\n      add\n      dup4\n      dup4\n      dup1\n      dup3\n      dup5\n      calldatacopy\n      0x00\n      swap3\n      add\n      swap2\n      swap1\n      swap2\n      mstore\n      pop\n        /* \"@thirdweb-dev/contracts/extension/Multicall.sol\":1156:1184   */\n      tag_342\n      swap3\n      pop\n      pop\n      pop\n        /* \"@thirdweb-dev/contracts/extension/Multicall.sol\":1156:1208   */\n      jump\t// in\n    tag_346:\n        /* \"@thirdweb-dev/contracts/extension/Multicall.sol\":1143:1150   */\n      dup5\n        /* \"@thirdweb-dev/contracts/extension/Multicall.sol\":1151:1152   */\n      dup3\n        /* \"@thirdweb-dev/contracts/extension/Multicall.sol\":1143:1153   */\n      dup2\n      mload\n      dup2\n      lt\n      tag_351\n      jumpi\n      tag_351\n      tag_223\n      jump\t// in\n    tag_351:\n      0x20\n      mul\n      0x20\n      add\n      add\n        /* \"@thirdweb-dev/contracts/extension/Multicall.sol\":1143:1208   */\n      dup2\n      swap1\n      mstore\n      pop\n        /* \"@thirdweb-dev/contracts/extension/Multicall.sol\":978:1223   */\n    tag_345:\n        /* \"@thirdweb-dev/contracts/extension/Multicall.sol\":959:962   */\n      0x01\n      add\n        /* \"@thirdweb-dev/contracts/extension/Multicall.sol\":922:1233   */\n      jump(tag_331)\n    tag_332:\n      pop\n        /* \"@thirdweb-dev/contracts/extension/Multicall.sol\":1242:1256   */\n      pop\n      pop\n        /* \"@thirdweb-dev/contracts/extension/Multicall.sol\":696:1263   */\n      swap3\n      swap2\n      pop\n      pop\n      jump\t// out\n        /* \"@thirdweb-dev/contracts/extension/LazyMint.sol\":1388:2000   */\n    tag_173:\n        /* \"@thirdweb-dev/contracts/extension/LazyMint.sol\":1543:1558   */\n      0x00\n        /* \"@thirdweb-dev/contracts/extension/LazyMint.sol\":1659:1666   */\n      dup6\n        /* \"@thirdweb-dev/contracts/extension/LazyMint.sol\":1670:1671   */\n      0x00\n        /* \"@thirdweb-dev/contracts/extension/LazyMint.sol\":1659:1671   */\n      sub\n        /* \"@thirdweb-dev/contracts/extension/LazyMint.sol\":1655:1728   */\n      tag_357\n      jumpi\n        /* \"@thirdweb-dev/contracts/extension/LazyMint.sol\":1694:1717   */\n      mload(0x40)\n      shl(0xe0, 0x8fd36a9b)\n      dup2\n      mstore\n      0x04\n      add\n      mload(0x40)\n      dup1\n      swap2\n      sub\n      swap1\n      revert\n        /* \"@thirdweb-dev/contracts/extension/LazyMint.sol\":1655:1728   */\n    tag_357:\n        /* \"@thirdweb-dev/contracts/extension/LazyMint.sol\":1738:1753   */\n      0x00\n        /* \"@thirdweb-dev/contracts/extension/LazyMint.sol\":1756:1777   */\n      sload(0x0c)\n        /* \"@thirdweb-dev/contracts/extension/LazyMint.sol\":1738:1777   */\n      swap1\n      pop\n        /* \"@thirdweb-dev/contracts/extension/LazyMint.sol\":1823:1878   */\n      tag_358\n        /* \"@thirdweb-dev/contracts/extension/LazyMint.sol\":1842:1849   */\n      dup2\n        /* \"@thirdweb-dev/contracts/extension/LazyMint.sol\":1851:1858   */\n      dup9\n        /* \"@thirdweb-dev/contracts/extension/LazyMint.sol\":1860:1877   */\n      dup9\n      dup9\n        /* \"@thirdweb-dev/contracts/extension/LazyMint.sol\":1823:1878   */\n      dup1\n      dup1\n      0x1f\n      add\n      0x20\n      dup1\n      swap2\n      div\n      mul\n      0x20\n      add\n      mload(0x40)\n      swap1\n      dup2\n      add\n      0x40\n      mstore\n      dup1\n      swap4\n      swap3\n      swap2\n      swap1\n      dup2\n      dup2\n      mstore\n      0x20\n      add\n      dup4\n      dup4\n      dup1\n      dup3\n      dup5\n      calldatacopy\n      0x00\n      swap3\n      add\n      swap2\n      swap1\n      swap2\n      mstore\n      pop\n        /* \"@thirdweb-dev/contracts/extension/LazyMint.sol\":1823:1841   */\n      tag_359\n      swap3\n      pop\n      pop\n      pop\n        /* \"@thirdweb-dev/contracts/extension/LazyMint.sol\":1823:1878   */\n      jump\t// in\n    tag_358:\n        /* \"@thirdweb-dev/contracts/extension/LazyMint.sol\":1789:1810   */\n      0x0c\n        /* \"@thirdweb-dev/contracts/extension/LazyMint.sol\":1788:1878   */\n      swap2\n      swap1\n      swap2\n      sstore\n      swap2\n      pop\n        /* \"@thirdweb-dev/contracts/extension/LazyMint.sol\":1911:1918   */\n      dup1\n        /* \"@thirdweb-dev/contracts/extension/LazyMint.sol\":1894:1968   */\n      0x2a0365091ef1a40953c670dce28177e37520648a6fdc91506bffac0ab045570d\n        /* \"@thirdweb-dev/contracts/extension/LazyMint.sol\":1940:1941   */\n      0x01\n        /* \"@thirdweb-dev/contracts/extension/LazyMint.sol\":1920:1937   */\n      tag_360\n        /* \"@thirdweb-dev/contracts/extension/LazyMint.sol\":1930:1937   */\n      dup11\n        /* \"@thirdweb-dev/contracts/extension/LazyMint.sol\":1911:1918   */\n      dup5\n        /* \"@thirdweb-dev/contracts/extension/LazyMint.sol\":1920:1937   */\n      tag_299\n      jump\t// in\n    tag_360:\n        /* \"@thirdweb-dev/contracts/extension/LazyMint.sol\":1920:1941   */\n      tag_361\n      swap2\n      swap1\n      tag_362\n      jump\t// in\n    tag_361:\n        /* \"@thirdweb-dev/contracts/extension/LazyMint.sol\":1943:1960   */\n      dup9\n      dup9\n        /* \"@thirdweb-dev/contracts/extension/LazyMint.sol\":1962:1967   */\n      dup9\n      dup9\n        /* \"@thirdweb-dev/contracts/extension/LazyMint.sol\":1894:1968   */\n      mload(0x40)\n      tag_363\n      swap6\n      swap5\n      swap4\n      swap3\n      swap2\n      swap1\n      tag_364\n      jump\t// in\n    tag_363:\n      mload(0x40)\n      dup1\n      swap2\n      sub\n      swap1\n      log2\n        /* \"@thirdweb-dev/contracts/extension/LazyMint.sol\":1979:1993   */\n      pop\n        /* \"@thirdweb-dev/contracts/extension/LazyMint.sol\":1388:2000   */\n      swap6\n      swap5\n      pop\n      pop\n      pop\n      pop\n      pop\n      jump\t// out\n        /* \"@thirdweb-dev/contracts/extension/ContractMetadata.sol\":672:706   */\n    tag_177:\n      0x05\n      dup1\n      sload\n      tag_198\n      swap1\n      tag_199\n      jump\t// in\n        /* \"@thirdweb-dev/contracts/eip/ERC1155.sol\":2732:3060   */\n    tag_189:\n      sub(shl(0xa0, 0x01), 0x01)\n        /* \"@thirdweb-dev/contracts/eip/ERC1155.sol\":2919:2937   */\n      dup6\n      and\n        /* \"@thirdweb-dev/contracts/eip/ERC1155.sol\":2927:2937   */\n      caller\n        /* \"@thirdweb-dev/contracts/eip/ERC1155.sol\":2919:2937   */\n      eq\n      dup1\n        /* \"@thirdweb-dev/contracts/eip/ERC1155.sol\":2919:2975   */\n      tag_371\n      jumpi\n      pop\n      sub(shl(0xa0, 0x01), 0x01)\n        /* \"@thirdweb-dev/contracts/eip/ERC1155.sol\":2941:2963   */\n      dup6\n      and\n      0x00\n      swap1\n      dup2\n      mstore\n        /* \"@thirdweb-dev/contracts/eip/ERC1155.sol\":2941:2957   */\n      0x03\n        /* \"@thirdweb-dev/contracts/eip/ERC1155.sol\":2941:2963   */\n      0x20\n      swap1\n      dup2\n      mstore\n      0x40\n      dup1\n      dup4\n      keccak256\n        /* \"@thirdweb-dev/contracts/eip/ERC1155.sol\":2964:2974   */\n      caller\n        /* \"@thirdweb-dev/contracts/eip/ERC1155.sol\":2941:2975   */\n      dup5\n      mstore\n      swap1\n      swap2\n      mstore\n      swap1\n      keccak256\n      sload\n      0xff\n      and\n        /* \"@thirdweb-dev/contracts/eip/ERC1155.sol\":2919:2975   */\n    tag_371:\n        /* \"@thirdweb-dev/contracts/eip/ERC1155.sol\":2911:2998   */\n      tag_372\n      jumpi\n      mload(0x40)\n      shl(0xe5, 0x461bcd)\n      dup2\n      mstore\n        /* \"#utility.yul\":16202:16204   */\n      0x20\n        /* \"@thirdweb-dev/contracts/eip/ERC1155.sol\":2911:2998   */\n      0x04\n      dup3\n      add\n        /* \"#utility.yul\":16184:16205   */\n      mstore\n        /* \"#utility.yul\":16241:16243   */\n      0x12\n        /* \"#utility.yul\":16221:16239   */\n      0x24\n      dup3\n      add\n        /* \"#utility.yul\":16214:16244   */\n      mstore\n        /* \"#utility.yul\":16280:16300   */\n      0x214f574e45525f4f525f415050524f5645440000000000000000000000000000\n        /* \"#utility.yul\":16260:16278   */\n      0x44\n      dup3\n      add\n        /* \"#utility.yul\":16253:16301   */\n      mstore\n        /* \"#utility.yul\":16318:16336   */\n      0x64\n      add\n        /* \"@thirdweb-dev/contracts/eip/ERC1155.sol\":2911:2998   */\n      tag_220\n        /* \"#utility.yul\":16000:16342   */\n      jump\n        /* \"@thirdweb-dev/contracts/eip/ERC1155.sol\":2911:2998   */\n    tag_372:\n        /* \"@thirdweb-dev/contracts/eip/ERC1155.sol\":3008:3053   */\n      tag_249\n        /* \"@thirdweb-dev/contracts/eip/ERC1155.sol\":3026:3030   */\n      dup6\n        /* \"@thirdweb-dev/contracts/eip/ERC1155.sol\":3032:3034   */\n      dup6\n        /* \"@thirdweb-dev/contracts/eip/ERC1155.sol\":3036:3038   */\n      dup6\n        /* \"@thirdweb-dev/contracts/eip/ERC1155.sol\":3040:3046   */\n      dup6\n        /* \"@thirdweb-dev/contracts/eip/ERC1155.sol\":3048:3052   */\n      dup6\n        /* \"@thirdweb-dev/contracts/eip/ERC1155.sol\":3008:3025   */\n      tag_375\n        /* \"@thirdweb-dev/contracts/eip/ERC1155.sol\":3008:3053   */\n      jump\t// in\n        /* \"@thirdweb-dev/contracts/base/ERC1155LazyMint.sol\":6378:6724   */\n    tag_193:\n        /* \"@thirdweb-dev/contracts/base/ERC1155LazyMint.sol\":6487:6497   */\n      caller\n      sub(shl(0xa0, 0x01), 0x01)\n        /* \"@thirdweb-dev/contracts/base/ERC1155LazyMint.sol\":6516:6532   */\n      dup5\n      and\n      dup2\n      eq\n      dup1\n        /* \"@thirdweb-dev/contracts/base/ERC1155LazyMint.sol\":6516:6568   */\n      tag_377\n      jumpi\n      pop\n      sub(shl(0xa0, 0x01), 0x01)\n        /* \"@thirdweb-dev/contracts/base/ERC1155LazyMint.sol\":6536:6560   */\n      dup1\n      dup6\n      and\n      0x00\n      swap1\n      dup2\n      mstore\n        /* \"@thirdweb-dev/contracts/base/ERC1155LazyMint.sol\":6536:6552   */\n      0x03\n        /* \"@thirdweb-dev/contracts/base/ERC1155LazyMint.sol\":6536:6560   */\n      0x20\n      swap1\n      dup2\n      mstore\n      0x40\n      dup1\n      dup4\n      keccak256\n        /* \"@thirdweb-dev/contracts/base/ERC1155LazyMint.sol\":6536:6568   */\n      swap4\n      dup6\n      and\n      dup4\n      mstore\n      swap3\n      swap1\n      mstore\n      keccak256\n      sload\n      0xff\n      and\n        /* \"@thirdweb-dev/contracts/base/ERC1155LazyMint.sol\":6516:6568   */\n    tag_377:\n        /* \"@thirdweb-dev/contracts/base/ERC1155LazyMint.sol\":6508:6590   */\n      tag_378\n      jumpi\n      mload(0x40)\n      shl(0xe5, 0x461bcd)\n      dup2\n      mstore\n        /* \"#utility.yul\":16893:16895   */\n      0x20\n        /* \"@thirdweb-dev/contracts/base/ERC1155LazyMint.sol\":6508:6590   */\n      0x04\n      dup3\n      add\n        /* \"#utility.yul\":16875:16896   */\n      mstore\n        /* \"#utility.yul\":16932:16934   */\n      0x11\n        /* \"#utility.yul\":16912:16930   */\n      0x24\n      dup3\n      add\n        /* \"#utility.yul\":16905:16935   */\n      mstore\n        /* \"#utility.yul\":16971:16990   */\n      0x556e617070726f7665642063616c6c6572000000000000000000000000000000\n        /* \"#utility.yul\":16951:16969   */\n      0x44\n      dup3\n      add\n        /* \"#utility.yul\":16944:16991   */\n      mstore\n        /* \"#utility.yul\":17008:17026   */\n      0x64\n      add\n        /* \"@thirdweb-dev/contracts/base/ERC1155LazyMint.sol\":6508:6590   */\n      tag_220\n        /* \"#utility.yul\":16691:17032   */\n      jump\n        /* \"@thirdweb-dev/contracts/base/ERC1155LazyMint.sol\":6508:6590   */\n    tag_378:\n      sub(shl(0xa0, 0x01), 0x01)\n        /* \"@thirdweb-dev/contracts/base/ERC1155LazyMint.sol\":6608:6625   */\n      dup5\n      and\n      0x00\n      swap1\n      dup2\n      mstore\n        /* \"@thirdweb-dev/contracts/base/ERC1155LazyMint.sol\":6608:6617   */\n      0x02\n        /* \"@thirdweb-dev/contracts/base/ERC1155LazyMint.sol\":6608:6625   */\n      0x20\n      swap1\n      dup2\n      mstore\n      0x40\n      dup1\n      dup4\n      keccak256\n        /* \"@thirdweb-dev/contracts/base/ERC1155LazyMint.sol\":6608:6635   */\n      dup7\n      dup5\n      mstore\n      swap1\n      swap2\n      mstore\n      swap1\n      keccak256\n      sload\n        /* \"@thirdweb-dev/contracts/base/ERC1155LazyMint.sol\":6608:6646   */\n      dup3\n      gt\n      iszero\n        /* \"@thirdweb-dev/contracts/base/ERC1155LazyMint.sol\":6600:6674   */\n      tag_380\n      jumpi\n      mload(0x40)\n      shl(0xe5, 0x461bcd)\n      dup2\n      mstore\n        /* \"#utility.yul\":17583:17585   */\n      0x20\n        /* \"@thirdweb-dev/contracts/base/ERC1155LazyMint.sol\":6600:6674   */\n      0x04\n      dup3\n      add\n        /* \"#utility.yul\":17565:17586   */\n      mstore\n        /* \"#utility.yul\":17622:17624   */\n      0x17\n        /* \"#utility.yul\":17602:17620   */\n      0x24\n      dup3\n      add\n        /* \"#utility.yul\":17595:17625   */\n      mstore\n        /* \"#utility.yul\":17661:17686   */\n      0x4e6f7420656e6f75676820746f6b656e73206f776e6564000000000000000000\n        /* \"#utility.yul\":17641:17659   */\n      0x44\n      dup3\n      add\n        /* \"#utility.yul\":17634:17687   */\n      mstore\n        /* \"#utility.yul\":17704:17722   */\n      0x64\n      add\n        /* \"@thirdweb-dev/contracts/base/ERC1155LazyMint.sol\":6600:6674   */\n      tag_220\n        /* \"#utility.yul\":17381:17728   */\n      jump\n        /* \"@thirdweb-dev/contracts/base/ERC1155LazyMint.sol\":6600:6674   */\n    tag_380:\n        /* \"@thirdweb-dev/contracts/base/ERC1155LazyMint.sol\":6685:6717   */\n      tag_300\n        /* \"@thirdweb-dev/contracts/base/ERC1155LazyMint.sol\":6691:6697   */\n      dup5\n        /* \"@thirdweb-dev/contracts/base/ERC1155LazyMint.sol\":6699:6707   */\n      dup5\n        /* \"@thirdweb-dev/contracts/base/ERC1155LazyMint.sol\":6709:6716   */\n      dup5\n        /* \"@thirdweb-dev/contracts/base/ERC1155LazyMint.sol\":6685:6690   */\n      tag_383\n        /* \"@thirdweb-dev/contracts/base/ERC1155LazyMint.sol\":6685:6717   */\n      jump\t// in\n        /* \"@thirdweb-dev/contracts/extension/BatchMintMetadata.sol\":3185:3591   */\n    tag_206:\n        /* \"@thirdweb-dev/contracts/extension/BatchMintMetadata.sol\":3247:3260   */\n      0x60\n        /* \"@thirdweb-dev/contracts/extension/BatchMintMetadata.sol\":3272:3297   */\n      0x00\n        /* \"@thirdweb-dev/contracts/extension/BatchMintMetadata.sol\":3300:3317   */\n      tag_385\n        /* \"@thirdweb-dev/contracts/extension/BatchMintMetadata.sol\":2035:2043   */\n      0x09\n        /* \"@thirdweb-dev/contracts/extension/BatchMintMetadata.sol\":2035:2050   */\n      sload\n      swap1\n        /* \"@thirdweb-dev/contracts/extension/BatchMintMetadata.sol\":1961:2057   */\n      jump\n        /* \"@thirdweb-dev/contracts/extension/BatchMintMetadata.sol\":3300:3317   */\n    tag_385:\n        /* \"@thirdweb-dev/contracts/extension/BatchMintMetadata.sol\":3272:3317   */\n      swap1\n      pop\n        /* \"@thirdweb-dev/contracts/extension/BatchMintMetadata.sol\":3327:3351   */\n      0x00\n        /* \"@thirdweb-dev/contracts/extension/BatchMintMetadata.sol\":3354:3362   */\n      0x09\n        /* \"@thirdweb-dev/contracts/extension/BatchMintMetadata.sol\":3327:3362   */\n      dup1\n      sload\n      dup1\n      0x20\n      mul\n      0x20\n      add\n      mload(0x40)\n      swap1\n      dup2\n      add\n      0x40\n      mstore\n      dup1\n      swap3\n      swap2\n      swap1\n      dup2\n      dup2\n      mstore\n      0x20\n      add\n      dup3\n      dup1\n      sload\n      dup1\n      iszero\n      tag_386\n      jumpi\n      0x20\n      mul\n      dup3\n      add\n      swap2\n      swap1\n      0x00\n      mstore\n      keccak256(0x00, 0x20)\n      swap1\n    tag_387:\n      dup2\n      sload\n      dup2\n      mstore\n      0x20\n      add\n      swap1\n      0x01\n      add\n      swap1\n      dup1\n      dup4\n      gt\n      tag_387\n      jumpi\n    tag_386:\n      pop\n      pop\n      pop\n      pop\n      pop\n      swap1\n      pop\n        /* \"@thirdweb-dev/contracts/extension/BatchMintMetadata.sol\":3378:3387   */\n      0x00\n        /* \"@thirdweb-dev/contracts/extension/BatchMintMetadata.sol\":3373:3534   */\n    tag_388:\n        /* \"@thirdweb-dev/contracts/extension/BatchMintMetadata.sol\":3397:3414   */\n      dup3\n        /* \"@thirdweb-dev/contracts/extension/BatchMintMetadata.sol\":3393:3394   */\n      dup2\n        /* \"@thirdweb-dev/contracts/extension/BatchMintMetadata.sol\":3393:3414   */\n      lt\n        /* \"@thirdweb-dev/contracts/extension/BatchMintMetadata.sol\":3373:3534   */\n      iszero\n      tag_389\n      jumpi\n        /* \"@thirdweb-dev/contracts/extension/BatchMintMetadata.sol\":3453:3460   */\n      dup2\n        /* \"@thirdweb-dev/contracts/extension/BatchMintMetadata.sol\":3461:3462   */\n      dup2\n        /* \"@thirdweb-dev/contracts/extension/BatchMintMetadata.sol\":3453:3463   */\n      dup2\n      mload\n      dup2\n      lt\n      tag_392\n      jumpi\n      tag_392\n      tag_223\n      jump\t// in\n    tag_392:\n      0x20\n      mul\n      0x20\n      add\n      add\n      mload\n        /* \"@thirdweb-dev/contracts/extension/BatchMintMetadata.sol\":3442:3450   */\n      dup6\n        /* \"@thirdweb-dev/contracts/extension/BatchMintMetadata.sol\":3442:3463   */\n      lt\n        /* \"@thirdweb-dev/contracts/extension/BatchMintMetadata.sol\":3438:3524   */\n      iszero\n      tag_393\n      jumpi\n        /* \"@thirdweb-dev/contracts/extension/BatchMintMetadata.sol\":3490:3497   */\n      0x0a\n        /* \"@thirdweb-dev/contracts/extension/BatchMintMetadata.sol\":3490:3509   */\n      0x00\n        /* \"@thirdweb-dev/contracts/extension/BatchMintMetadata.sol\":3498:3505   */\n      dup4\n        /* \"@thirdweb-dev/contracts/extension/BatchMintMetadata.sol\":3506:3507   */\n      dup4\n        /* \"@thirdweb-dev/contracts/extension/BatchMintMetadata.sol\":3498:3508   */\n      dup2\n      mload\n      dup2\n      lt\n      tag_395\n      jumpi\n      tag_395\n      tag_223\n      jump\t// in\n    tag_395:\n      0x20\n      mul\n      0x20\n      add\n      add\n      mload\n        /* \"@thirdweb-dev/contracts/extension/BatchMintMetadata.sol\":3490:3509   */\n      dup2\n      mstore\n      0x20\n      add\n      swap1\n      dup2\n      mstore\n      0x20\n      add\n      0x00\n      keccak256\n        /* \"@thirdweb-dev/contracts/extension/BatchMintMetadata.sol\":3483:3509   */\n      dup1\n      sload\n      tag_396\n      swap1\n      tag_199\n      jump\t// in\n    tag_396:\n      dup1\n      0x1f\n      add\n      0x20\n      dup1\n      swap2\n      div\n      mul\n      0x20\n      add\n      mload(0x40)\n      swap1\n      dup2\n      add\n      0x40\n      mstore\n      dup1\n      swap3\n      swap2\n      swap1\n      dup2\n      dup2\n      mstore\n      0x20\n      add\n      dup3\n      dup1\n      sload\n      tag_397\n      swap1\n      tag_199\n      jump\t// in\n    tag_397:\n      dup1\n      iszero\n      tag_398\n      jumpi\n      dup1\n      0x1f\n      lt\n      tag_399\n      jumpi\n      0x0100\n      dup1\n      dup4\n      sload\n      div\n      mul\n      dup4\n      mstore\n      swap2\n      0x20\n      add\n      swap2\n      jump(tag_398)\n    tag_399:\n      dup3\n      add\n      swap2\n      swap1\n      0x00\n      mstore\n      keccak256(0x00, 0x20)\n      swap1\n    tag_400:\n      dup2\n      sload\n      dup2\n      mstore\n      swap1\n      0x01\n      add\n      swap1\n      0x20\n      add\n      dup1\n      dup4\n      gt\n      tag_400\n      jumpi\n      dup3\n      swap1\n      sub\n      0x1f\n      and\n      dup3\n      add\n      swap2\n    tag_398:\n      pop\n      pop\n      pop\n      pop\n      pop\n      swap4\n      pop\n      pop\n      pop\n      pop\n        /* \"@thirdweb-dev/contracts/extension/BatchMintMetadata.sol\":3185:3591   */\n      swap2\n      swap1\n      pop\n      jump\t// out\n        /* \"@thirdweb-dev/contracts/extension/BatchMintMetadata.sol\":3438:3524   */\n    tag_393:\n        /* \"@thirdweb-dev/contracts/extension/BatchMintMetadata.sol\":3416:3422   */\n      tag_401\n        /* \"@thirdweb-dev/contracts/extension/BatchMintMetadata.sol\":3421:3422   */\n      0x01\n        /* \"@thirdweb-dev/contracts/extension/BatchMintMetadata.sol\":3416:3422   */\n      dup3\n      tag_299\n      jump\t// in\n    tag_401:\n      swap1\n      pop\n        /* \"@thirdweb-dev/contracts/extension/BatchMintMetadata.sol\":3373:3534   */\n      jump(tag_388)\n    tag_389:\n      pop\n        /* \"@thirdweb-dev/contracts/extension/BatchMintMetadata.sol\":3551:3584   */\n      mload(0x40)\n      shl(0xe2, 0x09797f69)\n      dup2\n      mstore\n      0x04\n      dup2\n      add\n        /* \"#utility.yul\":620:645   */\n      dup6\n      swap1\n      mstore\n        /* \"#utility.yul\":593:611   */\n      0x24\n      add\n        /* \"@thirdweb-dev/contracts/extension/BatchMintMetadata.sol\":3551:3584   */\n      tag_220\n        /* \"#utility.yul\":474:651   */\n      jump\n        /* \"@thirdweb-dev/contracts/lib/Strings.sol\":303:1006   */\n    tag_208:\n        /* \"@thirdweb-dev/contracts/lib/Strings.sol\":359:372   */\n      0x60\n        /* \"@thirdweb-dev/contracts/lib/Strings.sol\":576:581   */\n      dup2\n        /* \"@thirdweb-dev/contracts/lib/Strings.sol\":585:586   */\n      0x00\n        /* \"@thirdweb-dev/contracts/lib/Strings.sol\":576:586   */\n      sub\n        /* \"@thirdweb-dev/contracts/lib/Strings.sol\":572:623   */\n      tag_404\n      jumpi\n      pop\n      pop\n        /* \"@thirdweb-dev/contracts/lib/Strings.sol\":602:612   */\n      0x40\n      dup1\n      mload\n      dup1\n      dup3\n      add\n      swap1\n      swap2\n      mstore\n      0x01\n      dup2\n      mstore\n      shl(0xfc, 0x03)\n      0x20\n      dup3\n      add\n      mstore\n      swap1\n        /* \"@thirdweb-dev/contracts/lib/Strings.sol\":303:1006   */\n      jump\t// out\n        /* \"@thirdweb-dev/contracts/lib/Strings.sol\":572:623   */\n    tag_404:\n        /* \"@thirdweb-dev/contracts/lib/Strings.sol\":647:652   */\n      dup2\n        /* \"@thirdweb-dev/contracts/lib/Strings.sol\":632:644   */\n      0x00\n        /* \"@thirdweb-dev/contracts/lib/Strings.sol\":686:761   */\n    tag_405:\n        /* \"@thirdweb-dev/contracts/lib/Strings.sol\":693:702   */\n      dup2\n      iszero\n        /* \"@thirdweb-dev/contracts/lib/Strings.sol\":686:761   */\n      tag_406\n      jumpi\n        /* \"@thirdweb-dev/contracts/lib/Strings.sol\":718:726   */\n      dup1\n      tag_407\n      dup2\n      tag_408\n      jump\t// in\n    tag_407:\n      swap2\n      pop\n        /* \"@thirdweb-dev/contracts/lib/Strings.sol\":740:750   */\n      tag_409\n      swap1\n      pop\n        /* \"@thirdweb-dev/contracts/lib/Strings.sol\":748:750   */\n      0x0a\n        /* \"@thirdweb-dev/contracts/lib/Strings.sol\":740:750   */\n      dup4\n      tag_230\n      jump\t// in\n    tag_409:\n      swap2\n      pop\n        /* \"@thirdweb-dev/contracts/lib/Strings.sol\":686:761   */\n      jump(tag_405)\n    tag_406:\n        /* \"@thirdweb-dev/contracts/lib/Strings.sol\":770:789   */\n      0x00\n        /* \"@thirdweb-dev/contracts/lib/Strings.sol\":802:808   */\n      dup2\n        /* \"@thirdweb-dev/contracts/lib/Strings.sol\":792:809   */\n      0xffffffffffffffff\n      dup2\n      gt\n      iszero\n      tag_411\n      jumpi\n      tag_411\n      tag_262\n      jump\t// in\n    tag_411:\n      mload(0x40)\n      swap1\n      dup1\n      dup3\n      mstore\n      dup1\n      0x1f\n      add\n      not(0x1f)\n      and\n      0x20\n      add\n      dup3\n      add\n      0x40\n      mstore\n      dup1\n      iszero\n      tag_412\n      jumpi\n      0x20\n      dup3\n      add\n      dup2\n      dup1\n      calldatasize\n      dup4\n      calldatacopy\n      add\n      swap1\n      pop\n    tag_412:\n      pop\n        /* \"@thirdweb-dev/contracts/lib/Strings.sol\":770:809   */\n      swap1\n      pop\n        /* \"@thirdweb-dev/contracts/lib/Strings.sol\":819:969   */\n    tag_413:\n        /* \"@thirdweb-dev/contracts/lib/Strings.sol\":826:836   */\n      dup5\n      iszero\n        /* \"@thirdweb-dev/contracts/lib/Strings.sol\":819:969   */\n      tag_414\n      jumpi\n        /* \"@thirdweb-dev/contracts/lib/Strings.sol\":852:863   */\n      tag_415\n        /* \"@thirdweb-dev/contracts/lib/Strings.sol\":862:863   */\n      0x01\n        /* \"@thirdweb-dev/contracts/lib/Strings.sol\":852:863   */\n      dup4\n      tag_362\n      jump\t// in\n    tag_415:\n      swap2\n      pop\n        /* \"@thirdweb-dev/contracts/lib/Strings.sol\":920:930   */\n      tag_416\n        /* \"@thirdweb-dev/contracts/lib/Strings.sol\":928:930   */\n      0x0a\n        /* \"@thirdweb-dev/contracts/lib/Strings.sol\":920:925   */\n      dup7\n        /* \"@thirdweb-dev/contracts/lib/Strings.sol\":920:930   */\n      tag_417\n      jump\t// in\n    tag_416:\n        /* \"@thirdweb-dev/contracts/lib/Strings.sol\":907:931   */\n      tag_418\n      swap1\n        /* \"@thirdweb-dev/contracts/lib/Strings.sol\":907:909   */\n      0x30\n        /* \"@thirdweb-dev/contracts/lib/Strings.sol\":907:931   */\n      tag_299\n      jump\t// in\n    tag_418:\n        /* \"@thirdweb-dev/contracts/lib/Strings.sol\":894:933   */\n      0xf8\n      shl\n        /* \"@thirdweb-dev/contracts/lib/Strings.sol\":877:883   */\n      dup2\n        /* \"@thirdweb-dev/contracts/lib/Strings.sol\":884:890   */\n      dup4\n        /* \"@thirdweb-dev/contracts/lib/Strings.sol\":877:891   */\n      dup2\n      mload\n      dup2\n      lt\n      tag_420\n      jumpi\n      tag_420\n      tag_223\n      jump\t// in\n    tag_420:\n      0x20\n      add\n      add\n        /* \"@thirdweb-dev/contracts/lib/Strings.sol\":877:933   */\n      swap1\n      not(0xffffffffffffffffffffffffffffffffffffffffffffffffffffffffffffff)\n      and\n      swap1\n      dup2\n      0x00\n      byte\n      swap1\n      mstore8\n      pop\n        /* \"@thirdweb-dev/contracts/lib/Strings.sol\":947:958   */\n      tag_421\n        /* \"@thirdweb-dev/contracts/lib/Strings.sol\":956:958   */\n      0x0a\n        /* \"@thirdweb-dev/contracts/lib/Strings.sol\":947:958   */\n      dup7\n      tag_230\n      jump\t// in\n    tag_421:\n      swap5\n      pop\n        /* \"@thirdweb-dev/contracts/lib/Strings.sol\":819:969   */\n      jump(tag_413)\n    tag_414:\n        /* \"@thirdweb-dev/contracts/lib/Strings.sol\":992:998   */\n      swap5\n        /* \"@thirdweb-dev/contracts/lib/Strings.sol\":303:1006   */\n      swap4\n      pop\n      pop\n      pop\n      pop\n      jump\t// out\n        /* \"@thirdweb-dev/contracts/base/ERC1155LazyMint.sol\":10103:10218   */\n    tag_213:\n        /* \"@thirdweb-dev/contracts/base/ERC1155LazyMint.sol\":10167:10171   */\n      0x00\n        /* \"@thirdweb-dev/contracts/base/ERC1155LazyMint.sol\":10204:10211   */\n      tag_423\n        /* \"@thirdweb-dev/contracts/extension/Ownable.sol\":1046:1052   */\n      and(sub(shl(0xa0, 0x01), 0x01), sload(0x06))\n      swap1\n        /* \"@thirdweb-dev/contracts/extension/Ownable.sol\":973:1059   */\n      jump\n        /* \"@thirdweb-dev/contracts/base/ERC1155LazyMint.sol\":10204:10211   */\n    tag_423:\n      sub(shl(0xa0, 0x01), 0x01)\n        /* \"@thirdweb-dev/contracts/base/ERC1155LazyMint.sol\":10190:10211   */\n      and\n        /* \"@thirdweb-dev/contracts/base/ERC1155LazyMint.sol\":10190:10200   */\n      caller\n      sub(shl(0xa0, 0x01), 0x01)\n        /* \"@thirdweb-dev/contracts/base/ERC1155LazyMint.sol\":10190:10211   */\n      and\n      eq\n        /* \"@thirdweb-dev/contracts/base/ERC1155LazyMint.sol\":10183:10211   */\n      swap1\n      pop\n        /* \"@thirdweb-dev/contracts/base/ERC1155LazyMint.sol\":10103:10218   */\n      swap1\n      jump\t// out\n        /* \"@thirdweb-dev/contracts/extension/Ownable.sol\":1527:1699   */\n    tag_216:\n        /* \"@thirdweb-dev/contracts/extension/Ownable.sol\":1607:1613   */\n      0x06\n      dup1\n      sload\n      sub(shl(0xa0, 0x01), 0x01)\n        /* \"@thirdweb-dev/contracts/extension/Ownable.sol\":1623:1641   */\n      dup4\n      dup2\n      and\n      not(0xffffffffffffffffffffffffffffffffffffffff)\n      dup4\n      and\n      dup2\n      or\n      swap1\n      swap4\n      sstore\n        /* \"@thirdweb-dev/contracts/extension/Ownable.sol\":1657:1692   */\n      mload(0x40)\n        /* \"@thirdweb-dev/contracts/extension/Ownable.sol\":1607:1613   */\n      swap2\n      and\n      swap2\n        /* \"@thirdweb-dev/contracts/extension/Ownable.sol\":1623:1641   */\n      swap1\n        /* \"@thirdweb-dev/contracts/extension/Ownable.sol\":1607:1613   */\n      dup3\n      swap1\n        /* \"@thirdweb-dev/contracts/extension/Ownable.sol\":1657:1692   */\n      0x8292fce18fa69edf4db7b94ea2e58241df0ae57f97e0a6c9b29067028bf92d76\n      swap1\n        /* \"@thirdweb-dev/contracts/extension/Ownable.sol\":1586:1604   */\n      0x00\n      swap1\n        /* \"@thirdweb-dev/contracts/extension/Ownable.sol\":1657:1692   */\n      log3\n        /* \"@thirdweb-dev/contracts/extension/Ownable.sol\":1576:1699   */\n      pop\n        /* \"@thirdweb-dev/contracts/extension/Ownable.sol\":1527:1699   */\n      pop\n      jump\t// out\n        /* \"@thirdweb-dev/contracts/base/ERC1155LazyMint.sol\":9432:9595   */\n    tag_242:\n        /* \"@thirdweb-dev/contracts/base/ERC1155LazyMint.sol\":9547:9588   */\n      tag_96\n        /* \"@thirdweb-dev/contracts/base/ERC1155LazyMint.sol\":9553:9562   */\n      dup4\n        /* \"@thirdweb-dev/contracts/base/ERC1155LazyMint.sol\":9564:9572   */\n      dup4\n        /* \"@thirdweb-dev/contracts/base/ERC1155LazyMint.sol\":9574:9583   */\n      dup4\n        /* \"@thirdweb-dev/contracts/base/ERC1155LazyMint.sol\":9547:9588   */\n      mload(0x40)\n      dup1\n      0x20\n      add\n      0x40\n      mstore\n      dup1\n      0x00\n      dup2\n      mstore\n      pop\n        /* \"@thirdweb-dev/contracts/base/ERC1155LazyMint.sol\":9547:9552   */\n      tag_427\n        /* \"@thirdweb-dev/contracts/base/ERC1155LazyMint.sol\":9547:9588   */\n      jump\t// in\n        /* \"@thirdweb-dev/contracts/eip/ERC1155.sol\":4364:5331   */\n    tag_250:\n        /* \"@thirdweb-dev/contracts/eip/ERC1155.sol\":4584:4591   */\n      dup2\n        /* \"@thirdweb-dev/contracts/eip/ERC1155.sol\":4584:4598   */\n      mload\n        /* \"@thirdweb-dev/contracts/eip/ERC1155.sol\":4570:4573   */\n      dup4\n        /* \"@thirdweb-dev/contracts/eip/ERC1155.sol\":4570:4580   */\n      mload\n        /* \"@thirdweb-dev/contracts/eip/ERC1155.sol\":4570:4598   */\n      eq\n        /* \"@thirdweb-dev/contracts/eip/ERC1155.sol\":4562:4618   */\n      tag_429\n      jumpi\n      mload(0x40)\n      shl(0xe5, 0x461bcd)\n      dup2\n      mstore\n        /* \"#utility.yul\":16549:16551   */\n      0x20\n        /* \"@thirdweb-dev/contracts/eip/ERC1155.sol\":4562:4618   */\n      0x04\n      dup3\n      add\n        /* \"#utility.yul\":16531:16552   */\n      mstore\n        /* \"#utility.yul\":16588:16590   */\n      0x0f\n        /* \"#utility.yul\":16568:16586   */\n      0x24\n      dup3\n      add\n        /* \"#utility.yul\":16561:16591   */\n      mstore\n      shl(0x8b, 0x0988a9c8ea890be9a92a69a82a8869)\n        /* \"#utility.yul\":16607:16625   */\n      0x44\n      dup3\n      add\n        /* \"#utility.yul\":16600:16645   */\n      mstore\n        /* \"#utility.yul\":16662:16680   */\n      0x64\n      add\n        /* \"@thirdweb-dev/contracts/eip/ERC1155.sol\":4562:4618   */\n      tag_220\n        /* \"#utility.yul\":16347:16686   */\n      jump\n        /* \"@thirdweb-dev/contracts/eip/ERC1155.sol\":4562:4618   */\n    tag_429:\n      sub(shl(0xa0, 0x01), 0x01)\n        /* \"@thirdweb-dev/contracts/eip/ERC1155.sol\":4636:4652   */\n      dup5\n      and\n        /* \"@thirdweb-dev/contracts/eip/ERC1155.sol\":4628:4669   */\n      tag_431\n      jumpi\n      mload(0x40)\n      shl(0xe5, 0x461bcd)\n      dup2\n      mstore\n        /* \"#utility.yul\":20472:20474   */\n      0x20\n        /* \"@thirdweb-dev/contracts/eip/ERC1155.sol\":4628:4669   */\n      0x04\n      dup3\n      add\n        /* \"#utility.yul\":20454:20475   */\n      mstore\n        /* \"#utility.yul\":20511:20513   */\n      0x0c\n        /* \"#utility.yul\":20491:20509   */\n      0x24\n      dup3\n      add\n        /* \"#utility.yul\":20484:20514   */\n      mstore\n      shl(0xa1, 0x2a27afad22a927afa0a22229)\n        /* \"#utility.yul\":20530:20548   */\n      0x44\n      dup3\n      add\n        /* \"#utility.yul\":20523:20565   */\n      mstore\n        /* \"#utility.yul\":20582:20600   */\n      0x64\n      add\n        /* \"@thirdweb-dev/contracts/eip/ERC1155.sol\":4628:4669   */\n      tag_220\n        /* \"#utility.yul\":20270:20606   */\n      jump\n        /* \"@thirdweb-dev/contracts/eip/ERC1155.sol\":4628:4669   */\n    tag_431:\n        /* \"@thirdweb-dev/contracts/eip/ERC1155.sol\":4699:4709   */\n      caller\n        /* \"@thirdweb-dev/contracts/eip/ERC1155.sol\":4720:4780   */\n      tag_434\n        /* \"@thirdweb-dev/contracts/eip/ERC1155.sol\":4699:4709   */\n      dup2\n        /* \"@thirdweb-dev/contracts/eip/ERC1155.sol\":4751:4755   */\n      dup8\n        /* \"@thirdweb-dev/contracts/eip/ERC1155.sol\":4757:4759   */\n      dup8\n        /* \"@thirdweb-dev/contracts/eip/ERC1155.sol\":4761:4764   */\n      dup8\n        /* \"@thirdweb-dev/contracts/eip/ERC1155.sol\":4766:4773   */\n      dup8\n        /* \"@thirdweb-dev/contracts/eip/ERC1155.sol\":4775:4779   */\n      dup8\n        /* \"@thirdweb-dev/contracts/eip/ERC1155.sol\":4720:4740   */\n      tag_435\n        /* \"@thirdweb-dev/contracts/eip/ERC1155.sol\":4720:4780   */\n      jump\t// in\n    tag_434:\n        /* \"@thirdweb-dev/contracts/eip/ERC1155.sol\":4796:4805   */\n      0x00\n        /* \"@thirdweb-dev/contracts/eip/ERC1155.sol\":4791:5176   */\n    tag_436:\n        /* \"@thirdweb-dev/contracts/eip/ERC1155.sol\":4815:4818   */\n      dup5\n        /* \"@thirdweb-dev/contracts/eip/ERC1155.sol\":4815:4825   */\n      mload\n        /* \"@thirdweb-dev/contracts/eip/ERC1155.sol\":4811:4812   */\n      dup2\n        /* \"@thirdweb-dev/contracts/eip/ERC1155.sol\":4811:4825   */\n      lt\n        /* \"@thirdweb-dev/contracts/eip/ERC1155.sol\":4791:5176   */\n      iszero\n      tag_437\n      jumpi\n        /* \"@thirdweb-dev/contracts/eip/ERC1155.sol\":4846:4856   */\n      0x00\n        /* \"@thirdweb-dev/contracts/eip/ERC1155.sol\":4859:4862   */\n      dup6\n        /* \"@thirdweb-dev/contracts/eip/ERC1155.sol\":4863:4864   */\n      dup3\n        /* \"@thirdweb-dev/contracts/eip/ERC1155.sol\":4859:4865   */\n      dup2\n      mload\n      dup2\n      lt\n      tag_440\n      jumpi\n      tag_440\n      tag_223\n      jump\t// in\n    tag_440:\n      0x20\n      mul\n      0x20\n      add\n      add\n      mload\n        /* \"@thirdweb-dev/contracts/eip/ERC1155.sol\":4846:4865   */\n      swap1\n      pop\n        /* \"@thirdweb-dev/contracts/eip/ERC1155.sol\":4879:4893   */\n      0x00\n        /* \"@thirdweb-dev/contracts/eip/ERC1155.sol\":4896:4903   */\n      dup6\n        /* \"@thirdweb-dev/contracts/eip/ERC1155.sol\":4904:4905   */\n      dup4\n        /* \"@thirdweb-dev/contracts/eip/ERC1155.sol\":4896:4906   */\n      dup2\n      mload\n      dup2\n      lt\n      tag_442\n      jumpi\n      tag_442\n      tag_223\n      jump\t// in\n    tag_442:\n      0x20\n      swap1\n      dup2\n      mul\n      swap2\n      swap1\n      swap2\n      add\n      dup2\n      add\n      mload\n      sub(shl(0xa0, 0x01), 0x01)\n        /* \"@thirdweb-dev/contracts/eip/ERC1155.sol\":4943:4958   */\n      dup12\n      and\n        /* \"@thirdweb-dev/contracts/eip/ERC1155.sol\":4921:4940   */\n      0x00\n        /* \"@thirdweb-dev/contracts/eip/ERC1155.sol\":4943:4958   */\n      swap1\n      dup2\n      mstore\n        /* \"@thirdweb-dev/contracts/eip/ERC1155.sol\":4943:4952   */\n      0x02\n        /* \"@thirdweb-dev/contracts/eip/ERC1155.sol\":4943:4958   */\n      dup4\n      mstore\n      0x40\n      dup1\n      dup3\n      keccak256\n        /* \"@thirdweb-dev/contracts/eip/ERC1155.sol\":4943:4962   */\n      dup7\n      dup4\n      mstore\n      swap1\n      swap4\n      mstore\n      swap2\n      swap1\n      swap2\n      keccak256\n      sload\n        /* \"@thirdweb-dev/contracts/eip/ERC1155.sol\":4896:4906   */\n      swap1\n      swap2\n      pop\n        /* \"@thirdweb-dev/contracts/eip/ERC1155.sol\":4984:5005   */\n      dup2\n      dup2\n      lt\n      iszero\n        /* \"@thirdweb-dev/contracts/eip/ERC1155.sol\":4976:5026   */\n      tag_443\n      jumpi\n      mload(0x40)\n      shl(0xe5, 0x461bcd)\n      dup2\n      mstore\n        /* \"#utility.yul\":20813:20815   */\n      0x20\n        /* \"@thirdweb-dev/contracts/eip/ERC1155.sol\":4976:5026   */\n      0x04\n      dup3\n      add\n        /* \"#utility.yul\":20795:20816   */\n      mstore\n        /* \"#utility.yul\":20852:20854   */\n      0x10\n        /* \"#utility.yul\":20832:20850   */\n      0x24\n      dup3\n      add\n        /* \"#utility.yul\":20825:20855   */\n      mstore\n      shl(0x82, 0x125394d551919250d251539517d09053)\n        /* \"#utility.yul\":20871:20889   */\n      0x44\n      dup3\n      add\n        /* \"#utility.yul\":20864:20910   */\n      mstore\n        /* \"#utility.yul\":20927:20945   */\n      0x64\n      add\n        /* \"@thirdweb-dev/contracts/eip/ERC1155.sol\":4976:5026   */\n      tag_220\n        /* \"#utility.yul\":20611:20951   */\n      jump\n        /* \"@thirdweb-dev/contracts/eip/ERC1155.sol\":4976:5026   */\n    tag_443:\n      sub(shl(0xa0, 0x01), 0x01)\n        /* \"@thirdweb-dev/contracts/eip/ERC1155.sol\":5068:5083   */\n      dup1\n      dup12\n      and\n      0x00\n      swap1\n      dup2\n      mstore\n        /* \"@thirdweb-dev/contracts/eip/ERC1155.sol\":5068:5077   */\n      0x02\n        /* \"@thirdweb-dev/contracts/eip/ERC1155.sol\":5068:5083   */\n      0x20\n      dup2\n      dup2\n      mstore\n      0x40\n      dup1\n      dup5\n      keccak256\n        /* \"@thirdweb-dev/contracts/eip/ERC1155.sol\":5068:5087   */\n      dup9\n      dup6\n      mstore\n      dup3\n      mstore\n      dup1\n      dup5\n      keccak256\n        /* \"@thirdweb-dev/contracts/eip/ERC1155.sol\":5090:5110   */\n      dup8\n      dup8\n      sub\n        /* \"@thirdweb-dev/contracts/eip/ERC1155.sol\":5068:5110   */\n      swap1\n      sstore\n        /* \"@thirdweb-dev/contracts/eip/ERC1155.sol\":5138:5151   */\n      swap4\n      dup14\n      and\n      dup4\n      mstore\n      swap1\n      dup2\n      mstore\n      dup3\n      dup3\n      keccak256\n        /* \"@thirdweb-dev/contracts/eip/ERC1155.sol\":5138:5155   */\n      dup7\n      dup4\n      mstore\n      swap1\n      mstore\n      swap1\n      dup2\n      keccak256\n        /* \"@thirdweb-dev/contracts/eip/ERC1155.sol\":5138:5165   */\n      dup1\n      sload\n        /* \"@thirdweb-dev/contracts/eip/ERC1155.sol\":5104:5110   */\n      dup5\n      swap3\n        /* \"@thirdweb-dev/contracts/eip/ERC1155.sol\":5068:5083   */\n      swap1\n        /* \"@thirdweb-dev/contracts/eip/ERC1155.sol\":5138:5165   */\n      tag_446\n      swap1\n        /* \"@thirdweb-dev/contracts/eip/ERC1155.sol\":5104:5110   */\n      dup5\n      swap1\n        /* \"@thirdweb-dev/contracts/eip/ERC1155.sol\":5138:5165   */\n      tag_299\n      jump\t// in\n    tag_446:\n      swap1\n      swap2\n      sstore\n      pop\n      pop\n        /* \"@thirdweb-dev/contracts/eip/ERC1155.sol\":4827:4830   */\n      0x01\n      swap1\n      swap4\n      add\n      swap3\n      pop\n        /* \"@thirdweb-dev/contracts/eip/ERC1155.sol\":4791:5176   */\n      tag_436\n      swap2\n      pop\n      pop\n      jump\n    tag_437:\n      pop\n        /* \"@thirdweb-dev/contracts/eip/ERC1155.sol\":5221:5223   */\n      dup5\n      sub(shl(0xa0, 0x01), 0x01)\n        /* \"@thirdweb-dev/contracts/eip/ERC1155.sol\":5191:5238   */\n      and\n        /* \"@thirdweb-dev/contracts/eip/ERC1155.sol\":5215:5219   */\n      dup7\n      sub(shl(0xa0, 0x01), 0x01)\n        /* \"@thirdweb-dev/contracts/eip/ERC1155.sol\":5191:5238   */\n      and\n        /* \"@thirdweb-dev/contracts/eip/ERC1155.sol\":5205:5213   */\n      dup3\n      sub(shl(0xa0, 0x01), 0x01)\n        /* \"@thirdweb-dev/contracts/eip/ERC1155.sol\":5191:5238   */\n      and\n      0x4a39dc06d4c0dbc64b70af90fd698a233a518aa5d07e595d983b8c0526c8f7fb\n        /* \"@thirdweb-dev/contracts/eip/ERC1155.sol\":5225:5228   */\n      dup8\n        /* \"@thirdweb-dev/contracts/eip/ERC1155.sol\":5230:5237   */\n      dup8\n        /* \"@thirdweb-dev/contracts/eip/ERC1155.sol\":5191:5238   */\n      mload(0x40)\n      tag_447\n      swap3\n      swap2\n      swap1\n      tag_448\n      jump\t// in\n    tag_447:\n      mload(0x40)\n      dup1\n      swap2\n      sub\n      swap1\n      log4\n        /* \"@thirdweb-dev/contracts/eip/ERC1155.sol\":5249:5324   */\n      tag_449\n        /* \"@thirdweb-dev/contracts/eip/ERC1155.sol\":5285:5293   */\n      dup2\n        /* \"@thirdweb-dev/contracts/eip/ERC1155.sol\":5295:5299   */\n      dup8\n        /* \"@thirdweb-dev/contracts/eip/ERC1155.sol\":5301:5303   */\n      dup8\n        /* \"@thirdweb-dev/contracts/eip/ERC1155.sol\":5305:5308   */\n      dup8\n        /* \"@thirdweb-dev/contracts/eip/ERC1155.sol\":5310:5317   */\n      dup8\n        /* \"@thirdweb-dev/contracts/eip/ERC1155.sol\":5319:5323   */\n      dup8\n        /* \"@thirdweb-dev/contracts/eip/ERC1155.sol\":5249:5284   */\n      tag_450\n        /* \"@thirdweb-dev/contracts/eip/ERC1155.sol\":5249:5324   */\n      jump\t// in\n    tag_449:\n        /* \"@thirdweb-dev/contracts/eip/ERC1155.sol\":4552:5331   */\n      pop\n        /* \"@thirdweb-dev/contracts/eip/ERC1155.sol\":4364:5331   */\n      pop\n      pop\n      pop\n      pop\n      pop\n      jump\t// out\n        /* \"@thirdweb-dev/contracts/extension/Royalty.sol\":3717:4078   */\n    tag_278:\n        /* \"@thirdweb-dev/contracts/extension/Royalty.sol\":3836:3842   */\n      0x2710\n        /* \"@thirdweb-dev/contracts/extension/Royalty.sol\":3822:3833   */\n      dup2\n        /* \"@thirdweb-dev/contracts/extension/Royalty.sol\":3822:3842   */\n      gt\n        /* \"@thirdweb-dev/contracts/extension/Royalty.sol\":3818:3921   */\n      iszero\n      tag_454\n      jumpi\n        /* \"@thirdweb-dev/contracts/extension/Royalty.sol\":3865:3910   */\n      mload(0x40)\n      shl(0xe3, 0x0a4930ad)\n      dup2\n      mstore\n        /* \"@thirdweb-dev/contracts/extension/Royalty.sol\":3890:3896   */\n      0x2710\n        /* \"@thirdweb-dev/contracts/extension/Royalty.sol\":3865:3910   */\n      0x04\n      dup3\n      add\n        /* \"#utility.yul\":21612:21637   */\n      mstore\n        /* \"#utility.yul\":21653:21671   */\n      0x24\n      dup2\n      add\n        /* \"#utility.yul\":21646:21680   */\n      dup3\n      swap1\n      mstore\n        /* \"#utility.yul\":21585:21603   */\n      0x44\n      add\n        /* \"@thirdweb-dev/contracts/extension/Royalty.sol\":3865:3910   */\n      tag_220\n        /* \"#utility.yul\":21426:21686   */\n      jump\n        /* \"@thirdweb-dev/contracts/extension/Royalty.sol\":3818:3921   */\n    tag_454:\n        /* \"@thirdweb-dev/contracts/extension/Royalty.sol\":3931:3947   */\n      0x07\n        /* \"@thirdweb-dev/contracts/extension/Royalty.sol\":3931:3967   */\n      dup1\n      sload\n      sub(shl(0xa0, 0x01), 0x01)\n      dup5\n      and\n        /* \"@thirdweb-dev/contracts/extension/Royalty.sol\":3977:4009   */\n      0xffffffffffffffffffff00000000000000000000000000000000000000000000\n      swap1\n      swap2\n      and\n      dup2\n      or\n      shl(0xa0, 0x01)\n      0xffff\n      dup6\n      and\n      mul\n      or\n      swap1\n      swap2\n      sstore\n        /* \"@thirdweb-dev/contracts/extension/Royalty.sol\":4025:4071   */\n      mload(0x40)\n        /* \"#utility.yul\":620:645   */\n      dup3\n      dup2\n      mstore\n        /* \"@thirdweb-dev/contracts/extension/Royalty.sol\":4025:4071   */\n      0x90d7ec04bcb8978719414f82e52e4cb651db41d0e6f8cea6118c2191e6183adb\n      swap1\n        /* \"#utility.yul\":608:610   */\n      0x20\n        /* \"#utility.yul\":593:611   */\n      add\n        /* \"@thirdweb-dev/contracts/extension/Royalty.sol\":4025:4071   */\n      mload(0x40)\n      dup1\n      swap2\n      sub\n      swap1\n      log2\n        /* \"@thirdweb-dev/contracts/extension/Royalty.sol\":3717:4078   */\n      pop\n      pop\n      jump\t// out\n        /* \"@thirdweb-dev/contracts/eip/ERC1155.sol\":7194:7963   */\n    tag_301:\n      sub(shl(0xa0, 0x01), 0x01)\n        /* \"@thirdweb-dev/contracts/eip/ERC1155.sol\":7311:7329   */\n      dup4\n      and\n        /* \"@thirdweb-dev/contracts/eip/ERC1155.sol\":7303:7348   */\n      tag_459\n      jumpi\n      mload(0x40)\n      shl(0xe5, 0x461bcd)\n      dup2\n      mstore\n        /* \"#utility.yul\":21893:21895   */\n      0x20\n        /* \"@thirdweb-dev/contracts/eip/ERC1155.sol\":7303:7348   */\n      0x04\n      dup3\n      add\n        /* \"#utility.yul\":21875:21896   */\n      mstore\n        /* \"#utility.yul\":21932:21934   */\n      0x0e\n        /* \"#utility.yul\":21912:21930   */\n      0x24\n      dup3\n      add\n        /* \"#utility.yul\":21905:21935   */\n      mstore\n      shl(0x91, 0x232927a6afad22a927afa0a22229)\n        /* \"#utility.yul\":21951:21969   */\n      0x44\n      dup3\n      add\n        /* \"#utility.yul\":21944:21988   */\n      mstore\n        /* \"#utility.yul\":22005:22023   */\n      0x64\n      add\n        /* \"@thirdweb-dev/contracts/eip/ERC1155.sol\":7303:7348   */\n      tag_220\n        /* \"#utility.yul\":21691:22029   */\n      jump\n        /* \"@thirdweb-dev/contracts/eip/ERC1155.sol\":7303:7348   */\n    tag_459:\n        /* \"@thirdweb-dev/contracts/eip/ERC1155.sol\":7380:7387   */\n      dup1\n        /* \"@thirdweb-dev/contracts/eip/ERC1155.sol\":7380:7394   */\n      mload\n        /* \"@thirdweb-dev/contracts/eip/ERC1155.sol\":7366:7369   */\n      dup3\n        /* \"@thirdweb-dev/contracts/eip/ERC1155.sol\":7366:7376   */\n      mload\n        /* \"@thirdweb-dev/contracts/eip/ERC1155.sol\":7366:7394   */\n      eq\n        /* \"@thirdweb-dev/contracts/eip/ERC1155.sol\":7358:7414   */\n      tag_462\n      jumpi\n      mload(0x40)\n      shl(0xe5, 0x461bcd)\n      dup2\n      mstore\n        /* \"#utility.yul\":16549:16551   */\n      0x20\n        /* \"@thirdweb-dev/contracts/eip/ERC1155.sol\":7358:7414   */\n      0x04\n      dup3\n      add\n        /* \"#utility.yul\":16531:16552   */\n      mstore\n        /* \"#utility.yul\":16588:16590   */\n      0x0f\n        /* \"#utility.yul\":16568:16586   */\n      0x24\n      dup3\n      add\n        /* \"#utility.yul\":16561:16591   */\n      mstore\n      shl(0x8b, 0x0988a9c8ea890be9a92a69a82a8869)\n        /* \"#utility.yul\":16607:16625   */\n      0x44\n      dup3\n      add\n        /* \"#utility.yul\":16600:16645   */\n      mstore\n        /* \"#utility.yul\":16662:16680   */\n      0x64\n      add\n        /* \"@thirdweb-dev/contracts/eip/ERC1155.sol\":7358:7414   */\n      tag_220\n        /* \"#utility.yul\":16347:16686   */\n      jump\n        /* \"@thirdweb-dev/contracts/eip/ERC1155.sol\":7358:7414   */\n    tag_462:\n        /* \"@thirdweb-dev/contracts/eip/ERC1155.sol\":7425:7441   */\n      0x00\n        /* \"@thirdweb-dev/contracts/eip/ERC1155.sol\":7444:7454   */\n      caller\n        /* \"@thirdweb-dev/contracts/eip/ERC1155.sol\":7425:7454   */\n      swap1\n      pop\n        /* \"@thirdweb-dev/contracts/eip/ERC1155.sol\":7465:7531   */\n      tag_464\n        /* \"@thirdweb-dev/contracts/eip/ERC1155.sol\":7486:7494   */\n      dup2\n        /* \"@thirdweb-dev/contracts/eip/ERC1155.sol\":7496:7500   */\n      dup6\n        /* \"@thirdweb-dev/contracts/eip/ERC1155.sol\":7510:7511   */\n      0x00\n        /* \"@thirdweb-dev/contracts/eip/ERC1155.sol\":7514:7517   */\n      dup7\n        /* \"@thirdweb-dev/contracts/eip/ERC1155.sol\":7519:7526   */\n      dup7\n        /* \"@thirdweb-dev/contracts/eip/ERC1155.sol\":7465:7531   */\n      mload(0x40)\n      dup1\n      0x20\n      add\n      0x40\n      mstore\n      dup1\n      0x00\n      dup2\n      mstore\n      pop\n        /* \"@thirdweb-dev/contracts/eip/ERC1155.sol\":7465:7485   */\n      tag_435\n        /* \"@thirdweb-dev/contracts/eip/ERC1155.sol\":7465:7531   */\n      jump\t// in\n    tag_464:\n        /* \"@thirdweb-dev/contracts/eip/ERC1155.sol\":7547:7556   */\n      0x00\n        /* \"@thirdweb-dev/contracts/eip/ERC1155.sol\":7542:7886   */\n    tag_465:\n        /* \"@thirdweb-dev/contracts/eip/ERC1155.sol\":7566:7569   */\n      dup4\n        /* \"@thirdweb-dev/contracts/eip/ERC1155.sol\":7566:7576   */\n      mload\n        /* \"@thirdweb-dev/contracts/eip/ERC1155.sol\":7562:7563   */\n      dup2\n        /* \"@thirdweb-dev/contracts/eip/ERC1155.sol\":7562:7576   */\n      lt\n        /* \"@thirdweb-dev/contracts/eip/ERC1155.sol\":7542:7886   */\n      iszero\n      tag_466\n      jumpi\n        /* \"@thirdweb-dev/contracts/eip/ERC1155.sol\":7597:7607   */\n      0x00\n        /* \"@thirdweb-dev/contracts/eip/ERC1155.sol\":7610:7613   */\n      dup5\n        /* \"@thirdweb-dev/contracts/eip/ERC1155.sol\":7614:7615   */\n      dup3\n        /* \"@thirdweb-dev/contracts/eip/ERC1155.sol\":7610:7616   */\n      dup2\n      mload\n      dup2\n      lt\n      tag_469\n      jumpi\n      tag_469\n      tag_223\n      jump\t// in\n    tag_469:\n      0x20\n      mul\n      0x20\n      add\n      add\n      mload\n        /* \"@thirdweb-dev/contracts/eip/ERC1155.sol\":7597:7616   */\n      swap1\n      pop\n        /* \"@thirdweb-dev/contracts/eip/ERC1155.sol\":7630:7644   */\n      0x00\n        /* \"@thirdweb-dev/contracts/eip/ERC1155.sol\":7647:7654   */\n      dup5\n        /* \"@thirdweb-dev/contracts/eip/ERC1155.sol\":7655:7656   */\n      dup4\n        /* \"@thirdweb-dev/contracts/eip/ERC1155.sol\":7647:7657   */\n      dup2\n      mload\n      dup2\n      lt\n      tag_471\n      jumpi\n      tag_471\n      tag_223\n      jump\t// in\n    tag_471:\n      0x20\n      swap1\n      dup2\n      mul\n      swap2\n      swap1\n      swap2\n      add\n      dup2\n      add\n      mload\n      sub(shl(0xa0, 0x01), 0x01)\n        /* \"@thirdweb-dev/contracts/eip/ERC1155.sol\":7694:7709   */\n      dup10\n      and\n        /* \"@thirdweb-dev/contracts/eip/ERC1155.sol\":7672:7691   */\n      0x00\n        /* \"@thirdweb-dev/contracts/eip/ERC1155.sol\":7694:7709   */\n      swap1\n      dup2\n      mstore\n        /* \"@thirdweb-dev/contracts/eip/ERC1155.sol\":7694:7703   */\n      0x02\n        /* \"@thirdweb-dev/contracts/eip/ERC1155.sol\":7694:7709   */\n      dup4\n      mstore\n      0x40\n      dup1\n      dup3\n      keccak256\n        /* \"@thirdweb-dev/contracts/eip/ERC1155.sol\":7694:7713   */\n      dup7\n      dup4\n      mstore\n      swap1\n      swap4\n      mstore\n      swap2\n      swap1\n      swap2\n      keccak256\n      sload\n        /* \"@thirdweb-dev/contracts/eip/ERC1155.sol\":7647:7657   */\n      swap1\n      swap2\n      pop\n        /* \"@thirdweb-dev/contracts/eip/ERC1155.sol\":7735:7756   */\n      dup2\n      dup2\n      lt\n      iszero\n        /* \"@thirdweb-dev/contracts/eip/ERC1155.sol\":7727:7777   */\n      tag_472\n      jumpi\n      mload(0x40)\n      shl(0xe5, 0x461bcd)\n      dup2\n      mstore\n        /* \"#utility.yul\":20813:20815   */\n      0x20\n        /* \"@thirdweb-dev/contracts/eip/ERC1155.sol\":7727:7777   */\n      0x04\n      dup3\n      add\n        /* \"#utility.yul\":20795:20816   */\n      mstore\n        /* \"#utility.yul\":20852:20854   */\n      0x10\n        /* \"#utility.yul\":20832:20850   */\n      0x24\n      dup3\n      add\n        /* \"#utility.yul\":20825:20855   */\n      mstore\n      shl(0x82, 0x125394d551919250d251539517d09053)\n        /* \"#utility.yul\":20871:20889   */\n      0x44\n      dup3\n      add\n        /* \"#utility.yul\":20864:20910   */\n      mstore\n        /* \"#utility.yul\":20927:20945   */\n      0x64\n      add\n        /* \"@thirdweb-dev/contracts/eip/ERC1155.sol\":7727:7777   */\n      tag_220\n        /* \"#utility.yul\":20611:20951   */\n      jump\n        /* \"@thirdweb-dev/contracts/eip/ERC1155.sol\":7727:7777   */\n    tag_472:\n      sub(shl(0xa0, 0x01), 0x01)\n        /* \"@thirdweb-dev/contracts/eip/ERC1155.sol\":7819:7834   */\n      dup9\n      and\n      0x00\n      swap1\n      dup2\n      mstore\n        /* \"@thirdweb-dev/contracts/eip/ERC1155.sol\":7819:7828   */\n      0x02\n        /* \"@thirdweb-dev/contracts/eip/ERC1155.sol\":7819:7834   */\n      0x20\n      swap1\n      dup2\n      mstore\n      0x40\n      dup1\n      dup4\n      keccak256\n        /* \"@thirdweb-dev/contracts/eip/ERC1155.sol\":7819:7838   */\n      swap6\n      dup4\n      mstore\n      swap5\n      swap1\n      mstore\n      swap3\n      swap1\n      swap3\n      keccak256\n        /* \"@thirdweb-dev/contracts/eip/ERC1155.sol\":7841:7861   */\n      swap2\n      sub\n        /* \"@thirdweb-dev/contracts/eip/ERC1155.sol\":7819:7861   */\n      swap1\n      sstore\n        /* \"@thirdweb-dev/contracts/eip/ERC1155.sol\":7578:7581   */\n      0x01\n      add\n        /* \"@thirdweb-dev/contracts/eip/ERC1155.sol\":7542:7886   */\n      jump(tag_465)\n    tag_466:\n      pop\n        /* \"@thirdweb-dev/contracts/eip/ERC1155.sol\":7939:7940   */\n      0x00\n      sub(shl(0xa0, 0x01), 0x01)\n        /* \"@thirdweb-dev/contracts/eip/ERC1155.sol\":7901:7956   */\n      and\n        /* \"@thirdweb-dev/contracts/eip/ERC1155.sol\":7925:7929   */\n      dup5\n      sub(shl(0xa0, 0x01), 0x01)\n        /* \"@thirdweb-dev/contracts/eip/ERC1155.sol\":7901:7956   */\n      and\n        /* \"@thirdweb-dev/contracts/eip/ERC1155.sol\":7915:7923   */\n      dup3\n      sub(shl(0xa0, 0x01), 0x01)\n        /* \"@thirdweb-dev/contracts/eip/ERC1155.sol\":7901:7956   */\n      and\n      0x4a39dc06d4c0dbc64b70af90fd698a233a518aa5d07e595d983b8c0526c8f7fb\n        /* \"@thirdweb-dev/contracts/eip/ERC1155.sol\":7943:7946   */\n      dup7\n        /* \"@thirdweb-dev/contracts/eip/ERC1155.sol\":7948:7955   */\n      dup7\n        /* \"@thirdweb-dev/contracts/eip/ERC1155.sol\":7901:7956   */\n      mload(0x40)\n      tag_474\n      swap3\n      swap2\n      swap1\n      tag_448\n      jump\t// in\n    tag_474:\n      mload(0x40)\n      dup1\n      swap2\n      sub\n      swap1\n      log4\n        /* \"@thirdweb-dev/contracts/eip/ERC1155.sol\":7293:7963   */\n      pop\n        /* \"@thirdweb-dev/contracts/eip/ERC1155.sol\":7194:7963   */\n      pop\n      pop\n      pop\n      jump\t// out\n        /* \"@thirdweb-dev/contracts/extension/ContractMetadata.sol\":1393:1578   */\n    tag_308:\n        /* \"@thirdweb-dev/contracts/extension/ContractMetadata.sol\":1459:1480   */\n      0x00\n        /* \"@thirdweb-dev/contracts/extension/ContractMetadata.sol\":1483:1494   */\n      0x05\n        /* \"@thirdweb-dev/contracts/extension/ContractMetadata.sol\":1459:1494   */\n      dup1\n      sload\n      tag_478\n      swap1\n      tag_199\n      jump\t// in\n    tag_478:\n      dup1\n      0x1f\n      add\n      0x20\n      dup1\n      swap2\n      div\n      mul\n      0x20\n      add\n      mload(0x40)\n      swap1\n      dup2\n      add\n      0x40\n      mstore\n      dup1\n      swap3\n      swap2\n      swap1\n      dup2\n      dup2\n      mstore\n      0x20\n      add\n      dup3\n      dup1\n      sload\n      tag_479\n      swap1\n      tag_199\n      jump\t// in\n    tag_479:\n      dup1\n      iszero\n      tag_480\n      jumpi\n      dup1\n      0x1f\n      lt\n      tag_481\n      jumpi\n      0x0100\n      dup1\n      dup4\n      sload\n      div\n      mul\n      dup4\n      mstore\n      swap2\n      0x20\n      add\n      swap2\n      jump(tag_480)\n    tag_481:\n      dup3\n      add\n      swap2\n      swap1\n      0x00\n      mstore\n      keccak256(0x00, 0x20)\n      swap1\n    tag_482:\n      dup2\n      sload\n      dup2\n      mstore\n      swap1\n      0x01\n      add\n      swap1\n      0x20\n      add\n      dup1\n      dup4\n      gt\n      tag_482\n      jumpi\n      dup3\n      swap1\n      sub\n      0x1f\n      and\n      dup3\n      add\n      swap2\n    tag_480:\n      pop\n      pop\n      pop\n      pop\n      pop\n      swap1\n      pop\n        /* \"@thirdweb-dev/contracts/extension/ContractMetadata.sol\":1518:1522   */\n      dup2\n        /* \"@thirdweb-dev/contracts/extension/ContractMetadata.sol\":1504:1515   */\n      0x05\n        /* \"@thirdweb-dev/contracts/extension/ContractMetadata.sol\":1504:1522   */\n      swap1\n      dup2\n      tag_483\n      swap2\n      swap1\n      tag_484\n      jump\t// in\n    tag_483:\n      pop\n        /* \"@thirdweb-dev/contracts/extension/ContractMetadata.sol\":1538:1571   */\n      0xc9c7c3fe08b88b4df9d4d47ef47d2c43d55c025a0ba88ca442580ed9e7348a16\n        /* \"@thirdweb-dev/contracts/extension/ContractMetadata.sol\":1557:1564   */\n      dup2\n        /* \"@thirdweb-dev/contracts/extension/ContractMetadata.sol\":1566:1570   */\n      dup4\n        /* \"@thirdweb-dev/contracts/extension/ContractMetadata.sol\":1538:1571   */\n      mload(0x40)\n      tag_485\n      swap3\n      swap2\n      swap1\n      tag_486\n      jump\t// in\n    tag_485:\n      mload(0x40)\n      dup1\n      swap2\n      sub\n      swap1\n      log1\n        /* \"@thirdweb-dev/contracts/extension/ContractMetadata.sol\":1449:1578   */\n      pop\n        /* \"@thirdweb-dev/contracts/extension/ContractMetadata.sol\":1393:1578   */\n      pop\n      jump\t// out\n        /* \"@thirdweb-dev/contracts/extension/Royalty.sol\":4959:5311   */\n    tag_318:\n        /* \"@thirdweb-dev/contracts/extension/Royalty.sol\":5076:5082   */\n      0x2710\n        /* \"@thirdweb-dev/contracts/extension/Royalty.sol\":5069:5073   */\n      dup2\n        /* \"@thirdweb-dev/contracts/extension/Royalty.sol\":5069:5082   */\n      gt\n        /* \"@thirdweb-dev/contracts/extension/Royalty.sol\":5065:5154   */\n      iszero\n      tag_488\n      jumpi\n        /* \"@thirdweb-dev/contracts/extension/Royalty.sol\":5105:5143   */\n      mload(0x40)\n      shl(0xe3, 0x0a4930ad)\n      dup2\n      mstore\n        /* \"@thirdweb-dev/contracts/extension/Royalty.sol\":5130:5136   */\n      0x2710\n        /* \"@thirdweb-dev/contracts/extension/Royalty.sol\":5105:5143   */\n      0x04\n      dup3\n      add\n        /* \"#utility.yul\":21612:21637   */\n      mstore\n        /* \"#utility.yul\":21653:21671   */\n      0x24\n      dup2\n      add\n        /* \"#utility.yul\":21646:21680   */\n      dup3\n      swap1\n      mstore\n        /* \"#utility.yul\":21585:21603   */\n      0x44\n      add\n        /* \"@thirdweb-dev/contracts/extension/Royalty.sol\":5105:5143   */\n      tag_220\n        /* \"#utility.yul\":21426:21686   */\n      jump\n        /* \"@thirdweb-dev/contracts/extension/Royalty.sol\":5065:5154   */\n    tag_488:\n        /* \"@thirdweb-dev/contracts/extension/Royalty.sol\":5196:5245   */\n      0x40\n      dup1\n      mload\n      dup1\n      dup3\n      add\n      dup3\n      mstore\n      sub(shl(0xa0, 0x01), 0x01)\n      dup5\n      dup2\n      and\n      dup1\n      dup4\n      mstore\n      0x20\n      dup1\n      dup5\n      add\n      dup7\n      dup2\n      mstore\n      0x00\n        /* \"@thirdweb-dev/contracts/extension/Royalty.sol\":5164:5193   */\n      dup10\n      dup2\n      mstore\n        /* \"@thirdweb-dev/contracts/extension/Royalty.sol\":5164:5183   */\n      0x08\n        /* \"@thirdweb-dev/contracts/extension/Royalty.sol\":5164:5193   */\n      dup4\n      mstore\n      dup7\n      swap1\n      keccak256\n        /* \"@thirdweb-dev/contracts/extension/Royalty.sol\":5164:5245   */\n      swap5\n      mload\n      dup6\n      sload\n      not(0xffffffffffffffffffffffffffffffffffffffff)\n      and\n      swap5\n      and\n      swap4\n      swap1\n      swap4\n      or\n      dup5\n      sstore\n      swap2\n      mload\n      0x01\n      swap1\n      swap4\n      add\n      swap3\n      swap1\n      swap3\n      sstore\n        /* \"@thirdweb-dev/contracts/extension/Royalty.sol\":5261:5304   */\n      swap2\n      mload\n        /* \"#utility.yul\":620:645   */\n      dup4\n      dup2\n      mstore\n        /* \"@thirdweb-dev/contracts/extension/Royalty.sol\":5196:5245   */\n      swap1\n      swap2\n        /* \"@thirdweb-dev/contracts/extension/Royalty.sol\":5164:5193   */\n      dup6\n      swap2\n        /* \"@thirdweb-dev/contracts/extension/Royalty.sol\":5261:5304   */\n      0x7365cf4122f072a3365c20d54eff9b38d73c096c28e1892ec8f5b0e403a0f12d\n      swap2\n        /* \"#utility.yul\":593:611   */\n      add\n        /* \"@thirdweb-dev/contracts/extension/Royalty.sol\":5261:5304   */\n      tag_323\n        /* \"#utility.yul\":474:651   */\n      jump\n        /* \"@thirdweb-dev/contracts/lib/Address.sol\":6671:6869   */\n    tag_342:\n        /* \"@thirdweb-dev/contracts/lib/Address.sol\":6754:6766   */\n      0x60\n        /* \"@thirdweb-dev/contracts/lib/Address.sol\":6785:6862   */\n      tag_493\n        /* \"@thirdweb-dev/contracts/lib/Address.sol\":6806:6812   */\n      dup4\n        /* \"@thirdweb-dev/contracts/lib/Address.sol\":6814:6818   */\n      dup4\n        /* \"@thirdweb-dev/contracts/lib/Address.sol\":6785:6862   */\n      mload(0x40)\n      dup1\n      0x60\n      add\n      0x40\n      mstore\n      dup1\n      0x27\n      dup2\n      mstore\n      0x20\n      add\n      data_9fdcd12e4b726339b32a442b0a448365d5d85c96b2d2cff917b4f66c63110398\n      0x27\n      swap2\n      codecopy\n        /* \"@thirdweb-dev/contracts/lib/Address.sol\":6785:6805   */\n      tag_494\n        /* \"@thirdweb-dev/contracts/lib/Address.sol\":6785:6862   */\n      jump\t// in\n    tag_493:\n        /* \"@thirdweb-dev/contracts/lib/Address.sol\":6778:6862   */\n      swap4\n        /* \"@thirdweb-dev/contracts/lib/Address.sol\":6671:6869   */\n      swap3\n      pop\n      pop\n      pop\n      jump\t// out\n        /* \"@thirdweb-dev/contracts/extension/BatchMintMetadata.sol\":4992:5354   */\n    tag_359:\n        /* \"@thirdweb-dev/contracts/extension/BatchMintMetadata.sol\":5142:5167   */\n      0x00\n      dup1\n        /* \"@thirdweb-dev/contracts/extension/BatchMintMetadata.sol\":5206:5230   */\n      tag_497\n        /* \"@thirdweb-dev/contracts/extension/BatchMintMetadata.sol\":5217:5230   */\n      dup5\n        /* \"@thirdweb-dev/contracts/extension/BatchMintMetadata.sol\":5206:5214   */\n      dup7\n        /* \"@thirdweb-dev/contracts/extension/BatchMintMetadata.sol\":5206:5230   */\n      tag_299\n      jump\t// in\n    tag_497:\n        /* \"@thirdweb-dev/contracts/extension/BatchMintMetadata.sol\":5278:5286   */\n      0x09\n        /* \"@thirdweb-dev/contracts/extension/BatchMintMetadata.sol\":5278:5300   */\n      dup1\n      sload\n      0x01\n      dup2\n      add\n      swap1\n      swap2\n      sstore\n      0x6e1540171b6c0c960b71a7020d9f60077f6af931a8bbf590da0223dacf75c7af\n      add\n      dup2\n      swap1\n      sstore\n      0x00\n        /* \"@thirdweb-dev/contracts/extension/BatchMintMetadata.sol\":5311:5327   */\n      dup2\n      dup2\n      mstore\n        /* \"@thirdweb-dev/contracts/extension/BatchMintMetadata.sol\":5311:5318   */\n      0x0a\n        /* \"@thirdweb-dev/contracts/extension/BatchMintMetadata.sol\":5278:5300   */\n      0x20\n        /* \"@thirdweb-dev/contracts/extension/BatchMintMetadata.sol\":5311:5327   */\n      mstore\n      0x40\n      swap1\n      keccak256\n        /* \"@thirdweb-dev/contracts/extension/BatchMintMetadata.sol\":5196:5230   */\n      swap1\n      swap3\n      pop\n      dup3\n      swap2\n      pop\n        /* \"@thirdweb-dev/contracts/extension/BatchMintMetadata.sol\":5311:5347   */\n      tag_499\n        /* \"@thirdweb-dev/contracts/extension/BatchMintMetadata.sol\":5330:5347   */\n      dup5\n        /* \"@thirdweb-dev/contracts/extension/BatchMintMetadata.sol\":5311:5327   */\n      dup3\n        /* \"@thirdweb-dev/contracts/extension/BatchMintMetadata.sol\":5311:5347   */\n      tag_484\n      jump\t// in\n    tag_499:\n      pop\n        /* \"@thirdweb-dev/contracts/extension/BatchMintMetadata.sol\":4992:5354   */\n      swap4\n      pop\n      swap4\n      swap2\n      pop\n      pop\n      jump\t// out\n        /* \"@thirdweb-dev/contracts/eip/ERC1155.sol\":3614:4358   */\n    tag_375:\n      sub(shl(0xa0, 0x01), 0x01)\n        /* \"@thirdweb-dev/contracts/eip/ERC1155.sol\":3795:3811   */\n      dup5\n      and\n        /* \"@thirdweb-dev/contracts/eip/ERC1155.sol\":3787:3828   */\n      tag_501\n      jumpi\n      mload(0x40)\n      shl(0xe5, 0x461bcd)\n      dup2\n      mstore\n        /* \"#utility.yul\":20472:20474   */\n      0x20\n        /* \"@thirdweb-dev/contracts/eip/ERC1155.sol\":3787:3828   */\n      0x04\n      dup3\n      add\n        /* \"#utility.yul\":20454:20475   */\n      mstore\n        /* \"#utility.yul\":20511:20513   */\n      0x0c\n        /* \"#utility.yul\":20491:20509   */\n      0x24\n      dup3\n      add\n        /* \"#utility.yul\":20484:20514   */\n      mstore\n      shl(0xa1, 0x2a27afad22a927afa0a22229)\n        /* \"#utility.yul\":20530:20548   */\n      0x44\n      dup3\n      add\n        /* \"#utility.yul\":20523:20565   */\n      mstore\n        /* \"#utility.yul\":20582:20600   */\n      0x64\n      add\n        /* \"@thirdweb-dev/contracts/eip/ERC1155.sol\":3787:3828   */\n      tag_220\n        /* \"#utility.yul\":20270:20606   */\n      jump\n        /* \"@thirdweb-dev/contracts/eip/ERC1155.sol\":3787:3828   */\n    tag_501:\n        /* \"@thirdweb-dev/contracts/eip/ERC1155.sol\":3858:3868   */\n      caller\n        /* \"@thirdweb-dev/contracts/eip/ERC1155.sol\":3879:3975   */\n      tag_503\n        /* \"@thirdweb-dev/contracts/eip/ERC1155.sol\":3858:3868   */\n      dup2\n        /* \"@thirdweb-dev/contracts/eip/ERC1155.sol\":3910:3914   */\n      dup8\n        /* \"@thirdweb-dev/contracts/eip/ERC1155.sol\":3916:3918   */\n      dup8\n        /* \"@thirdweb-dev/contracts/eip/ERC1155.sol\":3920:3941   */\n      tag_504\n        /* \"@thirdweb-dev/contracts/eip/ERC1155.sol\":3938:3940   */\n      dup9\n        /* \"@thirdweb-dev/contracts/eip/ERC1155.sol\":3920:3937   */\n      tag_505\n        /* \"@thirdweb-dev/contracts/eip/ERC1155.sol\":3920:3941   */\n      jump\t// in\n    tag_504:\n        /* \"@thirdweb-dev/contracts/eip/ERC1155.sol\":3943:3968   */\n      tag_506\n        /* \"@thirdweb-dev/contracts/eip/ERC1155.sol\":3961:3967   */\n      dup9\n        /* \"@thirdweb-dev/contracts/eip/ERC1155.sol\":3943:3960   */\n      tag_505\n        /* \"@thirdweb-dev/contracts/eip/ERC1155.sol\":3943:3968   */\n      jump\t// in\n    tag_506:\n        /* \"@thirdweb-dev/contracts/eip/ERC1155.sol\":3970:3974   */\n      dup8\n        /* \"@thirdweb-dev/contracts/eip/ERC1155.sol\":3879:3899   */\n      tag_435\n        /* \"@thirdweb-dev/contracts/eip/ERC1155.sol\":3879:3975   */\n      jump\t// in\n    tag_503:\n      sub(shl(0xa0, 0x01), 0x01)\n        /* \"@thirdweb-dev/contracts/eip/ERC1155.sol\":4008:4023   */\n      dup7\n      and\n        /* \"@thirdweb-dev/contracts/eip/ERC1155.sol\":3986:4005   */\n      0x00\n        /* \"@thirdweb-dev/contracts/eip/ERC1155.sol\":4008:4023   */\n      swap1\n      dup2\n      mstore\n        /* \"@thirdweb-dev/contracts/eip/ERC1155.sol\":4008:4017   */\n      0x02\n        /* \"@thirdweb-dev/contracts/eip/ERC1155.sol\":4008:4023   */\n      0x20\n      swap1\n      dup2\n      mstore\n      0x40\n      dup1\n      dup4\n      keccak256\n        /* \"@thirdweb-dev/contracts/eip/ERC1155.sol\":4008:4027   */\n      dup8\n      dup5\n      mstore\n      swap1\n      swap2\n      mstore\n      swap1\n      keccak256\n      sload\n        /* \"@thirdweb-dev/contracts/eip/ERC1155.sol\":4045:4066   */\n      dup4\n      dup2\n      lt\n      iszero\n        /* \"@thirdweb-dev/contracts/eip/ERC1155.sol\":4037:4087   */\n      tag_507\n      jumpi\n      mload(0x40)\n      shl(0xe5, 0x461bcd)\n      dup2\n      mstore\n        /* \"#utility.yul\":20813:20815   */\n      0x20\n        /* \"@thirdweb-dev/contracts/eip/ERC1155.sol\":4037:4087   */\n      0x04\n      dup3\n      add\n        /* \"#utility.yul\":20795:20816   */\n      mstore\n        /* \"#utility.yul\":20852:20854   */\n      0x10\n        /* \"#utility.yul\":20832:20850   */\n      0x24\n      dup3\n      add\n        /* \"#utility.yul\":20825:20855   */\n      mstore\n      shl(0x82, 0x125394d551919250d251539517d09053)\n        /* \"#utility.yul\":20871:20889   */\n      0x44\n      dup3\n      add\n        /* \"#utility.yul\":20864:20910   */\n      mstore\n        /* \"#utility.yul\":20927:20945   */\n      0x64\n      add\n        /* \"@thirdweb-dev/contracts/eip/ERC1155.sol\":4037:4087   */\n      tag_220\n        /* \"#utility.yul\":20611:20951   */\n      jump\n        /* \"@thirdweb-dev/contracts/eip/ERC1155.sol\":4037:4087   */\n    tag_507:\n      sub(shl(0xa0, 0x01), 0x01)\n        /* \"@thirdweb-dev/contracts/eip/ERC1155.sol\":4121:4136   */\n      dup1\n      dup9\n      and\n      0x00\n      swap1\n      dup2\n      mstore\n        /* \"@thirdweb-dev/contracts/eip/ERC1155.sol\":4121:4130   */\n      0x02\n        /* \"@thirdweb-dev/contracts/eip/ERC1155.sol\":4121:4136   */\n      0x20\n      dup2\n      dup2\n      mstore\n      0x40\n      dup1\n      dup5\n      keccak256\n        /* \"@thirdweb-dev/contracts/eip/ERC1155.sol\":4121:4140   */\n      dup11\n      dup6\n      mstore\n      dup3\n      mstore\n      dup1\n      dup5\n      keccak256\n        /* \"@thirdweb-dev/contracts/eip/ERC1155.sol\":4143:4163   */\n      dup10\n      dup8\n      sub\n        /* \"@thirdweb-dev/contracts/eip/ERC1155.sol\":4121:4163   */\n      swap1\n      sstore\n        /* \"@thirdweb-dev/contracts/eip/ERC1155.sol\":4183:4196   */\n      swap4\n      dup11\n      and\n      dup4\n      mstore\n      swap1\n      dup2\n      mstore\n      dup3\n      dup3\n      keccak256\n        /* \"@thirdweb-dev/contracts/eip/ERC1155.sol\":4183:4200   */\n      dup9\n      dup4\n      mstore\n      swap1\n      mstore\n      swap1\n      dup2\n      keccak256\n        /* \"@thirdweb-dev/contracts/eip/ERC1155.sol\":4183:4210   */\n      dup1\n      sload\n        /* \"@thirdweb-dev/contracts/eip/ERC1155.sol\":4157:4163   */\n      dup7\n      swap3\n        /* \"@thirdweb-dev/contracts/eip/ERC1155.sol\":4121:4136   */\n      swap1\n        /* \"@thirdweb-dev/contracts/eip/ERC1155.sol\":4183:4210   */\n      tag_509\n      swap1\n        /* \"@thirdweb-dev/contracts/eip/ERC1155.sol\":4157:4163   */\n      dup5\n      swap1\n        /* \"@thirdweb-dev/contracts/eip/ERC1155.sol\":4183:4210   */\n      tag_299\n      jump\t// in\n    tag_509:\n      swap1\n      swap2\n      sstore\n      pop\n      pop\n        /* \"@thirdweb-dev/contracts/eip/ERC1155.sol\":4226:4272   */\n      0x40\n      dup1\n      mload\n        /* \"#utility.yul\":21612:21637   */\n      dup7\n      dup2\n      mstore\n        /* \"#utility.yul\":21668:21670   */\n      0x20\n        /* \"#utility.yul\":21653:21671   */\n      dup2\n      add\n        /* \"#utility.yul\":21646:21680   */\n      dup7\n      swap1\n      mstore\n      sub(shl(0xa0, 0x01), 0x01)\n        /* \"@thirdweb-dev/contracts/eip/ERC1155.sol\":4226:4272   */\n      dup1\n      dup10\n      and\n      swap3\n      dup11\n      dup3\n      and\n      swap3\n      swap2\n      dup7\n      and\n      swap2\n      0xc3d58168c5ae7397731d063d5bbf3d657854427343f4c083240f7aacaa2d0f62\n      swap2\n        /* \"#utility.yul\":21585:21603   */\n      add\n        /* \"@thirdweb-dev/contracts/eip/ERC1155.sol\":4226:4272   */\n      mload(0x40)\n      dup1\n      swap2\n      sub\n      swap1\n      log4\n        /* \"@thirdweb-dev/contracts/eip/ERC1155.sol\":4283:4351   */\n      tag_512\n        /* \"@thirdweb-dev/contracts/eip/ERC1155.sol\":4314:4322   */\n      dup3\n        /* \"@thirdweb-dev/contracts/eip/ERC1155.sol\":4324:4328   */\n      dup9\n        /* \"@thirdweb-dev/contracts/eip/ERC1155.sol\":4330:4332   */\n      dup9\n        /* \"@thirdweb-dev/contracts/eip/ERC1155.sol\":4334:4336   */\n      dup9\n        /* \"@thirdweb-dev/contracts/eip/ERC1155.sol\":4338:4344   */\n      dup9\n        /* \"@thirdweb-dev/contracts/eip/ERC1155.sol\":4346:4350   */\n      dup9\n        /* \"@thirdweb-dev/contracts/eip/ERC1155.sol\":4283:4313   */\n      tag_513\n        /* \"@thirdweb-dev/contracts/eip/ERC1155.sol\":4283:4351   */\n      jump\t// in\n    tag_512:\n        /* \"@thirdweb-dev/contracts/eip/ERC1155.sol\":3777:4358   */\n      pop\n      pop\n        /* \"@thirdweb-dev/contracts/eip/ERC1155.sol\":3614:4358   */\n      pop\n      pop\n      pop\n      pop\n      pop\n      jump\t// out\n        /* \"@thirdweb-dev/contracts/eip/ERC1155.sol\":6631:7188   */\n    tag_383:\n      sub(shl(0xa0, 0x01), 0x01)\n        /* \"@thirdweb-dev/contracts/eip/ERC1155.sol\":6723:6741   */\n      dup4\n      and\n        /* \"@thirdweb-dev/contracts/eip/ERC1155.sol\":6715:6760   */\n      tag_515\n      jumpi\n      mload(0x40)\n      shl(0xe5, 0x461bcd)\n      dup2\n      mstore\n        /* \"#utility.yul\":21893:21895   */\n      0x20\n        /* \"@thirdweb-dev/contracts/eip/ERC1155.sol\":6715:6760   */\n      0x04\n      dup3\n      add\n        /* \"#utility.yul\":21875:21896   */\n      mstore\n        /* \"#utility.yul\":21932:21934   */\n      0x0e\n        /* \"#utility.yul\":21912:21930   */\n      0x24\n      dup3\n      add\n        /* \"#utility.yul\":21905:21935   */\n      mstore\n      shl(0x91, 0x232927a6afad22a927afa0a22229)\n        /* \"#utility.yul\":21951:21969   */\n      0x44\n      dup3\n      add\n        /* \"#utility.yul\":21944:21988   */\n      mstore\n        /* \"#utility.yul\":22005:22023   */\n      0x64\n      add\n        /* \"@thirdweb-dev/contracts/eip/ERC1155.sol\":6715:6760   */\n      tag_220\n        /* \"#utility.yul\":21691:22029   */\n      jump\n        /* \"@thirdweb-dev/contracts/eip/ERC1155.sol\":6715:6760   */\n    tag_515:\n        /* \"@thirdweb-dev/contracts/eip/ERC1155.sol\":6790:6800   */\n      caller\n        /* \"@thirdweb-dev/contracts/eip/ERC1155.sol\":6811:6913   */\n      tag_517\n        /* \"@thirdweb-dev/contracts/eip/ERC1155.sol\":6790:6800   */\n      dup2\n        /* \"@thirdweb-dev/contracts/eip/ERC1155.sol\":6842:6846   */\n      dup6\n        /* \"@thirdweb-dev/contracts/eip/ERC1155.sol\":6771:6787   */\n      0x00\n        /* \"@thirdweb-dev/contracts/eip/ERC1155.sol\":6860:6881   */\n      tag_518\n        /* \"@thirdweb-dev/contracts/eip/ERC1155.sol\":6878:6880   */\n      dup8\n        /* \"@thirdweb-dev/contracts/eip/ERC1155.sol\":6860:6877   */\n      tag_505\n        /* \"@thirdweb-dev/contracts/eip/ERC1155.sol\":6860:6881   */\n      jump\t// in\n    tag_518:\n        /* \"@thirdweb-dev/contracts/eip/ERC1155.sol\":6883:6908   */\n      tag_519\n        /* \"@thirdweb-dev/contracts/eip/ERC1155.sol\":6901:6907   */\n      dup8\n        /* \"@thirdweb-dev/contracts/eip/ERC1155.sol\":6883:6900   */\n      tag_505\n        /* \"@thirdweb-dev/contracts/eip/ERC1155.sol\":6883:6908   */\n      jump\t// in\n    tag_519:\n        /* \"@thirdweb-dev/contracts/eip/ERC1155.sol\":6811:6913   */\n      mload(0x40)\n      dup1\n      0x20\n      add\n      0x40\n      mstore\n      dup1\n      0x00\n      dup2\n      mstore\n      pop\n        /* \"@thirdweb-dev/contracts/eip/ERC1155.sol\":6811:6831   */\n      tag_435\n        /* \"@thirdweb-dev/contracts/eip/ERC1155.sol\":6811:6913   */\n      jump\t// in\n    tag_517:\n      sub(shl(0xa0, 0x01), 0x01)\n        /* \"@thirdweb-dev/contracts/eip/ERC1155.sol\":6946:6961   */\n      dup5\n      and\n        /* \"@thirdweb-dev/contracts/eip/ERC1155.sol\":6924:6943   */\n      0x00\n        /* \"@thirdweb-dev/contracts/eip/ERC1155.sol\":6946:6961   */\n      swap1\n      dup2\n      mstore\n        /* \"@thirdweb-dev/contracts/eip/ERC1155.sol\":6946:6955   */\n      0x02\n        /* \"@thirdweb-dev/contracts/eip/ERC1155.sol\":6946:6961   */\n      0x20\n      swap1\n      dup2\n      mstore\n      0x40\n      dup1\n      dup4\n      keccak256\n        /* \"@thirdweb-dev/contracts/eip/ERC1155.sol\":6946:6965   */\n      dup7\n      dup5\n      mstore\n      swap1\n      swap2\n      mstore\n      swap1\n      keccak256\n      sload\n        /* \"@thirdweb-dev/contracts/eip/ERC1155.sol\":6983:7004   */\n      dup3\n      dup2\n      lt\n      iszero\n        /* \"@thirdweb-dev/contracts/eip/ERC1155.sol\":6975:7025   */\n      tag_520\n      jumpi\n      mload(0x40)\n      shl(0xe5, 0x461bcd)\n      dup2\n      mstore\n        /* \"#utility.yul\":20813:20815   */\n      0x20\n        /* \"@thirdweb-dev/contracts/eip/ERC1155.sol\":6975:7025   */\n      0x04\n      dup3\n      add\n        /* \"#utility.yul\":20795:20816   */\n      mstore\n        /* \"#utility.yul\":20852:20854   */\n      0x10\n        /* \"#utility.yul\":20832:20850   */\n      0x24\n      dup3\n      add\n        /* \"#utility.yul\":20825:20855   */\n      mstore\n      shl(0x82, 0x125394d551919250d251539517d09053)\n        /* \"#utility.yul\":20871:20889   */\n      0x44\n      dup3\n      add\n        /* \"#utility.yul\":20864:20910   */\n      mstore\n        /* \"#utility.yul\":20927:20945   */\n      0x64\n      add\n        /* \"@thirdweb-dev/contracts/eip/ERC1155.sol\":6975:7025   */\n      tag_220\n        /* \"#utility.yul\":20611:20951   */\n      jump\n        /* \"@thirdweb-dev/contracts/eip/ERC1155.sol\":6975:7025   */\n    tag_520:\n      sub(shl(0xa0, 0x01), 0x01)\n        /* \"@thirdweb-dev/contracts/eip/ERC1155.sol\":7059:7074   */\n      dup6\n      dup2\n      and\n      0x00\n      dup2\n      dup2\n      mstore\n        /* \"@thirdweb-dev/contracts/eip/ERC1155.sol\":7059:7068   */\n      0x02\n        /* \"@thirdweb-dev/contracts/eip/ERC1155.sol\":7059:7074   */\n      0x20\n      swap1\n      dup2\n      mstore\n      0x40\n      dup1\n      dup4\n      keccak256\n        /* \"@thirdweb-dev/contracts/eip/ERC1155.sol\":7059:7078   */\n      dup10\n      dup5\n      mstore\n      dup3\n      mstore\n      dup1\n      dup4\n      keccak256\n        /* \"@thirdweb-dev/contracts/eip/ERC1155.sol\":7081:7101   */\n      dup9\n      dup8\n      sub\n        /* \"@thirdweb-dev/contracts/eip/ERC1155.sol\":7059:7101   */\n      swap1\n      sstore\n        /* \"@thirdweb-dev/contracts/eip/ERC1155.sol\":7127:7181   */\n      dup1\n      mload\n        /* \"#utility.yul\":21612:21637   */\n      dup10\n      dup2\n      mstore\n        /* \"#utility.yul\":21653:21671   */\n      swap2\n      dup3\n      add\n        /* \"#utility.yul\":21646:21680   */\n      dup9\n      swap1\n      mstore\n        /* \"@thirdweb-dev/contracts/eip/ERC1155.sol\":7059:7074   */\n      swap2\n      swap4\n        /* \"@thirdweb-dev/contracts/eip/ERC1155.sol\":7127:7181   */\n      dup7\n      and\n      swap2\n      0xc3d58168c5ae7397731d063d5bbf3d657854427343f4c083240f7aacaa2d0f62\n      swap2\n        /* \"#utility.yul\":21585:21603   */\n      add\n        /* \"@thirdweb-dev/contracts/eip/ERC1155.sol\":7127:7181   */\n      mload(0x40)\n      dup1\n      swap2\n      sub\n      swap1\n      log4\n        /* \"@thirdweb-dev/contracts/eip/ERC1155.sol\":6705:7188   */\n      pop\n      pop\n        /* \"@thirdweb-dev/contracts/eip/ERC1155.sol\":6631:7188   */\n      pop\n      pop\n      pop\n      jump\t// out\n        /* \"@thirdweb-dev/contracts/eip/ERC1155.sol\":5460:5952   */\n    tag_427:\n      sub(shl(0xa0, 0x01), 0x01)\n        /* \"@thirdweb-dev/contracts/eip/ERC1155.sol\":5569:5585   */\n      dup5\n      and\n        /* \"@thirdweb-dev/contracts/eip/ERC1155.sol\":5561:5602   */\n      tag_524\n      jumpi\n      mload(0x40)\n      shl(0xe5, 0x461bcd)\n      dup2\n      mstore\n        /* \"#utility.yul\":20472:20474   */\n      0x20\n        /* \"@thirdweb-dev/contracts/eip/ERC1155.sol\":5561:5602   */\n      0x04\n      dup3\n      add\n        /* \"#utility.yul\":20454:20475   */\n      mstore\n        /* \"#utility.yul\":20511:20513   */\n      0x0c\n        /* \"#utility.yul\":20491:20509   */\n      0x24\n      dup3\n      add\n        /* \"#utility.yul\":20484:20514   */\n      mstore\n      shl(0xa1, 0x2a27afad22a927afa0a22229)\n        /* \"#utility.yul\":20530:20548   */\n      0x44\n      dup3\n      add\n        /* \"#utility.yul\":20523:20565   */\n      mstore\n        /* \"#utility.yul\":20582:20600   */\n      0x64\n      add\n        /* \"@thirdweb-dev/contracts/eip/ERC1155.sol\":5561:5602   */\n      tag_220\n        /* \"#utility.yul\":20270:20606   */\n      jump\n        /* \"@thirdweb-dev/contracts/eip/ERC1155.sol\":5561:5602   */\n    tag_524:\n        /* \"@thirdweb-dev/contracts/eip/ERC1155.sol\":5632:5642   */\n      caller\n        /* \"@thirdweb-dev/contracts/eip/ERC1155.sol\":5653:5755   */\n      tag_526\n        /* \"@thirdweb-dev/contracts/eip/ERC1155.sol\":5632:5642   */\n      dup2\n        /* \"@thirdweb-dev/contracts/eip/ERC1155.sol\":5613:5629   */\n      0x00\n        /* \"@thirdweb-dev/contracts/eip/ERC1155.sol\":5696:5698   */\n      dup8\n        /* \"@thirdweb-dev/contracts/eip/ERC1155.sol\":5700:5721   */\n      tag_504\n        /* \"@thirdweb-dev/contracts/eip/ERC1155.sol\":5718:5720   */\n      dup9\n        /* \"@thirdweb-dev/contracts/eip/ERC1155.sol\":5700:5717   */\n      tag_505\n        /* \"@thirdweb-dev/contracts/eip/ERC1155.sol\":5700:5721   */\n      jump\t// in\n        /* \"@thirdweb-dev/contracts/eip/ERC1155.sol\":5653:5755   */\n    tag_526:\n      sub(shl(0xa0, 0x01), 0x01)\n        /* \"@thirdweb-dev/contracts/eip/ERC1155.sol\":5766:5779   */\n      dup6\n      and\n      0x00\n      swap1\n      dup2\n      mstore\n        /* \"@thirdweb-dev/contracts/eip/ERC1155.sol\":5766:5775   */\n      0x02\n        /* \"@thirdweb-dev/contracts/eip/ERC1155.sol\":5766:5779   */\n      0x20\n      swap1\n      dup2\n      mstore\n      0x40\n      dup1\n      dup4\n      keccak256\n        /* \"@thirdweb-dev/contracts/eip/ERC1155.sol\":5766:5783   */\n      dup8\n      dup5\n      mstore\n      swap1\n      swap2\n      mstore\n      dup2\n      keccak256\n        /* \"@thirdweb-dev/contracts/eip/ERC1155.sol\":5766:5793   */\n      dup1\n      sload\n        /* \"@thirdweb-dev/contracts/eip/ERC1155.sol\":5787:5793   */\n      dup6\n      swap3\n        /* \"@thirdweb-dev/contracts/eip/ERC1155.sol\":5766:5779   */\n      swap1\n        /* \"@thirdweb-dev/contracts/eip/ERC1155.sol\":5766:5793   */\n      tag_529\n      swap1\n        /* \"@thirdweb-dev/contracts/eip/ERC1155.sol\":5787:5793   */\n      dup5\n      swap1\n        /* \"@thirdweb-dev/contracts/eip/ERC1155.sol\":5766:5793   */\n      tag_299\n      jump\t// in\n    tag_529:\n      swap1\n      swap2\n      sstore\n      pop\n      pop\n        /* \"@thirdweb-dev/contracts/eip/ERC1155.sol\":5808:5860   */\n      0x40\n      dup1\n      mload\n        /* \"#utility.yul\":21612:21637   */\n      dup6\n      dup2\n      mstore\n        /* \"#utility.yul\":21668:21670   */\n      0x20\n        /* \"#utility.yul\":21653:21671   */\n      dup2\n      add\n        /* \"#utility.yul\":21646:21680   */\n      dup6\n      swap1\n      mstore\n      sub(shl(0xa0, 0x01), 0x01)\n        /* \"@thirdweb-dev/contracts/eip/ERC1155.sol\":5808:5860   */\n      dup1\n      dup9\n      and\n      swap3\n        /* \"@thirdweb-dev/contracts/eip/ERC1155.sol\":5841:5842   */\n      0x00\n      swap3\n        /* \"@thirdweb-dev/contracts/eip/ERC1155.sol\":5808:5860   */\n      swap2\n      dup6\n      and\n      swap2\n      0xc3d58168c5ae7397731d063d5bbf3d657854427343f4c083240f7aacaa2d0f62\n      swap2\n        /* \"#utility.yul\":21585:21603   */\n      add\n        /* \"@thirdweb-dev/contracts/eip/ERC1155.sol\":5808:5860   */\n      mload(0x40)\n      dup1\n      swap2\n      sub\n      swap1\n      log4\n        /* \"@thirdweb-dev/contracts/eip/ERC1155.sol\":5871:5945   */\n      tag_249\n        /* \"@thirdweb-dev/contracts/eip/ERC1155.sol\":5902:5910   */\n      dup2\n        /* \"@thirdweb-dev/contracts/eip/ERC1155.sol\":5920:5921   */\n      0x00\n        /* \"@thirdweb-dev/contracts/eip/ERC1155.sol\":5924:5926   */\n      dup8\n        /* \"@thirdweb-dev/contracts/eip/ERC1155.sol\":5928:5930   */\n      dup8\n        /* \"@thirdweb-dev/contracts/eip/ERC1155.sol\":5932:5938   */\n      dup8\n        /* \"@thirdweb-dev/contracts/eip/ERC1155.sol\":5940:5944   */\n      dup8\n        /* \"@thirdweb-dev/contracts/eip/ERC1155.sol\":5871:5901   */\n      tag_513\n        /* \"@thirdweb-dev/contracts/eip/ERC1155.sol\":5871:5945   */\n      jump\t// in\n        /* \"@thirdweb-dev/contracts/base/ERC1155LazyMint.sol\":10955:11587   */\n    tag_435:\n      sub(shl(0xa0, 0x01), 0x01)\n        /* \"@thirdweb-dev/contracts/base/ERC1155LazyMint.sol\":11267:11285   */\n      dup6\n      and\n        /* \"@thirdweb-dev/contracts/base/ERC1155LazyMint.sol\":11263:11418   */\n      tag_535\n      jumpi\n        /* \"@thirdweb-dev/contracts/base/ERC1155LazyMint.sol\":11306:11315   */\n      0x00\n        /* \"@thirdweb-dev/contracts/base/ERC1155LazyMint.sol\":11301:11408   */\n    tag_536:\n        /* \"@thirdweb-dev/contracts/base/ERC1155LazyMint.sol\":11325:11328   */\n      dup4\n        /* \"@thirdweb-dev/contracts/base/ERC1155LazyMint.sol\":11325:11335   */\n      mload\n        /* \"@thirdweb-dev/contracts/base/ERC1155LazyMint.sol\":11321:11322   */\n      dup2\n        /* \"@thirdweb-dev/contracts/base/ERC1155LazyMint.sol\":11321:11335   */\n      lt\n        /* \"@thirdweb-dev/contracts/base/ERC1155LazyMint.sol\":11301:11408   */\n      iszero\n      tag_537\n      jumpi\n        /* \"@thirdweb-dev/contracts/base/ERC1155LazyMint.sol\":11383:11390   */\n      dup3\n        /* \"@thirdweb-dev/contracts/base/ERC1155LazyMint.sol\":11391:11392   */\n      dup2\n        /* \"@thirdweb-dev/contracts/base/ERC1155LazyMint.sol\":11383:11393   */\n      dup2\n      mload\n      dup2\n      lt\n      tag_540\n      jumpi\n      tag_540\n      tag_223\n      jump\t// in\n    tag_540:\n      0x20\n      mul\n      0x20\n      add\n      add\n      mload\n        /* \"@thirdweb-dev/contracts/base/ERC1155LazyMint.sol\":11360:11371   */\n      0x0e\n        /* \"@thirdweb-dev/contracts/base/ERC1155LazyMint.sol\":11360:11379   */\n      0x00\n        /* \"@thirdweb-dev/contracts/base/ERC1155LazyMint.sol\":11372:11375   */\n      dup7\n        /* \"@thirdweb-dev/contracts/base/ERC1155LazyMint.sol\":11376:11377   */\n      dup5\n        /* \"@thirdweb-dev/contracts/base/ERC1155LazyMint.sol\":11372:11378   */\n      dup2\n      mload\n      dup2\n      lt\n      tag_542\n      jumpi\n      tag_542\n      tag_223\n      jump\t// in\n    tag_542:\n      0x20\n      mul\n      0x20\n      add\n      add\n      mload\n        /* \"@thirdweb-dev/contracts/base/ERC1155LazyMint.sol\":11360:11379   */\n      dup2\n      mstore\n      0x20\n      add\n      swap1\n      dup2\n      mstore\n      0x20\n      add\n      0x00\n      keccak256\n      0x00\n        /* \"@thirdweb-dev/contracts/base/ERC1155LazyMint.sol\":11360:11393   */\n      dup3\n      dup3\n      sload\n      tag_543\n      swap2\n      swap1\n      tag_299\n      jump\t// in\n    tag_543:\n      swap1\n      swap2\n      sstore\n      pop\n      pop\n        /* \"@thirdweb-dev/contracts/base/ERC1155LazyMint.sol\":11337:11340   */\n      0x01\n      add\n        /* \"@thirdweb-dev/contracts/base/ERC1155LazyMint.sol\":11301:11408   */\n      jump(tag_536)\n    tag_537:\n      pop\n        /* \"@thirdweb-dev/contracts/base/ERC1155LazyMint.sol\":11263:11418   */\n    tag_535:\n      sub(shl(0xa0, 0x01), 0x01)\n        /* \"@thirdweb-dev/contracts/base/ERC1155LazyMint.sol\":11432:11448   */\n      dup5\n      and\n        /* \"@thirdweb-dev/contracts/base/ERC1155LazyMint.sol\":11428:11581   */\n      tag_449\n      jumpi\n        /* \"@thirdweb-dev/contracts/base/ERC1155LazyMint.sol\":11469:11478   */\n      0x00\n        /* \"@thirdweb-dev/contracts/base/ERC1155LazyMint.sol\":11464:11571   */\n    tag_545:\n        /* \"@thirdweb-dev/contracts/base/ERC1155LazyMint.sol\":11488:11491   */\n      dup4\n        /* \"@thirdweb-dev/contracts/base/ERC1155LazyMint.sol\":11488:11498   */\n      mload\n        /* \"@thirdweb-dev/contracts/base/ERC1155LazyMint.sol\":11484:11485   */\n      dup2\n        /* \"@thirdweb-dev/contracts/base/ERC1155LazyMint.sol\":11484:11498   */\n      lt\n        /* \"@thirdweb-dev/contracts/base/ERC1155LazyMint.sol\":11464:11571   */\n      iszero\n      tag_512\n      jumpi\n        /* \"@thirdweb-dev/contracts/base/ERC1155LazyMint.sol\":11546:11553   */\n      dup3\n        /* \"@thirdweb-dev/contracts/base/ERC1155LazyMint.sol\":11554:11555   */\n      dup2\n        /* \"@thirdweb-dev/contracts/base/ERC1155LazyMint.sol\":11546:11556   */\n      dup2\n      mload\n      dup2\n      lt\n      tag_549\n      jumpi\n      tag_549\n      tag_223\n      jump\t// in\n    tag_549:\n      0x20\n      mul\n      0x20\n      add\n      add\n      mload\n        /* \"@thirdweb-dev/contracts/base/ERC1155LazyMint.sol\":11523:11534   */\n      0x0e\n        /* \"@thirdweb-dev/contracts/base/ERC1155LazyMint.sol\":11523:11542   */\n      0x00\n        /* \"@thirdweb-dev/contracts/base/ERC1155LazyMint.sol\":11535:11538   */\n      dup7\n        /* \"@thirdweb-dev/contracts/base/ERC1155LazyMint.sol\":11539:11540   */\n      dup5\n        /* \"@thirdweb-dev/contracts/base/ERC1155LazyMint.sol\":11535:11541   */\n      dup2\n      mload\n      dup2\n      lt\n      tag_551\n      jumpi\n      tag_551\n      tag_223\n      jump\t// in\n    tag_551:\n      0x20\n      mul\n      0x20\n      add\n      add\n      mload\n        /* \"@thirdweb-dev/contracts/base/ERC1155LazyMint.sol\":11523:11542   */\n      dup2\n      mstore\n      0x20\n      add\n      swap1\n      dup2\n      mstore\n      0x20\n      add\n      0x00\n      keccak256\n      0x00\n        /* \"@thirdweb-dev/contracts/base/ERC1155LazyMint.sol\":11523:11556   */\n      dup3\n      dup3\n      sload\n      tag_552\n      swap2\n      swap1\n      tag_362\n      jump\t// in\n    tag_552:\n      swap1\n      swap2\n      sstore\n      pop\n      pop\n        /* \"@thirdweb-dev/contracts/base/ERC1155LazyMint.sol\":11500:11503   */\n      0x01\n      add\n        /* \"@thirdweb-dev/contracts/base/ERC1155LazyMint.sol\":11464:11571   */\n      jump(tag_545)\n        /* \"@thirdweb-dev/contracts/eip/ERC1155.sol\":8862:9596   */\n    tag_450:\n      sub(shl(0xa0, 0x01), 0x01)\n        /* \"@thirdweb-dev/contracts/eip/ERC1155.sol\":9094:9108   */\n      dup5\n      and\n      extcodesize\n        /* \"@thirdweb-dev/contracts/eip/ERC1155.sol\":9094:9112   */\n      iszero\n        /* \"@thirdweb-dev/contracts/eip/ERC1155.sol\":9090:9590   */\n      tag_449\n      jumpi\n        /* \"@thirdweb-dev/contracts/eip/ERC1155.sol\":9132:9211   */\n      mload(0x40)\n      shl(0xe0, 0xbc197c81)\n      dup2\n      mstore\n      sub(shl(0xa0, 0x01), 0x01)\n        /* \"@thirdweb-dev/contracts/eip/ERC1155.sol\":9132:9175   */\n      dup6\n      and\n      swap1\n      0xbc197c81\n      swap1\n        /* \"@thirdweb-dev/contracts/eip/ERC1155.sol\":9132:9211   */\n      tag_555\n      swap1\n        /* \"@thirdweb-dev/contracts/eip/ERC1155.sol\":9176:9184   */\n      dup10\n      swap1\n        /* \"@thirdweb-dev/contracts/eip/ERC1155.sol\":9186:9190   */\n      dup10\n      swap1\n        /* \"@thirdweb-dev/contracts/eip/ERC1155.sol\":9192:9195   */\n      dup9\n      swap1\n        /* \"@thirdweb-dev/contracts/eip/ERC1155.sol\":9197:9204   */\n      dup9\n      swap1\n        /* \"@thirdweb-dev/contracts/eip/ERC1155.sol\":9206:9210   */\n      dup9\n      swap1\n        /* \"@thirdweb-dev/contracts/eip/ERC1155.sol\":9132:9211   */\n      0x04\n      add\n      tag_556\n      jump\t// in\n    tag_555:\n      0x20\n      mload(0x40)\n      dup1\n      dup4\n      sub\n      dup2\n      0x00\n      dup8\n      gas\n      call\n      swap3\n      pop\n      pop\n      pop\n      dup1\n      iszero\n      tag_557\n      jumpi\n      pop\n      0x40\n      dup1\n      mload\n      0x1f\n      returndatasize\n      swap1\n      dup2\n      add\n      not(0x1f)\n      and\n      dup3\n      add\n      swap1\n      swap3\n      mstore\n      tag_558\n      swap2\n      dup2\n      add\n      swap1\n      tag_559\n      jump\t// in\n    tag_558:\n      0x01\n    tag_557:\n        /* \"@thirdweb-dev/contracts/eip/ERC1155.sol\":9128:9580   */\n      tag_560\n      jumpi\n      tag_564\n      tag_565\n      jump\t// in\n    tag_564:\n      dup1\n      0x08c379a0\n      sub\n      tag_563\n      jumpi\n      pop\n      tag_566\n      tag_567\n      jump\t// in\n    tag_566:\n      dup1\n      tag_568\n      jumpi\n      pop\n      jump(tag_562)\n    tag_568:\n        /* \"@thirdweb-dev/contracts/eip/ERC1155.sol\":9492:9498   */\n      dup1\n        /* \"@thirdweb-dev/contracts/eip/ERC1155.sol\":9485:9499   */\n      mload(0x40)\n      shl(0xe5, 0x461bcd)\n      dup2\n      mstore\n      0x04\n      add\n      tag_220\n      swap2\n      swap1\n      tag_57\n      jump\t// in\n        /* \"@thirdweb-dev/contracts/eip/ERC1155.sol\":9128:9580   */\n    tag_563:\n      pop\n    tag_562:\n        /* \"@thirdweb-dev/contracts/eip/ERC1155.sol\":9539:9565   */\n      mload(0x40)\n      shl(0xe5, 0x461bcd)\n      dup2\n      mstore\n        /* \"#utility.yul\":27049:27051   */\n      0x20\n        /* \"@thirdweb-dev/contracts/eip/ERC1155.sol\":9539:9565   */\n      0x04\n      dup3\n      add\n        /* \"#utility.yul\":27031:27052   */\n      mstore\n        /* \"#utility.yul\":27088:27090   */\n      0x10\n        /* \"#utility.yul\":27068:27086   */\n      0x24\n      dup3\n      add\n        /* \"#utility.yul\":27061:27091   */\n      mstore\n        /* \"#utility.yul\":27127:27145   */\n      0x2145524331313535524543454956455200000000000000000000000000000000\n        /* \"#utility.yul\":27107:27125   */\n      0x44\n      dup3\n      add\n        /* \"#utility.yul\":27100:27146   */\n      mstore\n        /* \"#utility.yul\":27163:27181   */\n      0x64\n      add\n        /* \"@thirdweb-dev/contracts/eip/ERC1155.sol\":9539:9565   */\n      tag_220\n        /* \"#utility.yul\":26847:27187   */\n      jump\n        /* \"@thirdweb-dev/contracts/eip/ERC1155.sol\":9128:9580   */\n    tag_560:\n      not(sub(shl(0xe0, 0x01), 0x01))\n        /* \"@thirdweb-dev/contracts/eip/ERC1155.sol\":9290:9350   */\n      dup2\n      and\n      shl(0xe0, 0xbc197c81)\n      eq\n        /* \"@thirdweb-dev/contracts/eip/ERC1155.sol\":9286:9418   */\n      tag_512\n      jumpi\n        /* \"@thirdweb-dev/contracts/eip/ERC1155.sol\":9374:9399   */\n      mload(0x40)\n      shl(0xe5, 0x461bcd)\n      dup2\n      mstore\n        /* \"#utility.yul\":27394:27396   */\n      0x20\n        /* \"@thirdweb-dev/contracts/eip/ERC1155.sol\":9374:9399   */\n      0x04\n      dup3\n      add\n        /* \"#utility.yul\":27376:27397   */\n      mstore\n        /* \"#utility.yul\":27433:27435   */\n      0x0f\n        /* \"#utility.yul\":27413:27431   */\n      0x24\n      dup3\n      add\n        /* \"#utility.yul\":27406:27436   */\n      mstore\n      shl(0x8a, 0x1513d2d15394d7d491529150d51151)\n        /* \"#utility.yul\":27452:27470   */\n      0x44\n      dup3\n      add\n        /* \"#utility.yul\":27445:27490   */\n      mstore\n        /* \"#utility.yul\":27507:27525   */\n      0x64\n      add\n        /* \"@thirdweb-dev/contracts/eip/ERC1155.sol\":9374:9399   */\n      tag_220\n        /* \"#utility.yul\":27192:27531   */\n      jump\n        /* \"@thirdweb-dev/contracts/lib/Address.sol\":7055:7380   */\n    tag_494:\n        /* \"@thirdweb-dev/contracts/lib/Address.sol\":7196:7208   */\n      0x60\n        /* \"@thirdweb-dev/contracts/lib/Address.sol\":7221:7233   */\n      0x00\n        /* \"@thirdweb-dev/contracts/lib/Address.sol\":7235:7258   */\n      dup1\n        /* \"@thirdweb-dev/contracts/lib/Address.sol\":7262:7268   */\n      dup6\n      sub(shl(0xa0, 0x01), 0x01)\n        /* \"@thirdweb-dev/contracts/lib/Address.sol\":7262:7281   */\n      and\n        /* \"@thirdweb-dev/contracts/lib/Address.sol\":7282:7286   */\n      dup6\n        /* \"@thirdweb-dev/contracts/lib/Address.sol\":7262:7287   */\n      mload(0x40)\n      tag_577\n      swap2\n      swap1\n      tag_578\n      jump\t// in\n    tag_577:\n      0x00\n      mload(0x40)\n      dup1\n      dup4\n      sub\n      dup2\n      dup6\n      gas\n      delegatecall\n      swap2\n      pop\n      pop\n      returndatasize\n      dup1\n      0x00\n      dup2\n      eq\n      tag_581\n      jumpi\n      mload(0x40)\n      swap2\n      pop\n      and(add(returndatasize, 0x3f), not(0x1f))\n      dup3\n      add\n      0x40\n      mstore\n      returndatasize\n      dup3\n      mstore\n      returndatasize\n      0x00\n      0x20\n      dup5\n      add\n      returndatacopy\n      jump(tag_580)\n    tag_581:\n      0x60\n      swap2\n      pop\n    tag_580:\n      pop\n        /* \"@thirdweb-dev/contracts/lib/Address.sol\":7220:7287   */\n      swap2\n      pop\n      swap2\n      pop\n        /* \"@thirdweb-dev/contracts/lib/Address.sol\":7304:7373   */\n      tag_582\n        /* \"@thirdweb-dev/contracts/lib/Address.sol\":7331:7337   */\n      dup7\n        /* \"@thirdweb-dev/contracts/lib/Address.sol\":7339:7346   */\n      dup4\n        /* \"@thirdweb-dev/contracts/lib/Address.sol\":7348:7358   */\n      dup4\n        /* \"@thirdweb-dev/contracts/lib/Address.sol\":7360:7372   */\n      dup8\n        /* \"@thirdweb-dev/contracts/lib/Address.sol\":7304:7330   */\n      tag_583\n        /* \"@thirdweb-dev/contracts/lib/Address.sol\":7304:7373   */\n      jump\t// in\n    tag_582:\n        /* \"@thirdweb-dev/contracts/lib/Address.sol\":7297:7373   */\n      swap7\n        /* \"@thirdweb-dev/contracts/lib/Address.sol\":7055:7380   */\n      swap6\n      pop\n      pop\n      pop\n      pop\n      pop\n      pop\n      jump\t// out\n        /* \"@thirdweb-dev/contracts/eip/ERC1155.sol\":9602:9795   */\n    tag_505:\n        /* \"@thirdweb-dev/contracts/eip/ERC1155.sol\":9721:9737   */\n      0x40\n      dup1\n      mload\n        /* \"@thirdweb-dev/contracts/eip/ERC1155.sol\":9735:9736   */\n      0x01\n        /* \"@thirdweb-dev/contracts/eip/ERC1155.sol\":9721:9737   */\n      dup1\n      dup3\n      mstore\n      dup2\n      dup4\n      add\n      swap1\n      swap3\n      mstore\n        /* \"@thirdweb-dev/contracts/eip/ERC1155.sol\":9668:9684   */\n      0x60\n      swap2\n        /* \"@thirdweb-dev/contracts/eip/ERC1155.sol\":9696:9718   */\n      0x00\n      swap2\n        /* \"@thirdweb-dev/contracts/eip/ERC1155.sol\":9721:9737   */\n      swap1\n      0x20\n      dup1\n      dup4\n      add\n      swap1\n      dup1\n      calldatasize\n      dup4\n      calldatacopy\n      add\n      swap1\n      pop\n      pop\n        /* \"@thirdweb-dev/contracts/eip/ERC1155.sol\":9696:9737   */\n      swap1\n      pop\n        /* \"@thirdweb-dev/contracts/eip/ERC1155.sol\":9758:9765   */\n      dup3\n        /* \"@thirdweb-dev/contracts/eip/ERC1155.sol\":9747:9752   */\n      dup2\n        /* \"@thirdweb-dev/contracts/eip/ERC1155.sol\":9753:9754   */\n      0x00\n        /* \"@thirdweb-dev/contracts/eip/ERC1155.sol\":9747:9755   */\n      dup2\n      mload\n      dup2\n      lt\n      tag_589\n      jumpi\n      tag_589\n      tag_223\n      jump\t// in\n    tag_589:\n      0x20\n      swap1\n      dup2\n      mul\n      swap2\n      swap1\n      swap2\n      add\n      add\n        /* \"@thirdweb-dev/contracts/eip/ERC1155.sol\":9747:9765   */\n      mstore\n        /* \"@thirdweb-dev/contracts/eip/ERC1155.sol\":9783:9788   */\n      swap3\n        /* \"@thirdweb-dev/contracts/eip/ERC1155.sol\":9602:9795   */\n      swap2\n      pop\n      pop\n      jump\t// out\n        /* \"@thirdweb-dev/contracts/eip/ERC1155.sol\":8189:8856   */\n    tag_513:\n      sub(shl(0xa0, 0x01), 0x01)\n        /* \"@thirdweb-dev/contracts/eip/ERC1155.sol\":8396:8410   */\n      dup5\n      and\n      extcodesize\n        /* \"@thirdweb-dev/contracts/eip/ERC1155.sol\":8396:8414   */\n      iszero\n        /* \"@thirdweb-dev/contracts/eip/ERC1155.sol\":8392:8850   */\n      tag_449\n      jumpi\n        /* \"@thirdweb-dev/contracts/eip/ERC1155.sol\":8434:8506   */\n      mload(0x40)\n      shl(0xe0, 0xf23a6e61)\n      dup2\n      mstore\n      sub(shl(0xa0, 0x01), 0x01)\n        /* \"@thirdweb-dev/contracts/eip/ERC1155.sol\":8434:8472   */\n      dup6\n      and\n      swap1\n      0xf23a6e61\n      swap1\n        /* \"@thirdweb-dev/contracts/eip/ERC1155.sol\":8434:8506   */\n      tag_592\n      swap1\n        /* \"@thirdweb-dev/contracts/eip/ERC1155.sol\":8473:8481   */\n      dup10\n      swap1\n        /* \"@thirdweb-dev/contracts/eip/ERC1155.sol\":8483:8487   */\n      dup10\n      swap1\n        /* \"@thirdweb-dev/contracts/eip/ERC1155.sol\":8489:8491   */\n      dup9\n      swap1\n        /* \"@thirdweb-dev/contracts/eip/ERC1155.sol\":8493:8499   */\n      dup9\n      swap1\n        /* \"@thirdweb-dev/contracts/eip/ERC1155.sol\":8501:8505   */\n      dup9\n      swap1\n        /* \"@thirdweb-dev/contracts/eip/ERC1155.sol\":8434:8506   */\n      0x04\n      add\n      tag_593\n      jump\t// in\n    tag_592:\n      0x20\n      mload(0x40)\n      dup1\n      dup4\n      sub\n      dup2\n      0x00\n      dup8\n      gas\n      call\n      swap3\n      pop\n      pop\n      pop\n      dup1\n      iszero\n      tag_594\n      jumpi\n      pop\n      0x40\n      dup1\n      mload\n      0x1f\n      returndatasize\n      swap1\n      dup2\n      add\n      not(0x1f)\n      and\n      dup3\n      add\n      swap1\n      swap3\n      mstore\n      tag_595\n      swap2\n      dup2\n      add\n      swap1\n      tag_559\n      jump\t// in\n    tag_595:\n      0x01\n    tag_594:\n        /* \"@thirdweb-dev/contracts/eip/ERC1155.sol\":8430:8840   */\n      tag_596\n      jumpi\n      tag_564\n      tag_565\n      jump\t// in\n    tag_596:\n      not(sub(shl(0xe0, 0x01), 0x01))\n        /* \"@thirdweb-dev/contracts/eip/ERC1155.sol\":8555:8610   */\n      dup2\n      and\n      shl(0xe0, 0xf23a6e61)\n      eq\n        /* \"@thirdweb-dev/contracts/eip/ERC1155.sol\":8551:8678   */\n      tag_512\n      jumpi\n        /* \"@thirdweb-dev/contracts/eip/ERC1155.sol\":8634:8659   */\n      mload(0x40)\n      shl(0xe5, 0x461bcd)\n      dup2\n      mstore\n        /* \"#utility.yul\":27394:27396   */\n      0x20\n        /* \"@thirdweb-dev/contracts/eip/ERC1155.sol\":8634:8659   */\n      0x04\n      dup3\n      add\n        /* \"#utility.yul\":27376:27397   */\n      mstore\n        /* \"#utility.yul\":27433:27435   */\n      0x0f\n        /* \"#utility.yul\":27413:27431   */\n      0x24\n      dup3\n      add\n        /* \"#utility.yul\":27406:27436   */\n      mstore\n      shl(0x8a, 0x1513d2d15394d7d491529150d51151)\n        /* \"#utility.yul\":27452:27470   */\n      0x44\n      dup3\n      add\n        /* \"#utility.yul\":27445:27490   */\n      mstore\n        /* \"#utility.yul\":27507:27525   */\n      0x64\n      add\n        /* \"@thirdweb-dev/contracts/eip/ERC1155.sol\":8634:8659   */\n      tag_220\n        /* \"#utility.yul\":27192:27531   */\n      jump\n        /* \"@thirdweb-dev/contracts/lib/Address.sol\":7668:8296   */\n    tag_583:\n        /* \"@thirdweb-dev/contracts/lib/Address.sol\":7848:7860   */\n      0x60\n        /* \"@thirdweb-dev/contracts/lib/Address.sol\":7876:7883   */\n      dup4\n        /* \"@thirdweb-dev/contracts/lib/Address.sol\":7872:8290   */\n      iszero\n      tag_610\n      jumpi\n        /* \"@thirdweb-dev/contracts/lib/Address.sol\":7903:7913   */\n      dup3\n        /* \"@thirdweb-dev/contracts/lib/Address.sol\":7903:7920   */\n      mload\n        /* \"@thirdweb-dev/contracts/lib/Address.sol\":7924:7925   */\n      0x00\n        /* \"@thirdweb-dev/contracts/lib/Address.sol\":7903:7925   */\n      sub\n        /* \"@thirdweb-dev/contracts/lib/Address.sol\":7899:8185   */\n      tag_614\n      jumpi\n      sub(shl(0xa0, 0x01), 0x01)\n        /* \"@thirdweb-dev/contracts/lib/Address.sol\":1695:1714   */\n      dup6\n      and\n      extcodesize\n        /* \"@thirdweb-dev/contracts/lib/Address.sol\":8110:8170   */\n      tag_614\n      jumpi\n      mload(0x40)\n      shl(0xe5, 0x461bcd)\n      dup2\n      mstore\n        /* \"#utility.yul\":28533:28535   */\n      0x20\n        /* \"@thirdweb-dev/contracts/lib/Address.sol\":8110:8170   */\n      0x04\n      dup3\n      add\n        /* \"#utility.yul\":28515:28536   */\n      mstore\n        /* \"#utility.yul\":28572:28574   */\n      0x1d\n        /* \"#utility.yul\":28552:28570   */\n      0x24\n      dup3\n      add\n        /* \"#utility.yul\":28545:28575   */\n      mstore\n        /* \"#utility.yul\":28611:28642   */\n      0x416464726573733a2063616c6c20746f206e6f6e2d636f6e7472616374000000\n        /* \"#utility.yul\":28591:28609   */\n      0x44\n      dup3\n      add\n        /* \"#utility.yul\":28584:28643   */\n      mstore\n        /* \"#utility.yul\":28660:28678   */\n      0x64\n      add\n        /* \"@thirdweb-dev/contracts/lib/Address.sol\":8110:8170   */\n      tag_220\n        /* \"#utility.yul\":28331:28684   */\n      jump\n        /* \"@thirdweb-dev/contracts/lib/Address.sol\":8110:8170   */\n    tag_614:\n      pop\n        /* \"@thirdweb-dev/contracts/lib/Address.sol\":8205:8215   */\n      dup2\n        /* \"@thirdweb-dev/contracts/lib/Address.sol\":8198:8215   */\n      jump(tag_414)\n        /* \"@thirdweb-dev/contracts/lib/Address.sol\":7872:8290   */\n    tag_610:\n        /* \"@thirdweb-dev/contracts/lib/Address.sol\":8246:8279   */\n      tag_414\n        /* \"@thirdweb-dev/contracts/lib/Address.sol\":8254:8264   */\n      dup4\n        /* \"@thirdweb-dev/contracts/lib/Address.sol\":8266:8278   */\n      dup4\n        /* \"@thirdweb-dev/contracts/lib/Address.sol\":8977:8994   */\n      dup2\n      mload\n        /* \"@thirdweb-dev/contracts/lib/Address.sol\":8977:8998   */\n      iszero\n        /* \"@thirdweb-dev/contracts/lib/Address.sol\":8973:9352   */\n      tag_568\n      jumpi\n        /* \"@thirdweb-dev/contracts/lib/Address.sol\":9205:9215   */\n      dup2\n        /* \"@thirdweb-dev/contracts/lib/Address.sol\":9199:9216   */\n      mload\n        /* \"@thirdweb-dev/contracts/lib/Address.sol\":9261:9276   */\n      dup1\n        /* \"@thirdweb-dev/contracts/lib/Address.sol\":9248:9258   */\n      dup4\n        /* \"@thirdweb-dev/contracts/lib/Address.sol\":9244:9246   */\n      0x20\n        /* \"@thirdweb-dev/contracts/lib/Address.sol\":9240:9259   */\n      add\n        /* \"@thirdweb-dev/contracts/lib/Address.sol\":9233:9277   */\n      revert\n        /* \"#utility.yul\":14:210   */\n    tag_625:\n        /* \"#utility.yul\":82:102   */\n      dup1\n      calldataload\n      sub(shl(0xa0, 0x01), 0x01)\n        /* \"#utility.yul\":131:185   */\n      dup2\n      and\n        /* \"#utility.yul\":121:186   */\n      dup2\n      eq\n        /* \"#utility.yul\":111:204   */\n      tag_644\n      jumpi\n        /* \"#utility.yul\":200:201   */\n      0x00\n        /* \"#utility.yul\":197:198   */\n      dup1\n        /* \"#utility.yul\":190:202   */\n      revert\n        /* \"#utility.yul\":111:204   */\n    tag_644:\n        /* \"#utility.yul\":14:210   */\n      swap2\n      swap1\n      pop\n      jump\t// out\n        /* \"#utility.yul\":215:469   */\n    tag_42:\n        /* \"#utility.yul\":283:289   */\n      0x00\n        /* \"#utility.yul\":291:297   */\n      dup1\n        /* \"#utility.yul\":344:346   */\n      0x40\n        /* \"#utility.yul\":332:341   */\n      dup4\n        /* \"#utility.yul\":323:330   */\n      dup6\n        /* \"#utility.yul\":319:342   */\n      sub\n        /* \"#utility.yul\":315:347   */\n      slt\n        /* \"#utility.yul\":312:364   */\n      iszero\n      tag_646\n      jumpi\n        /* \"#utility.yul\":360:361   */\n      0x00\n        /* \"#utility.yul\":357:358   */\n      dup1\n        /* \"#utility.yul\":350:362   */\n      revert\n        /* \"#utility.yul\":312:364   */\n    tag_646:\n        /* \"#utility.yul\":383:412   */\n      tag_647\n        /* \"#utility.yul\":402:411   */\n      dup4\n        /* \"#utility.yul\":383:412   */\n      tag_625\n      jump\t// in\n    tag_647:\n        /* \"#utility.yul\":373:412   */\n      swap5\n        /* \"#utility.yul\":459:461   */\n      0x20\n        /* \"#utility.yul\":444:462   */\n      swap4\n      swap1\n      swap4\n      add\n        /* \"#utility.yul\":431:463   */\n      calldataload\n      swap4\n      pop\n      pop\n      pop\n        /* \"#utility.yul\":215:469   */\n      jump\t// out\n        /* \"#utility.yul\":656:787   */\n    tag_626:\n      not(sub(shl(0xe0, 0x01), 0x01))\n        /* \"#utility.yul\":730:762   */\n      dup2\n      and\n        /* \"#utility.yul\":720:763   */\n      dup2\n      eq\n        /* \"#utility.yul\":710:781   */\n      tag_215\n      jumpi\n        /* \"#utility.yul\":777:778   */\n      0x00\n        /* \"#utility.yul\":774:775   */\n      dup1\n        /* \"#utility.yul\":767:779   */\n      revert\n        /* \"#utility.yul\":792:1037   */\n    tag_49:\n        /* \"#utility.yul\":850:856   */\n      0x00\n        /* \"#utility.yul\":903:905   */\n      0x20\n        /* \"#utility.yul\":891:900   */\n      dup3\n        /* \"#utility.yul\":882:889   */\n      dup5\n        /* \"#utility.yul\":878:901   */\n      sub\n        /* \"#utility.yul\":874:906   */\n      slt\n        /* \"#utility.yul\":871:923   */\n      iszero\n      tag_652\n      jumpi\n        /* \"#utility.yul\":919:920   */\n      0x00\n        /* \"#utility.yul\":916:917   */\n      dup1\n        /* \"#utility.yul\":909:921   */\n      revert\n        /* \"#utility.yul\":871:923   */\n    tag_652:\n        /* \"#utility.yul\":958:967   */\n      dup2\n        /* \"#utility.yul\":945:968   */\n      calldataload\n        /* \"#utility.yul\":977:1007   */\n      tag_493\n        /* \"#utility.yul\":1001:1006   */\n      dup2\n        /* \"#utility.yul\":977:1007   */\n      tag_626\n      jump\t// in\n        /* \"#utility.yul\":1234:1534   */\n    tag_627:\n        /* \"#utility.yul\":1287:1290   */\n      0x00\n        /* \"#utility.yul\":1325:1330   */\n      dup2\n        /* \"#utility.yul\":1319:1331   */\n      mload\n        /* \"#utility.yul\":1352:1358   */\n      dup1\n        /* \"#utility.yul\":1347:1350   */\n      dup5\n        /* \"#utility.yul\":1340:1359   */\n      mstore\n        /* \"#utility.yul\":1408:1414   */\n      dup1\n        /* \"#utility.yul\":1401:1405   */\n      0x20\n        /* \"#utility.yul\":1394:1399   */\n      dup5\n        /* \"#utility.yul\":1390:1406   */\n      add\n        /* \"#utility.yul\":1383:1387   */\n      0x20\n        /* \"#utility.yul\":1378:1381   */\n      dup7\n        /* \"#utility.yul\":1374:1388   */\n      add\n        /* \"#utility.yul\":1368:1415   */\n      mcopy\n        /* \"#utility.yul\":1460:1461   */\n      0x00\n        /* \"#utility.yul\":1453:1457   */\n      0x20\n        /* \"#utility.yul\":1444:1450   */\n      dup3\n        /* \"#utility.yul\":1439:1442   */\n      dup7\n        /* \"#utility.yul\":1435:1451   */\n      add\n        /* \"#utility.yul\":1431:1458   */\n      add\n        /* \"#utility.yul\":1424:1462   */\n      mstore\n        /* \"#utility.yul\":1523:1527   */\n      0x20\n        /* \"#utility.yul\":1516:1518   */\n      0x1f\n        /* \"#utility.yul\":1512:1519   */\n      not\n        /* \"#utility.yul\":1507:1509   */\n      0x1f\n        /* \"#utility.yul\":1499:1505   */\n      dup4\n        /* \"#utility.yul\":1495:1510   */\n      add\n        /* \"#utility.yul\":1491:1520   */\n      and\n        /* \"#utility.yul\":1486:1489   */\n      dup6\n        /* \"#utility.yul\":1482:1521   */\n      add\n        /* \"#utility.yul\":1478:1528   */\n      add\n        /* \"#utility.yul\":1471:1528   */\n      swap2\n      pop\n      pop\n        /* \"#utility.yul\":1234:1534   */\n      swap3\n      swap2\n      pop\n      pop\n      jump\t// out\n        /* \"#utility.yul\":1539:1770   */\n    tag_57:\n        /* \"#utility.yul\":1688:1690   */\n      0x20\n        /* \"#utility.yul\":1677:1686   */\n      dup2\n        /* \"#utility.yul\":1670:1691   */\n      mstore\n        /* \"#utility.yul\":1651:1655   */\n      0x00\n        /* \"#utility.yul\":1708:1764   */\n      tag_493\n        /* \"#utility.yul\":1760:1762   */\n      0x20\n        /* \"#utility.yul\":1749:1758   */\n      dup4\n        /* \"#utility.yul\":1745:1763   */\n      add\n        /* \"#utility.yul\":1737:1743   */\n      dup5\n        /* \"#utility.yul\":1708:1764   */\n      tag_627\n      jump\t// in\n        /* \"#utility.yul\":1775:1955   */\n    tag_61:\n        /* \"#utility.yul\":1834:1840   */\n      0x00\n        /* \"#utility.yul\":1887:1889   */\n      0x20\n        /* \"#utility.yul\":1875:1884   */\n      dup3\n        /* \"#utility.yul\":1866:1873   */\n      dup5\n        /* \"#utility.yul\":1862:1885   */\n      sub\n        /* \"#utility.yul\":1858:1890   */\n      slt\n        /* \"#utility.yul\":1855:1907   */\n      iszero\n      tag_659\n      jumpi\n        /* \"#utility.yul\":1903:1904   */\n      0x00\n        /* \"#utility.yul\":1900:1901   */\n      dup1\n        /* \"#utility.yul\":1893:1905   */\n      revert\n        /* \"#utility.yul\":1855:1907   */\n    tag_659:\n      pop\n        /* \"#utility.yul\":1926:1949   */\n      calldataload\n      swap2\n        /* \"#utility.yul\":1775:1955   */\n      swap1\n      pop\n      jump\t// out\n        /* \"#utility.yul\":1960:2146   */\n    tag_67:\n        /* \"#utility.yul\":2019:2025   */\n      0x00\n        /* \"#utility.yul\":2072:2074   */\n      0x20\n        /* \"#utility.yul\":2060:2069   */\n      dup3\n        /* \"#utility.yul\":2051:2058   */\n      dup5\n        /* \"#utility.yul\":2047:2070   */\n      sub\n        /* \"#utility.yul\":2043:2075   */\n      slt\n        /* \"#utility.yul\":2040:2092   */\n      iszero\n      tag_661\n      jumpi\n        /* \"#utility.yul\":2088:2089   */\n      0x00\n        /* \"#utility.yul\":2085:2086   */\n      dup1\n        /* \"#utility.yul\":2078:2090   */\n      revert\n        /* \"#utility.yul\":2040:2092   */\n    tag_661:\n        /* \"#utility.yul\":2111:2140   */\n      tag_493\n        /* \"#utility.yul\":2130:2139   */\n      dup3\n        /* \"#utility.yul\":2111:2140   */\n      tag_625\n      jump\t// in\n        /* \"#utility.yul\":2151:2399   */\n    tag_77:\n        /* \"#utility.yul\":2219:2225   */\n      0x00\n        /* \"#utility.yul\":2227:2233   */\n      dup1\n        /* \"#utility.yul\":2280:2282   */\n      0x40\n        /* \"#utility.yul\":2268:2277   */\n      dup4\n        /* \"#utility.yul\":2259:2266   */\n      dup6\n        /* \"#utility.yul\":2255:2278   */\n      sub\n        /* \"#utility.yul\":2251:2283   */\n      slt\n        /* \"#utility.yul\":2248:2300   */\n      iszero\n      tag_664\n      jumpi\n        /* \"#utility.yul\":2296:2297   */\n      0x00\n        /* \"#utility.yul\":2293:2294   */\n      dup1\n        /* \"#utility.yul\":2286:2298   */\n      revert\n        /* \"#utility.yul\":2248:2300   */\n    tag_664:\n      pop\n      pop\n        /* \"#utility.yul\":2319:2342   */\n      dup1\n      calldataload\n      swap3\n        /* \"#utility.yul\":2389:2391   */\n      0x20\n        /* \"#utility.yul\":2374:2392   */\n      swap1\n      swap2\n      add\n        /* \"#utility.yul\":2361:2393   */\n      calldataload\n      swap2\n      pop\n        /* \"#utility.yul\":2151:2399   */\n      jump\t// out\n        /* \"#utility.yul\":2706:3028   */\n    tag_83:\n        /* \"#utility.yul\":2783:2789   */\n      0x00\n        /* \"#utility.yul\":2791:2797   */\n      dup1\n        /* \"#utility.yul\":2799:2805   */\n      0x00\n        /* \"#utility.yul\":2852:2854   */\n      0x60\n        /* \"#utility.yul\":2840:2849   */\n      dup5\n        /* \"#utility.yul\":2831:2838   */\n      dup7\n        /* \"#utility.yul\":2827:2850   */\n      sub\n        /* \"#utility.yul\":2823:2855   */\n      slt\n        /* \"#utility.yul\":2820:2872   */\n      iszero\n      tag_667\n      jumpi\n        /* \"#utility.yul\":2868:2869   */\n      0x00\n        /* \"#utility.yul\":2865:2866   */\n      dup1\n        /* \"#utility.yul\":2858:2870   */\n      revert\n        /* \"#utility.yul\":2820:2872   */\n    tag_667:\n        /* \"#utility.yul\":2891:2920   */\n      tag_668\n        /* \"#utility.yul\":2910:2919   */\n      dup5\n        /* \"#utility.yul\":2891:2920   */\n      tag_625\n      jump\t// in\n    tag_668:\n        /* \"#utility.yul\":2881:2920   */\n      swap6\n        /* \"#utility.yul\":2967:2969   */\n      0x20\n        /* \"#utility.yul\":2952:2970   */\n      dup6\n      add\n        /* \"#utility.yul\":2939:2971   */\n      calldataload\n      swap6\n      pop\n        /* \"#utility.yul\":3018:3020   */\n      0x40\n        /* \"#utility.yul\":3003:3021   */\n      swap1\n      swap5\n      add\n        /* \"#utility.yul\":2990:3022   */\n      calldataload\n      swap4\n        /* \"#utility.yul\":2706:3028   */\n      swap3\n      pop\n      pop\n      pop\n      jump\t// out\n        /* \"#utility.yul\":3033:3160   */\n    tag_262:\n        /* \"#utility.yul\":3094:3104   */\n      0x4e487b71\n        /* \"#utility.yul\":3089:3092   */\n      0xe0\n        /* \"#utility.yul\":3085:3105   */\n      shl\n        /* \"#utility.yul\":3082:3083   */\n      0x00\n        /* \"#utility.yul\":3075:3106   */\n      mstore\n        /* \"#utility.yul\":3125:3129   */\n      0x41\n        /* \"#utility.yul\":3122:3123   */\n      0x04\n        /* \"#utility.yul\":3115:3130   */\n      mstore\n        /* \"#utility.yul\":3149:3153   */\n      0x24\n        /* \"#utility.yul\":3146:3147   */\n      0x00\n        /* \"#utility.yul\":3139:3154   */\n      revert\n        /* \"#utility.yul\":3165:3414   */\n    tag_628:\n        /* \"#utility.yul\":3275:3277   */\n      0x1f\n        /* \"#utility.yul\":3256:3269   */\n      dup3\n      add\n      not(0x1f)\n        /* \"#utility.yul\":3252:3279   */\n      and\n        /* \"#utility.yul\":3240:3280   */\n      dup2\n      add\n        /* \"#utility.yul\":3310:3328   */\n      0xffffffffffffffff\n        /* \"#utility.yul\":3295:3329   */\n      dup2\n      gt\n        /* \"#utility.yul\":3331:3353   */\n      dup3\n      dup3\n      lt\n        /* \"#utility.yul\":3292:3354   */\n      or\n        /* \"#utility.yul\":3289:3377   */\n      iszero\n      tag_672\n      jumpi\n        /* \"#utility.yul\":3357:3375   */\n      tag_672\n      tag_262\n      jump\t// in\n    tag_672:\n        /* \"#utility.yul\":3393:3395   */\n      0x40\n        /* \"#utility.yul\":3386:3408   */\n      mstore\n      pop\n      pop\n        /* \"#utility.yul\":3165:3414   */\n      jump\t// out\n        /* \"#utility.yul\":3419:3602   */\n    tag_629:\n        /* \"#utility.yul\":3479:3483   */\n      0x00\n        /* \"#utility.yul\":3512:3530   */\n      0xffffffffffffffff\n        /* \"#utility.yul\":3504:3510   */\n      dup3\n        /* \"#utility.yul\":3501:3531   */\n      gt\n        /* \"#utility.yul\":3498:3554   */\n      iszero\n      tag_675\n      jumpi\n        /* \"#utility.yul\":3534:3552   */\n      tag_675\n      tag_262\n      jump\t// in\n    tag_675:\n      pop\n        /* \"#utility.yul\":3579:3580   */\n      0x05\n        /* \"#utility.yul\":3575:3589   */\n      shl\n        /* \"#utility.yul\":3591:3595   */\n      0x20\n        /* \"#utility.yul\":3571:3596   */\n      add\n      swap1\n        /* \"#utility.yul\":3419:3602   */\n      jump\t// out\n        /* \"#utility.yul\":3607:4337   */\n    tag_630:\n        /* \"#utility.yul\":3661:3666   */\n      0x00\n        /* \"#utility.yul\":3714:3717   */\n      dup3\n        /* \"#utility.yul\":3707:3711   */\n      0x1f\n        /* \"#utility.yul\":3699:3705   */\n      dup4\n        /* \"#utility.yul\":3695:3712   */\n      add\n        /* \"#utility.yul\":3691:3718   */\n      slt\n        /* \"#utility.yul\":3681:3736   */\n      tag_677\n      jumpi\n        /* \"#utility.yul\":3732:3733   */\n      0x00\n        /* \"#utility.yul\":3729:3730   */\n      dup1\n        /* \"#utility.yul\":3722:3734   */\n      revert\n        /* \"#utility.yul\":3681:3736   */\n    tag_677:\n        /* \"#utility.yul\":3768:3774   */\n      dup2\n        /* \"#utility.yul\":3755:3775   */\n      calldataload\n        /* \"#utility.yul\":3794:3798   */\n      0x20\n        /* \"#utility.yul\":3817:3860   */\n      tag_678\n        /* \"#utility.yul\":3857:3859   */\n      dup3\n        /* \"#utility.yul\":3817:3860   */\n      tag_629\n      jump\t// in\n    tag_678:\n        /* \"#utility.yul\":3889:3891   */\n      0x40\n        /* \"#utility.yul\":3883:3892   */\n      mload\n        /* \"#utility.yul\":3901:3932   */\n      tag_679\n        /* \"#utility.yul\":3929:3931   */\n      dup3\n        /* \"#utility.yul\":3921:3927   */\n      dup3\n        /* \"#utility.yul\":3901:3932   */\n      tag_628\n      jump\t// in\n    tag_679:\n        /* \"#utility.yul\":3952:3958   */\n      dup1\n        /* \"#utility.yul\":3941:3958   */\n      swap2\n      pop\n        /* \"#utility.yul\":3982:3984   */\n      dup4\n        /* \"#utility.yul\":3974:3980   */\n      dup2\n        /* \"#utility.yul\":3967:3985   */\n      mstore\n        /* \"#utility.yul\":4013:4017   */\n      0x20\n        /* \"#utility.yul\":4005:4011   */\n      dup2\n        /* \"#utility.yul\":4001:4018   */\n      add\n        /* \"#utility.yul\":3994:4018   */\n      swap2\n      pop\n        /* \"#utility.yul\":4070:4074   */\n      0x20\n        /* \"#utility.yul\":4064:4066   */\n      dup5\n        /* \"#utility.yul\":4061:4062   */\n      0x05\n        /* \"#utility.yul\":4057:4067   */\n      shl\n        /* \"#utility.yul\":4049:4055   */\n      dup8\n        /* \"#utility.yul\":4045:4068   */\n      add\n        /* \"#utility.yul\":4041:4075   */\n      add\n        /* \"#utility.yul\":4027:4075   */\n      swap4\n      pop\n        /* \"#utility.yul\":4098:4101   */\n      dup7\n        /* \"#utility.yul\":4090:4096   */\n      dup5\n        /* \"#utility.yul\":4087:4102   */\n      gt\n        /* \"#utility.yul\":4084:4119   */\n      iszero\n      tag_680\n      jumpi\n        /* \"#utility.yul\":4115:4116   */\n      0x00\n        /* \"#utility.yul\":4112:4113   */\n      dup1\n        /* \"#utility.yul\":4105:4117   */\n      revert\n        /* \"#utility.yul\":4084:4119   */\n    tag_680:\n        /* \"#utility.yul\":4151:4155   */\n      0x20\n        /* \"#utility.yul\":4143:4149   */\n      dup7\n        /* \"#utility.yul\":4139:4156   */\n      add\n        /* \"#utility.yul\":4165:4307   */\n    tag_681:\n        /* \"#utility.yul\":4181:4187   */\n      dup5\n        /* \"#utility.yul\":4176:4179   */\n      dup2\n        /* \"#utility.yul\":4173:4188   */\n      lt\n        /* \"#utility.yul\":4165:4307   */\n      iszero\n      tag_683\n      jumpi\n        /* \"#utility.yul\":4247:4264   */\n      dup1\n      calldataload\n        /* \"#utility.yul\":4235:4265   */\n      dup4\n      mstore\n        /* \"#utility.yul\":4285:4297   */\n      swap2\n      dup4\n      add\n      swap2\n        /* \"#utility.yul\":4198:4210   */\n      dup4\n      add\n        /* \"#utility.yul\":4165:4307   */\n      jump(tag_681)\n    tag_683:\n      pop\n        /* \"#utility.yul\":4325:4331   */\n      swap7\n        /* \"#utility.yul\":3607:4337   */\n      swap6\n      pop\n      pop\n      pop\n      pop\n      pop\n      pop\n      jump\t// out\n        /* \"#utility.yul\":4342:4810   */\n    tag_631:\n        /* \"#utility.yul\":4406:4411   */\n      0x00\n        /* \"#utility.yul\":4440:4458   */\n      0xffffffffffffffff\n        /* \"#utility.yul\":4432:4438   */\n      dup4\n        /* \"#utility.yul\":4429:4459   */\n      gt\n        /* \"#utility.yul\":4426:4482   */\n      iszero\n      tag_686\n      jumpi\n        /* \"#utility.yul\":4462:4480   */\n      tag_686\n      tag_262\n      jump\t// in\n    tag_686:\n        /* \"#utility.yul\":4511:4513   */\n      0x40\n        /* \"#utility.yul\":4505:4514   */\n      mload\n        /* \"#utility.yul\":4523:4592   */\n      tag_687\n        /* \"#utility.yul\":4580:4582   */\n      0x1f\n        /* \"#utility.yul\":4559:4574   */\n      dup6\n      add\n      not(0x1f)\n        /* \"#utility.yul\":4555:4584   */\n      and\n        /* \"#utility.yul\":4586:4590   */\n      0x20\n        /* \"#utility.yul\":4551:4591   */\n      add\n        /* \"#utility.yul\":4505:4514   */\n      dup3\n        /* \"#utility.yul\":4523:4592   */\n      tag_628\n      jump\t// in\n    tag_687:\n        /* \"#utility.yul\":4610:4616   */\n      dup1\n        /* \"#utility.yul\":4601:4616   */\n      swap2\n      pop\n        /* \"#utility.yul\":4640:4646   */\n      dup4\n        /* \"#utility.yul\":4632:4638   */\n      dup2\n        /* \"#utility.yul\":4625:4647   */\n      mstore\n        /* \"#utility.yul\":4680:4683   */\n      dup5\n        /* \"#utility.yul\":4671:4677   */\n      dup5\n        /* \"#utility.yul\":4666:4669   */\n      dup5\n        /* \"#utility.yul\":4662:4678   */\n      add\n        /* \"#utility.yul\":4659:4684   */\n      gt\n        /* \"#utility.yul\":4656:4701   */\n      iszero\n      tag_688\n      jumpi\n        /* \"#utility.yul\":4697:4698   */\n      0x00\n        /* \"#utility.yul\":4694:4695   */\n      dup1\n        /* \"#utility.yul\":4687:4699   */\n      revert\n        /* \"#utility.yul\":4656:4701   */\n    tag_688:\n        /* \"#utility.yul\":4747:4753   */\n      dup4\n        /* \"#utility.yul\":4742:4745   */\n      dup4\n        /* \"#utility.yul\":4735:4739   */\n      0x20\n        /* \"#utility.yul\":4727:4733   */\n      dup4\n        /* \"#utility.yul\":4723:4740   */\n      add\n        /* \"#utility.yul\":4710:4754   */\n      calldatacopy\n        /* \"#utility.yul\":4802:4803   */\n      0x00\n        /* \"#utility.yul\":4795:4799   */\n      0x20\n        /* \"#utility.yul\":4786:4792   */\n      dup6\n        /* \"#utility.yul\":4778:4784   */\n      dup4\n        /* \"#utility.yul\":4774:4793   */\n      add\n        /* \"#utility.yul\":4770:4800   */\n      add\n        /* \"#utility.yul\":4763:4804   */\n      mstore\n      pop\n        /* \"#utility.yul\":4342:4810   */\n      swap4\n      swap3\n      pop\n      pop\n      pop\n      jump\t// out\n        /* \"#utility.yul\":4815:5035   */\n    tag_632:\n        /* \"#utility.yul\":4857:4862   */\n      0x00\n        /* \"#utility.yul\":4910:4913   */\n      dup3\n        /* \"#utility.yul\":4903:4907   */\n      0x1f\n        /* \"#utility.yul\":4895:4901   */\n      dup4\n        /* \"#utility.yul\":4891:4908   */\n      add\n        /* \"#utility.yul\":4887:4914   */\n      slt\n        /* \"#utility.yul\":4877:4932   */\n      tag_690\n      jumpi\n        /* \"#utility.yul\":4928:4929   */\n      0x00\n        /* \"#utility.yul\":4925:4926   */\n      dup1\n        /* \"#utility.yul\":4918:4930   */\n      revert\n        /* \"#utility.yul\":4877:4932   */\n    tag_690:\n        /* \"#utility.yul\":4950:5029   */\n      tag_493\n        /* \"#utility.yul\":5025:5028   */\n      dup4\n        /* \"#utility.yul\":5016:5022   */\n      dup4\n        /* \"#utility.yul\":5003:5023   */\n      calldataload\n        /* \"#utility.yul\":4996:5000   */\n      0x20\n        /* \"#utility.yul\":4988:4994   */\n      dup6\n        /* \"#utility.yul\":4984:5001   */\n      add\n        /* \"#utility.yul\":4950:5029   */\n      tag_631\n      jump\t// in\n        /* \"#utility.yul\":5040:5983   */\n    tag_88:\n        /* \"#utility.yul\":5194:5200   */\n      0x00\n        /* \"#utility.yul\":5202:5208   */\n      dup1\n        /* \"#utility.yul\":5210:5216   */\n      0x00\n        /* \"#utility.yul\":5218:5224   */\n      dup1\n        /* \"#utility.yul\":5226:5232   */\n      0x00\n        /* \"#utility.yul\":5279:5282   */\n      0xa0\n        /* \"#utility.yul\":5267:5276   */\n      dup7\n        /* \"#utility.yul\":5258:5265   */\n      dup9\n        /* \"#utility.yul\":5254:5277   */\n      sub\n        /* \"#utility.yul\":5250:5283   */\n      slt\n        /* \"#utility.yul\":5247:5300   */\n      iszero\n      tag_693\n      jumpi\n        /* \"#utility.yul\":5296:5297   */\n      0x00\n        /* \"#utility.yul\":5293:5294   */\n      dup1\n        /* \"#utility.yul\":5286:5298   */\n      revert\n        /* \"#utility.yul\":5247:5300   */\n    tag_693:\n        /* \"#utility.yul\":5319:5348   */\n      tag_694\n        /* \"#utility.yul\":5338:5347   */\n      dup7\n        /* \"#utility.yul\":5319:5348   */\n      tag_625\n      jump\t// in\n    tag_694:\n        /* \"#utility.yul\":5309:5348   */\n      swap5\n      pop\n        /* \"#utility.yul\":5367:5405   */\n      tag_695\n        /* \"#utility.yul\":5401:5403   */\n      0x20\n        /* \"#utility.yul\":5390:5399   */\n      dup8\n        /* \"#utility.yul\":5386:5404   */\n      add\n        /* \"#utility.yul\":5367:5405   */\n      tag_625\n      jump\t// in\n    tag_695:\n        /* \"#utility.yul\":5357:5405   */\n      swap4\n      pop\n        /* \"#utility.yul\":5456:5458   */\n      0x40\n        /* \"#utility.yul\":5445:5454   */\n      dup7\n        /* \"#utility.yul\":5441:5459   */\n      add\n        /* \"#utility.yul\":5428:5460   */\n      calldataload\n        /* \"#utility.yul\":5479:5497   */\n      0xffffffffffffffff\n        /* \"#utility.yul\":5520:5522   */\n      dup1\n        /* \"#utility.yul\":5512:5518   */\n      dup3\n        /* \"#utility.yul\":5509:5523   */\n      gt\n        /* \"#utility.yul\":5506:5540   */\n      iszero\n      tag_696\n      jumpi\n        /* \"#utility.yul\":5536:5537   */\n      0x00\n        /* \"#utility.yul\":5533:5534   */\n      dup1\n        /* \"#utility.yul\":5526:5538   */\n      revert\n        /* \"#utility.yul\":5506:5540   */\n    tag_696:\n        /* \"#utility.yul\":5559:5620   */\n      tag_697\n        /* \"#utility.yul\":5612:5619   */\n      dup10\n        /* \"#utility.yul\":5603:5609   */\n      dup4\n        /* \"#utility.yul\":5592:5601   */\n      dup11\n        /* \"#utility.yul\":5588:5610   */\n      add\n        /* \"#utility.yul\":5559:5620   */\n      tag_630\n      jump\t// in\n    tag_697:\n        /* \"#utility.yul\":5549:5620   */\n      swap5\n      pop\n        /* \"#utility.yul\":5673:5675   */\n      0x60\n        /* \"#utility.yul\":5662:5671   */\n      dup9\n        /* \"#utility.yul\":5658:5676   */\n      add\n        /* \"#utility.yul\":5645:5677   */\n      calldataload\n        /* \"#utility.yul\":5629:5677   */\n      swap2\n      pop\n        /* \"#utility.yul\":5702:5704   */\n      dup1\n        /* \"#utility.yul\":5692:5700   */\n      dup3\n        /* \"#utility.yul\":5689:5705   */\n      gt\n        /* \"#utility.yul\":5686:5722   */\n      iszero\n      tag_698\n      jumpi\n        /* \"#utility.yul\":5718:5719   */\n      0x00\n        /* \"#utility.yul\":5715:5716   */\n      dup1\n        /* \"#utility.yul\":5708:5720   */\n      revert\n        /* \"#utility.yul\":5686:5722   */\n    tag_698:\n        /* \"#utility.yul\":5741:5804   */\n      tag_699\n        /* \"#utility.yul\":5796:5803   */\n      dup10\n        /* \"#utility.yul\":5785:5793   */\n      dup4\n        /* \"#utility.yul\":5774:5783   */\n      dup11\n        /* \"#utility.yul\":5770:5794   */\n      add\n        /* \"#utility.yul\":5741:5804   */\n      tag_630\n      jump\t// in\n    tag_699:\n        /* \"#utility.yul\":5731:5804   */\n      swap4\n      pop\n        /* \"#utility.yul\":5857:5860   */\n      0x80\n        /* \"#utility.yul\":5846:5855   */\n      dup9\n        /* \"#utility.yul\":5842:5861   */\n      add\n        /* \"#utility.yul\":5829:5862   */\n      calldataload\n        /* \"#utility.yul\":5813:5862   */\n      swap2\n      pop\n        /* \"#utility.yul\":5887:5889   */\n      dup1\n        /* \"#utility.yul\":5877:5885   */\n      dup3\n        /* \"#utility.yul\":5874:5890   */\n      gt\n        /* \"#utility.yul\":5871:5907   */\n      iszero\n      tag_700\n      jumpi\n        /* \"#utility.yul\":5903:5904   */\n      0x00\n        /* \"#utility.yul\":5900:5901   */\n      dup1\n        /* \"#utility.yul\":5893:5905   */\n      revert\n        /* \"#utility.yul\":5871:5907   */\n    tag_700:\n      pop\n        /* \"#utility.yul\":5926:5977   */\n      tag_701\n        /* \"#utility.yul\":5969:5976   */\n      dup9\n        /* \"#utility.yul\":5958:5966   */\n      dup3\n        /* \"#utility.yul\":5947:5956   */\n      dup10\n        /* \"#utility.yul\":5943:5967   */\n      add\n        /* \"#utility.yul\":5926:5977   */\n      tag_632\n      jump\t// in\n    tag_701:\n        /* \"#utility.yul\":5916:5977   */\n      swap2\n      pop\n      pop\n        /* \"#utility.yul\":5040:5983   */\n      swap3\n      swap6\n      pop\n      swap3\n      swap6\n      swap1\n      swap4\n      pop\n      jump\t// out\n        /* \"#utility.yul\":6301:7509   */\n    tag_107:\n        /* \"#utility.yul\":6419:6425   */\n      0x00\n        /* \"#utility.yul\":6427:6433   */\n      dup1\n        /* \"#utility.yul\":6480:6482   */\n      0x40\n        /* \"#utility.yul\":6468:6477   */\n      dup4\n        /* \"#utility.yul\":6459:6466   */\n      dup6\n        /* \"#utility.yul\":6455:6478   */\n      sub\n        /* \"#utility.yul\":6451:6483   */\n      slt\n        /* \"#utility.yul\":6448:6500   */\n      iszero\n      tag_704\n      jumpi\n        /* \"#utility.yul\":6496:6497   */\n      0x00\n        /* \"#utility.yul\":6493:6494   */\n      dup1\n        /* \"#utility.yul\":6486:6498   */\n      revert\n        /* \"#utility.yul\":6448:6500   */\n    tag_704:\n        /* \"#utility.yul\":6536:6545   */\n      dup3\n        /* \"#utility.yul\":6523:6546   */\n      calldataload\n        /* \"#utility.yul\":6565:6583   */\n      0xffffffffffffffff\n        /* \"#utility.yul\":6606:6608   */\n      dup1\n        /* \"#utility.yul\":6598:6604   */\n      dup3\n        /* \"#utility.yul\":6595:6609   */\n      gt\n        /* \"#utility.yul\":6592:6626   */\n      iszero\n      tag_705\n      jumpi\n        /* \"#utility.yul\":6622:6623   */\n      0x00\n        /* \"#utility.yul\":6619:6620   */\n      dup1\n        /* \"#utility.yul\":6612:6624   */\n      revert\n        /* \"#utility.yul\":6592:6626   */\n    tag_705:\n        /* \"#utility.yul\":6660:6666   */\n      dup2\n        /* \"#utility.yul\":6649:6658   */\n      dup6\n        /* \"#utility.yul\":6645:6667   */\n      add\n        /* \"#utility.yul\":6635:6667   */\n      swap2\n      pop\n        /* \"#utility.yul\":6705:6712   */\n      dup6\n        /* \"#utility.yul\":6698:6702   */\n      0x1f\n        /* \"#utility.yul\":6694:6696   */\n      dup4\n        /* \"#utility.yul\":6690:6703   */\n      add\n        /* \"#utility.yul\":6686:6713   */\n      slt\n        /* \"#utility.yul\":6676:6731   */\n      tag_706\n      jumpi\n        /* \"#utility.yul\":6727:6728   */\n      0x00\n        /* \"#utility.yul\":6724:6725   */\n      dup1\n        /* \"#utility.yul\":6717:6729   */\n      revert\n        /* \"#utility.yul\":6676:6731   */\n    tag_706:\n        /* \"#utility.yul\":6763:6765   */\n      dup2\n        /* \"#utility.yul\":6750:6766   */\n      calldataload\n        /* \"#utility.yul\":6785:6789   */\n      0x20\n        /* \"#utility.yul\":6808:6851   */\n      tag_707\n        /* \"#utility.yul\":6848:6850   */\n      dup3\n        /* \"#utility.yul\":6808:6851   */\n      tag_629\n      jump\t// in\n    tag_707:\n        /* \"#utility.yul\":6880:6882   */\n      0x40\n        /* \"#utility.yul\":6874:6883   */\n      mload\n        /* \"#utility.yul\":6892:6923   */\n      tag_708\n        /* \"#utility.yul\":6920:6922   */\n      dup3\n        /* \"#utility.yul\":6912:6918   */\n      dup3\n        /* \"#utility.yul\":6892:6923   */\n      tag_628\n      jump\t// in\n    tag_708:\n        /* \"#utility.yul\":6958:6976   */\n      dup4\n      dup2\n      mstore\n        /* \"#utility.yul\":7046:7047   */\n      0x05\n        /* \"#utility.yul\":7042:7052   */\n      swap4\n      swap1\n      swap4\n      shl\n        /* \"#utility.yul\":7034:7053   */\n      dup6\n      add\n        /* \"#utility.yul\":7030:7058   */\n      dup3\n      add\n      swap3\n        /* \"#utility.yul\":6992:7007   */\n      dup3\n      dup2\n      add\n      swap2\n      pop\n        /* \"#utility.yul\":7070:7089   */\n      dup10\n      dup5\n      gt\n        /* \"#utility.yul\":7067:7106   */\n      iszero\n      tag_709\n      jumpi\n        /* \"#utility.yul\":7102:7103   */\n      0x00\n        /* \"#utility.yul\":7099:7100   */\n      dup1\n        /* \"#utility.yul\":7092:7104   */\n      revert\n        /* \"#utility.yul\":7067:7106   */\n    tag_709:\n        /* \"#utility.yul\":7126:7137   */\n      swap5\n      dup3\n      add\n      swap5\n        /* \"#utility.yul\":7146:7294   */\n    tag_710:\n        /* \"#utility.yul\":7162:7168   */\n      dup4\n        /* \"#utility.yul\":7157:7160   */\n      dup7\n        /* \"#utility.yul\":7154:7169   */\n      lt\n        /* \"#utility.yul\":7146:7294   */\n      iszero\n      tag_712\n      jumpi\n        /* \"#utility.yul\":7228:7251   */\n      tag_713\n        /* \"#utility.yul\":7247:7250   */\n      dup7\n        /* \"#utility.yul\":7228:7251   */\n      tag_625\n      jump\t// in\n    tag_713:\n        /* \"#utility.yul\":7216:7252   */\n      dup3\n      mstore\n        /* \"#utility.yul\":7179:7191   */\n      swap5\n      dup3\n      add\n      swap5\n        /* \"#utility.yul\":7272:7284   */\n      swap1\n      dup3\n      add\n      swap1\n        /* \"#utility.yul\":7146:7294   */\n      jump(tag_710)\n    tag_712:\n        /* \"#utility.yul\":7313:7319   */\n      swap7\n      pop\n      pop\n        /* \"#utility.yul\":7357:7375   */\n      dup7\n      add\n        /* \"#utility.yul\":7344:7376   */\n      calldataload\n      swap3\n      pop\n      pop\n        /* \"#utility.yul\":7388:7404   */\n      dup1\n      dup3\n      gt\n        /* \"#utility.yul\":7385:7421   */\n      iszero\n      tag_714\n      jumpi\n        /* \"#utility.yul\":7417:7418   */\n      0x00\n        /* \"#utility.yul\":7414:7415   */\n      dup1\n        /* \"#utility.yul\":7407:7419   */\n      revert\n        /* \"#utility.yul\":7385:7421   */\n    tag_714:\n      pop\n        /* \"#utility.yul\":7440:7503   */\n      tag_715\n        /* \"#utility.yul\":7495:7502   */\n      dup6\n        /* \"#utility.yul\":7484:7492   */\n      dup3\n        /* \"#utility.yul\":7473:7482   */\n      dup7\n        /* \"#utility.yul\":7469:7493   */\n      add\n        /* \"#utility.yul\":7440:7503   */\n      tag_630\n      jump\t// in\n    tag_715:\n        /* \"#utility.yul\":7430:7503   */\n      swap2\n      pop\n      pop\n        /* \"#utility.yul\":6301:7509   */\n      swap3\n      pop\n      swap3\n      swap1\n      pop\n      jump\t// out\n        /* \"#utility.yul\":7514:7953   */\n    tag_633:\n        /* \"#utility.yul\":7567:7570   */\n      0x00\n        /* \"#utility.yul\":7605:7610   */\n      dup2\n        /* \"#utility.yul\":7599:7611   */\n      mload\n        /* \"#utility.yul\":7632:7638   */\n      dup1\n        /* \"#utility.yul\":7627:7630   */\n      dup5\n        /* \"#utility.yul\":7620:7639   */\n      mstore\n        /* \"#utility.yul\":7658:7662   */\n      0x20\n        /* \"#utility.yul\":7687:7691   */\n      dup1\n        /* \"#utility.yul\":7682:7685   */\n      dup6\n        /* \"#utility.yul\":7678:7692   */\n      add\n        /* \"#utility.yul\":7671:7692   */\n      swap5\n      pop\n        /* \"#utility.yul\":7726:7730   */\n      0x20\n        /* \"#utility.yul\":7719:7724   */\n      dup5\n        /* \"#utility.yul\":7715:7731   */\n      add\n        /* \"#utility.yul\":7749:7750   */\n      0x00\n        /* \"#utility.yul\":7759:7928   */\n    tag_717:\n        /* \"#utility.yul\":7773:7779   */\n      dup4\n        /* \"#utility.yul\":7770:7771   */\n      dup2\n        /* \"#utility.yul\":7767:7780   */\n      lt\n        /* \"#utility.yul\":7759:7928   */\n      iszero\n      tag_719\n      jumpi\n        /* \"#utility.yul\":7834:7847   */\n      dup2\n      mload\n        /* \"#utility.yul\":7822:7848   */\n      dup8\n      mstore\n        /* \"#utility.yul\":7868:7880   */\n      swap6\n      dup3\n      add\n      swap6\n        /* \"#utility.yul\":7903:7918   */\n      swap1\n      dup3\n      add\n      swap1\n        /* \"#utility.yul\":7795:7796   */\n      0x01\n        /* \"#utility.yul\":7788:7797   */\n      add\n        /* \"#utility.yul\":7759:7928   */\n      jump(tag_717)\n    tag_719:\n      pop\n        /* \"#utility.yul\":7944:7947   */\n      swap5\n      swap6\n        /* \"#utility.yul\":7514:7953   */\n      swap5\n      pop\n      pop\n      pop\n      pop\n      pop\n      jump\t// out\n        /* \"#utility.yul\":7958:8219   */\n    tag_110:\n        /* \"#utility.yul\":8137:8139   */\n      0x20\n        /* \"#utility.yul\":8126:8135   */\n      dup2\n        /* \"#utility.yul\":8119:8140   */\n      mstore\n        /* \"#utility.yul\":8100:8104   */\n      0x00\n        /* \"#utility.yul\":8157:8213   */\n      tag_493\n        /* \"#utility.yul\":8209:8211   */\n      0x20\n        /* \"#utility.yul\":8198:8207   */\n      dup4\n        /* \"#utility.yul\":8194:8212   */\n      add\n        /* \"#utility.yul\":8186:8192   */\n      dup5\n        /* \"#utility.yul\":8157:8213   */\n      tag_633\n      jump\t// in\n        /* \"#utility.yul\":8224:8893   */\n    tag_122:\n        /* \"#utility.yul\":8351:8357   */\n      0x00\n        /* \"#utility.yul\":8359:8365   */\n      dup1\n        /* \"#utility.yul\":8367:8373   */\n      0x00\n        /* \"#utility.yul\":8420:8422   */\n      0x60\n        /* \"#utility.yul\":8408:8417   */\n      dup5\n        /* \"#utility.yul\":8399:8406   */\n      dup7\n        /* \"#utility.yul\":8395:8418   */\n      sub\n        /* \"#utility.yul\":8391:8423   */\n      slt\n        /* \"#utility.yul\":8388:8440   */\n      iszero\n      tag_723\n      jumpi\n        /* \"#utility.yul\":8436:8437   */\n      0x00\n        /* \"#utility.yul\":8433:8434   */\n      dup1\n        /* \"#utility.yul\":8426:8438   */\n      revert\n        /* \"#utility.yul\":8388:8440   */\n    tag_723:\n        /* \"#utility.yul\":8459:8488   */\n      tag_724\n        /* \"#utility.yul\":8478:8487   */\n      dup5\n        /* \"#utility.yul\":8459:8488   */\n      tag_625\n      jump\t// in\n    tag_724:\n        /* \"#utility.yul\":8449:8488   */\n      swap3\n      pop\n        /* \"#utility.yul\":8539:8541   */\n      0x20\n        /* \"#utility.yul\":8528:8537   */\n      dup5\n        /* \"#utility.yul\":8524:8542   */\n      add\n        /* \"#utility.yul\":8511:8543   */\n      calldataload\n        /* \"#utility.yul\":8562:8580   */\n      0xffffffffffffffff\n        /* \"#utility.yul\":8603:8605   */\n      dup1\n        /* \"#utility.yul\":8595:8601   */\n      dup3\n        /* \"#utility.yul\":8592:8606   */\n      gt\n        /* \"#utility.yul\":8589:8623   */\n      iszero\n      tag_725\n      jumpi\n        /* \"#utility.yul\":8619:8620   */\n      0x00\n        /* \"#utility.yul\":8616:8617   */\n      dup1\n        /* \"#utility.yul\":8609:8621   */\n      revert\n        /* \"#utility.yul\":8589:8623   */\n    tag_725:\n        /* \"#utility.yul\":8642:8703   */\n      tag_726\n        /* \"#utility.yul\":8695:8702   */\n      dup8\n        /* \"#utility.yul\":8686:8692   */\n      dup4\n        /* \"#utility.yul\":8675:8684   */\n      dup9\n        /* \"#utility.yul\":8671:8693   */\n      add\n        /* \"#utility.yul\":8642:8703   */\n      tag_630\n      jump\t// in\n    tag_726:\n        /* \"#utility.yul\":8632:8703   */\n      swap4\n      pop\n        /* \"#utility.yul\":8756:8758   */\n      0x40\n        /* \"#utility.yul\":8745:8754   */\n      dup7\n        /* \"#utility.yul\":8741:8759   */\n      add\n        /* \"#utility.yul\":8728:8760   */\n      calldataload\n        /* \"#utility.yul\":8712:8760   */\n      swap2\n      pop\n        /* \"#utility.yul\":8785:8787   */\n      dup1\n        /* \"#utility.yul\":8775:8783   */\n      dup3\n        /* \"#utility.yul\":8772:8788   */\n      gt\n        /* \"#utility.yul\":8769:8805   */\n      iszero\n      tag_727\n      jumpi\n        /* \"#utility.yul\":8801:8802   */\n      0x00\n        /* \"#utility.yul\":8798:8799   */\n      dup1\n        /* \"#utility.yul\":8791:8803   */\n      revert\n        /* \"#utility.yul\":8769:8805   */\n    tag_727:\n      pop\n        /* \"#utility.yul\":8824:8887   */\n      tag_728\n        /* \"#utility.yul\":8879:8886   */\n      dup7\n        /* \"#utility.yul\":8868:8876   */\n      dup3\n        /* \"#utility.yul\":8857:8866   */\n      dup8\n        /* \"#utility.yul\":8853:8877   */\n      add\n        /* \"#utility.yul\":8824:8887   */\n      tag_630\n      jump\t// in\n    tag_728:\n        /* \"#utility.yul\":8814:8887   */\n      swap2\n      pop\n      pop\n        /* \"#utility.yul\":8224:8893   */\n      swap3\n      pop\n      swap3\n      pop\n      swap3\n      jump\t// out\n        /* \"#utility.yul\":9129:9579   */\n    tag_137:\n        /* \"#utility.yul\":9198:9204   */\n      0x00\n        /* \"#utility.yul\":9251:9253   */\n      0x20\n        /* \"#utility.yul\":9239:9248   */\n      dup3\n        /* \"#utility.yul\":9230:9237   */\n      dup5\n        /* \"#utility.yul\":9226:9249   */\n      sub\n        /* \"#utility.yul\":9222:9254   */\n      slt\n        /* \"#utility.yul\":9219:9271   */\n      iszero\n      tag_731\n      jumpi\n        /* \"#utility.yul\":9267:9268   */\n      0x00\n        /* \"#utility.yul\":9264:9265   */\n      dup1\n        /* \"#utility.yul\":9257:9269   */\n      revert\n        /* \"#utility.yul\":9219:9271   */\n    tag_731:\n        /* \"#utility.yul\":9307:9316   */\n      dup2\n        /* \"#utility.yul\":9294:9317   */\n      calldataload\n        /* \"#utility.yul\":9340:9358   */\n      0xffffffffffffffff\n        /* \"#utility.yul\":9332:9338   */\n      dup2\n        /* \"#utility.yul\":9329:9359   */\n      gt\n        /* \"#utility.yul\":9326:9376   */\n      iszero\n      tag_732\n      jumpi\n        /* \"#utility.yul\":9372:9373   */\n      0x00\n        /* \"#utility.yul\":9369:9370   */\n      dup1\n        /* \"#utility.yul\":9362:9374   */\n      revert\n        /* \"#utility.yul\":9326:9376   */\n    tag_732:\n        /* \"#utility.yul\":9395:9417   */\n      dup3\n      add\n        /* \"#utility.yul\":9448:9452   */\n      0x1f\n        /* \"#utility.yul\":9440:9453   */\n      dup2\n      add\n        /* \"#utility.yul\":9436:9463   */\n      dup5\n      sgt\n        /* \"#utility.yul\":9426:9481   */\n      tag_733\n      jumpi\n        /* \"#utility.yul\":9477:9478   */\n      0x00\n        /* \"#utility.yul\":9474:9475   */\n      dup1\n        /* \"#utility.yul\":9467:9479   */\n      revert\n        /* \"#utility.yul\":9426:9481   */\n    tag_733:\n        /* \"#utility.yul\":9500:9573   */\n      tag_414\n        /* \"#utility.yul\":9565:9572   */\n      dup5\n        /* \"#utility.yul\":9560:9562   */\n      dup3\n        /* \"#utility.yul\":9547:9563   */\n      calldataload\n        /* \"#utility.yul\":9542:9544   */\n      0x20\n        /* \"#utility.yul\":9538:9540   */\n      dup5\n        /* \"#utility.yul\":9534:9545   */\n      add\n        /* \"#utility.yul\":9500:9573   */\n      tag_631\n      jump\t// in\n        /* \"#utility.yul\":9584:9906   */\n    tag_146:\n        /* \"#utility.yul\":9661:9667   */\n      0x00\n        /* \"#utility.yul\":9669:9675   */\n      dup1\n        /* \"#utility.yul\":9677:9683   */\n      0x00\n        /* \"#utility.yul\":9730:9732   */\n      0x60\n        /* \"#utility.yul\":9718:9727   */\n      dup5\n        /* \"#utility.yul\":9709:9716   */\n      dup7\n        /* \"#utility.yul\":9705:9728   */\n      sub\n        /* \"#utility.yul\":9701:9733   */\n      slt\n        /* \"#utility.yul\":9698:9750   */\n      iszero\n      tag_736\n      jumpi\n        /* \"#utility.yul\":9746:9747   */\n      0x00\n        /* \"#utility.yul\":9743:9744   */\n      dup1\n        /* \"#utility.yul\":9736:9748   */\n      revert\n        /* \"#utility.yul\":9698:9750   */\n    tag_736:\n        /* \"#utility.yul\":9782:9791   */\n      dup4\n        /* \"#utility.yul\":9769:9792   */\n      calldataload\n        /* \"#utility.yul\":9759:9792   */\n      swap3\n      pop\n        /* \"#utility.yul\":9811:9849   */\n      tag_737\n        /* \"#utility.yul\":9845:9847   */\n      0x20\n        /* \"#utility.yul\":9834:9843   */\n      dup6\n        /* \"#utility.yul\":9830:9848   */\n      add\n        /* \"#utility.yul\":9811:9849   */\n      tag_625\n      jump\t// in\n    tag_737:\n        /* \"#utility.yul\":9801:9849   */\n      swap2\n      pop\n        /* \"#utility.yul\":9896:9898   */\n      0x40\n        /* \"#utility.yul\":9885:9894   */\n      dup5\n        /* \"#utility.yul\":9881:9899   */\n      add\n        /* \"#utility.yul\":9868:9900   */\n      calldataload\n        /* \"#utility.yul\":9858:9900   */\n      swap1\n      pop\n        /* \"#utility.yul\":9584:9906   */\n      swap3\n      pop\n      swap3\n      pop\n      swap3\n      jump\t// out\n        /* \"#utility.yul\":9911:10258   */\n    tag_151:\n        /* \"#utility.yul\":9976:9982   */\n      0x00\n        /* \"#utility.yul\":9984:9990   */\n      dup1\n        /* \"#utility.yul\":10037:10039   */\n      0x40\n        /* \"#utility.yul\":10025:10034   */\n      dup4\n        /* \"#utility.yul\":10016:10023   */\n      dup6\n        /* \"#utility.yul\":10012:10035   */\n      sub\n        /* \"#utility.yul\":10008:10040   */\n      slt\n        /* \"#utility.yul\":10005:10057   */\n      iszero\n      tag_739\n      jumpi\n        /* \"#utility.yul\":10053:10054   */\n      0x00\n        /* \"#utility.yul\":10050:10051   */\n      dup1\n        /* \"#utility.yul\":10043:10055   */\n      revert\n        /* \"#utility.yul\":10005:10057   */\n    tag_739:\n        /* \"#utility.yul\":10076:10105   */\n      tag_740\n        /* \"#utility.yul\":10095:10104   */\n      dup4\n        /* \"#utility.yul\":10076:10105   */\n      tag_625\n      jump\t// in\n    tag_740:\n        /* \"#utility.yul\":10066:10105   */\n      swap2\n      pop\n        /* \"#utility.yul\":10155:10157   */\n      0x20\n        /* \"#utility.yul\":10144:10153   */\n      dup4\n        /* \"#utility.yul\":10140:10158   */\n      add\n        /* \"#utility.yul\":10127:10159   */\n      calldataload\n        /* \"#utility.yul\":10202:10207   */\n      dup1\n        /* \"#utility.yul\":10195:10208   */\n      iszero\n        /* \"#utility.yul\":10188:10209   */\n      iszero\n        /* \"#utility.yul\":10181:10186   */\n      dup2\n        /* \"#utility.yul\":10178:10210   */\n      eq\n        /* \"#utility.yul\":10168:10228   */\n      tag_741\n      jumpi\n        /* \"#utility.yul\":10224:10225   */\n      0x00\n        /* \"#utility.yul\":10221:10222   */\n      dup1\n        /* \"#utility.yul\":10214:10226   */\n      revert\n        /* \"#utility.yul\":10168:10228   */\n    tag_741:\n        /* \"#utility.yul\":10247:10252   */\n      dup1\n        /* \"#utility.yul\":10237:10252   */\n      swap2\n      pop\n      pop\n        /* \"#utility.yul\":9911:10258   */\n      swap3\n      pop\n      swap3\n      swap1\n      pop\n      jump\t// out\n        /* \"#utility.yul\":10263:10889   */\n    tag_156:\n        /* \"#utility.yul\":10360:10366   */\n      0x00\n        /* \"#utility.yul\":10368:10374   */\n      dup1\n        /* \"#utility.yul\":10421:10423   */\n      0x20\n        /* \"#utility.yul\":10409:10418   */\n      dup4\n        /* \"#utility.yul\":10400:10407   */\n      dup6\n        /* \"#utility.yul\":10396:10419   */\n      sub\n        /* \"#utility.yul\":10392:10424   */\n      slt\n        /* \"#utility.yul\":10389:10441   */\n      iszero\n      tag_743\n      jumpi\n        /* \"#utility.yul\":10437:10438   */\n      0x00\n        /* \"#utility.yul\":10434:10435   */\n      dup1\n        /* \"#utility.yul\":10427:10439   */\n      revert\n        /* \"#utility.yul\":10389:10441   */\n    tag_743:\n        /* \"#utility.yul\":10477:10486   */\n      dup3\n        /* \"#utility.yul\":10464:10487   */\n      calldataload\n        /* \"#utility.yul\":10506:10524   */\n      0xffffffffffffffff\n        /* \"#utility.yul\":10547:10549   */\n      dup1\n        /* \"#utility.yul\":10539:10545   */\n      dup3\n        /* \"#utility.yul\":10536:10550   */\n      gt\n        /* \"#utility.yul\":10533:10567   */\n      iszero\n      tag_744\n      jumpi\n        /* \"#utility.yul\":10563:10564   */\n      0x00\n        /* \"#utility.yul\":10560:10561   */\n      dup1\n        /* \"#utility.yul\":10553:10565   */\n      revert\n        /* \"#utility.yul\":10533:10567   */\n    tag_744:\n        /* \"#utility.yul\":10601:10607   */\n      dup2\n        /* \"#utility.yul\":10590:10599   */\n      dup6\n        /* \"#utility.yul\":10586:10608   */\n      add\n        /* \"#utility.yul\":10576:10608   */\n      swap2\n      pop\n        /* \"#utility.yul\":10646:10653   */\n      dup6\n        /* \"#utility.yul\":10639:10643   */\n      0x1f\n        /* \"#utility.yul\":10635:10637   */\n      dup4\n        /* \"#utility.yul\":10631:10644   */\n      add\n        /* \"#utility.yul\":10627:10654   */\n      slt\n        /* \"#utility.yul\":10617:10672   */\n      tag_745\n      jumpi\n        /* \"#utility.yul\":10668:10669   */\n      0x00\n        /* \"#utility.yul\":10665:10666   */\n      dup1\n        /* \"#utility.yul\":10658:10670   */\n      revert\n        /* \"#utility.yul\":10617:10672   */\n    tag_745:\n        /* \"#utility.yul\":10708:10710   */\n      dup2\n        /* \"#utility.yul\":10695:10711   */\n      calldataload\n        /* \"#utility.yul\":10734:10736   */\n      dup2\n        /* \"#utility.yul\":10726:10732   */\n      dup2\n        /* \"#utility.yul\":10723:10737   */\n      gt\n        /* \"#utility.yul\":10720:10754   */\n      iszero\n      tag_746\n      jumpi\n        /* \"#utility.yul\":10750:10751   */\n      0x00\n        /* \"#utility.yul\":10747:10748   */\n      dup1\n        /* \"#utility.yul\":10740:10752   */\n      revert\n        /* \"#utility.yul\":10720:10754   */\n    tag_746:\n        /* \"#utility.yul\":10803:10810   */\n      dup7\n        /* \"#utility.yul\":10798:10800   */\n      0x20\n        /* \"#utility.yul\":10788:10794   */\n      dup3\n        /* \"#utility.yul\":10785:10786   */\n      0x05\n        /* \"#utility.yul\":10781:10795   */\n      shl\n        /* \"#utility.yul\":10777:10779   */\n      dup6\n        /* \"#utility.yul\":10773:10796   */\n      add\n        /* \"#utility.yul\":10769:10801   */\n      add\n        /* \"#utility.yul\":10766:10811   */\n      gt\n        /* \"#utility.yul\":10763:10828   */\n      iszero\n      tag_747\n      jumpi\n        /* \"#utility.yul\":10824:10825   */\n      0x00\n        /* \"#utility.yul\":10821:10822   */\n      dup1\n        /* \"#utility.yul\":10814:10826   */\n      revert\n        /* \"#utility.yul\":10763:10828   */\n    tag_747:\n        /* \"#utility.yul\":10855:10857   */\n      0x20\n        /* \"#utility.yul\":10847:10858   */\n      swap3\n      swap1\n      swap3\n      add\n      swap7\n        /* \"#utility.yul\":10877:10883   */\n      swap2\n      swap6\n      pop\n        /* \"#utility.yul\":10263:10889   */\n      swap1\n      swap4\n      pop\n      pop\n      pop\n      pop\n      jump\t// out\n        /* \"#utility.yul\":10894:11706   */\n    tag_159:\n        /* \"#utility.yul\":11054:11058   */\n      0x00\n        /* \"#utility.yul\":11083:11085   */\n      0x20\n        /* \"#utility.yul\":11123:11125   */\n      dup1\n        /* \"#utility.yul\":11112:11121   */\n      dup4\n        /* \"#utility.yul\":11108:11126   */\n      add\n        /* \"#utility.yul\":11153:11155   */\n      0x20\n        /* \"#utility.yul\":11142:11151   */\n      dup5\n        /* \"#utility.yul\":11135:11156   */\n      mstore\n        /* \"#utility.yul\":11176:11182   */\n      dup1\n        /* \"#utility.yul\":11211:11217   */\n      dup6\n        /* \"#utility.yul\":11205:11218   */\n      mload\n        /* \"#utility.yul\":11242:11248   */\n      dup1\n        /* \"#utility.yul\":11234:11240   */\n      dup4\n        /* \"#utility.yul\":11227:11249   */\n      mstore\n        /* \"#utility.yul\":11280:11282   */\n      0x40\n        /* \"#utility.yul\":11269:11278   */\n      dup7\n        /* \"#utility.yul\":11265:11283   */\n      add\n        /* \"#utility.yul\":11258:11283   */\n      swap2\n      pop\n        /* \"#utility.yul\":11342:11344   */\n      0x40\n        /* \"#utility.yul\":11332:11338   */\n      dup2\n        /* \"#utility.yul\":11329:11330   */\n      0x05\n        /* \"#utility.yul\":11325:11339   */\n      shl\n        /* \"#utility.yul\":11314:11323   */\n      dup8\n        /* \"#utility.yul\":11310:11340   */\n      add\n        /* \"#utility.yul\":11306:11345   */\n      add\n        /* \"#utility.yul\":11292:11345   */\n      swap3\n      pop\n        /* \"#utility.yul\":11380:11382   */\n      0x20\n        /* \"#utility.yul\":11372:11378   */\n      dup8\n        /* \"#utility.yul\":11368:11383   */\n      add\n        /* \"#utility.yul\":11401:11402   */\n      0x00\n        /* \"#utility.yul\":11411:11677   */\n    tag_749:\n        /* \"#utility.yul\":11425:11431   */\n      dup3\n        /* \"#utility.yul\":11422:11423   */\n      dup2\n        /* \"#utility.yul\":11419:11432   */\n      lt\n        /* \"#utility.yul\":11411:11677   */\n      iszero\n      tag_751\n      jumpi\n        /* \"#utility.yul\":11518:11520   */\n      0x3f\n        /* \"#utility.yul\":11514:11521   */\n      not\n        /* \"#utility.yul\":11502:11511   */\n      dup9\n        /* \"#utility.yul\":11494:11500   */\n      dup7\n        /* \"#utility.yul\":11490:11512   */\n      sub\n        /* \"#utility.yul\":11486:11522   */\n      add\n        /* \"#utility.yul\":11481:11484   */\n      dup5\n        /* \"#utility.yul\":11474:11523   */\n      mstore\n        /* \"#utility.yul\":11546:11597   */\n      tag_752\n        /* \"#utility.yul\":11590:11596   */\n      dup6\n        /* \"#utility.yul\":11581:11587   */\n      dup4\n        /* \"#utility.yul\":11575:11588   */\n      mload\n        /* \"#utility.yul\":11546:11597   */\n      tag_627\n      jump\t// in\n    tag_752:\n        /* \"#utility.yul\":11536:11597   */\n      swap5\n      pop\n        /* \"#utility.yul\":11655:11667   */\n      swap3\n      dup6\n      add\n      swap3\n        /* \"#utility.yul\":11620:11635   */\n      swap1\n      dup6\n      add\n      swap1\n        /* \"#utility.yul\":11447:11448   */\n      0x01\n        /* \"#utility.yul\":11440:11449   */\n      add\n        /* \"#utility.yul\":11411:11677   */\n      jump(tag_749)\n    tag_751:\n      pop\n        /* \"#utility.yul\":11694:11700   */\n      swap3\n      swap8\n        /* \"#utility.yul\":10894:11706   */\n      swap7\n      pop\n      pop\n      pop\n      pop\n      pop\n      pop\n      pop\n      jump\t// out\n        /* \"#utility.yul\":11711:12059   */\n    tag_634:\n        /* \"#utility.yul\":11763:11771   */\n      0x00\n        /* \"#utility.yul\":11773:11779   */\n      dup1\n        /* \"#utility.yul\":11827:11830   */\n      dup4\n        /* \"#utility.yul\":11820:11824   */\n      0x1f\n        /* \"#utility.yul\":11812:11818   */\n      dup5\n        /* \"#utility.yul\":11808:11825   */\n      add\n        /* \"#utility.yul\":11804:11831   */\n      slt\n        /* \"#utility.yul\":11794:11849   */\n      tag_754\n      jumpi\n        /* \"#utility.yul\":11845:11846   */\n      0x00\n        /* \"#utility.yul\":11842:11843   */\n      dup1\n        /* \"#utility.yul\":11835:11847   */\n      revert\n        /* \"#utility.yul\":11794:11849   */\n    tag_754:\n      pop\n        /* \"#utility.yul\":11868:11888   */\n      dup2\n      calldataload\n        /* \"#utility.yul\":11911:11929   */\n      0xffffffffffffffff\n        /* \"#utility.yul\":11900:11930   */\n      dup2\n      gt\n        /* \"#utility.yul\":11897:11947   */\n      iszero\n      tag_755\n      jumpi\n        /* \"#utility.yul\":11943:11944   */\n      0x00\n        /* \"#utility.yul\":11940:11941   */\n      dup1\n        /* \"#utility.yul\":11933:11945   */\n      revert\n        /* \"#utility.yul\":11897:11947   */\n    tag_755:\n        /* \"#utility.yul\":11980:11984   */\n      0x20\n        /* \"#utility.yul\":11972:11978   */\n      dup4\n        /* \"#utility.yul\":11968:11985   */\n      add\n        /* \"#utility.yul\":11956:11985   */\n      swap2\n      pop\n        /* \"#utility.yul\":12032:12035   */\n      dup4\n        /* \"#utility.yul\":12025:12029   */\n      0x20\n        /* \"#utility.yul\":12016:12022   */\n      dup3\n        /* \"#utility.yul\":12008:12014   */\n      dup6\n        /* \"#utility.yul\":12004:12023   */\n      add\n        /* \"#utility.yul\":12000:12030   */\n      add\n        /* \"#utility.yul\":11997:12036   */\n      gt\n        /* \"#utility.yul\":11994:12053   */\n      iszero\n      tag_756\n      jumpi\n        /* \"#utility.yul\":12049:12050   */\n      0x00\n        /* \"#utility.yul\":12046:12047   */\n      dup1\n        /* \"#utility.yul\":12039:12051   */\n      revert\n        /* \"#utility.yul\":11994:12053   */\n    tag_756:\n        /* \"#utility.yul\":11711:12059   */\n      swap3\n      pop\n      swap3\n      swap1\n      pop\n      jump\t// out\n        /* \"#utility.yul\":12064:12852   */\n    tag_172:\n        /* \"#utility.yul\":12164:12170   */\n      0x00\n        /* \"#utility.yul\":12172:12178   */\n      dup1\n        /* \"#utility.yul\":12180:12186   */\n      0x00\n        /* \"#utility.yul\":12188:12194   */\n      dup1\n        /* \"#utility.yul\":12196:12202   */\n      0x00\n        /* \"#utility.yul\":12249:12251   */\n      0x60\n        /* \"#utility.yul\":12237:12246   */\n      dup7\n        /* \"#utility.yul\":12228:12235   */\n      dup9\n        /* \"#utility.yul\":12224:12247   */\n      sub\n        /* \"#utility.yul\":12220:12252   */\n      slt\n        /* \"#utility.yul\":12217:12269   */\n      iszero\n      tag_758\n      jumpi\n        /* \"#utility.yul\":12265:12266   */\n      0x00\n        /* \"#utility.yul\":12262:12263   */\n      dup1\n        /* \"#utility.yul\":12255:12267   */\n      revert\n        /* \"#utility.yul\":12217:12269   */\n    tag_758:\n        /* \"#utility.yul\":12301:12310   */\n      dup6\n        /* \"#utility.yul\":12288:12311   */\n      calldataload\n        /* \"#utility.yul\":12278:12311   */\n      swap5\n      pop\n        /* \"#utility.yul\":12362:12364   */\n      0x20\n        /* \"#utility.yul\":12351:12360   */\n      dup7\n        /* \"#utility.yul\":12347:12365   */\n      add\n        /* \"#utility.yul\":12334:12366   */\n      calldataload\n        /* \"#utility.yul\":12385:12403   */\n      0xffffffffffffffff\n        /* \"#utility.yul\":12426:12428   */\n      dup1\n        /* \"#utility.yul\":12418:12424   */\n      dup3\n        /* \"#utility.yul\":12415:12429   */\n      gt\n        /* \"#utility.yul\":12412:12446   */\n      iszero\n      tag_759\n      jumpi\n        /* \"#utility.yul\":12442:12443   */\n      0x00\n        /* \"#utility.yul\":12439:12440   */\n      dup1\n        /* \"#utility.yul\":12432:12444   */\n      revert\n        /* \"#utility.yul\":12412:12446   */\n    tag_759:\n        /* \"#utility.yul\":12481:12540   */\n      tag_760\n        /* \"#utility.yul\":12532:12539   */\n      dup10\n        /* \"#utility.yul\":12523:12529   */\n      dup4\n        /* \"#utility.yul\":12512:12521   */\n      dup11\n        /* \"#utility.yul\":12508:12530   */\n      add\n        /* \"#utility.yul\":12481:12540   */\n      tag_634\n      jump\t// in\n    tag_760:\n        /* \"#utility.yul\":12559:12567   */\n      swap1\n      swap7\n      pop\n        /* \"#utility.yul\":12455:12540   */\n      swap5\n      pop\n        /* \"#utility.yul\":12647:12649   */\n      0x40\n        /* \"#utility.yul\":12632:12650   */\n      dup9\n      add\n        /* \"#utility.yul\":12619:12651   */\n      calldataload\n      swap2\n      pop\n        /* \"#utility.yul\":12663:12679   */\n      dup1\n      dup3\n      gt\n        /* \"#utility.yul\":12660:12696   */\n      iszero\n      tag_761\n      jumpi\n        /* \"#utility.yul\":12692:12693   */\n      0x00\n        /* \"#utility.yul\":12689:12690   */\n      dup1\n        /* \"#utility.yul\":12682:12694   */\n      revert\n        /* \"#utility.yul\":12660:12696   */\n    tag_761:\n      pop\n        /* \"#utility.yul\":12731:12792   */\n      tag_762\n        /* \"#utility.yul\":12784:12791   */\n      dup9\n        /* \"#utility.yul\":12773:12781   */\n      dup3\n        /* \"#utility.yul\":12762:12771   */\n      dup10\n        /* \"#utility.yul\":12758:12782   */\n      add\n        /* \"#utility.yul\":12731:12792   */\n      tag_634\n      jump\t// in\n    tag_762:\n        /* \"#utility.yul\":12064:12852   */\n      swap7\n      swap10\n      swap6\n      swap9\n      pop\n      swap4\n      swap7\n      pop\n        /* \"#utility.yul\":12811:12819   */\n      swap3\n      swap5\n        /* \"#utility.yul\":12705:12792   */\n      swap4\n        /* \"#utility.yul\":12064:12852   */\n      swap3\n      pop\n      pop\n      pop\n      jump\t// out\n        /* \"#utility.yul\":12857:13117   */\n    tag_182:\n        /* \"#utility.yul\":12925:12931   */\n      0x00\n        /* \"#utility.yul\":12933:12939   */\n      dup1\n        /* \"#utility.yul\":12986:12988   */\n      0x40\n        /* \"#utility.yul\":12974:12983   */\n      dup4\n        /* \"#utility.yul\":12965:12972   */\n      dup6\n        /* \"#utility.yul\":12961:12984   */\n      sub\n        /* \"#utility.yul\":12957:12989   */\n      slt\n        /* \"#utility.yul\":12954:13006   */\n      iszero\n      tag_764\n      jumpi\n        /* \"#utility.yul\":13002:13003   */\n      0x00\n        /* \"#utility.yul\":12999:13000   */\n      dup1\n        /* \"#utility.yul\":12992:13004   */\n      revert\n        /* \"#utility.yul\":12954:13006   */\n    tag_764:\n        /* \"#utility.yul\":13025:13054   */\n      tag_765\n        /* \"#utility.yul\":13044:13053   */\n      dup4\n        /* \"#utility.yul\":13025:13054   */\n      tag_625\n      jump\t// in\n    tag_765:\n        /* \"#utility.yul\":13015:13054   */\n      swap2\n      pop\n        /* \"#utility.yul\":13073:13111   */\n      tag_766\n        /* \"#utility.yul\":13107:13109   */\n      0x20\n        /* \"#utility.yul\":13096:13105   */\n      dup5\n        /* \"#utility.yul\":13092:13110   */\n      add\n        /* \"#utility.yul\":13073:13111   */\n      tag_625\n      jump\t// in\n    tag_766:\n        /* \"#utility.yul\":13063:13111   */\n      swap1\n      pop\n        /* \"#utility.yul\":12857:13117   */\n      swap3\n      pop\n      swap3\n      swap1\n      pop\n      jump\t// out\n        /* \"#utility.yul\":13122:13728   */\n    tag_188:\n        /* \"#utility.yul\":13226:13232   */\n      0x00\n        /* \"#utility.yul\":13234:13240   */\n      dup1\n        /* \"#utility.yul\":13242:13248   */\n      0x00\n        /* \"#utility.yul\":13250:13256   */\n      dup1\n        /* \"#utility.yul\":13258:13264   */\n      0x00\n        /* \"#utility.yul\":13311:13314   */\n      0xa0\n        /* \"#utility.yul\":13299:13308   */\n      dup7\n        /* \"#utility.yul\":13290:13297   */\n      dup9\n        /* \"#utility.yul\":13286:13309   */\n      sub\n        /* \"#utility.yul\":13282:13315   */\n      slt\n        /* \"#utility.yul\":13279:13332   */\n      iszero\n      tag_768\n      jumpi\n        /* \"#utility.yul\":13328:13329   */\n      0x00\n        /* \"#utility.yul\":13325:13326   */\n      dup1\n        /* \"#utility.yul\":13318:13330   */\n      revert\n        /* \"#utility.yul\":13279:13332   */\n    tag_768:\n        /* \"#utility.yul\":13351:13380   */\n      tag_769\n        /* \"#utility.yul\":13370:13379   */\n      dup7\n        /* \"#utility.yul\":13351:13380   */\n      tag_625\n      jump\t// in\n    tag_769:\n        /* \"#utility.yul\":13341:13380   */\n      swap5\n      pop\n        /* \"#utility.yul\":13399:13437   */\n      tag_770\n        /* \"#utility.yul\":13433:13435   */\n      0x20\n        /* \"#utility.yul\":13422:13431   */\n      dup8\n        /* \"#utility.yul\":13418:13436   */\n      add\n        /* \"#utility.yul\":13399:13437   */\n      tag_625\n      jump\t// in\n    tag_770:\n        /* \"#utility.yul\":13389:13437   */\n      swap4\n      pop\n        /* \"#utility.yul\":13484:13486   */\n      0x40\n        /* \"#utility.yul\":13473:13482   */\n      dup7\n        /* \"#utility.yul\":13469:13487   */\n      add\n        /* \"#utility.yul\":13456:13488   */\n      calldataload\n        /* \"#utility.yul\":13446:13488   */\n      swap3\n      pop\n        /* \"#utility.yul\":13535:13537   */\n      0x60\n        /* \"#utility.yul\":13524:13533   */\n      dup7\n        /* \"#utility.yul\":13520:13538   */\n      add\n        /* \"#utility.yul\":13507:13539   */\n      calldataload\n        /* \"#utility.yul\":13497:13539   */\n      swap2\n      pop\n        /* \"#utility.yul\":13590:13593   */\n      0x80\n        /* \"#utility.yul\":13579:13588   */\n      dup7\n        /* \"#utility.yul\":13575:13594   */\n      add\n        /* \"#utility.yul\":13562:13595   */\n      calldataload\n        /* \"#utility.yul\":13618:13636   */\n      0xffffffffffffffff\n        /* \"#utility.yul\":13610:13616   */\n      dup2\n        /* \"#utility.yul\":13607:13637   */\n      gt\n        /* \"#utility.yul\":13604:13654   */\n      iszero\n      tag_771\n      jumpi\n        /* \"#utility.yul\":13650:13651   */\n      0x00\n        /* \"#utility.yul\":13647:13648   */\n      dup1\n        /* \"#utility.yul\":13640:13652   */\n      revert\n        /* \"#utility.yul\":13604:13654   */\n    tag_771:\n        /* \"#utility.yul\":13673:13722   */\n      tag_701\n        /* \"#utility.yul\":13714:13721   */\n      dup9\n        /* \"#utility.yul\":13705:13711   */\n      dup3\n        /* \"#utility.yul\":13694:13703   */\n      dup10\n        /* \"#utility.yul\":13690:13712   */\n      add\n        /* \"#utility.yul\":13673:13722   */\n      tag_632\n      jump\t// in\n        /* \"#utility.yul\":13733:14113   */\n    tag_199:\n        /* \"#utility.yul\":13812:13813   */\n      0x01\n        /* \"#utility.yul\":13808:13820   */\n      dup2\n      dup2\n      shr\n      swap1\n        /* \"#utility.yul\":13855:13867   */\n      dup3\n      and\n      dup1\n        /* \"#utility.yul\":13876:13937   */\n      tag_774\n      jumpi\n        /* \"#utility.yul\":13930:13934   */\n      0x7f\n        /* \"#utility.yul\":13922:13928   */\n      dup3\n        /* \"#utility.yul\":13918:13935   */\n      and\n        /* \"#utility.yul\":13908:13935   */\n      swap2\n      pop\n        /* \"#utility.yul\":13876:13937   */\n    tag_774:\n        /* \"#utility.yul\":13983:13985   */\n      0x20\n        /* \"#utility.yul\":13975:13981   */\n      dup3\n        /* \"#utility.yul\":13972:13986   */\n      lt\n        /* \"#utility.yul\":13952:13970   */\n      dup2\n        /* \"#utility.yul\":13949:13987   */\n      sub\n        /* \"#utility.yul\":13946:14107   */\n      tag_775\n      jumpi\n        /* \"#utility.yul\":14029:14039   */\n      0x4e487b71\n        /* \"#utility.yul\":14024:14027   */\n      0xe0\n        /* \"#utility.yul\":14020:14040   */\n      shl\n        /* \"#utility.yul\":14017:14018   */\n      0x00\n        /* \"#utility.yul\":14010:14041   */\n      mstore\n        /* \"#utility.yul\":14064:14068   */\n      0x22\n        /* \"#utility.yul\":14061:14062   */\n      0x04\n        /* \"#utility.yul\":14054:14069   */\n      mstore\n        /* \"#utility.yul\":14092:14096   */\n      0x24\n        /* \"#utility.yul\":14089:14090   */\n      0x00\n        /* \"#utility.yul\":14082:14097   */\n      revert\n        /* \"#utility.yul\":13946:14107   */\n    tag_775:\n      pop\n        /* \"#utility.yul\":13733:14113   */\n      swap2\n      swap1\n      pop\n      jump\t// out\n        /* \"#utility.yul\":14118:14330   */\n    tag_635:\n        /* \"#utility.yul\":14160:14163   */\n      0x00\n        /* \"#utility.yul\":14198:14203   */\n      dup2\n        /* \"#utility.yul\":14192:14204   */\n      mload\n        /* \"#utility.yul\":14242:14248   */\n      dup1\n        /* \"#utility.yul\":14235:14239   */\n      0x20\n        /* \"#utility.yul\":14228:14233   */\n      dup5\n        /* \"#utility.yul\":14224:14240   */\n      add\n        /* \"#utility.yul\":14219:14222   */\n      dup6\n        /* \"#utility.yul\":14213:14249   */\n      mcopy\n        /* \"#utility.yul\":14304:14305   */\n      0x00\n        /* \"#utility.yul\":14268:14284   */\n      swap4\n      add\n        /* \"#utility.yul\":14293:14306   */\n      swap3\n      dup4\n      mstore\n      pop\n        /* \"#utility.yul\":14268:14284   */\n      swap1\n      swap2\n        /* \"#utility.yul\":14118:14330   */\n      swap1\n      pop\n      jump\t// out\n        /* \"#utility.yul\":14335:14602   */\n    tag_210:\n        /* \"#utility.yul\":14514:14517   */\n      0x00\n        /* \"#utility.yul\":14539:14596   */\n      tag_414\n        /* \"#utility.yul\":14565:14595   */\n      tag_779\n        /* \"#utility.yul\":14591:14594   */\n      dup4\n        /* \"#utility.yul\":14583:14589   */\n      dup7\n        /* \"#utility.yul\":14565:14595   */\n      tag_635\n      jump\t// in\n    tag_779:\n        /* \"#utility.yul\":14557:14563   */\n      dup5\n        /* \"#utility.yul\":14539:14596   */\n      tag_635\n      jump\t// in\n        /* \"#utility.yul\":14607:14734   */\n    tag_223:\n        /* \"#utility.yul\":14668:14678   */\n      0x4e487b71\n        /* \"#utility.yul\":14663:14666   */\n      0xe0\n        /* \"#utility.yul\":14659:14679   */\n      shl\n        /* \"#utility.yul\":14656:14657   */\n      0x00\n        /* \"#utility.yul\":14649:14680   */\n      mstore\n        /* \"#utility.yul\":14699:14703   */\n      0x32\n        /* \"#utility.yul\":14696:14697   */\n      0x04\n        /* \"#utility.yul\":14689:14704   */\n      mstore\n        /* \"#utility.yul\":14723:14727   */\n      0x24\n        /* \"#utility.yul\":14720:14721   */\n      0x00\n        /* \"#utility.yul\":14713:14728   */\n      revert\n        /* \"#utility.yul\":14739:14866   */\n    tag_636:\n        /* \"#utility.yul\":14800:14810   */\n      0x4e487b71\n        /* \"#utility.yul\":14795:14798   */\n      0xe0\n        /* \"#utility.yul\":14791:14811   */\n      shl\n        /* \"#utility.yul\":14788:14789   */\n      0x00\n        /* \"#utility.yul\":14781:14812   */\n      mstore\n        /* \"#utility.yul\":14831:14835   */\n      0x11\n        /* \"#utility.yul\":14828:14829   */\n      0x04\n        /* \"#utility.yul\":14821:14836   */\n      mstore\n        /* \"#utility.yul\":14855:14859   */\n      0x24\n        /* \"#utility.yul\":14852:14853   */\n      0x00\n        /* \"#utility.yul\":14845:14860   */\n      revert\n        /* \"#utility.yul\":14871:15039   */\n    tag_228:\n        /* \"#utility.yul\":14944:14953   */\n      dup1\n      dup3\n      mul\n        /* \"#utility.yul\":14975:14984   */\n      dup2\n      iszero\n        /* \"#utility.yul\":14992:15007   */\n      dup3\n      dup3\n      div\n        /* \"#utility.yul\":14986:15008   */\n      dup5\n      eq\n        /* \"#utility.yul\":14972:15009   */\n      or\n        /* \"#utility.yul\":14962:15033   */\n      tag_197\n      jumpi\n        /* \"#utility.yul\":15013:15031   */\n      tag_197\n      tag_636\n      jump\t// in\n        /* \"#utility.yul\":15044:15171   */\n    tag_637:\n        /* \"#utility.yul\":15105:15115   */\n      0x4e487b71\n        /* \"#utility.yul\":15100:15103   */\n      0xe0\n        /* \"#utility.yul\":15096:15116   */\n      shl\n        /* \"#utility.yul\":15093:15094   */\n      0x00\n        /* \"#utility.yul\":15086:15117   */\n      mstore\n        /* \"#utility.yul\":15136:15140   */\n      0x12\n        /* \"#utility.yul\":15133:15134   */\n      0x04\n        /* \"#utility.yul\":15126:15141   */\n      mstore\n        /* \"#utility.yul\":15160:15164   */\n      0x24\n        /* \"#utility.yul\":15157:15158   */\n      0x00\n        /* \"#utility.yul\":15150:15165   */\n      revert\n        /* \"#utility.yul\":15176:15296   */\n    tag_230:\n        /* \"#utility.yul\":15216:15217   */\n      0x00\n        /* \"#utility.yul\":15242:15243   */\n      dup3\n        /* \"#utility.yul\":15232:15267   */\n      tag_788\n      jumpi\n        /* \"#utility.yul\":15247:15265   */\n      tag_788\n      tag_637\n      jump\t// in\n    tag_788:\n      pop\n        /* \"#utility.yul\":15281:15290   */\n      div\n      swap1\n        /* \"#utility.yul\":15176:15296   */\n      jump\t// out\n        /* \"#utility.yul\":17733:17858   */\n    tag_299:\n        /* \"#utility.yul\":17798:17807   */\n      dup1\n      dup3\n      add\n        /* \"#utility.yul\":17819:17829   */\n      dup1\n      dup3\n      gt\n        /* \"#utility.yul\":17816:17852   */\n      iszero\n      tag_197\n      jumpi\n        /* \"#utility.yul\":17832:17850   */\n      tag_197\n      tag_636\n      jump\t// in\n        /* \"#utility.yul\":18206:18727   */\n    tag_339:\n        /* \"#utility.yul\":18283:18287   */\n      0x00\n        /* \"#utility.yul\":18289:18295   */\n      dup1\n        /* \"#utility.yul\":18349:18360   */\n      dup4\n        /* \"#utility.yul\":18336:18361   */\n      calldataload\n        /* \"#utility.yul\":18443:18445   */\n      0x1e\n        /* \"#utility.yul\":18439:18446   */\n      not\n        /* \"#utility.yul\":18428:18436   */\n      dup5\n        /* \"#utility.yul\":18412:18426   */\n      calldatasize\n        /* \"#utility.yul\":18408:18437   */\n      sub\n        /* \"#utility.yul\":18404:18447   */\n      add\n        /* \"#utility.yul\":18384:18402   */\n      dup2\n        /* \"#utility.yul\":18380:18448   */\n      slt\n        /* \"#utility.yul\":18370:18466   */\n      tag_801\n      jumpi\n        /* \"#utility.yul\":18462:18463   */\n      0x00\n        /* \"#utility.yul\":18459:18460   */\n      dup1\n        /* \"#utility.yul\":18452:18464   */\n      revert\n        /* \"#utility.yul\":18370:18466   */\n    tag_801:\n        /* \"#utility.yul\":18489:18522   */\n      dup4\n      add\n        /* \"#utility.yul\":18541:18561   */\n      dup1\n      calldataload\n      swap2\n      pop\n        /* \"#utility.yul\":18584:18602   */\n      0xffffffffffffffff\n        /* \"#utility.yul\":18573:18603   */\n      dup3\n      gt\n        /* \"#utility.yul\":18570:18620   */\n      iszero\n      tag_802\n      jumpi\n        /* \"#utility.yul\":18616:18617   */\n      0x00\n        /* \"#utility.yul\":18613:18614   */\n      dup1\n        /* \"#utility.yul\":18606:18618   */\n      revert\n        /* \"#utility.yul\":18570:18620   */\n    tag_802:\n        /* \"#utility.yul\":18649:18653   */\n      0x20\n        /* \"#utility.yul\":18637:18654   */\n      add\n      swap2\n      pop\n        /* \"#utility.yul\":18680:18694   */\n      calldatasize\n        /* \"#utility.yul\":18676:18703   */\n      dup2\n      swap1\n      sub\n        /* \"#utility.yul\":18666:18704   */\n      dup3\n      sgt\n        /* \"#utility.yul\":18663:18721   */\n      iszero\n      tag_756\n      jumpi\n        /* \"#utility.yul\":18717:18718   */\n      0x00\n        /* \"#utility.yul\":18714:18715   */\n      dup1\n        /* \"#utility.yul\":18707:18719   */\n      revert\n        /* \"#utility.yul\":18732:19092   */\n    tag_341:\n        /* \"#utility.yul\":18943:18949   */\n      dup3\n        /* \"#utility.yul\":18935:18941   */\n      dup5\n        /* \"#utility.yul\":18930:18933   */\n      dup3\n        /* \"#utility.yul\":18917:18950   */\n      calldatacopy\n        /* \"#utility.yul\":19013:19015   */\n      0x60\n        /* \"#utility.yul\":19009:19024   */\n      swap2\n      swap1\n      swap2\n      shl\n      not(0xffffffffffffffffffffffff)\n        /* \"#utility.yul\":19005:19058   */\n      and\n        /* \"#utility.yul\":18969:18985   */\n      swap2\n      add\n        /* \"#utility.yul\":18994:19059   */\n      swap1\n      dup2\n      mstore\n        /* \"#utility.yul\":19083:19085   */\n      0x14\n        /* \"#utility.yul\":19075:19086   */\n      add\n      swap2\n        /* \"#utility.yul\":18732:19092   */\n      swap1\n      pop\n      jump\t// out\n        /* \"#utility.yul\":19097:19225   */\n    tag_362:\n        /* \"#utility.yul\":19164:19173   */\n      dup2\n      dup2\n      sub\n        /* \"#utility.yul\":19185:19196   */\n      dup2\n      dup2\n      gt\n        /* \"#utility.yul\":19182:19219   */\n      iszero\n      tag_197\n      jumpi\n        /* \"#utility.yul\":19199:19217   */\n      tag_197\n      tag_636\n      jump\t// in\n        /* \"#utility.yul\":19230:19497   */\n    tag_638:\n        /* \"#utility.yul\":19319:19325   */\n      dup2\n        /* \"#utility.yul\":19314:19317   */\n      dup4\n        /* \"#utility.yul\":19307:19326   */\n      mstore\n        /* \"#utility.yul\":19371:19377   */\n      dup2\n        /* \"#utility.yul\":19364:19369   */\n      dup2\n        /* \"#utility.yul\":19357:19361   */\n      0x20\n        /* \"#utility.yul\":19352:19355   */\n      dup6\n        /* \"#utility.yul\":19348:19362   */\n      add\n        /* \"#utility.yul\":19335:19378   */\n      calldatacopy\n      pop\n        /* \"#utility.yul\":19423:19424   */\n      0x00\n        /* \"#utility.yul\":19398:19414   */\n      dup3\n      dup3\n      add\n        /* \"#utility.yul\":19416:19420   */\n      0x20\n        /* \"#utility.yul\":19394:19421   */\n      swap1\n      dup2\n      add\n        /* \"#utility.yul\":19387:19425   */\n      swap2\n      swap1\n      swap2\n      mstore\n        /* \"#utility.yul\":19479:19481   */\n      0x1f\n        /* \"#utility.yul\":19458:19473   */\n      swap1\n      swap2\n      add\n      not(0x1f)\n        /* \"#utility.yul\":19454:19483   */\n      and\n        /* \"#utility.yul\":19445:19484   */\n      swap1\n      swap2\n      add\n        /* \"#utility.yul\":19441:19491   */\n      add\n      swap1\n        /* \"#utility.yul\":19230:19497   */\n      jump\t// out\n        /* \"#utility.yul\":19502:20008   */\n    tag_364:\n        /* \"#utility.yul\":19745:19751   */\n      dup6\n        /* \"#utility.yul\":19734:19743   */\n      dup2\n        /* \"#utility.yul\":19727:19752   */\n      mstore\n        /* \"#utility.yul\":19788:19790   */\n      0x60\n        /* \"#utility.yul\":19783:19785   */\n      0x20\n        /* \"#utility.yul\":19772:19781   */\n      dup3\n        /* \"#utility.yul\":19768:19786   */\n      add\n        /* \"#utility.yul\":19761:19791   */\n      mstore\n        /* \"#utility.yul\":19708:19712   */\n      0x00\n        /* \"#utility.yul\":19814:19876   */\n      tag_810\n        /* \"#utility.yul\":19872:19874   */\n      0x60\n        /* \"#utility.yul\":19861:19870   */\n      dup4\n        /* \"#utility.yul\":19857:19875   */\n      add\n        /* \"#utility.yul\":19849:19855   */\n      dup7\n        /* \"#utility.yul\":19841:19847   */\n      dup9\n        /* \"#utility.yul\":19814:19876   */\n      tag_638\n      jump\t// in\n    tag_810:\n        /* \"#utility.yul\":19924:19933   */\n      dup3\n        /* \"#utility.yul\":19916:19922   */\n      dup2\n        /* \"#utility.yul\":19912:19934   */\n      sub\n        /* \"#utility.yul\":19907:19909   */\n      0x40\n        /* \"#utility.yul\":19896:19905   */\n      dup5\n        /* \"#utility.yul\":19892:19910   */\n      add\n        /* \"#utility.yul\":19885:19935   */\n      mstore\n        /* \"#utility.yul\":19952:20002   */\n      tag_811\n        /* \"#utility.yul\":19995:20001   */\n      dup2\n        /* \"#utility.yul\":19987:19993   */\n      dup6\n        /* \"#utility.yul\":19979:19985   */\n      dup8\n        /* \"#utility.yul\":19952:20002   */\n      tag_638\n      jump\t// in\n    tag_811:\n        /* \"#utility.yul\":19944:20002   */\n      swap9\n        /* \"#utility.yul\":19502:20008   */\n      swap8\n      pop\n      pop\n      pop\n      pop\n      pop\n      pop\n      pop\n      pop\n      jump\t// out\n        /* \"#utility.yul\":20013:20148   */\n    tag_408:\n        /* \"#utility.yul\":20052:20055   */\n      0x00\n        /* \"#utility.yul\":20073:20090   */\n      0x01\n      dup3\n      add\n        /* \"#utility.yul\":20070:20113   */\n      tag_814\n      jumpi\n        /* \"#utility.yul\":20093:20111   */\n      tag_814\n      tag_636\n      jump\t// in\n    tag_814:\n      pop\n        /* \"#utility.yul\":20140:20141   */\n      0x01\n        /* \"#utility.yul\":20129:20142   */\n      add\n      swap1\n        /* \"#utility.yul\":20013:20148   */\n      jump\t// out\n        /* \"#utility.yul\":20153:20265   */\n    tag_417:\n        /* \"#utility.yul\":20185:20186   */\n      0x00\n        /* \"#utility.yul\":20211:20212   */\n      dup3\n        /* \"#utility.yul\":20201:20236   */\n      tag_817\n      jumpi\n        /* \"#utility.yul\":20216:20234   */\n      tag_817\n      tag_637\n      jump\t// in\n    tag_817:\n      pop\n        /* \"#utility.yul\":20250:20259   */\n      mod\n      swap1\n        /* \"#utility.yul\":20153:20265   */\n      jump\t// out\n        /* \"#utility.yul\":20956:21421   */\n    tag_448:\n        /* \"#utility.yul\":21213:21215   */\n      0x40\n        /* \"#utility.yul\":21202:21211   */\n      dup2\n        /* \"#utility.yul\":21195:21216   */\n      mstore\n        /* \"#utility.yul\":21176:21180   */\n      0x00\n        /* \"#utility.yul\":21239:21295   */\n      tag_821\n        /* \"#utility.yul\":21291:21293   */\n      0x40\n        /* \"#utility.yul\":21280:21289   */\n      dup4\n        /* \"#utility.yul\":21276:21294   */\n      add\n        /* \"#utility.yul\":21268:21274   */\n      dup6\n        /* \"#utility.yul\":21239:21295   */\n      tag_633\n      jump\t// in\n    tag_821:\n        /* \"#utility.yul\":21343:21352   */\n      dup3\n        /* \"#utility.yul\":21335:21341   */\n      dup2\n        /* \"#utility.yul\":21331:21353   */\n      sub\n        /* \"#utility.yul\":21326:21328   */\n      0x20\n        /* \"#utility.yul\":21315:21324   */\n      dup5\n        /* \"#utility.yul\":21311:21329   */\n      add\n        /* \"#utility.yul\":21304:21354   */\n      mstore\n        /* \"#utility.yul\":21371:21415   */\n      tag_822\n        /* \"#utility.yul\":21408:21414   */\n      dup2\n        /* \"#utility.yul\":21400:21406   */\n      dup6\n        /* \"#utility.yul\":21371:21415   */\n      tag_633\n      jump\t// in\n    tag_822:\n        /* \"#utility.yul\":21363:21415   */\n      swap6\n        /* \"#utility.yul\":20956:21421   */\n      swap5\n      pop\n      pop\n      pop\n      pop\n      pop\n      jump\t// out\n        /* \"#utility.yul\":22160:22678   */\n    tag_640:\n        /* \"#utility.yul\":22262:22264   */\n      0x1f\n        /* \"#utility.yul\":22257:22260   */\n      dup3\n        /* \"#utility.yul\":22254:22265   */\n      gt\n        /* \"#utility.yul\":22251:22672   */\n      iszero\n      tag_96\n      jumpi\n        /* \"#utility.yul\":22298:22303   */\n      dup1\n        /* \"#utility.yul\":22295:22296   */\n      0x00\n        /* \"#utility.yul\":22288:22304   */\n      mstore\n        /* \"#utility.yul\":22342:22346   */\n      0x20\n        /* \"#utility.yul\":22339:22340   */\n      0x00\n        /* \"#utility.yul\":22329:22347   */\n      keccak256\n        /* \"#utility.yul\":22412:22414   */\n      0x1f\n        /* \"#utility.yul\":22400:22410   */\n      dup5\n        /* \"#utility.yul\":22396:22415   */\n      add\n        /* \"#utility.yul\":22393:22394   */\n      0x05\n        /* \"#utility.yul\":22389:22416   */\n      shr\n        /* \"#utility.yul\":22383:22387   */\n      dup2\n        /* \"#utility.yul\":22379:22417   */\n      add\n        /* \"#utility.yul\":22448:22452   */\n      0x20\n        /* \"#utility.yul\":22436:22446   */\n      dup6\n        /* \"#utility.yul\":22433:22453   */\n      lt\n        /* \"#utility.yul\":22430:22477   */\n      iszero\n      tag_828\n      jumpi\n      pop\n        /* \"#utility.yul\":22471:22475   */\n      dup1\n        /* \"#utility.yul\":22430:22477   */\n    tag_828:\n        /* \"#utility.yul\":22526:22528   */\n      0x1f\n        /* \"#utility.yul\":22521:22524   */\n      dup5\n        /* \"#utility.yul\":22517:22529   */\n      add\n        /* \"#utility.yul\":22514:22515   */\n      0x05\n        /* \"#utility.yul\":22510:22530   */\n      shr\n        /* \"#utility.yul\":22504:22508   */\n      dup3\n        /* \"#utility.yul\":22500:22531   */\n      add\n        /* \"#utility.yul\":22490:22531   */\n      swap2\n      pop\n        /* \"#utility.yul\":22581:22662   */\n    tag_829:\n        /* \"#utility.yul\":22599:22601   */\n      dup2\n        /* \"#utility.yul\":22592:22597   */\n      dup2\n        /* \"#utility.yul\":22589:22602   */\n      lt\n        /* \"#utility.yul\":22581:22662   */\n      iszero\n      tag_249\n      jumpi\n        /* \"#utility.yul\":22658:22659   */\n      0x00\n        /* \"#utility.yul\":22644:22660   */\n      dup2\n      sstore\n        /* \"#utility.yul\":22625:22626   */\n      0x01\n        /* \"#utility.yul\":22614:22627   */\n      add\n        /* \"#utility.yul\":22581:22662   */\n      jump(tag_829)\n        /* \"#utility.yul\":22854:24199   */\n    tag_484:\n        /* \"#utility.yul\":22980:22983   */\n      dup2\n        /* \"#utility.yul\":22974:22984   */\n      mload\n        /* \"#utility.yul\":23007:23025   */\n      0xffffffffffffffff\n        /* \"#utility.yul\":22999:23005   */\n      dup2\n        /* \"#utility.yul\":22996:23026   */\n      gt\n        /* \"#utility.yul\":22993:23049   */\n      iszero\n      tag_835\n      jumpi\n        /* \"#utility.yul\":23029:23047   */\n      tag_835\n      tag_262\n      jump\t// in\n    tag_835:\n        /* \"#utility.yul\":23058:23155   */\n      tag_836\n        /* \"#utility.yul\":23148:23154   */\n      dup2\n        /* \"#utility.yul\":23108:23146   */\n      tag_837\n        /* \"#utility.yul\":23140:23144   */\n      dup5\n        /* \"#utility.yul\":23134:23145   */\n      sload\n        /* \"#utility.yul\":23108:23146   */\n      tag_199\n      jump\t// in\n    tag_837:\n        /* \"#utility.yul\":23102:23106   */\n      dup5\n        /* \"#utility.yul\":23058:23155   */\n      tag_640\n      jump\t// in\n    tag_836:\n        /* \"#utility.yul\":23210:23214   */\n      0x20\n      dup1\n        /* \"#utility.yul\":23267:23269   */\n      0x1f\n        /* \"#utility.yul\":23256:23270   */\n      dup4\n      gt\n        /* \"#utility.yul\":23284:23285   */\n      0x01\n        /* \"#utility.yul\":23279:23942   */\n      dup2\n      eq\n      tag_839\n      jumpi\n        /* \"#utility.yul\":23986:23987   */\n      0x00\n        /* \"#utility.yul\":24003:24009   */\n      dup5\n        /* \"#utility.yul\":24000:24089   */\n      iszero\n      tag_840\n      jumpi\n      pop\n        /* \"#utility.yul\":24055:24074   */\n      dup6\n      dup4\n      add\n        /* \"#utility.yul\":24049:24075   */\n      mload\n        /* \"#utility.yul\":24000:24089   */\n    tag_840:\n      not(0x00)\n        /* \"#utility.yul\":22811:22812   */\n      0x03\n        /* \"#utility.yul\":22807:22818   */\n      dup7\n      swap1\n      shl\n        /* \"#utility.yul\":22803:22827   */\n      shr\n        /* \"#utility.yul\":22799:22828   */\n      not\n        /* \"#utility.yul\":22789:22829   */\n      and\n        /* \"#utility.yul\":22835:22836   */\n      0x01\n        /* \"#utility.yul\":22831:22842   */\n      dup6\n      swap1\n      shl\n        /* \"#utility.yul\":22786:22843   */\n      or\n        /* \"#utility.yul\":24102:24183   */\n      dup6\n      sstore\n        /* \"#utility.yul\":23249:24193   */\n      jump(tag_449)\n        /* \"#utility.yul\":23279:23942   */\n    tag_839:\n        /* \"#utility.yul\":22107:22108   */\n      0x00\n        /* \"#utility.yul\":22100:22114   */\n      dup6\n      dup2\n      mstore\n        /* \"#utility.yul\":22144:22148   */\n      0x20\n        /* \"#utility.yul\":22131:22149   */\n      dup2\n      keccak256\n      not(0x1f)\n        /* \"#utility.yul\":23315:23335   */\n      dup7\n      and\n      swap2\n        /* \"#utility.yul\":23433:23669   */\n    tag_843:\n        /* \"#utility.yul\":23447:23454   */\n      dup3\n        /* \"#utility.yul\":23444:23445   */\n      dup2\n        /* \"#utility.yul\":23441:23455   */\n      lt\n        /* \"#utility.yul\":23433:23669   */\n      iszero\n      tag_845\n      jumpi\n        /* \"#utility.yul\":23536:23555   */\n      dup9\n      dup7\n      add\n        /* \"#utility.yul\":23530:23556   */\n      mload\n        /* \"#utility.yul\":23515:23557   */\n      dup3\n      sstore\n        /* \"#utility.yul\":23628:23655   */\n      swap5\n      dup5\n      add\n      swap5\n        /* \"#utility.yul\":23596:23597   */\n      0x01\n        /* \"#utility.yul\":23584:23598   */\n      swap1\n      swap2\n      add\n      swap1\n        /* \"#utility.yul\":23463:23482   */\n      dup5\n      add\n        /* \"#utility.yul\":23433:23669   */\n      jump(tag_843)\n    tag_845:\n        /* \"#utility.yul\":23437:23440   */\n      pop\n        /* \"#utility.yul\":23697:23703   */\n      dup6\n        /* \"#utility.yul\":23688:23695   */\n      dup3\n        /* \"#utility.yul\":23685:23704   */\n      lt\n        /* \"#utility.yul\":23682:23883   */\n      iszero\n      tag_846\n      jumpi\n        /* \"#utility.yul\":23758:23777   */\n      dup8\n      dup6\n      add\n        /* \"#utility.yul\":23752:23778   */\n      mload\n      not(0x00)\n        /* \"#utility.yul\":23841:23842   */\n      0x03\n        /* \"#utility.yul\":23837:23851   */\n      dup9\n      swap1\n      shl\n        /* \"#utility.yul\":23853:23856   */\n      0xf8\n        /* \"#utility.yul\":23833:23857   */\n      and\n        /* \"#utility.yul\":23829:23866   */\n      shr\n        /* \"#utility.yul\":23825:23867   */\n      not\n        /* \"#utility.yul\":23810:23868   */\n      and\n        /* \"#utility.yul\":23795:23869   */\n      dup2\n      sstore\n        /* \"#utility.yul\":23682:23883   */\n    tag_846:\n      pop\n      pop\n      pop\n      pop\n      pop\n        /* \"#utility.yul\":23929:23930   */\n      0x01\n        /* \"#utility.yul\":23913:23927   */\n      swap1\n      dup2\n      shl\n        /* \"#utility.yul\":23909:23931   */\n      add\n        /* \"#utility.yul\":23896:23932   */\n      swap1\n      sstore\n      pop\n        /* \"#utility.yul\":22854:24199   */\n      jump\t// out\n        /* \"#utility.yul\":24204:24609   */\n    tag_486:\n        /* \"#utility.yul\":24401:24403   */\n      0x40\n        /* \"#utility.yul\":24390:24399   */\n      dup2\n        /* \"#utility.yul\":24383:24404   */\n      mstore\n        /* \"#utility.yul\":24364:24368   */\n      0x00\n        /* \"#utility.yul\":24427:24483   */\n      tag_848\n        /* \"#utility.yul\":24479:24481   */\n      0x40\n        /* \"#utility.yul\":24468:24477   */\n      dup4\n        /* \"#utility.yul\":24464:24482   */\n      add\n        /* \"#utility.yul\":24456:24462   */\n      dup6\n        /* \"#utility.yul\":24427:24483   */\n      tag_627\n      jump\t// in\n    tag_848:\n        /* \"#utility.yul\":24531:24540   */\n      dup3\n        /* \"#utility.yul\":24523:24529   */\n      dup2\n        /* \"#utility.yul\":24519:24541   */\n      sub\n        /* \"#utility.yul\":24514:24516   */\n      0x20\n        /* \"#utility.yul\":24503:24512   */\n      dup5\n        /* \"#utility.yul\":24499:24517   */\n      add\n        /* \"#utility.yul\":24492:24542   */\n      mstore\n        /* \"#utility.yul\":24559:24603   */\n      tag_822\n        /* \"#utility.yul\":24596:24602   */\n      dup2\n        /* \"#utility.yul\":24588:24594   */\n      dup6\n        /* \"#utility.yul\":24559:24603   */\n      tag_627\n      jump\t// in\n        /* \"#utility.yul\":24867:25728   */\n    tag_556:\n        /* \"#utility.yul\":25189:25193   */\n      0x00\n      sub(shl(0xa0, 0x01), 0x01)\n        /* \"#utility.yul\":25299:25301   */\n      dup1\n        /* \"#utility.yul\":25291:25297   */\n      dup9\n        /* \"#utility.yul\":25287:25302   */\n      and\n        /* \"#utility.yul\":25276:25285   */\n      dup4\n        /* \"#utility.yul\":25269:25303   */\n      mstore\n        /* \"#utility.yul\":25351:25353   */\n      dup1\n        /* \"#utility.yul\":25343:25349   */\n      dup8\n        /* \"#utility.yul\":25339:25354   */\n      and\n        /* \"#utility.yul\":25334:25336   */\n      0x20\n        /* \"#utility.yul\":25323:25332   */\n      dup5\n        /* \"#utility.yul\":25319:25337   */\n      add\n        /* \"#utility.yul\":25312:25355   */\n      mstore\n      pop\n        /* \"#utility.yul\":25391:25394   */\n      0xa0\n        /* \"#utility.yul\":25386:25388   */\n      0x40\n        /* \"#utility.yul\":25375:25384   */\n      dup4\n        /* \"#utility.yul\":25371:25389   */\n      add\n        /* \"#utility.yul\":25364:25395   */\n      mstore\n        /* \"#utility.yul\":25418:25475   */\n      tag_852\n        /* \"#utility.yul\":25470:25473   */\n      0xa0\n        /* \"#utility.yul\":25459:25468   */\n      dup4\n        /* \"#utility.yul\":25455:25474   */\n      add\n        /* \"#utility.yul\":25447:25453   */\n      dup7\n        /* \"#utility.yul\":25418:25475   */\n      tag_633\n      jump\t// in\n    tag_852:\n        /* \"#utility.yul\":25523:25532   */\n      dup3\n        /* \"#utility.yul\":25515:25521   */\n      dup2\n        /* \"#utility.yul\":25511:25533   */\n      sub\n        /* \"#utility.yul\":25506:25508   */\n      0x60\n        /* \"#utility.yul\":25495:25504   */\n      dup5\n        /* \"#utility.yul\":25491:25509   */\n      add\n        /* \"#utility.yul\":25484:25534   */\n      mstore\n        /* \"#utility.yul\":25557:25601   */\n      tag_853\n        /* \"#utility.yul\":25594:25600   */\n      dup2\n        /* \"#utility.yul\":25586:25592   */\n      dup7\n        /* \"#utility.yul\":25557:25601   */\n      tag_633\n      jump\t// in\n    tag_853:\n        /* \"#utility.yul\":25543:25601   */\n      swap1\n      pop\n        /* \"#utility.yul\":25650:25659   */\n      dup3\n        /* \"#utility.yul\":25642:25648   */\n      dup2\n        /* \"#utility.yul\":25638:25660   */\n      sub\n        /* \"#utility.yul\":25632:25635   */\n      0x80\n        /* \"#utility.yul\":25621:25630   */\n      dup5\n        /* \"#utility.yul\":25617:25636   */\n      add\n        /* \"#utility.yul\":25610:25661   */\n      mstore\n        /* \"#utility.yul\":25678:25722   */\n      tag_811\n        /* \"#utility.yul\":25715:25721   */\n      dup2\n        /* \"#utility.yul\":25707:25713   */\n      dup6\n        /* \"#utility.yul\":25678:25722   */\n      tag_627\n      jump\t// in\n        /* \"#utility.yul\":25733:25982   */\n    tag_559:\n        /* \"#utility.yul\":25802:25808   */\n      0x00\n        /* \"#utility.yul\":25855:25857   */\n      0x20\n        /* \"#utility.yul\":25843:25852   */\n      dup3\n        /* \"#utility.yul\":25834:25841   */\n      dup5\n        /* \"#utility.yul\":25830:25853   */\n      sub\n        /* \"#utility.yul\":25826:25858   */\n      slt\n        /* \"#utility.yul\":25823:25875   */\n      iszero\n      tag_856\n      jumpi\n        /* \"#utility.yul\":25871:25872   */\n      0x00\n        /* \"#utility.yul\":25868:25869   */\n      dup1\n        /* \"#utility.yul\":25861:25873   */\n      revert\n        /* \"#utility.yul\":25823:25875   */\n    tag_856:\n        /* \"#utility.yul\":25903:25912   */\n      dup2\n        /* \"#utility.yul\":25897:25913   */\n      mload\n        /* \"#utility.yul\":25922:25952   */\n      tag_493\n        /* \"#utility.yul\":25946:25951   */\n      dup2\n        /* \"#utility.yul\":25922:25952   */\n      tag_626\n      jump\t// in\n        /* \"#utility.yul\":25987:26166   */\n    tag_565:\n        /* \"#utility.yul\":26022:26025   */\n      0x00\n        /* \"#utility.yul\":26064:26065   */\n      0x03\n        /* \"#utility.yul\":26046:26062   */\n      returndatasize\n        /* \"#utility.yul\":26043:26066   */\n      gt\n        /* \"#utility.yul\":26040:26160   */\n      iszero\n      tag_859\n      jumpi\n        /* \"#utility.yul\":26110:26111   */\n      0x04\n        /* \"#utility.yul\":26107:26108   */\n      0x00\n        /* \"#utility.yul\":26104:26105   */\n      dup1\n        /* \"#utility.yul\":26089:26112   */\n      returndatacopy\n      pop\n        /* \"#utility.yul\":26147:26148   */\n      0x00\n        /* \"#utility.yul\":26141:26149   */\n      mload\n        /* \"#utility.yul\":26136:26139   */\n      0xe0\n        /* \"#utility.yul\":26132:26150   */\n      shr\n        /* \"#utility.yul\":26040:26160   */\n    tag_859:\n        /* \"#utility.yul\":25987:26166   */\n      swap1\n      jump\t// out\n        /* \"#utility.yul\":26171:26842   */\n    tag_567:\n        /* \"#utility.yul\":26210:26213   */\n      0x00\n        /* \"#utility.yul\":26252:26256   */\n      0x44\n        /* \"#utility.yul\":26234:26250   */\n      returndatasize\n        /* \"#utility.yul\":26231:26257   */\n      lt\n        /* \"#utility.yul\":26228:26267   */\n      iszero\n      tag_861\n      jumpi\n        /* \"#utility.yul\":26171:26842   */\n      swap1\n      jump\t// out\n        /* \"#utility.yul\":26228:26267   */\n    tag_861:\n        /* \"#utility.yul\":26294:26296   */\n      0x40\n        /* \"#utility.yul\":26288:26297   */\n      mload\n      not(0x03)\n        /* \"#utility.yul\":26359:26375   */\n      returndatasize\n        /* \"#utility.yul\":26355:26380   */\n      dup2\n      add\n        /* \"#utility.yul\":26352:26353   */\n      0x04\n        /* \"#utility.yul\":26288:26297   */\n      dup4\n        /* \"#utility.yul\":26331:26381   */\n      returndatacopy\n        /* \"#utility.yul\":26410:26414   */\n      dup2\n        /* \"#utility.yul\":26404:26415   */\n      mload\n        /* \"#utility.yul\":26434:26450   */\n      returndatasize\n        /* \"#utility.yul\":26469:26487   */\n      0xffffffffffffffff\n        /* \"#utility.yul\":26540:26542   */\n      dup2\n        /* \"#utility.yul\":26533:26537   */\n      0x24\n        /* \"#utility.yul\":26525:26531   */\n      dup5\n        /* \"#utility.yul\":26521:26538   */\n      add\n        /* \"#utility.yul\":26518:26543   */\n      gt\n        /* \"#utility.yul\":26513:26515   */\n      dup2\n        /* \"#utility.yul\":26505:26511   */\n      dup5\n        /* \"#utility.yul\":26502:26516   */\n      gt\n        /* \"#utility.yul\":26499:26544   */\n      or\n        /* \"#utility.yul\":26496:26554   */\n      iszero\n      tag_862\n      jumpi\n        /* \"#utility.yul\":26547:26552   */\n      pop\n      pop\n      pop\n      pop\n      pop\n        /* \"#utility.yul\":26171:26842   */\n      swap1\n      jump\t// out\n        /* \"#utility.yul\":26496:26554   */\n    tag_862:\n        /* \"#utility.yul\":26584:26590   */\n      dup3\n        /* \"#utility.yul\":26578:26582   */\n      dup6\n        /* \"#utility.yul\":26574:26591   */\n      add\n        /* \"#utility.yul\":26563:26591   */\n      swap2\n      pop\n        /* \"#utility.yul\":26620:26623   */\n      dup2\n        /* \"#utility.yul\":26614:26624   */\n      mload\n        /* \"#utility.yul\":26647:26649   */\n      dup2\n        /* \"#utility.yul\":26639:26645   */\n      dup2\n        /* \"#utility.yul\":26636:26650   */\n      gt\n        /* \"#utility.yul\":26633:26660   */\n      iszero\n      tag_863\n      jumpi\n        /* \"#utility.yul\":26653:26658   */\n      pop\n      pop\n      pop\n      pop\n      pop\n      pop\n        /* \"#utility.yul\":26171:26842   */\n      swap1\n      jump\t// out\n        /* \"#utility.yul\":26633:26660   */\n    tag_863:\n        /* \"#utility.yul\":26737:26739   */\n      dup5\n        /* \"#utility.yul\":26718:26734   */\n      returndatasize\n        /* \"#utility.yul\":26712:26716   */\n      dup8\n        /* \"#utility.yul\":26708:26735   */\n      add\n        /* \"#utility.yul\":26704:26740   */\n      add\n        /* \"#utility.yul\":26697:26701   */\n      0x20\n        /* \"#utility.yul\":26688:26694   */\n      dup3\n        /* \"#utility.yul\":26683:26686   */\n      dup6\n        /* \"#utility.yul\":26679:26695   */\n      add\n        /* \"#utility.yul\":26675:26702   */\n      add\n        /* \"#utility.yul\":26672:26741   */\n      gt\n        /* \"#utility.yul\":26669:26751   */\n      iszero\n      tag_864\n      jumpi\n        /* \"#utility.yul\":26744:26749   */\n      pop\n      pop\n      pop\n      pop\n      pop\n      pop\n        /* \"#utility.yul\":26171:26842   */\n      swap1\n      jump\t// out\n        /* \"#utility.yul\":26669:26751   */\n    tag_864:\n        /* \"#utility.yul\":26760:26817   */\n      tag_865\n        /* \"#utility.yul\":26811:26815   */\n      0x20\n        /* \"#utility.yul\":26802:26808   */\n      dup3\n        /* \"#utility.yul\":26794:26800   */\n      dup7\n        /* \"#utility.yul\":26790:26809   */\n      add\n        /* \"#utility.yul\":26786:26816   */\n      add\n        /* \"#utility.yul\":26780:26784   */\n      dup8\n        /* \"#utility.yul\":26760:26817   */\n      tag_628\n      jump\t// in\n    tag_865:\n      pop\n        /* \"#utility.yul\":26833:26836   */\n      swap1\n      swap6\n        /* \"#utility.yul\":26171:26842   */\n      swap5\n      pop\n      pop\n      pop\n      pop\n      pop\n      jump\t// out\n        /* \"#utility.yul\":27536:27726   */\n    tag_578:\n        /* \"#utility.yul\":27665:27668   */\n      0x00\n        /* \"#utility.yul\":27690:27720   */\n      tag_493\n        /* \"#utility.yul\":27716:27719   */\n      dup3\n        /* \"#utility.yul\":27708:27714   */\n      dup5\n        /* \"#utility.yul\":27690:27720   */\n      tag_635\n      jump\t// in\n        /* \"#utility.yul\":27731:28326   */\n    tag_593:\n        /* \"#utility.yul\":27953:27957   */\n      0x00\n      sub(shl(0xa0, 0x01), 0x01)\n        /* \"#utility.yul\":28063:28065   */\n      dup1\n        /* \"#utility.yul\":28055:28061   */\n      dup9\n        /* \"#utility.yul\":28051:28066   */\n      and\n        /* \"#utility.yul\":28040:28049   */\n      dup4\n        /* \"#utility.yul\":28033:28067   */\n      mstore\n        /* \"#utility.yul\":28115:28117   */\n      dup1\n        /* \"#utility.yul\":28107:28113   */\n      dup8\n        /* \"#utility.yul\":28103:28118   */\n      and\n        /* \"#utility.yul\":28098:28100   */\n      0x20\n        /* \"#utility.yul\":28087:28096   */\n      dup5\n        /* \"#utility.yul\":28083:28101   */\n      add\n        /* \"#utility.yul\":28076:28119   */\n      mstore\n      pop\n        /* \"#utility.yul\":28155:28161   */\n      dup5\n        /* \"#utility.yul\":28150:28152   */\n      0x40\n        /* \"#utility.yul\":28139:28148   */\n      dup4\n        /* \"#utility.yul\":28135:28153   */\n      add\n        /* \"#utility.yul\":28128:28162   */\n      mstore\n        /* \"#utility.yul\":28198:28204   */\n      dup4\n        /* \"#utility.yul\":28193:28195   */\n      0x60\n        /* \"#utility.yul\":28182:28191   */\n      dup4\n        /* \"#utility.yul\":28178:28196   */\n      add\n        /* \"#utility.yul\":28171:28205   */\n      mstore\n        /* \"#utility.yul\":28242:28245   */\n      0xa0\n        /* \"#utility.yul\":28236:28239   */\n      0x80\n        /* \"#utility.yul\":28225:28234   */\n      dup4\n        /* \"#utility.yul\":28221:28240   */\n      add\n        /* \"#utility.yul\":28214:28246   */\n      mstore\n        /* \"#utility.yul\":28263:28320   */\n      tag_871\n        /* \"#utility.yul\":28315:28318   */\n      0xa0\n        /* \"#utility.yul\":28304:28313   */\n      dup4\n        /* \"#utility.yul\":28300:28319   */\n      add\n        /* \"#utility.yul\":28292:28298   */\n      dup5\n        /* \"#utility.yul\":28263:28320   */\n      tag_627\n      jump\t// in\n    tag_871:\n        /* \"#utility.yul\":28255:28320   */\n      swap8\n        /* \"#utility.yul\":27731:28326   */\n      swap7\n      pop\n      pop\n      pop\n      pop\n      pop\n      pop\n      pop\n      jump\t// out\n    stop\n    data_9fdcd12e4b726339b32a442b0a448365d5d85c96b2d2cff917b4f66c63110398 416464726573733a206c6f772d6c6576656c2064656c65676174652063616c6c206661696c6564\n\n    auxdata: 0xa2646970667358221220f8535e9751b05b93bc68de4e5d9f245876aa0886f4c612e4c863aaf57a7cc92864736f6c63430008190033\n}\n",
    "bytecode": {
      "linkReferences": {},
      "object": "608060405234801561000f575f80fd5b506040516134aa3803806134aa83398101604081905261002e9161021c565b848484848483835f6100408382610340565b50600161004d8282610340565b50506001600d555061005e85610080565b610071826001600160801b0383166100d1565b505050505050505050506103ff565b600680546001600160a01b038381166001600160a01b0319831681179093556040519116919082907f8292fce18fa69edf4db7b94ea2e58241df0ae57f97e0a6c9b29067028bf92d76905f90a35050565b61271081111561010357604051630a4930ad60e31b815261271060048201526024810182905260440160405180910390fd5b600780546001600160a01b0384166001600160b01b03199091168117600160a01b61ffff851602179091556040518281527f90d7ec04bcb8978719414f82e52e4cb651db41d0e6f8cea6118c2191e6183adb9060200160405180910390a25050565b80516001600160a01b038116811461017b575f80fd5b919050565b634e487b7160e01b5f52604160045260245ffd5b5f82601f8301126101a3575f80fd5b81516001600160401b03808211156101bd576101bd610180565b604051601f8301601f19908116603f011681019082821181831017156101e5576101e5610180565b816040528381528660208588010111156101fd575f80fd5b8360208701602083015e5f602085830101528094505050505092915050565b5f805f805f60a08688031215610230575f80fd5b61023986610165565b60208701519095506001600160401b0380821115610255575f80fd5b61026189838a01610194565b95506040880151915080821115610276575f80fd5b5061028388828901610194565b93505061029260608701610165565b60808701519092506001600160801b03811681146102ae575f80fd5b809150509295509295909350565b600181811c908216806102d057607f821691505b6020821081036102ee57634e487b7160e01b5f52602260045260245ffd5b50919050565b601f82111561033b57805f5260205f20601f840160051c810160208510156103195750805b601f840160051c820191505b81811015610338575f8155600101610325565b50505b505050565b81516001600160401b0381111561035957610359610180565b61036d8161036784546102bc565b846102f4565b602080601f8311600181146103a0575f84156103895750858301515b5f19600386901b1c1916600185901b1785556103f7565b5f85815260208120601f198616915b828110156103ce578886015182559484019460019091019084016103af565b50858210156103eb57878501515f19600388901b60f8161c191681555b505060018460011b0185555b505050505050565b61309e8061040c5f395ff3fe6080604052600436106101c4575f3560e01c80636b20c454116100f2578063ac9650d811610092578063e8a3d48511610062578063e8a3d48514610588578063e985e9c51461059c578063f242432a146105d5578063f5298aca146105f4575f80fd5b8063ac9650d8146104e8578063b24f2d3914610514578063bd85b0391461053e578063d37c353b14610569575f80fd5b8063938e3d7b116100cd578063938e3d7b1461047757806395d89b41146104965780639bcf7a15146104aa578063a22cb465146104c9575f80fd5b80636b20c4541461040357806383040532146104225780638da5cb5b14610450575f80fd5b80632bc43fd9116101685780634cc157df116101385780634cc157df146103635780634e1273f4146103a4578063600dd5ea146103d057806363b45e2d146103ef575f80fd5b80632bc43fd9146102fe5780632eb2c2d6146103115780633b1475a7146103305780634bbb1abf14610344575f80fd5b80630e89341c116101a35780630e89341c1461026157806313af4035146102805780632419f51b146102a15780632a55205a146102c0575f80fd5b8062fdd58e146101c857806301ffc9a71461021157806306fdde0314610240575b5f80fd5b3480156101d3575f80fd5b506101fe6101e236600461245c565b600260209081525f928352604080842090915290825290205481565b6040519081526020015b60405180910390f35b34801561021c575f80fd5b5061023061022b366004612499565b610613565b6040519015158152602001610208565b34801561024b575f80fd5b5061025461067f565b60405161020891906124e2565b34801561026c575f80fd5b5061025461027b3660046124f4565b61070a565b34801561028b575f80fd5b5061029f61029a36600461250b565b61074a565b005b3480156102ac575f80fd5b506101fe6102bb3660046124f4565b61077b565b3480156102cb575f80fd5b506102df6102da366004612524565b6107cf565b604080516001600160a01b039093168352602083019190915201610208565b61029f61030c366004612544565b61080a565b34801561031c575f80fd5b5061029f61032b3660046126c4565b610915565b34801561033b575f80fd5b50600c546101fe565b34801561034f575f80fd5b5061029f61035e366004612544565b505050565b34801561036e575f80fd5b5061038261037d3660046124f4565b6109ae565b604080516001600160a01b03909316835261ffff909116602083015201610208565b3480156103af575f80fd5b506103c36103be366004612767565b610a18565b6040516102089190612866565b3480156103db575f80fd5b5061029f6103ea36600461245c565b610b41565b3480156103fa575f80fd5b506009546101fe565b34801561040e575f80fd5b5061029f61041d366004612878565b610b74565b34801561042d575f80fd5b5061023061043c3660046124f4565b600b6020525f908152604090205460ff1681565b34801561045b575f80fd5b506006546040516001600160a01b039091168152602001610208565b348015610482575f80fd5b5061029f6104913660046128e7565b610d30565b3480156104a1575f80fd5b50610254610d5e565b3480156104b5575f80fd5b5061029f6104c436600461292c565b610d6b565b3480156104d4575f80fd5b5061029f6104e336600461295e565b610d9b565b3480156104f3575f80fd5b50610507610502366004612997565b610e61565b6040516102089190612a06565b34801561051f575f80fd5b506007546001600160a01b03811690600160a01b900461ffff16610382565b348015610549575f80fd5b506101fe6105583660046124f4565b600e6020525f908152604090205481565b348015610574575f80fd5b506101fe610583366004612aad565b610fc5565b348015610593575f80fd5b50610254611093565b3480156105a7575f80fd5b506102306105b6366004612b21565b600360209081525f928352604080842090915290825290205460ff1681565b3480156105e0575f80fd5b5061029f6105ef366004612b52565b6110a0565b3480156105ff575f80fd5b5061029f61060e366004612544565b611132565b5f6301ffc9a760e01b6001600160e01b0319831614806106435750636cdb3d1360e11b6001600160e01b03198316145b8061065e57506303a24d0760e21b6001600160e01b03198316145b8061067957506001600160e01b0319821663152a902d60e11b145b92915050565b5f805461068b90612bb2565b80601f01602080910402602001604051908101604052809291908181526020018280546106b790612bb2565b80156107025780601f106106d957610100808354040283529160200191610702565b820191905f5260205f20905b8154815290600101906020018083116106e557829003601f168201915b505050505081565b60605f61071683611237565b905080610722846113ac565b604051602001610733929190612c01565b604051602081830303815290604052915050919050565b6107526114c9565b61076f576040516316ccb9cb60e11b815260040160405180910390fd5b610778816114f5565b50565b5f61078560095490565b82106107ac57604051630793127760e11b8152600481018390526024015b60405180910390fd5b600982815481106107bf576107bf612c15565b905f5260205f2001549050919050565b5f805f806107dc866109ae565b90945084925061ffff1690506127106107f58287612c3d565b6107ff9190612c68565b925050509250929050565b6002600d540361085c5760405162461bcd60e51b815260206004820152601f60248201527f5265656e7472616e637947756172643a207265656e7472616e742063616c6c0060448201526064016107a3565b6002600d55600c5482106108b25760405162461bcd60e51b815260206004820152600a60248201527f696e76616c69642069640000000000000000000000000000000000000000000060448201526064016107a3565b6108bd838383611553565b81836001600160a01b0316336001600160a01b03167fff097c7d8b1957a4ff09ef1361b5fb54dcede3941ba836d0beb9d10bec725de68460405161090391815260200190565b60405180910390a450506001600d5550565b6001600160a01b03851633148061094e57506001600160a01b0385165f90815260036020908152604080832033845290915290205460ff165b61099a5760405162461bcd60e51b815260206004820152601260248201527f214f574e45525f4f525f415050524f564544000000000000000000000000000060448201526064016107a3565b6109a7858585858561156d565b5050505050565b5f818152600860209081526040808320815180830190925280546001600160a01b0316808352600190910154928201929092528291156109f45780516020820151610a0e565b6007546001600160a01b03811690600160a01b900461ffff165b9250925050915091565b60608151835114610a5d5760405162461bcd60e51b815260206004820152600f60248201526e0988a9c8ea890be9a92a69a82a8869608b1b60448201526064016107a3565b5f835167ffffffffffffffff811115610a7857610a78612574565b604051908082528060200260200182016040528015610aa1578160200160208202803683370190505b5090505f5b8451811015610b395760025f868381518110610ac457610ac4612c15565b60200260200101516001600160a01b03166001600160a01b031681526020019081526020015f205f858381518110610afe57610afe612c15565b602002602001015181526020019081526020015f2054828281518110610b2657610b26612c15565b6020908102919091010152600101610aa6565b509392505050565b610b496114c9565b610b6657604051636fae358160e11b815260040160405180910390fd5b610b708282611780565b5050565b336001600160a01b038416811480610bb057506001600160a01b038085165f9081526003602090815260408083209385168352929052205460ff165b610bfc5760405162461bcd60e51b815260206004820152601160248201527f556e617070726f7665642063616c6c657200000000000000000000000000000060448201526064016107a3565b8151835114610c4d5760405162461bcd60e51b815260206004820152600f60248201527f4c656e677468206d69736d61746368000000000000000000000000000000000060448201526064016107a3565b5f5b8351811015610d1e57828181518110610c6a57610c6a612c15565b602002602001015160025f876001600160a01b03166001600160a01b031681526020019081526020015f205f868481518110610ca857610ca8612c15565b602002602001015181526020019081526020015f20541015610d0c5760405162461bcd60e51b815260206004820152601760248201527f4e6f7420656e6f75676820746f6b656e73206f776e656400000000000000000060448201526064016107a3565b610d17600182612c7b565b9050610c4f565b50610d2a848484611828565b50505050565b610d386114c9565b610d5557604051639f7f092560e01b815260040160405180910390fd5b61077881611a0f565b6001805461068b90612bb2565b610d736114c9565b610d9057604051636fae358160e11b815260040160405180910390fd5b61035e838383611ae8565b336001600160a01b0383168103610df45760405162461bcd60e51b815260206004820152600e60248201527f415050524f56494e475f53454c4600000000000000000000000000000000000060448201526064016107a3565b6001600160a01b038181165f81815260036020908152604080832094881680845294825291829020805460ff191687151590811790915591519182527f17307eab39ab6107e8899845ad3d59bd9653f200f220920489ca2b5937696c3191015b60405180910390a3505050565b60608167ffffffffffffffff811115610e7c57610e7c612574565b604051908082528060200260200182016040528015610eaf57816020015b6060815260200190600190039081610e9a5790505b509050335f805b84811015610fbc578115610f3557610f1330878784818110610eda57610eda612c15565b9050602002810190610eec9190612c8e565b86604051602001610eff93929190612cd1565b604051602081830303815290604052611b9f565b848281518110610f2557610f25612c15565b6020026020010181905250610fb4565b610f9630878784818110610f4b57610f4b612c15565b9050602002810190610f5d9190612c8e565b8080601f0160208091040260200160405190810160405280939291908181526020018383808284375f92019190915250611b9f92505050565b848281518110610fa857610fa8612c15565b60200260200101819052505b600101610eb6565b50505092915050565b5f855f03610fe657604051638fd36a9b60e01b815260040160405180910390fd5b5f600c54905061102c818888888080601f0160208091040260200160405190810160405280939291908181526020018383808284375f92019190915250611bcb92505050565b600c919091559150807f2a0365091ef1a40953c670dce28177e37520648a6fdc91506bffac0ab045570d60016110628a84612c7b565b61106c9190612cf7565b88888888604051611081959493929190612d32565b60405180910390a25095945050505050565b6005805461068b90612bb2565b6001600160a01b0385163314806110d957506001600160a01b0385165f90815260036020908152604080832033845290915290205460ff165b6111255760405162461bcd60e51b815260206004820152601260248201527f214f574e45525f4f525f415050524f564544000000000000000000000000000060448201526064016107a3565b6109a78585858585611c2d565b336001600160a01b03841681148061116e57506001600160a01b038085165f9081526003602090815260408083209385168352929052205460ff165b6111ba5760405162461bcd60e51b815260206004820152601160248201527f556e617070726f7665642063616c6c657200000000000000000000000000000060448201526064016107a3565b6001600160a01b0384165f90815260026020908152604080832086845290915290205482111561122c5760405162461bcd60e51b815260206004820152601760248201527f4e6f7420656e6f75676820746f6b656e73206f776e656400000000000000000060448201526064016107a3565b610d2a848484611dab565b60605f61124360095490565b90505f600980548060200260200160405190810160405280929190818152602001828054801561129057602002820191905f5260205f20905b81548152602001906001019080831161127c575b505050505090505f5b8281101561138f578181815181106112b3576112b3612c15565b602002602001015185101561137d57600a5f8383815181106112d7576112d7612c15565b602002602001015181526020019081526020015f2080546112f790612bb2565b80601f016020809104026020016040519081016040528092919081815260200182805461132390612bb2565b801561136e5780601f106113455761010080835404028352916020019161136e565b820191905f5260205f20905b81548152906001019060200180831161135157829003601f168201915b50505050509350505050919050565b611388600182612c7b565b9050611299565b506040516309797f6960e21b8152600481018590526024016107a3565b6060815f036113d25750506040805180820190915260018152600360fc1b602082015290565b815f5b81156113fb57806113e581612d6a565b91506113f49050600a83612c68565b91506113d5565b5f8167ffffffffffffffff81111561141557611415612574565b6040519080825280601f01601f19166020018201604052801561143f576020820181803683370190505b5090505b84156114c157611454600183612cf7565b9150611461600a86612d82565b61146c906030612c7b565b60f81b81838151811061148157611481612c15565b60200101907effffffffffffffffffffffffffffffffffffffffffffffffffffffffffffff191690815f1a9053506114ba600a86612c68565b9450611443565b949350505050565b5f6114dc6006546001600160a01b031690565b6001600160a01b0316336001600160a01b031614905090565b600680546001600160a01b0383811673ffffffffffffffffffffffffffffffffffffffff19831681179093556040519116919082907f8292fce18fa69edf4db7b94ea2e58241df0ae57f97e0a6c9b29067028bf92d76905f90a35050565b61035e83838360405180602001604052805f815250611eef565b81518351146115b05760405162461bcd60e51b815260206004820152600f60248201526e0988a9c8ea890be9a92a69a82a8869608b1b60448201526064016107a3565b6001600160a01b0384166115f55760405162461bcd60e51b815260206004820152600c60248201526b2a27afad22a927afa0a2222960a11b60448201526064016107a3565b33611604818787878787611fd4565b5f5b8451811015611712575f85828151811061162257611622612c15565b602002602001015190505f85838151811061163f5761163f612c15565b6020908102919091018101516001600160a01b038b165f9081526002835260408082208683529093529190912054909150818110156116b35760405162461bcd60e51b815260206004820152601060248201526f125394d551919250d251539517d0905360821b60448201526064016107a3565b6001600160a01b03808b165f90815260026020818152604080842088855282528084208787039055938d168352908152828220868352905290812080548492906116fe908490612c7b565b909155505060019093019250611606915050565b50846001600160a01b0316866001600160a01b0316826001600160a01b03167f4a39dc06d4c0dbc64b70af90fd698a233a518aa5d07e595d983b8c0526c8f7fb8787604051611762929190612d95565b60405180910390a46117788187878787876120c6565b505050505050565b6127108111156117ae57604051630a4930ad60e31b81526127106004820152602481018290526044016107a3565b600780546001600160a01b0384167fffffffffffffffffffff000000000000000000000000000000000000000000009091168117600160a01b61ffff851602179091556040518281527f90d7ec04bcb8978719414f82e52e4cb651db41d0e6f8cea6118c2191e6183adb9060200160405180910390a25050565b6001600160a01b03831661186f5760405162461bcd60e51b815260206004820152600e60248201526d232927a6afad22a927afa0a2222960911b60448201526064016107a3565b80518251146118b25760405162461bcd60e51b815260206004820152600f60248201526e0988a9c8ea890be9a92a69a82a8869608b1b60448201526064016107a3565b5f3390506118d281855f868660405180602001604052805f815250611fd4565b5f5b83518110156119b1575f8482815181106118f0576118f0612c15565b602002602001015190505f84838151811061190d5761190d612c15565b6020908102919091018101516001600160a01b0389165f9081526002835260408082208683529093529190912054909150818110156119815760405162461bcd60e51b815260206004820152601060248201526f125394d551919250d251539517d0905360821b60448201526064016107a3565b6001600160a01b0388165f90815260026020908152604080832095835294905292909220910390556001016118d4565b505f6001600160a01b0316846001600160a01b0316826001600160a01b03167f4a39dc06d4c0dbc64b70af90fd698a233a518aa5d07e595d983b8c0526c8f7fb8686604051611a01929190612d95565b60405180910390a450505050565b5f60058054611a1d90612bb2565b80601f0160208091040260200160405190810160405280929190818152602001828054611a4990612bb2565b8015611a945780601f10611a6b57610100808354040283529160200191611a94565b820191905f5260205f20905b815481529060010190602001808311611a7757829003601f168201915b505050505090508160059081611aaa9190612e06565b507fc9c7c3fe08b88b4df9d4d47ef47d2c43d55c025a0ba88ca442580ed9e7348a168183604051611adc929190612ec2565b60405180910390a15050565b612710811115611b1657604051630a4930ad60e31b81526127106004820152602481018290526044016107a3565b6040805180820182526001600160a01b0384811680835260208084018681525f898152600883528690209451855473ffffffffffffffffffffffffffffffffffffffff1916941693909317845591516001909301929092559151838152909185917f7365cf4122f072a3365c20d54eff9b38d73c096c28e1892ec8f5b0e403a0f12d9101610e54565b6060611bc4838360405180606001604052806027815260200161304260279139612225565b9392505050565b5f80611bd78486612c7b565b60098054600181019091557f6e1540171b6c0c960b71a7020d9f60077f6af931a8bbf590da0223dacf75c7af018190555f818152600a60205260409020909250829150611c248482612e06565b50935093915050565b6001600160a01b038416611c725760405162461bcd60e51b815260206004820152600c60248201526b2a27afad22a927afa0a2222960a11b60448201526064016107a3565b33611c91818787611c8288612299565b611c8b88612299565b87611fd4565b6001600160a01b0386165f90815260026020908152604080832087845290915290205483811015611cf75760405162461bcd60e51b815260206004820152601060248201526f125394d551919250d251539517d0905360821b60448201526064016107a3565b6001600160a01b038088165f9081526002602081815260408084208a855282528084208987039055938a16835290815282822088835290529081208054869290611d42908490612c7b565b909155505060408051868152602081018690526001600160a01b03808916928a821692918616917fc3d58168c5ae7397731d063d5bbf3d657854427343f4c083240f7aacaa2d0f62910160405180910390a4611da28288888888886122e2565b50505050505050565b6001600160a01b038316611df25760405162461bcd60e51b815260206004820152600e60248201526d232927a6afad22a927afa0a2222960911b60448201526064016107a3565b33611e1f81855f611e0287612299565b611e0b87612299565b60405180602001604052805f815250611fd4565b6001600160a01b0384165f90815260026020908152604080832086845290915290205482811015611e855760405162461bcd60e51b815260206004820152601060248201526f125394d551919250d251539517d0905360821b60448201526064016107a3565b6001600160a01b038581165f81815260026020908152604080832089845282528083208887039055805189815291820188905291938616917fc3d58168c5ae7397731d063d5bbf3d657854427343f4c083240f7aacaa2d0f62910160405180910390a45050505050565b6001600160a01b038416611f345760405162461bcd60e51b815260206004820152600c60248201526b2a27afad22a927afa0a2222960a11b60448201526064016107a3565b33611f44815f87611c8288612299565b6001600160a01b0385165f90815260026020908152604080832087845290915281208054859290611f76908490612c7b565b909155505060408051858152602081018590526001600160a01b03808816925f92918516917fc3d58168c5ae7397731d063d5bbf3d657854427343f4c083240f7aacaa2d0f62910160405180910390a46109a7815f878787876122e2565b6001600160a01b03851661204e575f5b835181101561204c57828181518110611fff57611fff612c15565b6020026020010151600e5f86848151811061201c5761201c612c15565b602002602001015181526020019081526020015f205f82825461203f9190612c7b565b9091555050600101611fe4565b505b6001600160a01b038416611778575f5b8351811015611da25782818151811061207957612079612c15565b6020026020010151600e5f86848151811061209657612096612c15565b602002602001015181526020019081526020015f205f8282546120b99190612cf7565b909155505060010161205e565b6001600160a01b0384163b156117785760405163bc197c8160e01b81526001600160a01b0385169063bc197c819061210a9089908990889088908890600401612ee6565b6020604051808303815f875af1925050508015612144575060408051601f3d908101601f1916820190925261214191810190612f37565b60015b6121d357612150612f52565b806308c379a0036121895750612164612f6b565b8061216f575061218b565b8060405162461bcd60e51b81526004016107a391906124e2565b505b60405162461bcd60e51b815260206004820152601060248201527f214552433131353552454345495645520000000000000000000000000000000060448201526064016107a3565b6001600160e01b0319811663bc197c8160e01b14611da25760405162461bcd60e51b815260206004820152600f60248201526e1513d2d15394d7d491529150d51151608a1b60448201526064016107a3565b60605f80856001600160a01b0316856040516122419190612ff4565b5f60405180830381855af49150503d805f8114612279576040519150601f19603f3d011682016040523d82523d5f602084013e61227e565b606091505b509150915061228f868383876123be565b9695505050505050565b6040805160018082528183019092526060915f91906020808301908036833701905050905082815f815181106122d1576122d1612c15565b602090810291909101015292915050565b6001600160a01b0384163b156117785760405163f23a6e6160e01b81526001600160a01b0385169063f23a6e61906123269089908990889088908890600401612fff565b6020604051808303815f875af1925050508015612360575060408051601f3d908101601f1916820190925261235d91810190612f37565b60015b61236c57612150612f52565b6001600160e01b0319811663f23a6e6160e01b14611da25760405162461bcd60e51b815260206004820152600f60248201526e1513d2d15394d7d491529150d51151608a1b60448201526064016107a3565b6060831561242c5782515f03612425576001600160a01b0385163b6124255760405162461bcd60e51b815260206004820152601d60248201527f416464726573733a2063616c6c20746f206e6f6e2d636f6e747261637400000060448201526064016107a3565b50816114c1565b6114c1838381511561216f5781518083602001fd5b80356001600160a01b0381168114612457575f80fd5b919050565b5f806040838503121561246d575f80fd5b61247683612441565b946020939093013593505050565b6001600160e01b031981168114610778575f80fd5b5f602082840312156124a9575f80fd5b8135611bc481612484565b5f81518084528060208401602086015e5f602082860101526020601f19601f83011685010191505092915050565b602081525f611bc460208301846124b4565b5f60208284031215612504575f80fd5b5035919050565b5f6020828403121561251b575f80fd5b611bc482612441565b5f8060408385031215612535575f80fd5b50508035926020909101359150565b5f805f60608486031215612556575f80fd5b61255f84612441565b95602085013595506040909401359392505050565b634e487b7160e01b5f52604160045260245ffd5b601f8201601f1916810167ffffffffffffffff811182821017156125ae576125ae612574565b6040525050565b5f67ffffffffffffffff8211156125ce576125ce612574565b5060051b60200190565b5f82601f8301126125e7575f80fd5b813560206125f4826125b5565b6040516126018282612588565b80915083815260208101915060208460051b870101935086841115612624575f80fd5b602086015b848110156126405780358352918301918301612629565b509695505050505050565b5f67ffffffffffffffff83111561266457612664612574565b60405161267b601f8501601f191660200182612588565b80915083815284848401111561268f575f80fd5b838360208301375f60208583010152509392505050565b5f82601f8301126126b5575f80fd5b611bc48383356020850161264b565b5f805f805f60a086880312156126d8575f80fd5b6126e186612441565b94506126ef60208701612441565b9350604086013567ffffffffffffffff8082111561270b575f80fd5b61271789838a016125d8565b9450606088013591508082111561272c575f80fd5b61273889838a016125d8565b9350608088013591508082111561274d575f80fd5b5061275a888289016126a6565b9150509295509295909350565b5f8060408385031215612778575f80fd5b823567ffffffffffffffff8082111561278f575f80fd5b818501915085601f8301126127a2575f80fd5b813560206127af826125b5565b6040516127bc8282612588565b83815260059390931b85018201928281019150898411156127db575f80fd5b948201945b83861015612800576127f186612441565b825294820194908201906127e0565b96505086013592505080821115612815575f80fd5b50612822858286016125d8565b9150509250929050565b5f815180845260208085019450602084015f5b8381101561285b5781518752958201959082019060010161283f565b509495945050505050565b602081525f611bc4602083018461282c565b5f805f6060848603121561288a575f80fd5b61289384612441565b9250602084013567ffffffffffffffff808211156128af575f80fd5b6128bb878388016125d8565b935060408601359150808211156128d0575f80fd5b506128dd868287016125d8565b9150509250925092565b5f602082840312156128f7575f80fd5b813567ffffffffffffffff81111561290d575f80fd5b8201601f8101841361291d575f80fd5b6114c18482356020840161264b565b5f805f6060848603121561293e575f80fd5b8335925061294e60208501612441565b9150604084013590509250925092565b5f806040838503121561296f575f80fd5b61297883612441565b91506020830135801515811461298c575f80fd5b809150509250929050565b5f80602083850312156129a8575f80fd5b823567ffffffffffffffff808211156129bf575f80fd5b818501915085601f8301126129d2575f80fd5b8135818111156129e0575f80fd5b8660208260051b85010111156129f4575f80fd5b60209290920196919550909350505050565b5f60208083016020845280855180835260408601915060408160051b8701019250602087015f5b82811015612a5b57603f19888603018452612a498583516124b4565b94509285019290850190600101612a2d565b5092979650505050505050565b5f8083601f840112612a78575f80fd5b50813567ffffffffffffffff811115612a8f575f80fd5b602083019150836020828501011115612aa6575f80fd5b9250929050565b5f805f805f60608688031215612ac1575f80fd5b85359450602086013567ffffffffffffffff80821115612adf575f80fd5b612aeb89838a01612a68565b90965094506040880135915080821115612b03575f80fd5b50612b1088828901612a68565b969995985093965092949392505050565b5f8060408385031215612b32575f80fd5b612b3b83612441565b9150612b4960208401612441565b90509250929050565b5f805f805f60a08688031215612b66575f80fd5b612b6f86612441565b9450612b7d60208701612441565b93506040860135925060608601359150608086013567ffffffffffffffff811115612ba6575f80fd5b61275a888289016126a6565b600181811c90821680612bc657607f821691505b602082108103612be457634e487b7160e01b5f52602260045260245ffd5b50919050565b5f81518060208401855e5f93019283525090919050565b5f6114c1612c0f8386612bea565b84612bea565b634e487b7160e01b5f52603260045260245ffd5b634e487b7160e01b5f52601160045260245ffd5b808202811582820484141761067957610679612c29565b634e487b7160e01b5f52601260045260245ffd5b5f82612c7657612c76612c54565b500490565b8082018082111561067957610679612c29565b5f808335601e19843603018112612ca3575f80fd5b83018035915067ffffffffffffffff821115612cbd575f80fd5b602001915036819003821315612aa6575f80fd5b8284823760609190911b6bffffffffffffffffffffffff19169101908152601401919050565b8181038181111561067957610679612c29565b81835281816020850137505f828201602090810191909152601f909101601f19169091010190565b858152606060208201525f612d4b606083018688612d0a565b8281036040840152612d5e818587612d0a565b98975050505050505050565b5f60018201612d7b57612d7b612c29565b5060010190565b5f82612d9057612d90612c54565b500690565b604081525f612da7604083018561282c565b8281036020840152612db9818561282c565b95945050505050565b601f82111561035e57805f5260205f20601f840160051c81016020851015612de75750805b601f840160051c820191505b818110156109a7575f8155600101612df3565b815167ffffffffffffffff811115612e2057612e20612574565b612e3481612e2e8454612bb2565b84612dc2565b602080601f831160018114612e67575f8415612e505750858301515b5f19600386901b1c1916600185901b178555611778565b5f85815260208120601f198616915b82811015612e9557888601518255948401946001909101908401612e76565b5085821015612eb257878501515f19600388901b60f8161c191681555b5050505050600190811b01905550565b604081525f612ed460408301856124b4565b8281036020840152612db981856124b4565b5f6001600160a01b03808816835280871660208401525060a06040830152612f1160a083018661282c565b8281036060840152612f23818661282c565b90508281036080840152612d5e81856124b4565b5f60208284031215612f47575f80fd5b8151611bc481612484565b5f60033d1115612f685760045f803e505f5160e01c5b90565b5f60443d1015612f785790565b6040516003193d81016004833e81513d67ffffffffffffffff8160248401118184111715612fa857505050505090565b8285019150815181811115612fc05750505050505090565b843d8701016020828501011115612fda5750505050505090565b612fe960208286010187612588565b509095945050505050565b5f611bc48284612bea565b5f6001600160a01b03808816835280871660208401525084604083015283606083015260a0608083015261303660a08301846124b4565b97965050505050505056fe416464726573733a206c6f772d6c6576656c2064656c65676174652063616c6c206661696c6564a2646970667358221220f8535e9751b05b93bc68de4e5d9f245876aa0886f4c612e4c863aaf57a7cc92864736f6c63430008190033",
      "opcodes": "PUSH1 0x80 PUSH1 0x40 MSTORE CALLVALUE DUP1 ISZERO PUSH2 0xF JUMPI PUSH0 DUP1 REVERT JUMPDEST POP PUSH1 0x40 MLOAD PUSH2 0x34AA CODESIZE SUB DUP1 PUSH2 0x34AA DUP4 CODECOPY DUP2 ADD PUSH1 0x40 DUP2 SWAP1 MSTORE PUSH2 0x2E SWAP2 PUSH2 0x21C JUMP JUMPDEST DUP5 DUP5 DUP5 DUP5 DUP5 DUP4 DUP4 PUSH0 PUSH2 0x40 DUP4 DUP3 PUSH2 0x340 JUMP JUMPDEST POP PUSH1 0x1 PUSH2 0x4D DUP3 DUP3 PUSH2 0x340 JUMP JUMPDEST POP POP PUSH1 0x1 PUSH1 0xD SSTORE POP PUSH2 0x5E DUP6 PUSH2 0x80 JUMP JUMPDEST PUSH2 0x71 DUP3 PUSH1 0x1 PUSH1 0x1 PUSH1 0x80 SHL SUB DUP4 AND PUSH2 0xD1 JUMP JUMPDEST POP POP POP POP POP POP POP POP POP POP PUSH2 0x3FF JUMP JUMPDEST PUSH1 0x6 DUP1 SLOAD PUSH1 0x1 PUSH1 0x1 PUSH1 0xA0 SHL SUB DUP4 DUP2 AND PUSH1 0x1 PUSH1 0x1 PUSH1 0xA0 SHL SUB NOT DUP4 AND DUP2 OR SWAP1 SWAP4 SSTORE PUSH1 0x40 MLOAD SWAP2 AND SWAP2 SWAP1 DUP3 SWAP1 PUSH32 0x8292FCE18FA69EDF4DB7B94EA2E58241DF0AE57F97E0A6C9B29067028BF92D76 SWAP1 PUSH0 SWAP1 LOG3 POP POP JUMP JUMPDEST PUSH2 0x2710 DUP2 GT ISZERO PUSH2 0x103 JUMPI PUSH1 0x40 MLOAD PUSH4 0xA4930AD PUSH1 0xE3 SHL DUP2 MSTORE PUSH2 0x2710 PUSH1 0x4 DUP3 ADD MSTORE PUSH1 0x24 DUP2 ADD DUP3 SWAP1 MSTORE PUSH1 0x44 ADD PUSH1 0x40 MLOAD DUP1 SWAP2 SUB SWAP1 REVERT JUMPDEST PUSH1 0x7 DUP1 SLOAD PUSH1 0x1 PUSH1 0x1 PUSH1 0xA0 SHL SUB DUP5 AND PUSH1 0x1 PUSH1 0x1 PUSH1 0xB0 SHL SUB NOT SWAP1 SWAP2 AND DUP2 OR PUSH1 0x1 PUSH1 0xA0 SHL PUSH2 0xFFFF DUP6 AND MUL OR SWAP1 SWAP2 SSTORE PUSH1 0x40 MLOAD DUP3 DUP2 MSTORE PUSH32 0x90D7EC04BCB8978719414F82E52E4CB651DB41D0E6F8CEA6118C2191E6183ADB SWAP1 PUSH1 0x20 ADD PUSH1 0x40 MLOAD DUP1 SWAP2 SUB SWAP1 LOG2 POP POP JUMP JUMPDEST DUP1 MLOAD PUSH1 0x1 PUSH1 0x1 PUSH1 0xA0 SHL SUB DUP2 AND DUP2 EQ PUSH2 0x17B JUMPI PUSH0 DUP1 REVERT JUMPDEST SWAP2 SWAP1 POP JUMP JUMPDEST PUSH4 0x4E487B71 PUSH1 0xE0 SHL PUSH0 MSTORE PUSH1 0x41 PUSH1 0x4 MSTORE PUSH1 0x24 PUSH0 REVERT JUMPDEST PUSH0 DUP3 PUSH1 0x1F DUP4 ADD SLT PUSH2 0x1A3 JUMPI PUSH0 DUP1 REVERT JUMPDEST DUP2 MLOAD PUSH1 0x1 PUSH1 0x1 PUSH1 0x40 SHL SUB DUP1 DUP3 GT ISZERO PUSH2 0x1BD JUMPI PUSH2 0x1BD PUSH2 0x180 JUMP JUMPDEST PUSH1 0x40 MLOAD PUSH1 0x1F DUP4 ADD PUSH1 0x1F NOT SWAP1 DUP2 AND PUSH1 0x3F ADD AND DUP2 ADD SWAP1 DUP3 DUP3 GT DUP2 DUP4 LT OR ISZERO PUSH2 0x1E5 JUMPI PUSH2 0x1E5 PUSH2 0x180 JUMP JUMPDEST DUP2 PUSH1 0x40 MSTORE DUP4 DUP2 MSTORE DUP7 PUSH1 0x20 DUP6 DUP9 ADD ADD GT ISZERO PUSH2 0x1FD JUMPI PUSH0 DUP1 REVERT JUMPDEST DUP4 PUSH1 0x20 DUP8 ADD PUSH1 0x20 DUP4 ADD MCOPY PUSH0 PUSH1 0x20 DUP6 DUP4 ADD ADD MSTORE DUP1 SWAP5 POP POP POP POP POP SWAP3 SWAP2 POP POP JUMP JUMPDEST PUSH0 DUP1 PUSH0 DUP1 PUSH0 PUSH1 0xA0 DUP7 DUP9 SUB SLT ISZERO PUSH2 0x230 JUMPI PUSH0 DUP1 REVERT JUMPDEST PUSH2 0x239 DUP7 PUSH2 0x165 JUMP JUMPDEST PUSH1 0x20 DUP8 ADD MLOAD SWAP1 SWAP6 POP PUSH1 0x1 PUSH1 0x1 PUSH1 0x40 SHL SUB DUP1 DUP3 GT ISZERO PUSH2 0x255 JUMPI PUSH0 DUP1 REVERT JUMPDEST PUSH2 0x261 DUP10 DUP4 DUP11 ADD PUSH2 0x194 JUMP JUMPDEST SWAP6 POP PUSH1 0x40 DUP9 ADD MLOAD SWAP2 POP DUP1 DUP3 GT ISZERO PUSH2 0x276 JUMPI PUSH0 DUP1 REVERT JUMPDEST POP PUSH2 0x283 DUP9 DUP3 DUP10 ADD PUSH2 0x194 JUMP JUMPDEST SWAP4 POP POP PUSH2 0x292 PUSH1 0x60 DUP8 ADD PUSH2 0x165 JUMP JUMPDEST PUSH1 0x80 DUP8 ADD MLOAD SWAP1 SWAP3 POP PUSH1 0x1 PUSH1 0x1 PUSH1 0x80 SHL SUB DUP2 AND DUP2 EQ PUSH2 0x2AE JUMPI PUSH0 DUP1 REVERT JUMPDEST DUP1 SWAP2 POP POP SWAP3 SWAP6 POP SWAP3 SWAP6 SWAP1 SWAP4 POP JUMP JUMPDEST PUSH1 0x1 DUP2 DUP2 SHR SWAP1 DUP3 AND DUP1 PUSH2 0x2D0 JUMPI PUSH1 0x7F DUP3 AND SWAP2 POP JUMPDEST PUSH1 0x20 DUP3 LT DUP2 SUB PUSH2 0x2EE JUMPI PUSH4 0x4E487B71 PUSH1 0xE0 SHL PUSH0 MSTORE PUSH1 0x22 PUSH1 0x4 MSTORE PUSH1 0x24 PUSH0 REVERT JUMPDEST POP SWAP2 SWAP1 POP JUMP JUMPDEST PUSH1 0x1F DUP3 GT ISZERO PUSH2 0x33B JUMPI DUP1 PUSH0 MSTORE PUSH1 0x20 PUSH0 KECCAK256 PUSH1 0x1F DUP5 ADD PUSH1 0x5 SHR DUP2 ADD PUSH1 0x20 DUP6 LT ISZERO PUSH2 0x319 JUMPI POP DUP1 JUMPDEST PUSH1 0x1F DUP5 ADD PUSH1 0x5 SHR DUP3 ADD SWAP2 POP JUMPDEST DUP2 DUP2 LT ISZERO PUSH2 0x338 JUMPI PUSH0 DUP2 SSTORE PUSH1 0x1 ADD PUSH2 0x325 JUMP JUMPDEST POP POP JUMPDEST POP POP POP JUMP JUMPDEST DUP2 MLOAD PUSH1 0x1 PUSH1 0x1 PUSH1 0x40 SHL SUB DUP2 GT ISZERO PUSH2 0x359 JUMPI PUSH2 0x359 PUSH2 0x180 JUMP JUMPDEST PUSH2 0x36D DUP2 PUSH2 0x367 DUP5 SLOAD PUSH2 0x2BC JUMP JUMPDEST DUP5 PUSH2 0x2F4 JUMP JUMPDEST PUSH1 0x20 DUP1 PUSH1 0x1F DUP4 GT PUSH1 0x1 DUP2 EQ PUSH2 0x3A0 JUMPI PUSH0 DUP5 ISZERO PUSH2 0x389 JUMPI POP DUP6 DUP4 ADD MLOAD JUMPDEST PUSH0 NOT PUSH1 0x3 DUP7 SWAP1 SHL SHR NOT AND PUSH1 0x1 DUP6 SWAP1 SHL OR DUP6 SSTORE PUSH2 0x3F7 JUMP JUMPDEST PUSH0 DUP6 DUP2 MSTORE PUSH1 0x20 DUP2 KECCAK256 PUSH1 0x1F NOT DUP7 AND SWAP2 JUMPDEST DUP3 DUP2 LT ISZERO PUSH2 0x3CE JUMPI DUP9 DUP7 ADD MLOAD DUP3 SSTORE SWAP5 DUP5 ADD SWAP5 PUSH1 0x1 SWAP1 SWAP2 ADD SWAP1 DUP5 ADD PUSH2 0x3AF JUMP JUMPDEST POP DUP6 DUP3 LT ISZERO PUSH2 0x3EB JUMPI DUP8 DUP6 ADD MLOAD PUSH0 NOT PUSH1 0x3 DUP9 SWAP1 SHL PUSH1 0xF8 AND SHR NOT AND DUP2 SSTORE JUMPDEST POP POP PUSH1 0x1 DUP5 PUSH1 0x1 SHL ADD DUP6 SSTORE JUMPDEST POP POP POP POP POP POP JUMP JUMPDEST PUSH2 0x309E DUP1 PUSH2 0x40C PUSH0 CODECOPY PUSH0 RETURN INVALID PUSH1 0x80 PUSH1 0x40 MSTORE PUSH1 0x4 CALLDATASIZE LT PUSH2 0x1C4 JUMPI PUSH0 CALLDATALOAD PUSH1 0xE0 SHR DUP1 PUSH4 0x6B20C454 GT PUSH2 0xF2 JUMPI DUP1 PUSH4 0xAC9650D8 GT PUSH2 0x92 JUMPI DUP1 PUSH4 0xE8A3D485 GT PUSH2 0x62 JUMPI DUP1 PUSH4 0xE8A3D485 EQ PUSH2 0x588 JUMPI DUP1 PUSH4 0xE985E9C5 EQ PUSH2 0x59C JUMPI DUP1 PUSH4 0xF242432A EQ PUSH2 0x5D5 JUMPI DUP1 PUSH4 0xF5298ACA EQ PUSH2 0x5F4 JUMPI PUSH0 DUP1 REVERT JUMPDEST DUP1 PUSH4 0xAC9650D8 EQ PUSH2 0x4E8 JUMPI DUP1 PUSH4 0xB24F2D39 EQ PUSH2 0x514 JUMPI DUP1 PUSH4 0xBD85B039 EQ PUSH2 0x53E JUMPI DUP1 PUSH4 0xD37C353B EQ PUSH2 0x569 JUMPI PUSH0 DUP1 REVERT JUMPDEST DUP1 PUSH4 0x938E3D7B GT PUSH2 0xCD JUMPI DUP1 PUSH4 0x938E3D7B EQ PUSH2 0x477 JUMPI DUP1 PUSH4 0x95D89B41 EQ PUSH2 0x496 JUMPI DUP1 PUSH4 0x9BCF7A15 EQ PUSH2 0x4AA JUMPI DUP1 PUSH4 0xA22CB465 EQ PUSH2 0x4C9 JUMPI PUSH0 DUP1 REVERT JUMPDEST DUP1 PUSH4 0x6B20C454 EQ PUSH2 0x403 JUMPI DUP1 PUSH4 0x83040532 EQ PUSH2 0x422 JUMPI DUP1 PUSH4 0x8DA5CB5B EQ PUSH2 0x450 JUMPI PUSH0 DUP1 REVERT JUMPDEST DUP1 PUSH4 0x2BC43FD9 GT PUSH2 0x168 JUMPI DUP1 PUSH4 0x4CC157DF GT PUSH2 0x138 JUMPI DUP1 PUSH4 0x4CC157DF EQ PUSH2 0x363 JUMPI DUP1 PUSH4 0x4E1273F4 EQ PUSH2 0x3A4 JUMPI DUP1 PUSH4 0x600DD5EA EQ PUSH2 0x3D0 JUMPI DUP1 PUSH4 0x63B45E2D EQ PUSH2 0x3EF JUMPI PUSH0 DUP1 REVERT JUMPDEST DUP1 PUSH4 0x2BC43FD9 EQ PUSH2 0x2FE JUMPI DUP1 PUSH4 0x2EB2C2D6 EQ PUSH2 0x311 JUMPI DUP1 PUSH4 0x3B1475A7 EQ PUSH2 0x330 JUMPI DUP1 PUSH4 0x4BBB1ABF EQ PUSH2 0x344 JUMPI PUSH0 DUP1 REVERT JUMPDEST DUP1 PUSH4 0xE89341C GT PUSH2 0x1A3 JUMPI DUP1 PUSH4 0xE89341C EQ PUSH2 0x261 JUMPI DUP1 PUSH4 0x13AF4035 EQ PUSH2 0x280 JUMPI DUP1 PUSH4 0x2419F51B EQ PUSH2 0x2A1 JUMPI DUP1 PUSH4 0x2A55205A EQ PUSH2 0x2C0 JUMPI PUSH0 DUP1 REVERT JUMPDEST DUP1 PUSH3 0xFDD58E EQ PUSH2 0x1C8 JUMPI DUP1 PUSH4 0x1FFC9A7 EQ PUSH2 0x211 JUMPI DUP1 PUSH4 0x6FDDE03 EQ PUSH2 0x240 JUMPI JUMPDEST PUSH0 DUP1 REVERT JUMPDEST CALLVALUE DUP1 ISZERO PUSH2 0x1D3 JUMPI PUSH0 DUP1 REVERT JUMPDEST POP PUSH2 0x1FE PUSH2 0x1E2 CALLDATASIZE PUSH1 0x4 PUSH2 0x245C JUMP JUMPDEST PUSH1 0x2 PUSH1 0x20 SWAP1 DUP2 MSTORE PUSH0 SWAP3 DUP4 MSTORE PUSH1 0x40 DUP1 DUP5 KECCAK256 SWAP1 SWAP2 MSTORE SWAP1 DUP3 MSTORE SWAP1 KECCAK256 SLOAD DUP2 JUMP JUMPDEST PUSH1 0x40 MLOAD SWAP1 DUP2 MSTORE PUSH1 0x20 ADD JUMPDEST PUSH1 0x40 MLOAD DUP1 SWAP2 SUB SWAP1 RETURN JUMPDEST CALLVALUE DUP1 ISZERO PUSH2 0x21C JUMPI PUSH0 DUP1 REVERT JUMPDEST POP PUSH2 0x230 PUSH2 0x22B CALLDATASIZE PUSH1 0x4 PUSH2 0x2499 JUMP JUMPDEST PUSH2 0x613 JUMP JUMPDEST PUSH1 0x40 MLOAD SWAP1 ISZERO ISZERO DUP2 MSTORE PUSH1 0x20 ADD PUSH2 0x208 JUMP JUMPDEST CALLVALUE DUP1 ISZERO PUSH2 0x24B JUMPI PUSH0 DUP1 REVERT JUMPDEST POP PUSH2 0x254 PUSH2 0x67F JUMP JUMPDEST PUSH1 0x40 MLOAD PUSH2 0x208 SWAP2 SWAP1 PUSH2 0x24E2 JUMP JUMPDEST CALLVALUE DUP1 ISZERO PUSH2 0x26C JUMPI PUSH0 DUP1 REVERT JUMPDEST POP PUSH2 0x254 PUSH2 0x27B CALLDATASIZE PUSH1 0x4 PUSH2 0x24F4 JUMP JUMPDEST PUSH2 0x70A JUMP JUMPDEST CALLVALUE DUP1 ISZERO PUSH2 0x28B JUMPI PUSH0 DUP1 REVERT JUMPDEST POP PUSH2 0x29F PUSH2 0x29A CALLDATASIZE PUSH1 0x4 PUSH2 0x250B JUMP JUMPDEST PUSH2 0x74A JUMP JUMPDEST STOP JUMPDEST CALLVALUE DUP1 ISZERO PUSH2 0x2AC JUMPI PUSH0 DUP1 REVERT JUMPDEST POP PUSH2 0x1FE PUSH2 0x2BB CALLDATASIZE PUSH1 0x4 PUSH2 0x24F4 JUMP JUMPDEST PUSH2 0x77B JUMP JUMPDEST CALLVALUE DUP1 ISZERO PUSH2 0x2CB JUMPI PUSH0 DUP1 REVERT JUMPDEST POP PUSH2 0x2DF PUSH2 0x2DA CALLDATASIZE PUSH1 0x4 PUSH2 0x2524 JUMP JUMPDEST PUSH2 0x7CF JUMP JUMPDEST PUSH1 0x40 DUP1 MLOAD PUSH1 0x1 PUSH1 0x1 PUSH1 0xA0 SHL SUB SWAP1 SWAP4 AND DUP4 MSTORE PUSH1 0x20 DUP4 ADD SWAP2 SWAP1 SWAP2 MSTORE ADD PUSH2 0x208 JUMP JUMPDEST PUSH2 0x29F PUSH2 0x30C CALLDATASIZE PUSH1 0x4 PUSH2 0x2544 JUMP JUMPDEST PUSH2 0x80A JUMP JUMPDEST CALLVALUE DUP1 ISZERO PUSH2 0x31C JUMPI PUSH0 DUP1 REVERT JUMPDEST POP PUSH2 0x29F PUSH2 0x32B CALLDATASIZE PUSH1 0x4 PUSH2 0x26C4 JUMP JUMPDEST PUSH2 0x915 JUMP JUMPDEST CALLVALUE DUP1 ISZERO PUSH2 0x33B JUMPI PUSH0 DUP1 REVERT JUMPDEST POP PUSH1 0xC SLOAD PUSH2 0x1FE JUMP JUMPDEST CALLVALUE DUP1 ISZERO PUSH2 0x34F JUMPI PUSH0 DUP1 REVERT JUMPDEST POP PUSH2 0x29F PUSH2 0x35E CALLDATASIZE PUSH1 0x4 PUSH2 0x2544 JUMP JUMPDEST POP POP POP JUMP JUMPDEST CALLVALUE DUP1 ISZERO PUSH2 0x36E JUMPI PUSH0 DUP1 REVERT JUMPDEST POP PUSH2 0x382 PUSH2 0x37D CALLDATASIZE PUSH1 0x4 PUSH2 0x24F4 JUMP JUMPDEST PUSH2 0x9AE JUMP JUMPDEST PUSH1 0x40 DUP1 MLOAD PUSH1 0x1 PUSH1 0x1 PUSH1 0xA0 SHL SUB SWAP1 SWAP4 AND DUP4 MSTORE PUSH2 0xFFFF SWAP1 SWAP2 AND PUSH1 0x20 DUP4 ADD MSTORE ADD PUSH2 0x208 JUMP JUMPDEST CALLVALUE DUP1 ISZERO PUSH2 0x3AF JUMPI PUSH0 DUP1 REVERT JUMPDEST POP PUSH2 0x3C3 PUSH2 0x3BE CALLDATASIZE PUSH1 0x4 PUSH2 0x2767 JUMP JUMPDEST PUSH2 0xA18 JUMP JUMPDEST PUSH1 0x40 MLOAD PUSH2 0x208 SWAP2 SWAP1 PUSH2 0x2866 JUMP JUMPDEST CALLVALUE DUP1 ISZERO PUSH2 0x3DB JUMPI PUSH0 DUP1 REVERT JUMPDEST POP PUSH2 0x29F PUSH2 0x3EA CALLDATASIZE PUSH1 0x4 PUSH2 0x245C JUMP JUMPDEST PUSH2 0xB41 JUMP JUMPDEST CALLVALUE DUP1 ISZERO PUSH2 0x3FA JUMPI PUSH0 DUP1 REVERT JUMPDEST POP PUSH1 0x9 SLOAD PUSH2 0x1FE JUMP JUMPDEST CALLVALUE DUP1 ISZERO PUSH2 0x40E JUMPI PUSH0 DUP1 REVERT JUMPDEST POP PUSH2 0x29F PUSH2 0x41D CALLDATASIZE PUSH1 0x4 PUSH2 0x2878 JUMP JUMPDEST PUSH2 0xB74 JUMP JUMPDEST CALLVALUE DUP1 ISZERO PUSH2 0x42D JUMPI PUSH0 DUP1 REVERT JUMPDEST POP PUSH2 0x230 PUSH2 0x43C CALLDATASIZE PUSH1 0x4 PUSH2 0x24F4 JUMP JUMPDEST PUSH1 0xB PUSH1 0x20 MSTORE PUSH0 SWAP1 DUP2 MSTORE PUSH1 0x40 SWAP1 KECCAK256 SLOAD PUSH1 0xFF AND DUP2 JUMP JUMPDEST CALLVALUE DUP1 ISZERO PUSH2 0x45B JUMPI PUSH0 DUP1 REVERT JUMPDEST POP PUSH1 0x6 SLOAD PUSH1 0x40 MLOAD PUSH1 0x1 PUSH1 0x1 PUSH1 0xA0 SHL SUB SWAP1 SWAP2 AND DUP2 MSTORE PUSH1 0x20 ADD PUSH2 0x208 JUMP JUMPDEST CALLVALUE DUP1 ISZERO PUSH2 0x482 JUMPI PUSH0 DUP1 REVERT JUMPDEST POP PUSH2 0x29F PUSH2 0x491 CALLDATASIZE PUSH1 0x4 PUSH2 0x28E7 JUMP JUMPDEST PUSH2 0xD30 JUMP JUMPDEST CALLVALUE DUP1 ISZERO PUSH2 0x4A1 JUMPI PUSH0 DUP1 REVERT JUMPDEST POP PUSH2 0x254 PUSH2 0xD5E JUMP JUMPDEST CALLVALUE DUP1 ISZERO PUSH2 0x4B5 JUMPI PUSH0 DUP1 REVERT JUMPDEST POP PUSH2 0x29F PUSH2 0x4C4 CALLDATASIZE PUSH1 0x4 PUSH2 0x292C JUMP JUMPDEST PUSH2 0xD6B JUMP JUMPDEST CALLVALUE DUP1 ISZERO PUSH2 0x4D4 JUMPI PUSH0 DUP1 REVERT JUMPDEST POP PUSH2 0x29F PUSH2 0x4E3 CALLDATASIZE PUSH1 0x4 PUSH2 0x295E JUMP JUMPDEST PUSH2 0xD9B JUMP JUMPDEST CALLVALUE DUP1 ISZERO PUSH2 0x4F3 JUMPI PUSH0 DUP1 REVERT JUMPDEST POP PUSH2 0x507 PUSH2 0x502 CALLDATASIZE PUSH1 0x4 PUSH2 0x2997 JUMP JUMPDEST PUSH2 0xE61 JUMP JUMPDEST PUSH1 0x40 MLOAD PUSH2 0x208 SWAP2 SWAP1 PUSH2 0x2A06 JUMP JUMPDEST CALLVALUE DUP1 ISZERO PUSH2 0x51F JUMPI PUSH0 DUP1 REVERT JUMPDEST POP PUSH1 0x7 SLOAD PUSH1 0x1 PUSH1 0x1 PUSH1 0xA0 SHL SUB DUP2 AND SWAP1 PUSH1 0x1 PUSH1 0xA0 SHL SWAP1 DIV PUSH2 0xFFFF AND PUSH2 0x382 JUMP JUMPDEST CALLVALUE DUP1 ISZERO PUSH2 0x549 JUMPI PUSH0 DUP1 REVERT JUMPDEST POP PUSH2 0x1FE PUSH2 0x558 CALLDATASIZE PUSH1 0x4 PUSH2 0x24F4 JUMP JUMPDEST PUSH1 0xE PUSH1 0x20 MSTORE PUSH0 SWAP1 DUP2 MSTORE PUSH1 0x40 SWAP1 KECCAK256 SLOAD DUP2 JUMP JUMPDEST CALLVALUE DUP1 ISZERO PUSH2 0x574 JUMPI PUSH0 DUP1 REVERT JUMPDEST POP PUSH2 0x1FE PUSH2 0x583 CALLDATASIZE PUSH1 0x4 PUSH2 0x2AAD JUMP JUMPDEST PUSH2 0xFC5 JUMP JUMPDEST CALLVALUE DUP1 ISZERO PUSH2 0x593 JUMPI PUSH0 DUP1 REVERT JUMPDEST POP PUSH2 0x254 PUSH2 0x1093 JUMP JUMPDEST CALLVALUE DUP1 ISZERO PUSH2 0x5A7 JUMPI PUSH0 DUP1 REVERT JUMPDEST POP PUSH2 0x230 PUSH2 0x5B6 CALLDATASIZE PUSH1 0x4 PUSH2 0x2B21 JUMP JUMPDEST PUSH1 0x3 PUSH1 0x20 SWAP1 DUP2 MSTORE PUSH0 SWAP3 DUP4 MSTORE PUSH1 0x40 DUP1 DUP5 KECCAK256 SWAP1 SWAP2 MSTORE SWAP1 DUP3 MSTORE SWAP1 KECCAK256 SLOAD PUSH1 0xFF AND DUP2 JUMP JUMPDEST CALLVALUE DUP1 ISZERO PUSH2 0x5E0 JUMPI PUSH0 DUP1 REVERT JUMPDEST POP PUSH2 0x29F PUSH2 0x5EF CALLDATASIZE PUSH1 0x4 PUSH2 0x2B52 JUMP JUMPDEST PUSH2 0x10A0 JUMP JUMPDEST CALLVALUE DUP1 ISZERO PUSH2 0x5FF JUMPI PUSH0 DUP1 REVERT JUMPDEST POP PUSH2 0x29F PUSH2 0x60E CALLDATASIZE PUSH1 0x4 PUSH2 0x2544 JUMP JUMPDEST PUSH2 0x1132 JUMP JUMPDEST PUSH0 PUSH4 0x1FFC9A7 PUSH1 0xE0 SHL PUSH1 0x1 PUSH1 0x1 PUSH1 0xE0 SHL SUB NOT DUP4 AND EQ DUP1 PUSH2 0x643 JUMPI POP PUSH4 0x6CDB3D13 PUSH1 0xE1 SHL PUSH1 0x1 PUSH1 0x1 PUSH1 0xE0 SHL SUB NOT DUP4 AND EQ JUMPDEST DUP1 PUSH2 0x65E JUMPI POP PUSH4 0x3A24D07 PUSH1 0xE2 SHL PUSH1 0x1 PUSH1 0x1 PUSH1 0xE0 SHL SUB NOT DUP4 AND EQ JUMPDEST DUP1 PUSH2 0x679 JUMPI POP PUSH1 0x1 PUSH1 0x1 PUSH1 0xE0 SHL SUB NOT DUP3 AND PUSH4 0x152A902D PUSH1 0xE1 SHL EQ JUMPDEST SWAP3 SWAP2 POP POP JUMP JUMPDEST PUSH0 DUP1 SLOAD PUSH2 0x68B SWAP1 PUSH2 0x2BB2 JUMP JUMPDEST DUP1 PUSH1 0x1F ADD PUSH1 0x20 DUP1 SWAP2 DIV MUL PUSH1 0x20 ADD PUSH1 0x40 MLOAD SWAP1 DUP2 ADD PUSH1 0x40 MSTORE DUP1 SWAP3 SWAP2 SWAP1 DUP2 DUP2 MSTORE PUSH1 0x20 ADD DUP3 DUP1 SLOAD PUSH2 0x6B7 SWAP1 PUSH2 0x2BB2 JUMP JUMPDEST DUP1 ISZERO PUSH2 0x702 JUMPI DUP1 PUSH1 0x1F LT PUSH2 0x6D9 JUMPI PUSH2 0x100 DUP1 DUP4 SLOAD DIV MUL DUP4 MSTORE SWAP2 PUSH1 0x20 ADD SWAP2 PUSH2 0x702 JUMP JUMPDEST DUP3 ADD SWAP2 SWAP1 PUSH0 MSTORE PUSH1 0x20 PUSH0 KECCAK256 SWAP1 JUMPDEST DUP2 SLOAD DUP2 MSTORE SWAP1 PUSH1 0x1 ADD SWAP1 PUSH1 0x20 ADD DUP1 DUP4 GT PUSH2 0x6E5 JUMPI DUP3 SWAP1 SUB PUSH1 0x1F AND DUP3 ADD SWAP2 JUMPDEST POP POP POP POP POP DUP2 JUMP JUMPDEST PUSH1 0x60 PUSH0 PUSH2 0x716 DUP4 PUSH2 0x1237 JUMP JUMPDEST SWAP1 POP DUP1 PUSH2 0x722 DUP5 PUSH2 0x13AC JUMP JUMPDEST PUSH1 0x40 MLOAD PUSH1 0x20 ADD PUSH2 0x733 SWAP3 SWAP2 SWAP1 PUSH2 0x2C01 JUMP JUMPDEST PUSH1 0x40 MLOAD PUSH1 0x20 DUP2 DUP4 SUB SUB DUP2 MSTORE SWAP1 PUSH1 0x40 MSTORE SWAP2 POP POP SWAP2 SWAP1 POP JUMP JUMPDEST PUSH2 0x752 PUSH2 0x14C9 JUMP JUMPDEST PUSH2 0x76F JUMPI PUSH1 0x40 MLOAD PUSH4 0x16CCB9CB PUSH1 0xE1 SHL DUP2 MSTORE PUSH1 0x4 ADD PUSH1 0x40 MLOAD DUP1 SWAP2 SUB SWAP1 REVERT JUMPDEST PUSH2 0x778 DUP2 PUSH2 0x14F5 JUMP JUMPDEST POP JUMP JUMPDEST PUSH0 PUSH2 0x785 PUSH1 0x9 SLOAD SWAP1 JUMP JUMPDEST DUP3 LT PUSH2 0x7AC JUMPI PUSH1 0x40 MLOAD PUSH4 0x7931277 PUSH1 0xE1 SHL DUP2 MSTORE PUSH1 0x4 DUP2 ADD DUP4 SWAP1 MSTORE PUSH1 0x24 ADD JUMPDEST PUSH1 0x40 MLOAD DUP1 SWAP2 SUB SWAP1 REVERT JUMPDEST PUSH1 0x9 DUP3 DUP2 SLOAD DUP2 LT PUSH2 0x7BF JUMPI PUSH2 0x7BF PUSH2 0x2C15 JUMP JUMPDEST SWAP1 PUSH0 MSTORE PUSH1 0x20 PUSH0 KECCAK256 ADD SLOAD SWAP1 POP SWAP2 SWAP1 POP JUMP JUMPDEST PUSH0 DUP1 PUSH0 DUP1 PUSH2 0x7DC DUP7 PUSH2 0x9AE JUMP JUMPDEST SWAP1 SWAP5 POP DUP5 SWAP3 POP PUSH2 0xFFFF AND SWAP1 POP PUSH2 0x2710 PUSH2 0x7F5 DUP3 DUP8 PUSH2 0x2C3D JUMP JUMPDEST PUSH2 0x7FF SWAP2 SWAP1 PUSH2 0x2C68 JUMP JUMPDEST SWAP3 POP POP POP SWAP3 POP SWAP3 SWAP1 POP JUMP JUMPDEST PUSH1 0x2 PUSH1 0xD SLOAD SUB PUSH2 0x85C JUMPI PUSH1 0x40 MLOAD PUSH3 0x461BCD PUSH1 0xE5 SHL DUP2 MSTORE PUSH1 0x20 PUSH1 0x4 DUP3 ADD MSTORE PUSH1 0x1F PUSH1 0x24 DUP3 ADD MSTORE PUSH32 0x5265656E7472616E637947756172643A207265656E7472616E742063616C6C00 PUSH1 0x44 DUP3 ADD MSTORE PUSH1 0x64 ADD PUSH2 0x7A3 JUMP JUMPDEST PUSH1 0x2 PUSH1 0xD SSTORE PUSH1 0xC SLOAD DUP3 LT PUSH2 0x8B2 JUMPI PUSH1 0x40 MLOAD PUSH3 0x461BCD PUSH1 0xE5 SHL DUP2 MSTORE PUSH1 0x20 PUSH1 0x4 DUP3 ADD MSTORE PUSH1 0xA PUSH1 0x24 DUP3 ADD MSTORE PUSH32 0x696E76616C696420696400000000000000000000000000000000000000000000 PUSH1 0x44 DUP3 ADD MSTORE PUSH1 0x64 ADD PUSH2 0x7A3 JUMP JUMPDEST PUSH2 0x8BD DUP4 DUP4 DUP4 PUSH2 0x1553 JUMP JUMPDEST DUP2 DUP4 PUSH1 0x1 PUSH1 0x1 PUSH1 0xA0 SHL SUB AND CALLER PUSH1 0x1 PUSH1 0x1 PUSH1 0xA0 SHL SUB AND PUSH32 0xFF097C7D8B1957A4FF09EF1361B5FB54DCEDE3941BA836D0BEB9D10BEC725DE6 DUP5 PUSH1 0x40 MLOAD PUSH2 0x903 SWAP2 DUP2 MSTORE PUSH1 0x20 ADD SWAP1 JUMP JUMPDEST PUSH1 0x40 MLOAD DUP1 SWAP2 SUB SWAP1 LOG4 POP POP PUSH1 0x1 PUSH1 0xD SSTORE POP JUMP JUMPDEST PUSH1 0x1 PUSH1 0x1 PUSH1 0xA0 SHL SUB DUP6 AND CALLER EQ DUP1 PUSH2 0x94E JUMPI POP PUSH1 0x1 PUSH1 0x1 PUSH1 0xA0 SHL SUB DUP6 AND PUSH0 SWAP1 DUP2 MSTORE PUSH1 0x3 PUSH1 0x20 SWAP1 DUP2 MSTORE PUSH1 0x40 DUP1 DUP4 KECCAK256 CALLER DUP5 MSTORE SWAP1 SWAP2 MSTORE SWAP1 KECCAK256 SLOAD PUSH1 0xFF AND JUMPDEST PUSH2 0x99A JUMPI PUSH1 0x40 MLOAD PUSH3 0x461BCD PUSH1 0xE5 SHL DUP2 MSTORE PUSH1 0x20 PUSH1 0x4 DUP3 ADD MSTORE PUSH1 0x12 PUSH1 0x24 DUP3 ADD MSTORE PUSH32 0x214F574E45525F4F525F415050524F5645440000000000000000000000000000 PUSH1 0x44 DUP3 ADD MSTORE PUSH1 0x64 ADD PUSH2 0x7A3 JUMP JUMPDEST PUSH2 0x9A7 DUP6 DUP6 DUP6 DUP6 DUP6 PUSH2 0x156D JUMP JUMPDEST POP POP POP POP POP JUMP JUMPDEST PUSH0 DUP2 DUP2 MSTORE PUSH1 0x8 PUSH1 0x20 SWAP1 DUP2 MSTORE PUSH1 0x40 DUP1 DUP4 KECCAK256 DUP2 MLOAD DUP1 DUP4 ADD SWAP1 SWAP3 MSTORE DUP1 SLOAD PUSH1 0x1 PUSH1 0x1 PUSH1 0xA0 SHL SUB AND DUP1 DUP4 MSTORE PUSH1 0x1 SWAP1 SWAP2 ADD SLOAD SWAP3 DUP3 ADD SWAP3 SWAP1 SWAP3 MSTORE DUP3 SWAP2 ISZERO PUSH2 0x9F4 JUMPI DUP1 MLOAD PUSH1 0x20 DUP3 ADD MLOAD PUSH2 0xA0E JUMP JUMPDEST PUSH1 0x7 SLOAD PUSH1 0x1 PUSH1 0x1 PUSH1 0xA0 SHL SUB DUP2 AND SWAP1 PUSH1 0x1 PUSH1 0xA0 SHL SWAP1 DIV PUSH2 0xFFFF AND JUMPDEST SWAP3 POP SWAP3 POP POP SWAP2 POP SWAP2 JUMP JUMPDEST PUSH1 0x60 DUP2 MLOAD DUP4 MLOAD EQ PUSH2 0xA5D JUMPI PUSH1 0x40 MLOAD PUSH3 0x461BCD PUSH1 0xE5 SHL DUP2 MSTORE PUSH1 0x20 PUSH1 0x4 DUP3 ADD MSTORE PUSH1 0xF PUSH1 0x24 DUP3 ADD MSTORE PUSH15 0x988A9C8EA890BE9A92A69A82A8869 PUSH1 0x8B SHL PUSH1 0x44 DUP3 ADD MSTORE PUSH1 0x64 ADD PUSH2 0x7A3 JUMP JUMPDEST PUSH0 DUP4 MLOAD PUSH8 0xFFFFFFFFFFFFFFFF DUP2 GT ISZERO PUSH2 0xA78 JUMPI PUSH2 0xA78 PUSH2 0x2574 JUMP JUMPDEST PUSH1 0x40 MLOAD SWAP1 DUP1 DUP3 MSTORE DUP1 PUSH1 0x20 MUL PUSH1 0x20 ADD DUP3 ADD PUSH1 0x40 MSTORE DUP1 ISZERO PUSH2 0xAA1 JUMPI DUP2 PUSH1 0x20 ADD PUSH1 0x20 DUP3 MUL DUP1 CALLDATASIZE DUP4 CALLDATACOPY ADD SWAP1 POP JUMPDEST POP SWAP1 POP PUSH0 JUMPDEST DUP5 MLOAD DUP2 LT ISZERO PUSH2 0xB39 JUMPI PUSH1 0x2 PUSH0 DUP7 DUP4 DUP2 MLOAD DUP2 LT PUSH2 0xAC4 JUMPI PUSH2 0xAC4 PUSH2 0x2C15 JUMP JUMPDEST PUSH1 0x20 MUL PUSH1 0x20 ADD ADD MLOAD PUSH1 0x1 PUSH1 0x1 PUSH1 0xA0 SHL SUB AND PUSH1 0x1 PUSH1 0x1 PUSH1 0xA0 SHL SUB AND DUP2 MSTORE PUSH1 0x20 ADD SWAP1 DUP2 MSTORE PUSH1 0x20 ADD PUSH0 KECCAK256 PUSH0 DUP6 DUP4 DUP2 MLOAD DUP2 LT PUSH2 0xAFE JUMPI PUSH2 0xAFE PUSH2 0x2C15 JUMP JUMPDEST PUSH1 0x20 MUL PUSH1 0x20 ADD ADD MLOAD DUP2 MSTORE PUSH1 0x20 ADD SWAP1 DUP2 MSTORE PUSH1 0x20 ADD PUSH0 KECCAK256 SLOAD DUP3 DUP3 DUP2 MLOAD DUP2 LT PUSH2 0xB26 JUMPI PUSH2 0xB26 PUSH2 0x2C15 JUMP JUMPDEST PUSH1 0x20 SWAP1 DUP2 MUL SWAP2 SWAP1 SWAP2 ADD ADD MSTORE PUSH1 0x1 ADD PUSH2 0xAA6 JUMP JUMPDEST POP SWAP4 SWAP3 POP POP POP JUMP JUMPDEST PUSH2 0xB49 PUSH2 0x14C9 JUMP JUMPDEST PUSH2 0xB66 JUMPI PUSH1 0x40 MLOAD PUSH4 0x6FAE3581 PUSH1 0xE1 SHL DUP2 MSTORE PUSH1 0x4 ADD PUSH1 0x40 MLOAD DUP1 SWAP2 SUB SWAP1 REVERT JUMPDEST PUSH2 0xB70 DUP3 DUP3 PUSH2 0x1780 JUMP JUMPDEST POP POP JUMP JUMPDEST CALLER PUSH1 0x1 PUSH1 0x1 PUSH1 0xA0 SHL SUB DUP5 AND DUP2 EQ DUP1 PUSH2 0xBB0 JUMPI POP PUSH1 0x1 PUSH1 0x1 PUSH1 0xA0 SHL SUB DUP1 DUP6 AND PUSH0 SWAP1 DUP2 MSTORE PUSH1 0x3 PUSH1 0x20 SWAP1 DUP2 MSTORE PUSH1 0x40 DUP1 DUP4 KECCAK256 SWAP4 DUP6 AND DUP4 MSTORE SWAP3 SWAP1 MSTORE KECCAK256 SLOAD PUSH1 0xFF AND JUMPDEST PUSH2 0xBFC JUMPI PUSH1 0x40 MLOAD PUSH3 0x461BCD PUSH1 0xE5 SHL DUP2 MSTORE PUSH1 0x20 PUSH1 0x4 DUP3 ADD MSTORE PUSH1 0x11 PUSH1 0x24 DUP3 ADD MSTORE PUSH32 0x556E617070726F7665642063616C6C6572000000000000000000000000000000 PUSH1 0x44 DUP3 ADD MSTORE PUSH1 0x64 ADD PUSH2 0x7A3 JUMP JUMPDEST DUP2 MLOAD DUP4 MLOAD EQ PUSH2 0xC4D JUMPI PUSH1 0x40 MLOAD PUSH3 0x461BCD PUSH1 0xE5 SHL DUP2 MSTORE PUSH1 0x20 PUSH1 0x4 DUP3 ADD MSTORE PUSH1 0xF PUSH1 0x24 DUP3 ADD MSTORE PUSH32 0x4C656E677468206D69736D617463680000000000000000000000000000000000 PUSH1 0x44 DUP3 ADD MSTORE PUSH1 0x64 ADD PUSH2 0x7A3 JUMP JUMPDEST PUSH0 JUMPDEST DUP4 MLOAD DUP2 LT ISZERO PUSH2 0xD1E JUMPI DUP3 DUP2 DUP2 MLOAD DUP2 LT PUSH2 0xC6A JUMPI PUSH2 0xC6A PUSH2 0x2C15 JUMP JUMPDEST PUSH1 0x20 MUL PUSH1 0x20 ADD ADD MLOAD PUSH1 0x2 PUSH0 DUP8 PUSH1 0x1 PUSH1 0x1 PUSH1 0xA0 SHL SUB AND PUSH1 0x1 PUSH1 0x1 PUSH1 0xA0 SHL SUB AND DUP2 MSTORE PUSH1 0x20 ADD SWAP1 DUP2 MSTORE PUSH1 0x20 ADD PUSH0 KECCAK256 PUSH0 DUP7 DUP5 DUP2 MLOAD DUP2 LT PUSH2 0xCA8 JUMPI PUSH2 0xCA8 PUSH2 0x2C15 JUMP JUMPDEST PUSH1 0x20 MUL PUSH1 0x20 ADD ADD MLOAD DUP2 MSTORE PUSH1 0x20 ADD SWAP1 DUP2 MSTORE PUSH1 0x20 ADD PUSH0 KECCAK256 SLOAD LT ISZERO PUSH2 0xD0C JUMPI PUSH1 0x40 MLOAD PUSH3 0x461BCD PUSH1 0xE5 SHL DUP2 MSTORE PUSH1 0x20 PUSH1 0x4 DUP3 ADD MSTORE PUSH1 0x17 PUSH1 0x24 DUP3 ADD MSTORE PUSH32 0x4E6F7420656E6F75676820746F6B656E73206F776E6564000000000000000000 PUSH1 0x44 DUP3 ADD MSTORE PUSH1 0x64 ADD PUSH2 0x7A3 JUMP JUMPDEST PUSH2 0xD17 PUSH1 0x1 DUP3 PUSH2 0x2C7B JUMP JUMPDEST SWAP1 POP PUSH2 0xC4F JUMP JUMPDEST POP PUSH2 0xD2A DUP5 DUP5 DUP5 PUSH2 0x1828 JUMP JUMPDEST POP POP POP POP JUMP JUMPDEST PUSH2 0xD38 PUSH2 0x14C9 JUMP JUMPDEST PUSH2 0xD55 JUMPI PUSH1 0x40 MLOAD PUSH4 0x9F7F0925 PUSH1 0xE0 SHL DUP2 MSTORE PUSH1 0x4 ADD PUSH1 0x40 MLOAD DUP1 SWAP2 SUB SWAP1 REVERT JUMPDEST PUSH2 0x778 DUP2 PUSH2 0x1A0F JUMP JUMPDEST PUSH1 0x1 DUP1 SLOAD PUSH2 0x68B SWAP1 PUSH2 0x2BB2 JUMP JUMPDEST PUSH2 0xD73 PUSH2 0x14C9 JUMP JUMPDEST PUSH2 0xD90 JUMPI PUSH1 0x40 MLOAD PUSH4 0x6FAE3581 PUSH1 0xE1 SHL DUP2 MSTORE PUSH1 0x4 ADD PUSH1 0x40 MLOAD DUP1 SWAP2 SUB SWAP1 REVERT JUMPDEST PUSH2 0x35E DUP4 DUP4 DUP4 PUSH2 0x1AE8 JUMP JUMPDEST CALLER PUSH1 0x1 PUSH1 0x1 PUSH1 0xA0 SHL SUB DUP4 AND DUP2 SUB PUSH2 0xDF4 JUMPI PUSH1 0x40 MLOAD PUSH3 0x461BCD PUSH1 0xE5 SHL DUP2 MSTORE PUSH1 0x20 PUSH1 0x4 DUP3 ADD MSTORE PUSH1 0xE PUSH1 0x24 DUP3 ADD MSTORE PUSH32 0x415050524F56494E475F53454C46000000000000000000000000000000000000 PUSH1 0x44 DUP3 ADD MSTORE PUSH1 0x64 ADD PUSH2 0x7A3 JUMP JUMPDEST PUSH1 0x1 PUSH1 0x1 PUSH1 0xA0 SHL SUB DUP2 DUP2 AND PUSH0 DUP2 DUP2 MSTORE PUSH1 0x3 PUSH1 0x20 SWAP1 DUP2 MSTORE PUSH1 0x40 DUP1 DUP4 KECCAK256 SWAP5 DUP9 AND DUP1 DUP5 MSTORE SWAP5 DUP3 MSTORE SWAP2 DUP3 SWAP1 KECCAK256 DUP1 SLOAD PUSH1 0xFF NOT AND DUP8 ISZERO ISZERO SWAP1 DUP2 OR SWAP1 SWAP2 SSTORE SWAP2 MLOAD SWAP2 DUP3 MSTORE PUSH32 0x17307EAB39AB6107E8899845AD3D59BD9653F200F220920489CA2B5937696C31 SWAP2 ADD JUMPDEST PUSH1 0x40 MLOAD DUP1 SWAP2 SUB SWAP1 LOG3 POP POP POP JUMP JUMPDEST PUSH1 0x60 DUP2 PUSH8 0xFFFFFFFFFFFFFFFF DUP2 GT ISZERO PUSH2 0xE7C JUMPI PUSH2 0xE7C PUSH2 0x2574 JUMP JUMPDEST PUSH1 0x40 MLOAD SWAP1 DUP1 DUP3 MSTORE DUP1 PUSH1 0x20 MUL PUSH1 0x20 ADD DUP3 ADD PUSH1 0x40 MSTORE DUP1 ISZERO PUSH2 0xEAF JUMPI DUP2 PUSH1 0x20 ADD JUMPDEST PUSH1 0x60 DUP2 MSTORE PUSH1 0x20 ADD SWAP1 PUSH1 0x1 SWAP1 SUB SWAP1 DUP2 PUSH2 0xE9A JUMPI SWAP1 POP JUMPDEST POP SWAP1 POP CALLER PUSH0 DUP1 JUMPDEST DUP5 DUP2 LT ISZERO PUSH2 0xFBC JUMPI DUP2 ISZERO PUSH2 0xF35 JUMPI PUSH2 0xF13 ADDRESS DUP8 DUP8 DUP5 DUP2 DUP2 LT PUSH2 0xEDA JUMPI PUSH2 0xEDA PUSH2 0x2C15 JUMP JUMPDEST SWAP1 POP PUSH1 0x20 MUL DUP2 ADD SWAP1 PUSH2 0xEEC SWAP2 SWAP1 PUSH2 0x2C8E JUMP JUMPDEST DUP7 PUSH1 0x40 MLOAD PUSH1 0x20 ADD PUSH2 0xEFF SWAP4 SWAP3 SWAP2 SWAP1 PUSH2 0x2CD1 JUMP JUMPDEST PUSH1 0x40 MLOAD PUSH1 0x20 DUP2 DUP4 SUB SUB DUP2 MSTORE SWAP1 PUSH1 0x40 MSTORE PUSH2 0x1B9F JUMP JUMPDEST DUP5 DUP3 DUP2 MLOAD DUP2 LT PUSH2 0xF25 JUMPI PUSH2 0xF25 PUSH2 0x2C15 JUMP JUMPDEST PUSH1 0x20 MUL PUSH1 0x20 ADD ADD DUP2 SWAP1 MSTORE POP PUSH2 0xFB4 JUMP JUMPDEST PUSH2 0xF96 ADDRESS DUP8 DUP8 DUP5 DUP2 DUP2 LT PUSH2 0xF4B JUMPI PUSH2 0xF4B PUSH2 0x2C15 JUMP JUMPDEST SWAP1 POP PUSH1 0x20 MUL DUP2 ADD SWAP1 PUSH2 0xF5D SWAP2 SWAP1 PUSH2 0x2C8E JUMP JUMPDEST DUP1 DUP1 PUSH1 0x1F ADD PUSH1 0x20 DUP1 SWAP2 DIV MUL PUSH1 0x20 ADD PUSH1 0x40 MLOAD SWAP1 DUP2 ADD PUSH1 0x40 MSTORE DUP1 SWAP4 SWAP3 SWAP2 SWAP1 DUP2 DUP2 MSTORE PUSH1 0x20 ADD DUP4 DUP4 DUP1 DUP3 DUP5 CALLDATACOPY PUSH0 SWAP3 ADD SWAP2 SWAP1 SWAP2 MSTORE POP PUSH2 0x1B9F SWAP3 POP POP POP JUMP JUMPDEST DUP5 DUP3 DUP2 MLOAD DUP2 LT PUSH2 0xFA8 JUMPI PUSH2 0xFA8 PUSH2 0x2C15 JUMP JUMPDEST PUSH1 0x20 MUL PUSH1 0x20 ADD ADD DUP2 SWAP1 MSTORE POP JUMPDEST PUSH1 0x1 ADD PUSH2 0xEB6 JUMP JUMPDEST POP POP POP SWAP3 SWAP2 POP POP JUMP JUMPDEST PUSH0 DUP6 PUSH0 SUB PUSH2 0xFE6 JUMPI PUSH1 0x40 MLOAD PUSH4 0x8FD36A9B PUSH1 0xE0 SHL DUP2 MSTORE PUSH1 0x4 ADD PUSH1 0x40 MLOAD DUP1 SWAP2 SUB SWAP1 REVERT JUMPDEST PUSH0 PUSH1 0xC SLOAD SWAP1 POP PUSH2 0x102C DUP2 DUP9 DUP9 DUP9 DUP1 DUP1 PUSH1 0x1F ADD PUSH1 0x20 DUP1 SWAP2 DIV MUL PUSH1 0x20 ADD PUSH1 0x40 MLOAD SWAP1 DUP2 ADD PUSH1 0x40 MSTORE DUP1 SWAP4 SWAP3 SWAP2 SWAP1 DUP2 DUP2 MSTORE PUSH1 0x20 ADD DUP4 DUP4 DUP1 DUP3 DUP5 CALLDATACOPY PUSH0 SWAP3 ADD SWAP2 SWAP1 SWAP2 MSTORE POP PUSH2 0x1BCB SWAP3 POP POP POP JUMP JUMPDEST PUSH1 0xC SWAP2 SWAP1 SWAP2 SSTORE SWAP2 POP DUP1 PUSH32 0x2A0365091EF1A40953C670DCE28177E37520648A6FDC91506BFFAC0AB045570D PUSH1 0x1 PUSH2 0x1062 DUP11 DUP5 PUSH2 0x2C7B JUMP JUMPDEST PUSH2 0x106C SWAP2 SWAP1 PUSH2 0x2CF7 JUMP JUMPDEST DUP9 DUP9 DUP9 DUP9 PUSH1 0x40 MLOAD PUSH2 0x1081 SWAP6 SWAP5 SWAP4 SWAP3 SWAP2 SWAP1 PUSH2 0x2D32 JUMP JUMPDEST PUSH1 0x40 MLOAD DUP1 SWAP2 SUB SWAP1 LOG2 POP SWAP6 SWAP5 POP POP POP POP POP JUMP JUMPDEST PUSH1 0x5 DUP1 SLOAD PUSH2 0x68B SWAP1 PUSH2 0x2BB2 JUMP JUMPDEST PUSH1 0x1 PUSH1 0x1 PUSH1 0xA0 SHL SUB DUP6 AND CALLER EQ DUP1 PUSH2 0x10D9 JUMPI POP PUSH1 0x1 PUSH1 0x1 PUSH1 0xA0 SHL SUB DUP6 AND PUSH0 SWAP1 DUP2 MSTORE PUSH1 0x3 PUSH1 0x20 SWAP1 DUP2 MSTORE PUSH1 0x40 DUP1 DUP4 KECCAK256 CALLER DUP5 MSTORE SWAP1 SWAP2 MSTORE SWAP1 KECCAK256 SLOAD PUSH1 0xFF AND JUMPDEST PUSH2 0x1125 JUMPI PUSH1 0x40 MLOAD PUSH3 0x461BCD PUSH1 0xE5 SHL DUP2 MSTORE PUSH1 0x20 PUSH1 0x4 DUP3 ADD MSTORE PUSH1 0x12 PUSH1 0x24 DUP3 ADD MSTORE PUSH32 0x214F574E45525F4F525F415050524F5645440000000000000000000000000000 PUSH1 0x44 DUP3 ADD MSTORE PUSH1 0x64 ADD PUSH2 0x7A3 JUMP JUMPDEST PUSH2 0x9A7 DUP6 DUP6 DUP6 DUP6 DUP6 PUSH2 0x1C2D JUMP JUMPDEST CALLER PUSH1 0x1 PUSH1 0x1 PUSH1 0xA0 SHL SUB DUP5 AND DUP2 EQ DUP1 PUSH2 0x116E JUMPI POP PUSH1 0x1 PUSH1 0x1 PUSH1 0xA0 SHL SUB DUP1 DUP6 AND PUSH0 SWAP1 DUP2 MSTORE PUSH1 0x3 PUSH1 0x20 SWAP1 DUP2 MSTORE PUSH1 0x40 DUP1 DUP4 KECCAK256 SWAP4 DUP6 AND DUP4 MSTORE SWAP3 SWAP1 MSTORE KECCAK256 SLOAD PUSH1 0xFF AND JUMPDEST PUSH2 0x11BA JUMPI PUSH1 0x40 MLOAD PUSH3 0x461BCD PUSH1 0xE5 SHL DUP2 MSTORE PUSH1 0x20 PUSH1 0x4 DUP3 ADD MSTORE PUSH1 0x11 PUSH1 0x24 DUP3 ADD MSTORE PUSH32 0x556E617070726F7665642063616C6C6572000000000000000000000000000000 PUSH1 0x44 DUP3 ADD MSTORE PUSH1 0x64 ADD PUSH2 0x7A3 JUMP JUMPDEST PUSH1 0x1 PUSH1 0x1 PUSH1 0xA0 SHL SUB DUP5 AND PUSH0 SWAP1 DUP2 MSTORE PUSH1 0x2 PUSH1 0x20 SWAP1 DUP2 MSTORE PUSH1 0x40 DUP1 DUP4 KECCAK256 DUP7 DUP5 MSTORE SWAP1 SWAP2 MSTORE SWAP1 KECCAK256 SLOAD DUP3 GT ISZERO PUSH2 0x122C JUMPI PUSH1 0x40 MLOAD PUSH3 0x461BCD PUSH1 0xE5 SHL DUP2 MSTORE PUSH1 0x20 PUSH1 0x4 DUP3 ADD MSTORE PUSH1 0x17 PUSH1 0x24 DUP3 ADD MSTORE PUSH32 0x4E6F7420656E6F75676820746F6B656E73206F776E6564000000000000000000 PUSH1 0x44 DUP3 ADD MSTORE PUSH1 0x64 ADD PUSH2 0x7A3 JUMP JUMPDEST PUSH2 0xD2A DUP5 DUP5 DUP5 PUSH2 0x1DAB JUMP JUMPDEST PUSH1 0x60 PUSH0 PUSH2 0x1243 PUSH1 0x9 SLOAD SWAP1 JUMP JUMPDEST SWAP1 POP PUSH0 PUSH1 0x9 DUP1 SLOAD DUP1 PUSH1 0x20 MUL PUSH1 0x20 ADD PUSH1 0x40 MLOAD SWAP1 DUP2 ADD PUSH1 0x40 MSTORE DUP1 SWAP3 SWAP2 SWAP1 DUP2 DUP2 MSTORE PUSH1 0x20 ADD DUP3 DUP1 SLOAD DUP1 ISZERO PUSH2 0x1290 JUMPI PUSH1 0x20 MUL DUP3 ADD SWAP2 SWAP1 PUSH0 MSTORE PUSH1 0x20 PUSH0 KECCAK256 SWAP1 JUMPDEST DUP2 SLOAD DUP2 MSTORE PUSH1 0x20 ADD SWAP1 PUSH1 0x1 ADD SWAP1 DUP1 DUP4 GT PUSH2 0x127C JUMPI JUMPDEST POP POP POP POP POP SWAP1 POP PUSH0 JUMPDEST DUP3 DUP2 LT ISZERO PUSH2 0x138F JUMPI DUP2 DUP2 DUP2 MLOAD DUP2 LT PUSH2 0x12B3 JUMPI PUSH2 0x12B3 PUSH2 0x2C15 JUMP JUMPDEST PUSH1 0x20 MUL PUSH1 0x20 ADD ADD MLOAD DUP6 LT ISZERO PUSH2 0x137D JUMPI PUSH1 0xA PUSH0 DUP4 DUP4 DUP2 MLOAD DUP2 LT PUSH2 0x12D7 JUMPI PUSH2 0x12D7 PUSH2 0x2C15 JUMP JUMPDEST PUSH1 0x20 MUL PUSH1 0x20 ADD ADD MLOAD DUP2 MSTORE PUSH1 0x20 ADD SWAP1 DUP2 MSTORE PUSH1 0x20 ADD PUSH0 KECCAK256 DUP1 SLOAD PUSH2 0x12F7 SWAP1 PUSH2 0x2BB2 JUMP JUMPDEST DUP1 PUSH1 0x1F ADD PUSH1 0x20 DUP1 SWAP2 DIV MUL PUSH1 0x20 ADD PUSH1 0x40 MLOAD SWAP1 DUP2 ADD PUSH1 0x40 MSTORE DUP1 SWAP3 SWAP2 SWAP1 DUP2 DUP2 MSTORE PUSH1 0x20 ADD DUP3 DUP1 SLOAD PUSH2 0x1323 SWAP1 PUSH2 0x2BB2 JUMP JUMPDEST DUP1 ISZERO PUSH2 0x136E JUMPI DUP1 PUSH1 0x1F LT PUSH2 0x1345 JUMPI PUSH2 0x100 DUP1 DUP4 SLOAD DIV MUL DUP4 MSTORE SWAP2 PUSH1 0x20 ADD SWAP2 PUSH2 0x136E JUMP JUMPDEST DUP3 ADD SWAP2 SWAP1 PUSH0 MSTORE PUSH1 0x20 PUSH0 KECCAK256 SWAP1 JUMPDEST DUP2 SLOAD DUP2 MSTORE SWAP1 PUSH1 0x1 ADD SWAP1 PUSH1 0x20 ADD DUP1 DUP4 GT PUSH2 0x1351 JUMPI DUP3 SWAP1 SUB PUSH1 0x1F AND DUP3 ADD SWAP2 JUMPDEST POP POP POP POP POP SWAP4 POP POP POP POP SWAP2 SWAP1 POP JUMP JUMPDEST PUSH2 0x1388 PUSH1 0x1 DUP3 PUSH2 0x2C7B JUMP JUMPDEST SWAP1 POP PUSH2 0x1299 JUMP JUMPDEST POP PUSH1 0x40 MLOAD PUSH4 0x9797F69 PUSH1 0xE2 SHL DUP2 MSTORE PUSH1 0x4 DUP2 ADD DUP6 SWAP1 MSTORE PUSH1 0x24 ADD PUSH2 0x7A3 JUMP JUMPDEST PUSH1 0x60 DUP2 PUSH0 SUB PUSH2 0x13D2 JUMPI POP POP PUSH1 0x40 DUP1 MLOAD DUP1 DUP3 ADD SWAP1 SWAP2 MSTORE PUSH1 0x1 DUP2 MSTORE PUSH1 0x3 PUSH1 0xFC SHL PUSH1 0x20 DUP3 ADD MSTORE SWAP1 JUMP JUMPDEST DUP2 PUSH0 JUMPDEST DUP2 ISZERO PUSH2 0x13FB JUMPI DUP1 PUSH2 0x13E5 DUP2 PUSH2 0x2D6A JUMP JUMPDEST SWAP2 POP PUSH2 0x13F4 SWAP1 POP PUSH1 0xA DUP4 PUSH2 0x2C68 JUMP JUMPDEST SWAP2 POP PUSH2 0x13D5 JUMP JUMPDEST PUSH0 DUP2 PUSH8 0xFFFFFFFFFFFFFFFF DUP2 GT ISZERO PUSH2 0x1415 JUMPI PUSH2 0x1415 PUSH2 0x2574 JUMP JUMPDEST PUSH1 0x40 MLOAD SWAP1 DUP1 DUP3 MSTORE DUP1 PUSH1 0x1F ADD PUSH1 0x1F NOT AND PUSH1 0x20 ADD DUP3 ADD PUSH1 0x40 MSTORE DUP1 ISZERO PUSH2 0x143F JUMPI PUSH1 0x20 DUP3 ADD DUP2 DUP1 CALLDATASIZE DUP4 CALLDATACOPY ADD SWAP1 POP JUMPDEST POP SWAP1 POP JUMPDEST DUP5 ISZERO PUSH2 0x14C1 JUMPI PUSH2 0x1454 PUSH1 0x1 DUP4 PUSH2 0x2CF7 JUMP JUMPDEST SWAP2 POP PUSH2 0x1461 PUSH1 0xA DUP7 PUSH2 0x2D82 JUMP JUMPDEST PUSH2 0x146C SWAP1 PUSH1 0x30 PUSH2 0x2C7B JUMP JUMPDEST PUSH1 0xF8 SHL DUP2 DUP4 DUP2 MLOAD DUP2 LT PUSH2 0x1481 JUMPI PUSH2 0x1481 PUSH2 0x2C15 JUMP JUMPDEST PUSH1 0x20 ADD ADD SWAP1 PUSH31 0xFFFFFFFFFFFFFFFFFFFFFFFFFFFFFFFFFFFFFFFFFFFFFFFFFFFFFFFFFFFFFF NOT AND SWAP1 DUP2 PUSH0 BYTE SWAP1 MSTORE8 POP PUSH2 0x14BA PUSH1 0xA DUP7 PUSH2 0x2C68 JUMP JUMPDEST SWAP5 POP PUSH2 0x1443 JUMP JUMPDEST SWAP5 SWAP4 POP POP POP POP JUMP JUMPDEST PUSH0 PUSH2 0x14DC PUSH1 0x6 SLOAD PUSH1 0x1 PUSH1 0x1 PUSH1 0xA0 SHL SUB AND SWAP1 JUMP JUMPDEST PUSH1 0x1 PUSH1 0x1 PUSH1 0xA0 SHL SUB AND CALLER PUSH1 0x1 PUSH1 0x1 PUSH1 0xA0 SHL SUB AND EQ SWAP1 POP SWAP1 JUMP JUMPDEST PUSH1 0x6 DUP1 SLOAD PUSH1 0x1 PUSH1 0x1 PUSH1 0xA0 SHL SUB DUP4 DUP2 AND PUSH20 0xFFFFFFFFFFFFFFFFFFFFFFFFFFFFFFFFFFFFFFFF NOT DUP4 AND DUP2 OR SWAP1 SWAP4 SSTORE PUSH1 0x40 MLOAD SWAP2 AND SWAP2 SWAP1 DUP3 SWAP1 PUSH32 0x8292FCE18FA69EDF4DB7B94EA2E58241DF0AE57F97E0A6C9B29067028BF92D76 SWAP1 PUSH0 SWAP1 LOG3 POP POP JUMP JUMPDEST PUSH2 0x35E DUP4 DUP4 DUP4 PUSH1 0x40 MLOAD DUP1 PUSH1 0x20 ADD PUSH1 0x40 MSTORE DUP1 PUSH0 DUP2 MSTORE POP PUSH2 0x1EEF JUMP JUMPDEST DUP2 MLOAD DUP4 MLOAD EQ PUSH2 0x15B0 JUMPI PUSH1 0x40 MLOAD PUSH3 0x461BCD PUSH1 0xE5 SHL DUP2 MSTORE PUSH1 0x20 PUSH1 0x4 DUP3 ADD MSTORE PUSH1 0xF PUSH1 0x24 DUP3 ADD MSTORE PUSH15 0x988A9C8EA890BE9A92A69A82A8869 PUSH1 0x8B SHL PUSH1 0x44 DUP3 ADD MSTORE PUSH1 0x64 ADD PUSH2 0x7A3 JUMP JUMPDEST PUSH1 0x1 PUSH1 0x1 PUSH1 0xA0 SHL SUB DUP5 AND PUSH2 0x15F5 JUMPI PUSH1 0x40 MLOAD PUSH3 0x461BCD PUSH1 0xE5 SHL DUP2 MSTORE PUSH1 0x20 PUSH1 0x4 DUP3 ADD MSTORE PUSH1 0xC PUSH1 0x24 DUP3 ADD MSTORE PUSH12 0x2A27AFAD22A927AFA0A22229 PUSH1 0xA1 SHL PUSH1 0x44 DUP3 ADD MSTORE PUSH1 0x64 ADD PUSH2 0x7A3 JUMP JUMPDEST CALLER PUSH2 0x1604 DUP2 DUP8 DUP8 DUP8 DUP8 DUP8 PUSH2 0x1FD4 JUMP JUMPDEST PUSH0 JUMPDEST DUP5 MLOAD DUP2 LT ISZERO PUSH2 0x1712 JUMPI PUSH0 DUP6 DUP3 DUP2 MLOAD DUP2 LT PUSH2 0x1622 JUMPI PUSH2 0x1622 PUSH2 0x2C15 JUMP JUMPDEST PUSH1 0x20 MUL PUSH1 0x20 ADD ADD MLOAD SWAP1 POP PUSH0 DUP6 DUP4 DUP2 MLOAD DUP2 LT PUSH2 0x163F JUMPI PUSH2 0x163F PUSH2 0x2C15 JUMP JUMPDEST PUSH1 0x20 SWAP1 DUP2 MUL SWAP2 SWAP1 SWAP2 ADD DUP2 ADD MLOAD PUSH1 0x1 PUSH1 0x1 PUSH1 0xA0 SHL SUB DUP12 AND PUSH0 SWAP1 DUP2 MSTORE PUSH1 0x2 DUP4 MSTORE PUSH1 0x40 DUP1 DUP3 KECCAK256 DUP7 DUP4 MSTORE SWAP1 SWAP4 MSTORE SWAP2 SWAP1 SWAP2 KECCAK256 SLOAD SWAP1 SWAP2 POP DUP2 DUP2 LT ISZERO PUSH2 0x16B3 JUMPI PUSH1 0x40 MLOAD PUSH3 0x461BCD PUSH1 0xE5 SHL DUP2 MSTORE PUSH1 0x20 PUSH1 0x4 DUP3 ADD MSTORE PUSH1 0x10 PUSH1 0x24 DUP3 ADD MSTORE PUSH16 0x125394D551919250D251539517D09053 PUSH1 0x82 SHL PUSH1 0x44 DUP3 ADD MSTORE PUSH1 0x64 ADD PUSH2 0x7A3 JUMP JUMPDEST PUSH1 0x1 PUSH1 0x1 PUSH1 0xA0 SHL SUB DUP1 DUP12 AND PUSH0 SWAP1 DUP2 MSTORE PUSH1 0x2 PUSH1 0x20 DUP2 DUP2 MSTORE PUSH1 0x40 DUP1 DUP5 KECCAK256 DUP9 DUP6 MSTORE DUP3 MSTORE DUP1 DUP5 KECCAK256 DUP8 DUP8 SUB SWAP1 SSTORE SWAP4 DUP14 AND DUP4 MSTORE SWAP1 DUP2 MSTORE DUP3 DUP3 KECCAK256 DUP7 DUP4 MSTORE SWAP1 MSTORE SWAP1 DUP2 KECCAK256 DUP1 SLOAD DUP5 SWAP3 SWAP1 PUSH2 0x16FE SWAP1 DUP5 SWAP1 PUSH2 0x2C7B JUMP JUMPDEST SWAP1 SWAP2 SSTORE POP POP PUSH1 0x1 SWAP1 SWAP4 ADD SWAP3 POP PUSH2 0x1606 SWAP2 POP POP JUMP JUMPDEST POP DUP5 PUSH1 0x1 PUSH1 0x1 PUSH1 0xA0 SHL SUB AND DUP7 PUSH1 0x1 PUSH1 0x1 PUSH1 0xA0 SHL SUB AND DUP3 PUSH1 0x1 PUSH1 0x1 PUSH1 0xA0 SHL SUB AND PUSH32 0x4A39DC06D4C0DBC64B70AF90FD698A233A518AA5D07E595D983B8C0526C8F7FB DUP8 DUP8 PUSH1 0x40 MLOAD PUSH2 0x1762 SWAP3 SWAP2 SWAP1 PUSH2 0x2D95 JUMP JUMPDEST PUSH1 0x40 MLOAD DUP1 SWAP2 SUB SWAP1 LOG4 PUSH2 0x1778 DUP2 DUP8 DUP8 DUP8 DUP8 DUP8 PUSH2 0x20C6 JUMP JUMPDEST POP POP POP POP POP POP JUMP JUMPDEST PUSH2 0x2710 DUP2 GT ISZERO PUSH2 0x17AE JUMPI PUSH1 0x40 MLOAD PUSH4 0xA4930AD PUSH1 0xE3 SHL DUP2 MSTORE PUSH2 0x2710 PUSH1 0x4 DUP3 ADD MSTORE PUSH1 0x24 DUP2 ADD DUP3 SWAP1 MSTORE PUSH1 0x44 ADD PUSH2 0x7A3 JUMP JUMPDEST PUSH1 0x7 DUP1 SLOAD PUSH1 0x1 PUSH1 0x1 PUSH1 0xA0 SHL SUB DUP5 AND PUSH32 0xFFFFFFFFFFFFFFFFFFFF00000000000000000000000000000000000000000000 SWAP1 SWAP2 AND DUP2 OR PUSH1 0x1 PUSH1 0xA0 SHL PUSH2 0xFFFF DUP6 AND MUL OR SWAP1 SWAP2 SSTORE PUSH1 0x40 MLOAD DUP3 DUP2 MSTORE PUSH32 0x90D7EC04BCB8978719414F82E52E4CB651DB41D0E6F8CEA6118C2191E6183ADB SWAP1 PUSH1 0x20 ADD PUSH1 0x40 MLOAD DUP1 SWAP2 SUB SWAP1 LOG2 POP POP JUMP JUMPDEST PUSH1 0x1 PUSH1 0x1 PUSH1 0xA0 SHL SUB DUP4 AND PUSH2 0x186F JUMPI PUSH1 0x40 MLOAD PUSH3 0x461BCD PUSH1 0xE5 SHL DUP2 MSTORE PUSH1 0x20 PUSH1 0x4 DUP3 ADD MSTORE PUSH1 0xE PUSH1 0x24 DUP3 ADD MSTORE PUSH14 0x232927A6AFAD22A927AFA0A22229 PUSH1 0x91 SHL PUSH1 0x44 DUP3 ADD MSTORE PUSH1 0x64 ADD PUSH2 0x7A3 JUMP JUMPDEST DUP1 MLOAD DUP3 MLOAD EQ PUSH2 0x18B2 JUMPI PUSH1 0x40 MLOAD PUSH3 0x461BCD PUSH1 0xE5 SHL DUP2 MSTORE PUSH1 0x20 PUSH1 0x4 DUP3 ADD MSTORE PUSH1 0xF PUSH1 0x24 DUP3 ADD MSTORE PUSH15 0x988A9C8EA890BE9A92A69A82A8869 PUSH1 0x8B SHL PUSH1 0x44 DUP3 ADD MSTORE PUSH1 0x64 ADD PUSH2 0x7A3 JUMP JUMPDEST PUSH0 CALLER SWAP1 POP PUSH2 0x18D2 DUP2 DUP6 PUSH0 DUP7 DUP7 PUSH1 0x40 MLOAD DUP1 PUSH1 0x20 ADD PUSH1 0x40 MSTORE DUP1 PUSH0 DUP2 MSTORE POP PUSH2 0x1FD4 JUMP JUMPDEST PUSH0 JUMPDEST DUP4 MLOAD DUP2 LT ISZERO PUSH2 0x19B1 JUMPI PUSH0 DUP5 DUP3 DUP2 MLOAD DUP2 LT PUSH2 0x18F0 JUMPI PUSH2 0x18F0 PUSH2 0x2C15 JUMP JUMPDEST PUSH1 0x20 MUL PUSH1 0x20 ADD ADD MLOAD SWAP1 POP PUSH0 DUP5 DUP4 DUP2 MLOAD DUP2 LT PUSH2 0x190D JUMPI PUSH2 0x190D PUSH2 0x2C15 JUMP JUMPDEST PUSH1 0x20 SWAP1 DUP2 MUL SWAP2 SWAP1 SWAP2 ADD DUP2 ADD MLOAD PUSH1 0x1 PUSH1 0x1 PUSH1 0xA0 SHL SUB DUP10 AND PUSH0 SWAP1 DUP2 MSTORE PUSH1 0x2 DUP4 MSTORE PUSH1 0x40 DUP1 DUP3 KECCAK256 DUP7 DUP4 MSTORE SWAP1 SWAP4 MSTORE SWAP2 SWAP1 SWAP2 KECCAK256 SLOAD SWAP1 SWAP2 POP DUP2 DUP2 LT ISZERO PUSH2 0x1981 JUMPI PUSH1 0x40 MLOAD PUSH3 0x461BCD PUSH1 0xE5 SHL DUP2 MSTORE PUSH1 0x20 PUSH1 0x4 DUP3 ADD MSTORE PUSH1 0x10 PUSH1 0x24 DUP3 ADD MSTORE PUSH16 0x125394D551919250D251539517D09053 PUSH1 0x82 SHL PUSH1 0x44 DUP3 ADD MSTORE PUSH1 0x64 ADD PUSH2 0x7A3 JUMP JUMPDEST PUSH1 0x1 PUSH1 0x1 PUSH1 0xA0 SHL SUB DUP9 AND PUSH0 SWAP1 DUP2 MSTORE PUSH1 0x2 PUSH1 0x20 SWAP1 DUP2 MSTORE PUSH1 0x40 DUP1 DUP4 KECCAK256 SWAP6 DUP4 MSTORE SWAP5 SWAP1 MSTORE SWAP3 SWAP1 SWAP3 KECCAK256 SWAP2 SUB SWAP1 SSTORE PUSH1 0x1 ADD PUSH2 0x18D4 JUMP JUMPDEST POP PUSH0 PUSH1 0x1 PUSH1 0x1 PUSH1 0xA0 SHL SUB AND DUP5 PUSH1 0x1 PUSH1 0x1 PUSH1 0xA0 SHL SUB AND DUP3 PUSH1 0x1 PUSH1 0x1 PUSH1 0xA0 SHL SUB AND PUSH32 0x4A39DC06D4C0DBC64B70AF90FD698A233A518AA5D07E595D983B8C0526C8F7FB DUP7 DUP7 PUSH1 0x40 MLOAD PUSH2 0x1A01 SWAP3 SWAP2 SWAP1 PUSH2 0x2D95 JUMP JUMPDEST PUSH1 0x40 MLOAD DUP1 SWAP2 SUB SWAP1 LOG4 POP POP POP POP JUMP JUMPDEST PUSH0 PUSH1 0x5 DUP1 SLOAD PUSH2 0x1A1D SWAP1 PUSH2 0x2BB2 JUMP JUMPDEST DUP1 PUSH1 0x1F ADD PUSH1 0x20 DUP1 SWAP2 DIV MUL PUSH1 0x20 ADD PUSH1 0x40 MLOAD SWAP1 DUP2 ADD PUSH1 0x40 MSTORE DUP1 SWAP3 SWAP2 SWAP1 DUP2 DUP2 MSTORE PUSH1 0x20 ADD DUP3 DUP1 SLOAD PUSH2 0x1A49 SWAP1 PUSH2 0x2BB2 JUMP JUMPDEST DUP1 ISZERO PUSH2 0x1A94 JUMPI DUP1 PUSH1 0x1F LT PUSH2 0x1A6B JUMPI PUSH2 0x100 DUP1 DUP4 SLOAD DIV MUL DUP4 MSTORE SWAP2 PUSH1 0x20 ADD SWAP2 PUSH2 0x1A94 JUMP JUMPDEST DUP3 ADD SWAP2 SWAP1 PUSH0 MSTORE PUSH1 0x20 PUSH0 KECCAK256 SWAP1 JUMPDEST DUP2 SLOAD DUP2 MSTORE SWAP1 PUSH1 0x1 ADD SWAP1 PUSH1 0x20 ADD DUP1 DUP4 GT PUSH2 0x1A77 JUMPI DUP3 SWAP1 SUB PUSH1 0x1F AND DUP3 ADD SWAP2 JUMPDEST POP POP POP POP POP SWAP1 POP DUP2 PUSH1 0x5 SWAP1 DUP2 PUSH2 0x1AAA SWAP2 SWAP1 PUSH2 0x2E06 JUMP JUMPDEST POP PUSH32 0xC9C7C3FE08B88B4DF9D4D47EF47D2C43D55C025A0BA88CA442580ED9E7348A16 DUP2 DUP4 PUSH1 0x40 MLOAD PUSH2 0x1ADC SWAP3 SWAP2 SWAP1 PUSH2 0x2EC2 JUMP JUMPDEST PUSH1 0x40 MLOAD DUP1 SWAP2 SUB SWAP1 LOG1 POP POP JUMP JUMPDEST PUSH2 0x2710 DUP2 GT ISZERO PUSH2 0x1B16 JUMPI PUSH1 0x40 MLOAD PUSH4 0xA4930AD PUSH1 0xE3 SHL DUP2 MSTORE PUSH2 0x2710 PUSH1 0x4 DUP3 ADD MSTORE PUSH1 0x24 DUP2 ADD DUP3 SWAP1 MSTORE PUSH1 0x44 ADD PUSH2 0x7A3 JUMP JUMPDEST PUSH1 0x40 DUP1 MLOAD DUP1 DUP3 ADD DUP3 MSTORE PUSH1 0x1 PUSH1 0x1 PUSH1 0xA0 SHL SUB DUP5 DUP2 AND DUP1 DUP4 MSTORE PUSH1 0x20 DUP1 DUP5 ADD DUP7 DUP2 MSTORE PUSH0 DUP10 DUP2 MSTORE PUSH1 0x8 DUP4 MSTORE DUP7 SWAP1 KECCAK256 SWAP5 MLOAD DUP6 SLOAD PUSH20 0xFFFFFFFFFFFFFFFFFFFFFFFFFFFFFFFFFFFFFFFF NOT AND SWAP5 AND SWAP4 SWAP1 SWAP4 OR DUP5 SSTORE SWAP2 MLOAD PUSH1 0x1 SWAP1 SWAP4 ADD SWAP3 SWAP1 SWAP3 SSTORE SWAP2 MLOAD DUP4 DUP2 MSTORE SWAP1 SWAP2 DUP6 SWAP2 PUSH32 0x7365CF4122F072A3365C20D54EFF9B38D73C096C28E1892EC8F5B0E403A0F12D SWAP2 ADD PUSH2 0xE54 JUMP JUMPDEST PUSH1 0x60 PUSH2 0x1BC4 DUP4 DUP4 PUSH1 0x40 MLOAD DUP1 PUSH1 0x60 ADD PUSH1 0x40 MSTORE DUP1 PUSH1 0x27 DUP2 MSTORE PUSH1 0x20 ADD PUSH2 0x3042 PUSH1 0x27 SWAP2 CODECOPY PUSH2 0x2225 JUMP JUMPDEST SWAP4 SWAP3 POP POP POP JUMP JUMPDEST PUSH0 DUP1 PUSH2 0x1BD7 DUP5 DUP7 PUSH2 0x2C7B JUMP JUMPDEST PUSH1 0x9 DUP1 SLOAD PUSH1 0x1 DUP2 ADD SWAP1 SWAP2 SSTORE PUSH32 0x6E1540171B6C0C960B71A7020D9F60077F6AF931A8BBF590DA0223DACF75C7AF ADD DUP2 SWAP1 SSTORE PUSH0 DUP2 DUP2 MSTORE PUSH1 0xA PUSH1 0x20 MSTORE PUSH1 0x40 SWAP1 KECCAK256 SWAP1 SWAP3 POP DUP3 SWAP2 POP PUSH2 0x1C24 DUP5 DUP3 PUSH2 0x2E06 JUMP JUMPDEST POP SWAP4 POP SWAP4 SWAP2 POP POP JUMP JUMPDEST PUSH1 0x1 PUSH1 0x1 PUSH1 0xA0 SHL SUB DUP5 AND PUSH2 0x1C72 JUMPI PUSH1 0x40 MLOAD PUSH3 0x461BCD PUSH1 0xE5 SHL DUP2 MSTORE PUSH1 0x20 PUSH1 0x4 DUP3 ADD MSTORE PUSH1 0xC PUSH1 0x24 DUP3 ADD MSTORE PUSH12 0x2A27AFAD22A927AFA0A22229 PUSH1 0xA1 SHL PUSH1 0x44 DUP3 ADD MSTORE PUSH1 0x64 ADD PUSH2 0x7A3 JUMP JUMPDEST CALLER PUSH2 0x1C91 DUP2 DUP8 DUP8 PUSH2 0x1C82 DUP9 PUSH2 0x2299 JUMP JUMPDEST PUSH2 0x1C8B DUP9 PUSH2 0x2299 JUMP JUMPDEST DUP8 PUSH2 0x1FD4 JUMP JUMPDEST PUSH1 0x1 PUSH1 0x1 PUSH1 0xA0 SHL SUB DUP7 AND PUSH0 SWAP1 DUP2 MSTORE PUSH1 0x2 PUSH1 0x20 SWAP1 DUP2 MSTORE PUSH1 0x40 DUP1 DUP4 KECCAK256 DUP8 DUP5 MSTORE SWAP1 SWAP2 MSTORE SWAP1 KECCAK256 SLOAD DUP4 DUP2 LT ISZERO PUSH2 0x1CF7 JUMPI PUSH1 0x40 MLOAD PUSH3 0x461BCD PUSH1 0xE5 SHL DUP2 MSTORE PUSH1 0x20 PUSH1 0x4 DUP3 ADD MSTORE PUSH1 0x10 PUSH1 0x24 DUP3 ADD MSTORE PUSH16 0x125394D551919250D251539517D09053 PUSH1 0x82 SHL PUSH1 0x44 DUP3 ADD MSTORE PUSH1 0x64 ADD PUSH2 0x7A3 JUMP JUMPDEST PUSH1 0x1 PUSH1 0x1 PUSH1 0xA0 SHL SUB DUP1 DUP9 AND PUSH0 SWAP1 DUP2 MSTORE PUSH1 0x2 PUSH1 0x20 DUP2 DUP2 MSTORE PUSH1 0x40 DUP1 DUP5 KECCAK256 DUP11 DUP6 MSTORE DUP3 MSTORE DUP1 DUP5 KECCAK256 DUP10 DUP8 SUB SWAP1 SSTORE SWAP4 DUP11 AND DUP4 MSTORE SWAP1 DUP2 MSTORE DUP3 DUP3 KECCAK256 DUP9 DUP4 MSTORE SWAP1 MSTORE SWAP1 DUP2 KECCAK256 DUP1 SLOAD DUP7 SWAP3 SWAP1 PUSH2 0x1D42 SWAP1 DUP5 SWAP1 PUSH2 0x2C7B JUMP JUMPDEST SWAP1 SWAP2 SSTORE POP POP PUSH1 0x40 DUP1 MLOAD DUP7 DUP2 MSTORE PUSH1 0x20 DUP2 ADD DUP7 SWAP1 MSTORE PUSH1 0x1 PUSH1 0x1 PUSH1 0xA0 SHL SUB DUP1 DUP10 AND SWAP3 DUP11 DUP3 AND SWAP3 SWAP2 DUP7 AND SWAP2 PUSH32 0xC3D58168C5AE7397731D063D5BBF3D657854427343F4C083240F7AACAA2D0F62 SWAP2 ADD PUSH1 0x40 MLOAD DUP1 SWAP2 SUB SWAP1 LOG4 PUSH2 0x1DA2 DUP3 DUP9 DUP9 DUP9 DUP9 DUP9 PUSH2 0x22E2 JUMP JUMPDEST POP POP POP POP POP POP POP JUMP JUMPDEST PUSH1 0x1 PUSH1 0x1 PUSH1 0xA0 SHL SUB DUP4 AND PUSH2 0x1DF2 JUMPI PUSH1 0x40 MLOAD PUSH3 0x461BCD PUSH1 0xE5 SHL DUP2 MSTORE PUSH1 0x20 PUSH1 0x4 DUP3 ADD MSTORE PUSH1 0xE PUSH1 0x24 DUP3 ADD MSTORE PUSH14 0x232927A6AFAD22A927AFA0A22229 PUSH1 0x91 SHL PUSH1 0x44 DUP3 ADD MSTORE PUSH1 0x64 ADD PUSH2 0x7A3 JUMP JUMPDEST CALLER PUSH2 0x1E1F DUP2 DUP6 PUSH0 PUSH2 0x1E02 DUP8 PUSH2 0x2299 JUMP JUMPDEST PUSH2 0x1E0B DUP8 PUSH2 0x2299 JUMP JUMPDEST PUSH1 0x40 MLOAD DUP1 PUSH1 0x20 ADD PUSH1 0x40 MSTORE DUP1 PUSH0 DUP2 MSTORE POP PUSH2 0x1FD4 JUMP JUMPDEST PUSH1 0x1 PUSH1 0x1 PUSH1 0xA0 SHL SUB DUP5 AND PUSH0 SWAP1 DUP2 MSTORE PUSH1 0x2 PUSH1 0x20 SWAP1 DUP2 MSTORE PUSH1 0x40 DUP1 DUP4 KECCAK256 DUP7 DUP5 MSTORE SWAP1 SWAP2 MSTORE SWAP1 KECCAK256 SLOAD DUP3 DUP2 LT ISZERO PUSH2 0x1E85 JUMPI PUSH1 0x40 MLOAD PUSH3 0x461BCD PUSH1 0xE5 SHL DUP2 MSTORE PUSH1 0x20 PUSH1 0x4 DUP3 ADD MSTORE PUSH1 0x10 PUSH1 0x24 DUP3 ADD MSTORE PUSH16 0x125394D551919250D251539517D09053 PUSH1 0x82 SHL PUSH1 0x44 DUP3 ADD MSTORE PUSH1 0x64 ADD PUSH2 0x7A3 JUMP JUMPDEST PUSH1 0x1 PUSH1 0x1 PUSH1 0xA0 SHL SUB DUP6 DUP2 AND PUSH0 DUP2 DUP2 MSTORE PUSH1 0x2 PUSH1 0x20 SWAP1 DUP2 MSTORE PUSH1 0x40 DUP1 DUP4 KECCAK256 DUP10 DUP5 MSTORE DUP3 MSTORE DUP1 DUP4 KECCAK256 DUP9 DUP8 SUB SWAP1 SSTORE DUP1 MLOAD DUP10 DUP2 MSTORE SWAP2 DUP3 ADD DUP9 SWAP1 MSTORE SWAP2 SWAP4 DUP7 AND SWAP2 PUSH32 0xC3D58168C5AE7397731D063D5BBF3D657854427343F4C083240F7AACAA2D0F62 SWAP2 ADD PUSH1 0x40 MLOAD DUP1 SWAP2 SUB SWAP1 LOG4 POP POP POP POP POP JUMP JUMPDEST PUSH1 0x1 PUSH1 0x1 PUSH1 0xA0 SHL SUB DUP5 AND PUSH2 0x1F34 JUMPI PUSH1 0x40 MLOAD PUSH3 0x461BCD PUSH1 0xE5 SHL DUP2 MSTORE PUSH1 0x20 PUSH1 0x4 DUP3 ADD MSTORE PUSH1 0xC PUSH1 0x24 DUP3 ADD MSTORE PUSH12 0x2A27AFAD22A927AFA0A22229 PUSH1 0xA1 SHL PUSH1 0x44 DUP3 ADD MSTORE PUSH1 0x64 ADD PUSH2 0x7A3 JUMP JUMPDEST CALLER PUSH2 0x1F44 DUP2 PUSH0 DUP8 PUSH2 0x1C82 DUP9 PUSH2 0x2299 JUMP JUMPDEST PUSH1 0x1 PUSH1 0x1 PUSH1 0xA0 SHL SUB DUP6 AND PUSH0 SWAP1 DUP2 MSTORE PUSH1 0x2 PUSH1 0x20 SWAP1 DUP2 MSTORE PUSH1 0x40 DUP1 DUP4 KECCAK256 DUP8 DUP5 MSTORE SWAP1 SWAP2 MSTORE DUP2 KECCAK256 DUP1 SLOAD DUP6 SWAP3 SWAP1 PUSH2 0x1F76 SWAP1 DUP5 SWAP1 PUSH2 0x2C7B JUMP JUMPDEST SWAP1 SWAP2 SSTORE POP POP PUSH1 0x40 DUP1 MLOAD DUP6 DUP2 MSTORE PUSH1 0x20 DUP2 ADD DUP6 SWAP1 MSTORE PUSH1 0x1 PUSH1 0x1 PUSH1 0xA0 SHL SUB DUP1 DUP9 AND SWAP3 PUSH0 SWAP3 SWAP2 DUP6 AND SWAP2 PUSH32 0xC3D58168C5AE7397731D063D5BBF3D657854427343F4C083240F7AACAA2D0F62 SWAP2 ADD PUSH1 0x40 MLOAD DUP1 SWAP2 SUB SWAP1 LOG4 PUSH2 0x9A7 DUP2 PUSH0 DUP8 DUP8 DUP8 DUP8 PUSH2 0x22E2 JUMP JUMPDEST PUSH1 0x1 PUSH1 0x1 PUSH1 0xA0 SHL SUB DUP6 AND PUSH2 0x204E JUMPI PUSH0 JUMPDEST DUP4 MLOAD DUP2 LT ISZERO PUSH2 0x204C JUMPI DUP3 DUP2 DUP2 MLOAD DUP2 LT PUSH2 0x1FFF JUMPI PUSH2 0x1FFF PUSH2 0x2C15 JUMP JUMPDEST PUSH1 0x20 MUL PUSH1 0x20 ADD ADD MLOAD PUSH1 0xE PUSH0 DUP7 DUP5 DUP2 MLOAD DUP2 LT PUSH2 0x201C JUMPI PUSH2 0x201C PUSH2 0x2C15 JUMP JUMPDEST PUSH1 0x20 MUL PUSH1 0x20 ADD ADD MLOAD DUP2 MSTORE PUSH1 0x20 ADD SWAP1 DUP2 MSTORE PUSH1 0x20 ADD PUSH0 KECCAK256 PUSH0 DUP3 DUP3 SLOAD PUSH2 0x203F SWAP2 SWAP1 PUSH2 0x2C7B JUMP JUMPDEST SWAP1 SWAP2 SSTORE POP POP PUSH1 0x1 ADD PUSH2 0x1FE4 JUMP JUMPDEST POP JUMPDEST PUSH1 0x1 PUSH1 0x1 PUSH1 0xA0 SHL SUB DUP5 AND PUSH2 0x1778 JUMPI PUSH0 JUMPDEST DUP4 MLOAD DUP2 LT ISZERO PUSH2 0x1DA2 JUMPI DUP3 DUP2 DUP2 MLOAD DUP2 LT PUSH2 0x2079 JUMPI PUSH2 0x2079 PUSH2 0x2C15 JUMP JUMPDEST PUSH1 0x20 MUL PUSH1 0x20 ADD ADD MLOAD PUSH1 0xE PUSH0 DUP7 DUP5 DUP2 MLOAD DUP2 LT PUSH2 0x2096 JUMPI PUSH2 0x2096 PUSH2 0x2C15 JUMP JUMPDEST PUSH1 0x20 MUL PUSH1 0x20 ADD ADD MLOAD DUP2 MSTORE PUSH1 0x20 ADD SWAP1 DUP2 MSTORE PUSH1 0x20 ADD PUSH0 KECCAK256 PUSH0 DUP3 DUP3 SLOAD PUSH2 0x20B9 SWAP2 SWAP1 PUSH2 0x2CF7 JUMP JUMPDEST SWAP1 SWAP2 SSTORE POP POP PUSH1 0x1 ADD PUSH2 0x205E JUMP JUMPDEST PUSH1 0x1 PUSH1 0x1 PUSH1 0xA0 SHL SUB DUP5 AND EXTCODESIZE ISZERO PUSH2 0x1778 JUMPI PUSH1 0x40 MLOAD PUSH4 0xBC197C81 PUSH1 0xE0 SHL DUP2 MSTORE PUSH1 0x1 PUSH1 0x1 PUSH1 0xA0 SHL SUB DUP6 AND SWAP1 PUSH4 0xBC197C81 SWAP1 PUSH2 0x210A SWAP1 DUP10 SWAP1 DUP10 SWAP1 DUP9 SWAP1 DUP9 SWAP1 DUP9 SWAP1 PUSH1 0x4 ADD PUSH2 0x2EE6 JUMP JUMPDEST PUSH1 0x20 PUSH1 0x40 MLOAD DUP1 DUP4 SUB DUP2 PUSH0 DUP8 GAS CALL SWAP3 POP POP POP DUP1 ISZERO PUSH2 0x2144 JUMPI POP PUSH1 0x40 DUP1 MLOAD PUSH1 0x1F RETURNDATASIZE SWAP1 DUP2 ADD PUSH1 0x1F NOT AND DUP3 ADD SWAP1 SWAP3 MSTORE PUSH2 0x2141 SWAP2 DUP2 ADD SWAP1 PUSH2 0x2F37 JUMP JUMPDEST PUSH1 0x1 JUMPDEST PUSH2 0x21D3 JUMPI PUSH2 0x2150 PUSH2 0x2F52 JUMP JUMPDEST DUP1 PUSH4 0x8C379A0 SUB PUSH2 0x2189 JUMPI POP PUSH2 0x2164 PUSH2 0x2F6B JUMP JUMPDEST DUP1 PUSH2 0x216F JUMPI POP PUSH2 0x218B JUMP JUMPDEST DUP1 PUSH1 0x40 MLOAD PUSH3 0x461BCD PUSH1 0xE5 SHL DUP2 MSTORE PUSH1 0x4 ADD PUSH2 0x7A3 SWAP2 SWAP1 PUSH2 0x24E2 JUMP JUMPDEST POP JUMPDEST PUSH1 0x40 MLOAD PUSH3 0x461BCD PUSH1 0xE5 SHL DUP2 MSTORE PUSH1 0x20 PUSH1 0x4 DUP3 ADD MSTORE PUSH1 0x10 PUSH1 0x24 DUP3 ADD MSTORE PUSH32 0x2145524331313535524543454956455200000000000000000000000000000000 PUSH1 0x44 DUP3 ADD MSTORE PUSH1 0x64 ADD PUSH2 0x7A3 JUMP JUMPDEST PUSH1 0x1 PUSH1 0x1 PUSH1 0xE0 SHL SUB NOT DUP2 AND PUSH4 0xBC197C81 PUSH1 0xE0 SHL EQ PUSH2 0x1DA2 JUMPI PUSH1 0x40 MLOAD PUSH3 0x461BCD PUSH1 0xE5 SHL DUP2 MSTORE PUSH1 0x20 PUSH1 0x4 DUP3 ADD MSTORE PUSH1 0xF PUSH1 0x24 DUP3 ADD MSTORE PUSH15 0x1513D2D15394D7D491529150D51151 PUSH1 0x8A SHL PUSH1 0x44 DUP3 ADD MSTORE PUSH1 0x64 ADD PUSH2 0x7A3 JUMP JUMPDEST PUSH1 0x60 PUSH0 DUP1 DUP6 PUSH1 0x1 PUSH1 0x1 PUSH1 0xA0 SHL SUB AND DUP6 PUSH1 0x40 MLOAD PUSH2 0x2241 SWAP2 SWAP1 PUSH2 0x2FF4 JUMP JUMPDEST PUSH0 PUSH1 0x40 MLOAD DUP1 DUP4 SUB DUP2 DUP6 GAS DELEGATECALL SWAP2 POP POP RETURNDATASIZE DUP1 PUSH0 DUP2 EQ PUSH2 0x2279 JUMPI PUSH1 0x40 MLOAD SWAP2 POP PUSH1 0x1F NOT PUSH1 0x3F RETURNDATASIZE ADD AND DUP3 ADD PUSH1 0x40 MSTORE RETURNDATASIZE DUP3 MSTORE RETURNDATASIZE PUSH0 PUSH1 0x20 DUP5 ADD RETURNDATACOPY PUSH2 0x227E JUMP JUMPDEST PUSH1 0x60 SWAP2 POP JUMPDEST POP SWAP2 POP SWAP2 POP PUSH2 0x228F DUP7 DUP4 DUP4 DUP8 PUSH2 0x23BE JUMP JUMPDEST SWAP7 SWAP6 POP POP POP POP POP POP JUMP JUMPDEST PUSH1 0x40 DUP1 MLOAD PUSH1 0x1 DUP1 DUP3 MSTORE DUP2 DUP4 ADD SWAP1 SWAP3 MSTORE PUSH1 0x60 SWAP2 PUSH0 SWAP2 SWAP1 PUSH1 0x20 DUP1 DUP4 ADD SWAP1 DUP1 CALLDATASIZE DUP4 CALLDATACOPY ADD SWAP1 POP POP SWAP1 POP DUP3 DUP2 PUSH0 DUP2 MLOAD DUP2 LT PUSH2 0x22D1 JUMPI PUSH2 0x22D1 PUSH2 0x2C15 JUMP JUMPDEST PUSH1 0x20 SWAP1 DUP2 MUL SWAP2 SWAP1 SWAP2 ADD ADD MSTORE SWAP3 SWAP2 POP POP JUMP JUMPDEST PUSH1 0x1 PUSH1 0x1 PUSH1 0xA0 SHL SUB DUP5 AND EXTCODESIZE ISZERO PUSH2 0x1778 JUMPI PUSH1 0x40 MLOAD PUSH4 0xF23A6E61 PUSH1 0xE0 SHL DUP2 MSTORE PUSH1 0x1 PUSH1 0x1 PUSH1 0xA0 SHL SUB DUP6 AND SWAP1 PUSH4 0xF23A6E61 SWAP1 PUSH2 0x2326 SWAP1 DUP10 SWAP1 DUP10 SWAP1 DUP9 SWAP1 DUP9 SWAP1 DUP9 SWAP1 PUSH1 0x4 ADD PUSH2 0x2FFF JUMP JUMPDEST PUSH1 0x20 PUSH1 0x40 MLOAD DUP1 DUP4 SUB DUP2 PUSH0 DUP8 GAS CALL SWAP3 POP POP POP DUP1 ISZERO PUSH2 0x2360 JUMPI POP PUSH1 0x40 DUP1 MLOAD PUSH1 0x1F RETURNDATASIZE SWAP1 DUP2 ADD PUSH1 0x1F NOT AND DUP3 ADD SWAP1 SWAP3 MSTORE PUSH2 0x235D SWAP2 DUP2 ADD SWAP1 PUSH2 0x2F37 JUMP JUMPDEST PUSH1 0x1 JUMPDEST PUSH2 0x236C JUMPI PUSH2 0x2150 PUSH2 0x2F52 JUMP JUMPDEST PUSH1 0x1 PUSH1 0x1 PUSH1 0xE0 SHL SUB NOT DUP2 AND PUSH4 0xF23A6E61 PUSH1 0xE0 SHL EQ PUSH2 0x1DA2 JUMPI PUSH1 0x40 MLOAD PUSH3 0x461BCD PUSH1 0xE5 SHL DUP2 MSTORE PUSH1 0x20 PUSH1 0x4 DUP3 ADD MSTORE PUSH1 0xF PUSH1 0x24 DUP3 ADD MSTORE PUSH15 0x1513D2D15394D7D491529150D51151 PUSH1 0x8A SHL PUSH1 0x44 DUP3 ADD MSTORE PUSH1 0x64 ADD PUSH2 0x7A3 JUMP JUMPDEST PUSH1 0x60 DUP4 ISZERO PUSH2 0x242C JUMPI DUP3 MLOAD PUSH0 SUB PUSH2 0x2425 JUMPI PUSH1 0x1 PUSH1 0x1 PUSH1 0xA0 SHL SUB DUP6 AND EXTCODESIZE PUSH2 0x2425 JUMPI PUSH1 0x40 MLOAD PUSH3 0x461BCD PUSH1 0xE5 SHL DUP2 MSTORE PUSH1 0x20 PUSH1 0x4 DUP3 ADD MSTORE PUSH1 0x1D PUSH1 0x24 DUP3 ADD MSTORE PUSH32 0x416464726573733A2063616C6C20746F206E6F6E2D636F6E7472616374000000 PUSH1 0x44 DUP3 ADD MSTORE PUSH1 0x64 ADD PUSH2 0x7A3 JUMP JUMPDEST POP DUP2 PUSH2 0x14C1 JUMP JUMPDEST PUSH2 0x14C1 DUP4 DUP4 DUP2 MLOAD ISZERO PUSH2 0x216F JUMPI DUP2 MLOAD DUP1 DUP4 PUSH1 0x20 ADD REVERT JUMPDEST DUP1 CALLDATALOAD PUSH1 0x1 PUSH1 0x1 PUSH1 0xA0 SHL SUB DUP2 AND DUP2 EQ PUSH2 0x2457 JUMPI PUSH0 DUP1 REVERT JUMPDEST SWAP2 SWAP1 POP JUMP JUMPDEST PUSH0 DUP1 PUSH1 0x40 DUP4 DUP6 SUB SLT ISZERO PUSH2 0x246D JUMPI PUSH0 DUP1 REVERT JUMPDEST PUSH2 0x2476 DUP4 PUSH2 0x2441 JUMP JUMPDEST SWAP5 PUSH1 0x20 SWAP4 SWAP1 SWAP4 ADD CALLDATALOAD SWAP4 POP POP POP JUMP JUMPDEST PUSH1 0x1 PUSH1 0x1 PUSH1 0xE0 SHL SUB NOT DUP2 AND DUP2 EQ PUSH2 0x778 JUMPI PUSH0 DUP1 REVERT JUMPDEST PUSH0 PUSH1 0x20 DUP3 DUP5 SUB SLT ISZERO PUSH2 0x24A9 JUMPI PUSH0 DUP1 REVERT JUMPDEST DUP2 CALLDATALOAD PUSH2 0x1BC4 DUP2 PUSH2 0x2484 JUMP JUMPDEST PUSH0 DUP2 MLOAD DUP1 DUP5 MSTORE DUP1 PUSH1 0x20 DUP5 ADD PUSH1 0x20 DUP7 ADD MCOPY PUSH0 PUSH1 0x20 DUP3 DUP7 ADD ADD MSTORE PUSH1 0x20 PUSH1 0x1F NOT PUSH1 0x1F DUP4 ADD AND DUP6 ADD ADD SWAP2 POP POP SWAP3 SWAP2 POP POP JUMP JUMPDEST PUSH1 0x20 DUP2 MSTORE PUSH0 PUSH2 0x1BC4 PUSH1 0x20 DUP4 ADD DUP5 PUSH2 0x24B4 JUMP JUMPDEST PUSH0 PUSH1 0x20 DUP3 DUP5 SUB SLT ISZERO PUSH2 0x2504 JUMPI PUSH0 DUP1 REVERT JUMPDEST POP CALLDATALOAD SWAP2 SWAP1 POP JUMP JUMPDEST PUSH0 PUSH1 0x20 DUP3 DUP5 SUB SLT ISZERO PUSH2 0x251B JUMPI PUSH0 DUP1 REVERT JUMPDEST PUSH2 0x1BC4 DUP3 PUSH2 0x2441 JUMP JUMPDEST PUSH0 DUP1 PUSH1 0x40 DUP4 DUP6 SUB SLT ISZERO PUSH2 0x2535 JUMPI PUSH0 DUP1 REVERT JUMPDEST POP POP DUP1 CALLDATALOAD SWAP3 PUSH1 0x20 SWAP1 SWAP2 ADD CALLDATALOAD SWAP2 POP JUMP JUMPDEST PUSH0 DUP1 PUSH0 PUSH1 0x60 DUP5 DUP7 SUB SLT ISZERO PUSH2 0x2556 JUMPI PUSH0 DUP1 REVERT JUMPDEST PUSH2 0x255F DUP5 PUSH2 0x2441 JUMP JUMPDEST SWAP6 PUSH1 0x20 DUP6 ADD CALLDATALOAD SWAP6 POP PUSH1 0x40 SWAP1 SWAP5 ADD CALLDATALOAD SWAP4 SWAP3 POP POP POP JUMP JUMPDEST PUSH4 0x4E487B71 PUSH1 0xE0 SHL PUSH0 MSTORE PUSH1 0x41 PUSH1 0x4 MSTORE PUSH1 0x24 PUSH0 REVERT JUMPDEST PUSH1 0x1F DUP3 ADD PUSH1 0x1F NOT AND DUP2 ADD PUSH8 0xFFFFFFFFFFFFFFFF DUP2 GT DUP3 DUP3 LT OR ISZERO PUSH2 0x25AE JUMPI PUSH2 0x25AE PUSH2 0x2574 JUMP JUMPDEST PUSH1 0x40 MSTORE POP POP JUMP JUMPDEST PUSH0 PUSH8 0xFFFFFFFFFFFFFFFF DUP3 GT ISZERO PUSH2 0x25CE JUMPI PUSH2 0x25CE PUSH2 0x2574 JUMP JUMPDEST POP PUSH1 0x5 SHL PUSH1 0x20 ADD SWAP1 JUMP JUMPDEST PUSH0 DUP3 PUSH1 0x1F DUP4 ADD SLT PUSH2 0x25E7 JUMPI PUSH0 DUP1 REVERT JUMPDEST DUP2 CALLDATALOAD PUSH1 0x20 PUSH2 0x25F4 DUP3 PUSH2 0x25B5 JUMP JUMPDEST PUSH1 0x40 MLOAD PUSH2 0x2601 DUP3 DUP3 PUSH2 0x2588 JUMP JUMPDEST DUP1 SWAP2 POP DUP4 DUP2 MSTORE PUSH1 0x20 DUP2 ADD SWAP2 POP PUSH1 0x20 DUP5 PUSH1 0x5 SHL DUP8 ADD ADD SWAP4 POP DUP7 DUP5 GT ISZERO PUSH2 0x2624 JUMPI PUSH0 DUP1 REVERT JUMPDEST PUSH1 0x20 DUP7 ADD JUMPDEST DUP5 DUP2 LT ISZERO PUSH2 0x2640 JUMPI DUP1 CALLDATALOAD DUP4 MSTORE SWAP2 DUP4 ADD SWAP2 DUP4 ADD PUSH2 0x2629 JUMP JUMPDEST POP SWAP7 SWAP6 POP POP POP POP POP POP JUMP JUMPDEST PUSH0 PUSH8 0xFFFFFFFFFFFFFFFF DUP4 GT ISZERO PUSH2 0x2664 JUMPI PUSH2 0x2664 PUSH2 0x2574 JUMP JUMPDEST PUSH1 0x40 MLOAD PUSH2 0x267B PUSH1 0x1F DUP6 ADD PUSH1 0x1F NOT AND PUSH1 0x20 ADD DUP3 PUSH2 0x2588 JUMP JUMPDEST DUP1 SWAP2 POP DUP4 DUP2 MSTORE DUP5 DUP5 DUP5 ADD GT ISZERO PUSH2 0x268F JUMPI PUSH0 DUP1 REVERT JUMPDEST DUP4 DUP4 PUSH1 0x20 DUP4 ADD CALLDATACOPY PUSH0 PUSH1 0x20 DUP6 DUP4 ADD ADD MSTORE POP SWAP4 SWAP3 POP POP POP JUMP JUMPDEST PUSH0 DUP3 PUSH1 0x1F DUP4 ADD SLT PUSH2 0x26B5 JUMPI PUSH0 DUP1 REVERT JUMPDEST PUSH2 0x1BC4 DUP4 DUP4 CALLDATALOAD PUSH1 0x20 DUP6 ADD PUSH2 0x264B JUMP JUMPDEST PUSH0 DUP1 PUSH0 DUP1 PUSH0 PUSH1 0xA0 DUP7 DUP9 SUB SLT ISZERO PUSH2 0x26D8 JUMPI PUSH0 DUP1 REVERT JUMPDEST PUSH2 0x26E1 DUP7 PUSH2 0x2441 JUMP JUMPDEST SWAP5 POP PUSH2 0x26EF PUSH1 0x20 DUP8 ADD PUSH2 0x2441 JUMP JUMPDEST SWAP4 POP PUSH1 0x40 DUP7 ADD CALLDATALOAD PUSH8 0xFFFFFFFFFFFFFFFF DUP1 DUP3 GT ISZERO PUSH2 0x270B JUMPI PUSH0 DUP1 REVERT JUMPDEST PUSH2 0x2717 DUP10 DUP4 DUP11 ADD PUSH2 0x25D8 JUMP JUMPDEST SWAP5 POP PUSH1 0x60 DUP9 ADD CALLDATALOAD SWAP2 POP DUP1 DUP3 GT ISZERO PUSH2 0x272C JUMPI PUSH0 DUP1 REVERT JUMPDEST PUSH2 0x2738 DUP10 DUP4 DUP11 ADD PUSH2 0x25D8 JUMP JUMPDEST SWAP4 POP PUSH1 0x80 DUP9 ADD CALLDATALOAD SWAP2 POP DUP1 DUP3 GT ISZERO PUSH2 0x274D JUMPI PUSH0 DUP1 REVERT JUMPDEST POP PUSH2 0x275A DUP9 DUP3 DUP10 ADD PUSH2 0x26A6 JUMP JUMPDEST SWAP2 POP POP SWAP3 SWAP6 POP SWAP3 SWAP6 SWAP1 SWAP4 POP JUMP JUMPDEST PUSH0 DUP1 PUSH1 0x40 DUP4 DUP6 SUB SLT ISZERO PUSH2 0x2778 JUMPI PUSH0 DUP1 REVERT JUMPDEST DUP3 CALLDATALOAD PUSH8 0xFFFFFFFFFFFFFFFF DUP1 DUP3 GT ISZERO PUSH2 0x278F JUMPI PUSH0 DUP1 REVERT JUMPDEST DUP2 DUP6 ADD SWAP2 POP DUP6 PUSH1 0x1F DUP4 ADD SLT PUSH2 0x27A2 JUMPI PUSH0 DUP1 REVERT JUMPDEST DUP2 CALLDATALOAD PUSH1 0x20 PUSH2 0x27AF DUP3 PUSH2 0x25B5 JUMP JUMPDEST PUSH1 0x40 MLOAD PUSH2 0x27BC DUP3 DUP3 PUSH2 0x2588 JUMP JUMPDEST DUP4 DUP2 MSTORE PUSH1 0x5 SWAP4 SWAP1 SWAP4 SHL DUP6 ADD DUP3 ADD SWAP3 DUP3 DUP2 ADD SWAP2 POP DUP10 DUP5 GT ISZERO PUSH2 0x27DB JUMPI PUSH0 DUP1 REVERT JUMPDEST SWAP5 DUP3 ADD SWAP5 JUMPDEST DUP4 DUP7 LT ISZERO PUSH2 0x2800 JUMPI PUSH2 0x27F1 DUP7 PUSH2 0x2441 JUMP JUMPDEST DUP3 MSTORE SWAP5 DUP3 ADD SWAP5 SWAP1 DUP3 ADD SWAP1 PUSH2 0x27E0 JUMP JUMPDEST SWAP7 POP POP DUP7 ADD CALLDATALOAD SWAP3 POP POP DUP1 DUP3 GT ISZERO PUSH2 0x2815 JUMPI PUSH0 DUP1 REVERT JUMPDEST POP PUSH2 0x2822 DUP6 DUP3 DUP7 ADD PUSH2 0x25D8 JUMP JUMPDEST SWAP2 POP POP SWAP3 POP SWAP3 SWAP1 POP JUMP JUMPDEST PUSH0 DUP2 MLOAD DUP1 DUP5 MSTORE PUSH1 0x20 DUP1 DUP6 ADD SWAP5 POP PUSH1 0x20 DUP5 ADD PUSH0 JUMPDEST DUP4 DUP2 LT ISZERO PUSH2 0x285B JUMPI DUP2 MLOAD DUP8 MSTORE SWAP6 DUP3 ADD SWAP6 SWAP1 DUP3 ADD SWAP1 PUSH1 0x1 ADD PUSH2 0x283F JUMP JUMPDEST POP SWAP5 SWAP6 SWAP5 POP POP POP POP POP JUMP JUMPDEST PUSH1 0x20 DUP2 MSTORE PUSH0 PUSH2 0x1BC4 PUSH1 0x20 DUP4 ADD DUP5 PUSH2 0x282C JUMP JUMPDEST PUSH0 DUP1 PUSH0 PUSH1 0x60 DUP5 DUP7 SUB SLT ISZERO PUSH2 0x288A JUMPI PUSH0 DUP1 REVERT JUMPDEST PUSH2 0x2893 DUP5 PUSH2 0x2441 JUMP JUMPDEST SWAP3 POP PUSH1 0x20 DUP5 ADD CALLDATALOAD PUSH8 0xFFFFFFFFFFFFFFFF DUP1 DUP3 GT ISZERO PUSH2 0x28AF JUMPI PUSH0 DUP1 REVERT JUMPDEST PUSH2 0x28BB DUP8 DUP4 DUP9 ADD PUSH2 0x25D8 JUMP JUMPDEST SWAP4 POP PUSH1 0x40 DUP7 ADD CALLDATALOAD SWAP2 POP DUP1 DUP3 GT ISZERO PUSH2 0x28D0 JUMPI PUSH0 DUP1 REVERT JUMPDEST POP PUSH2 0x28DD DUP7 DUP3 DUP8 ADD PUSH2 0x25D8 JUMP JUMPDEST SWAP2 POP POP SWAP3 POP SWAP3 POP SWAP3 JUMP JUMPDEST PUSH0 PUSH1 0x20 DUP3 DUP5 SUB SLT ISZERO PUSH2 0x28F7 JUMPI PUSH0 DUP1 REVERT JUMPDEST DUP2 CALLDATALOAD PUSH8 0xFFFFFFFFFFFFFFFF DUP2 GT ISZERO PUSH2 0x290D JUMPI PUSH0 DUP1 REVERT JUMPDEST DUP3 ADD PUSH1 0x1F DUP2 ADD DUP5 SGT PUSH2 0x291D JUMPI PUSH0 DUP1 REVERT JUMPDEST PUSH2 0x14C1 DUP5 DUP3 CALLDATALOAD PUSH1 0x20 DUP5 ADD PUSH2 0x264B JUMP JUMPDEST PUSH0 DUP1 PUSH0 PUSH1 0x60 DUP5 DUP7 SUB SLT ISZERO PUSH2 0x293E JUMPI PUSH0 DUP1 REVERT JUMPDEST DUP4 CALLDATALOAD SWAP3 POP PUSH2 0x294E PUSH1 0x20 DUP6 ADD PUSH2 0x2441 JUMP JUMPDEST SWAP2 POP PUSH1 0x40 DUP5 ADD CALLDATALOAD SWAP1 POP SWAP3 POP SWAP3 POP SWAP3 JUMP JUMPDEST PUSH0 DUP1 PUSH1 0x40 DUP4 DUP6 SUB SLT ISZERO PUSH2 0x296F JUMPI PUSH0 DUP1 REVERT JUMPDEST PUSH2 0x2978 DUP4 PUSH2 0x2441 JUMP JUMPDEST SWAP2 POP PUSH1 0x20 DUP4 ADD CALLDATALOAD DUP1 ISZERO ISZERO DUP2 EQ PUSH2 0x298C JUMPI PUSH0 DUP1 REVERT JUMPDEST DUP1 SWAP2 POP POP SWAP3 POP SWAP3 SWAP1 POP JUMP JUMPDEST PUSH0 DUP1 PUSH1 0x20 DUP4 DUP6 SUB SLT ISZERO PUSH2 0x29A8 JUMPI PUSH0 DUP1 REVERT JUMPDEST DUP3 CALLDATALOAD PUSH8 0xFFFFFFFFFFFFFFFF DUP1 DUP3 GT ISZERO PUSH2 0x29BF JUMPI PUSH0 DUP1 REVERT JUMPDEST DUP2 DUP6 ADD SWAP2 POP DUP6 PUSH1 0x1F DUP4 ADD SLT PUSH2 0x29D2 JUMPI PUSH0 DUP1 REVERT JUMPDEST DUP2 CALLDATALOAD DUP2 DUP2 GT ISZERO PUSH2 0x29E0 JUMPI PUSH0 DUP1 REVERT JUMPDEST DUP7 PUSH1 0x20 DUP3 PUSH1 0x5 SHL DUP6 ADD ADD GT ISZERO PUSH2 0x29F4 JUMPI PUSH0 DUP1 REVERT JUMPDEST PUSH1 0x20 SWAP3 SWAP1 SWAP3 ADD SWAP7 SWAP2 SWAP6 POP SWAP1 SWAP4 POP POP POP POP JUMP JUMPDEST PUSH0 PUSH1 0x20 DUP1 DUP4 ADD PUSH1 0x20 DUP5 MSTORE DUP1 DUP6 MLOAD DUP1 DUP4 MSTORE PUSH1 0x40 DUP7 ADD SWAP2 POP PUSH1 0x40 DUP2 PUSH1 0x5 SHL DUP8 ADD ADD SWAP3 POP PUSH1 0x20 DUP8 ADD PUSH0 JUMPDEST DUP3 DUP2 LT ISZERO PUSH2 0x2A5B JUMPI PUSH1 0x3F NOT DUP9 DUP7 SUB ADD DUP5 MSTORE PUSH2 0x2A49 DUP6 DUP4 MLOAD PUSH2 0x24B4 JUMP JUMPDEST SWAP5 POP SWAP3 DUP6 ADD SWAP3 SWAP1 DUP6 ADD SWAP1 PUSH1 0x1 ADD PUSH2 0x2A2D JUMP JUMPDEST POP SWAP3 SWAP8 SWAP7 POP POP POP POP POP POP POP JUMP JUMPDEST PUSH0 DUP1 DUP4 PUSH1 0x1F DUP5 ADD SLT PUSH2 0x2A78 JUMPI PUSH0 DUP1 REVERT JUMPDEST POP DUP2 CALLDATALOAD PUSH8 0xFFFFFFFFFFFFFFFF DUP2 GT ISZERO PUSH2 0x2A8F JUMPI PUSH0 DUP1 REVERT JUMPDEST PUSH1 0x20 DUP4 ADD SWAP2 POP DUP4 PUSH1 0x20 DUP3 DUP6 ADD ADD GT ISZERO PUSH2 0x2AA6 JUMPI PUSH0 DUP1 REVERT JUMPDEST SWAP3 POP SWAP3 SWAP1 POP JUMP JUMPDEST PUSH0 DUP1 PUSH0 DUP1 PUSH0 PUSH1 0x60 DUP7 DUP9 SUB SLT ISZERO PUSH2 0x2AC1 JUMPI PUSH0 DUP1 REVERT JUMPDEST DUP6 CALLDATALOAD SWAP5 POP PUSH1 0x20 DUP7 ADD CALLDATALOAD PUSH8 0xFFFFFFFFFFFFFFFF DUP1 DUP3 GT ISZERO PUSH2 0x2ADF JUMPI PUSH0 DUP1 REVERT JUMPDEST PUSH2 0x2AEB DUP10 DUP4 DUP11 ADD PUSH2 0x2A68 JUMP JUMPDEST SWAP1 SWAP7 POP SWAP5 POP PUSH1 0x40 DUP9 ADD CALLDATALOAD SWAP2 POP DUP1 DUP3 GT ISZERO PUSH2 0x2B03 JUMPI PUSH0 DUP1 REVERT JUMPDEST POP PUSH2 0x2B10 DUP9 DUP3 DUP10 ADD PUSH2 0x2A68 JUMP JUMPDEST SWAP7 SWAP10 SWAP6 SWAP9 POP SWAP4 SWAP7 POP SWAP3 SWAP5 SWAP4 SWAP3 POP POP POP JUMP JUMPDEST PUSH0 DUP1 PUSH1 0x40 DUP4 DUP6 SUB SLT ISZERO PUSH2 0x2B32 JUMPI PUSH0 DUP1 REVERT JUMPDEST PUSH2 0x2B3B DUP4 PUSH2 0x2441 JUMP JUMPDEST SWAP2 POP PUSH2 0x2B49 PUSH1 0x20 DUP5 ADD PUSH2 0x2441 JUMP JUMPDEST SWAP1 POP SWAP3 POP SWAP3 SWAP1 POP JUMP JUMPDEST PUSH0 DUP1 PUSH0 DUP1 PUSH0 PUSH1 0xA0 DUP7 DUP9 SUB SLT ISZERO PUSH2 0x2B66 JUMPI PUSH0 DUP1 REVERT JUMPDEST PUSH2 0x2B6F DUP7 PUSH2 0x2441 JUMP JUMPDEST SWAP5 POP PUSH2 0x2B7D PUSH1 0x20 DUP8 ADD PUSH2 0x2441 JUMP JUMPDEST SWAP4 POP PUSH1 0x40 DUP7 ADD CALLDATALOAD SWAP3 POP PUSH1 0x60 DUP7 ADD CALLDATALOAD SWAP2 POP PUSH1 0x80 DUP7 ADD CALLDATALOAD PUSH8 0xFFFFFFFFFFFFFFFF DUP2 GT ISZERO PUSH2 0x2BA6 JUMPI PUSH0 DUP1 REVERT JUMPDEST PUSH2 0x275A DUP9 DUP3 DUP10 ADD PUSH2 0x26A6 JUMP JUMPDEST PUSH1 0x1 DUP2 DUP2 SHR SWAP1 DUP3 AND DUP1 PUSH2 0x2BC6 JUMPI PUSH1 0x7F DUP3 AND SWAP2 POP JUMPDEST PUSH1 0x20 DUP3 LT DUP2 SUB PUSH2 0x2BE4 JUMPI PUSH4 0x4E487B71 PUSH1 0xE0 SHL PUSH0 MSTORE PUSH1 0x22 PUSH1 0x4 MSTORE PUSH1 0x24 PUSH0 REVERT JUMPDEST POP SWAP2 SWAP1 POP JUMP JUMPDEST PUSH0 DUP2 MLOAD DUP1 PUSH1 0x20 DUP5 ADD DUP6 MCOPY PUSH0 SWAP4 ADD SWAP3 DUP4 MSTORE POP SWAP1 SWAP2 SWAP1 POP JUMP JUMPDEST PUSH0 PUSH2 0x14C1 PUSH2 0x2C0F DUP4 DUP7 PUSH2 0x2BEA JUMP JUMPDEST DUP5 PUSH2 0x2BEA JUMP JUMPDEST PUSH4 0x4E487B71 PUSH1 0xE0 SHL PUSH0 MSTORE PUSH1 0x32 PUSH1 0x4 MSTORE PUSH1 0x24 PUSH0 REVERT JUMPDEST PUSH4 0x4E487B71 PUSH1 0xE0 SHL PUSH0 MSTORE PUSH1 0x11 PUSH1 0x4 MSTORE PUSH1 0x24 PUSH0 REVERT JUMPDEST DUP1 DUP3 MUL DUP2 ISZERO DUP3 DUP3 DIV DUP5 EQ OR PUSH2 0x679 JUMPI PUSH2 0x679 PUSH2 0x2C29 JUMP JUMPDEST PUSH4 0x4E487B71 PUSH1 0xE0 SHL PUSH0 MSTORE PUSH1 0x12 PUSH1 0x4 MSTORE PUSH1 0x24 PUSH0 REVERT JUMPDEST PUSH0 DUP3 PUSH2 0x2C76 JUMPI PUSH2 0x2C76 PUSH2 0x2C54 JUMP JUMPDEST POP DIV SWAP1 JUMP JUMPDEST DUP1 DUP3 ADD DUP1 DUP3 GT ISZERO PUSH2 0x679 JUMPI PUSH2 0x679 PUSH2 0x2C29 JUMP JUMPDEST PUSH0 DUP1 DUP4 CALLDATALOAD PUSH1 0x1E NOT DUP5 CALLDATASIZE SUB ADD DUP2 SLT PUSH2 0x2CA3 JUMPI PUSH0 DUP1 REVERT JUMPDEST DUP4 ADD DUP1 CALLDATALOAD SWAP2 POP PUSH8 0xFFFFFFFFFFFFFFFF DUP3 GT ISZERO PUSH2 0x2CBD JUMPI PUSH0 DUP1 REVERT JUMPDEST PUSH1 0x20 ADD SWAP2 POP CALLDATASIZE DUP2 SWAP1 SUB DUP3 SGT ISZERO PUSH2 0x2AA6 JUMPI PUSH0 DUP1 REVERT JUMPDEST DUP3 DUP5 DUP3 CALLDATACOPY PUSH1 0x60 SWAP2 SWAP1 SWAP2 SHL PUSH12 0xFFFFFFFFFFFFFFFFFFFFFFFF NOT AND SWAP2 ADD SWAP1 DUP2 MSTORE PUSH1 0x14 ADD SWAP2 SWAP1 POP JUMP JUMPDEST DUP2 DUP2 SUB DUP2 DUP2 GT ISZERO PUSH2 0x679 JUMPI PUSH2 0x679 PUSH2 0x2C29 JUMP JUMPDEST DUP2 DUP4 MSTORE DUP2 DUP2 PUSH1 0x20 DUP6 ADD CALLDATACOPY POP PUSH0 DUP3 DUP3 ADD PUSH1 0x20 SWAP1 DUP2 ADD SWAP2 SWAP1 SWAP2 MSTORE PUSH1 0x1F SWAP1 SWAP2 ADD PUSH1 0x1F NOT AND SWAP1 SWAP2 ADD ADD SWAP1 JUMP JUMPDEST DUP6 DUP2 MSTORE PUSH1 0x60 PUSH1 0x20 DUP3 ADD MSTORE PUSH0 PUSH2 0x2D4B PUSH1 0x60 DUP4 ADD DUP7 DUP9 PUSH2 0x2D0A JUMP JUMPDEST DUP3 DUP2 SUB PUSH1 0x40 DUP5 ADD MSTORE PUSH2 0x2D5E DUP2 DUP6 DUP8 PUSH2 0x2D0A JUMP JUMPDEST SWAP9 SWAP8 POP POP POP POP POP POP POP POP JUMP JUMPDEST PUSH0 PUSH1 0x1 DUP3 ADD PUSH2 0x2D7B JUMPI PUSH2 0x2D7B PUSH2 0x2C29 JUMP JUMPDEST POP PUSH1 0x1 ADD SWAP1 JUMP JUMPDEST PUSH0 DUP3 PUSH2 0x2D90 JUMPI PUSH2 0x2D90 PUSH2 0x2C54 JUMP JUMPDEST POP MOD SWAP1 JUMP JUMPDEST PUSH1 0x40 DUP2 MSTORE PUSH0 PUSH2 0x2DA7 PUSH1 0x40 DUP4 ADD DUP6 PUSH2 0x282C JUMP JUMPDEST DUP3 DUP2 SUB PUSH1 0x20 DUP5 ADD MSTORE PUSH2 0x2DB9 DUP2 DUP6 PUSH2 0x282C JUMP JUMPDEST SWAP6 SWAP5 POP POP POP POP POP JUMP JUMPDEST PUSH1 0x1F DUP3 GT ISZERO PUSH2 0x35E JUMPI DUP1 PUSH0 MSTORE PUSH1 0x20 PUSH0 KECCAK256 PUSH1 0x1F DUP5 ADD PUSH1 0x5 SHR DUP2 ADD PUSH1 0x20 DUP6 LT ISZERO PUSH2 0x2DE7 JUMPI POP DUP1 JUMPDEST PUSH1 0x1F DUP5 ADD PUSH1 0x5 SHR DUP3 ADD SWAP2 POP JUMPDEST DUP2 DUP2 LT ISZERO PUSH2 0x9A7 JUMPI PUSH0 DUP2 SSTORE PUSH1 0x1 ADD PUSH2 0x2DF3 JUMP JUMPDEST DUP2 MLOAD PUSH8 0xFFFFFFFFFFFFFFFF DUP2 GT ISZERO PUSH2 0x2E20 JUMPI PUSH2 0x2E20 PUSH2 0x2574 JUMP JUMPDEST PUSH2 0x2E34 DUP2 PUSH2 0x2E2E DUP5 SLOAD PUSH2 0x2BB2 JUMP JUMPDEST DUP5 PUSH2 0x2DC2 JUMP JUMPDEST PUSH1 0x20 DUP1 PUSH1 0x1F DUP4 GT PUSH1 0x1 DUP2 EQ PUSH2 0x2E67 JUMPI PUSH0 DUP5 ISZERO PUSH2 0x2E50 JUMPI POP DUP6 DUP4 ADD MLOAD JUMPDEST PUSH0 NOT PUSH1 0x3 DUP7 SWAP1 SHL SHR NOT AND PUSH1 0x1 DUP6 SWAP1 SHL OR DUP6 SSTORE PUSH2 0x1778 JUMP JUMPDEST PUSH0 DUP6 DUP2 MSTORE PUSH1 0x20 DUP2 KECCAK256 PUSH1 0x1F NOT DUP7 AND SWAP2 JUMPDEST DUP3 DUP2 LT ISZERO PUSH2 0x2E95 JUMPI DUP9 DUP7 ADD MLOAD DUP3 SSTORE SWAP5 DUP5 ADD SWAP5 PUSH1 0x1 SWAP1 SWAP2 ADD SWAP1 DUP5 ADD PUSH2 0x2E76 JUMP JUMPDEST POP DUP6 DUP3 LT ISZERO PUSH2 0x2EB2 JUMPI DUP8 DUP6 ADD MLOAD PUSH0 NOT PUSH1 0x3 DUP9 SWAP1 SHL PUSH1 0xF8 AND SHR NOT AND DUP2 SSTORE JUMPDEST POP POP POP POP POP PUSH1 0x1 SWAP1 DUP2 SHL ADD SWAP1 SSTORE POP JUMP JUMPDEST PUSH1 0x40 DUP2 MSTORE PUSH0 PUSH2 0x2ED4 PUSH1 0x40 DUP4 ADD DUP6 PUSH2 0x24B4 JUMP JUMPDEST DUP3 DUP2 SUB PUSH1 0x20 DUP5 ADD MSTORE PUSH2 0x2DB9 DUP2 DUP6 PUSH2 0x24B4 JUMP JUMPDEST PUSH0 PUSH1 0x1 PUSH1 0x1 PUSH1 0xA0 SHL SUB DUP1 DUP9 AND DUP4 MSTORE DUP1 DUP8 AND PUSH1 0x20 DUP5 ADD MSTORE POP PUSH1 0xA0 PUSH1 0x40 DUP4 ADD MSTORE PUSH2 0x2F11 PUSH1 0xA0 DUP4 ADD DUP7 PUSH2 0x282C JUMP JUMPDEST DUP3 DUP2 SUB PUSH1 0x60 DUP5 ADD MSTORE PUSH2 0x2F23 DUP2 DUP7 PUSH2 0x282C JUMP JUMPDEST SWAP1 POP DUP3 DUP2 SUB PUSH1 0x80 DUP5 ADD MSTORE PUSH2 0x2D5E DUP2 DUP6 PUSH2 0x24B4 JUMP JUMPDEST PUSH0 PUSH1 0x20 DUP3 DUP5 SUB SLT ISZERO PUSH2 0x2F47 JUMPI PUSH0 DUP1 REVERT JUMPDEST DUP2 MLOAD PUSH2 0x1BC4 DUP2 PUSH2 0x2484 JUMP JUMPDEST PUSH0 PUSH1 0x3 RETURNDATASIZE GT ISZERO PUSH2 0x2F68 JUMPI PUSH1 0x4 PUSH0 DUP1 RETURNDATACOPY POP PUSH0 MLOAD PUSH1 0xE0 SHR JUMPDEST SWAP1 JUMP JUMPDEST PUSH0 PUSH1 0x44 RETURNDATASIZE LT ISZERO PUSH2 0x2F78 JUMPI SWAP1 JUMP JUMPDEST PUSH1 0x40 MLOAD PUSH1 0x3 NOT RETURNDATASIZE DUP2 ADD PUSH1 0x4 DUP4 RETURNDATACOPY DUP2 MLOAD RETURNDATASIZE PUSH8 0xFFFFFFFFFFFFFFFF DUP2 PUSH1 0x24 DUP5 ADD GT DUP2 DUP5 GT OR ISZERO PUSH2 0x2FA8 JUMPI POP POP POP POP POP SWAP1 JUMP JUMPDEST DUP3 DUP6 ADD SWAP2 POP DUP2 MLOAD DUP2 DUP2 GT ISZERO PUSH2 0x2FC0 JUMPI POP POP POP POP POP POP SWAP1 JUMP JUMPDEST DUP5 RETURNDATASIZE DUP8 ADD ADD PUSH1 0x20 DUP3 DUP6 ADD ADD GT ISZERO PUSH2 0x2FDA JUMPI POP POP POP POP POP POP SWAP1 JUMP JUMPDEST PUSH2 0x2FE9 PUSH1 0x20 DUP3 DUP7 ADD ADD DUP8 PUSH2 0x2588 JUMP JUMPDEST POP SWAP1 SWAP6 SWAP5 POP POP POP POP POP JUMP JUMPDEST PUSH0 PUSH2 0x1BC4 DUP3 DUP5 PUSH2 0x2BEA JUMP JUMPDEST PUSH0 PUSH1 0x1 PUSH1 0x1 PUSH1 0xA0 SHL SUB DUP1 DUP9 AND DUP4 MSTORE DUP1 DUP8 AND PUSH1 0x20 DUP5 ADD MSTORE POP DUP5 PUSH1 0x40 DUP4 ADD MSTORE DUP4 PUSH1 0x60 DUP4 ADD MSTORE PUSH1 0xA0 PUSH1 0x80 DUP4 ADD MSTORE PUSH2 0x3036 PUSH1 0xA0 DUP4 ADD DUP5 PUSH2 0x24B4 JUMP JUMPDEST SWAP8 SWAP7 POP POP POP POP POP POP POP JUMP INVALID COINBASE PUSH5 0x6472657373 GASPRICE KECCAK256 PUSH13 0x6F772D6C6576656C2064656C65 PUSH8 0x6174652063616C6C KECCAK256 PUSH7 0x61696C6564A264 PUSH10 0x70667358221220F8535E SWAP8 MLOAD 0xB0 JUMPDEST SWAP4 0xBC PUSH9 0xDE4E5D9F245876AA08 DUP7 DELEGATECALL 0xC6 SLT 0xE4 0xC8 PUSH4 0xAAF57A7C 0xC9 0x28 PUSH5 0x736F6C6343 STOP ADDMOD NOT STOP CALLER "
    },
    "gasEstimates": {
      "creation": {
        "codeDepositCost": "2489200",
        "executionCost": "infinite",
        "totalCost": "infinite"
      },
      "external": {
        "balanceOf(address,uint256)": "2645",
        "balanceOfBatch(address[],uint256[])": "infinite",
        "batchFrozen(uint256)": "2515",
        "burn(address,uint256,uint256)": "infinite",
        "burnBatch(address,uint256[],uint256[])": "infinite",
        "claim(address,uint256,uint256)": "infinite",
        "contractURI()": "infinite",
        "getBaseURICount()": "2391",
        "getBatchIdAtIndex(uint256)": "6789",
        "getDefaultRoyaltyInfo()": "2453",
        "getRoyaltyInfoForToken(uint256)": "6933",
        "isApprovedForAll(address,address)": "infinite",
        "lazyMint(uint256,string,bytes)": "infinite",
        "multicall(bytes[])": "infinite",
        "name()": "infinite",
        "nextTokenIdToMint()": "2370",
        "owner()": "2390",
        "royaltyInfo(uint256,uint256)": "7259",
        "safeBatchTransferFrom(address,address,uint256[],uint256[],bytes)": "infinite",
        "safeTransferFrom(address,address,uint256,uint256,bytes)": "infinite",
        "setApprovalForAll(address,bool)": "26740",
        "setContractURI(string)": "infinite",
        "setDefaultRoyaltyInfo(address,uint256)": "28408",
        "setOwner(address)": "28415",
        "setRoyaltyInfoForToken(uint256,address,uint256)": "51076",
        "supportsInterface(bytes4)": "642",
        "symbol()": "infinite",
        "totalSupply(uint256)": "2513",
        "uri(uint256)": "infinite",
        "verifyClaim(address,uint256,uint256)": "446"
      },
      "internal": {
        "_canLazyMint()": "infinite"
      }
    },
    "methodIdentifiers": {
      "balanceOf(address,uint256)": "00fdd58e",
      "balanceOfBatch(address[],uint256[])": "4e1273f4",
      "batchFrozen(uint256)": "83040532",
      "burn(address,uint256,uint256)": "f5298aca",
      "burnBatch(address,uint256[],uint256[])": "6b20c454",
      "claim(address,uint256,uint256)": "2bc43fd9",
      "contractURI()": "e8a3d485",
      "getBaseURICount()": "63b45e2d",
      "getBatchIdAtIndex(uint256)": "2419f51b",
      "getDefaultRoyaltyInfo()": "b24f2d39",
      "getRoyaltyInfoForToken(uint256)": "4cc157df",
      "isApprovedForAll(address,address)": "e985e9c5",
      "lazyMint(uint256,string,bytes)": "d37c353b",
      "multicall(bytes[])": "ac9650d8",
      "name()": "06fdde03",
      "nextTokenIdToMint()": "3b1475a7",
      "owner()": "8da5cb5b",
      "royaltyInfo(uint256,uint256)": "2a55205a",
      "safeBatchTransferFrom(address,address,uint256[],uint256[],bytes)": "2eb2c2d6",
      "safeTransferFrom(address,address,uint256,uint256,bytes)": "f242432a",
      "setApprovalForAll(address,bool)": "a22cb465",
      "setContractURI(string)": "938e3d7b",
      "setDefaultRoyaltyInfo(address,uint256)": "600dd5ea",
      "setOwner(address)": "13af4035",
      "setRoyaltyInfoForToken(uint256,address,uint256)": "9bcf7a15",
      "supportsInterface(bytes4)": "01ffc9a7",
      "symbol()": "95d89b41",
      "totalSupply(uint256)": "bd85b039",
      "uri(uint256)": "0e89341c",
      "verifyClaim(address,uint256,uint256)": "4bbb1abf"
    }
  },
  "storageLayout": {
    "storage": [
      {
        "astId": 1271,
        "contract": "PublicEditionDrop.sol:PublicEditionDrop",
        "label": "name",
        "offset": 0,
        "slot": "0",
        "type": "t_string_storage"
      },
      {
        "astId": 1273,
        "contract": "PublicEditionDrop.sol:PublicEditionDrop",
        "label": "symbol",
        "offset": 0,
        "slot": "1",
        "type": "t_string_storage"
      },
      {
        "astId": 1279,
        "contract": "PublicEditionDrop.sol:PublicEditionDrop",
        "label": "balanceOf",
        "offset": 0,
        "slot": "2",
        "type": "t_mapping(t_address,t_mapping(t_uint256,t_uint256))"
      },
      {
        "astId": 1285,
        "contract": "PublicEditionDrop.sol:PublicEditionDrop",
        "label": "isApprovedForAll",
        "offset": 0,
        "slot": "3",
        "type": "t_mapping(t_address,t_mapping(t_address,t_bool))"
      },
      {
        "astId": 1289,
        "contract": "PublicEditionDrop.sol:PublicEditionDrop",
        "label": "_uri",
        "offset": 0,
        "slot": "4",
        "type": "t_mapping(t_uint256,t_string_storage)"
      },
      {
        "astId": 2647,
        "contract": "PublicEditionDrop.sol:PublicEditionDrop",
        "label": "contractURI",
        "offset": 0,
        "slot": "5",
        "type": "t_string_storage"
      },
      {
        "astId": 3604,
        "contract": "PublicEditionDrop.sol:PublicEditionDrop",
        "label": "_owner",
        "offset": 0,
        "slot": "6",
        "type": "t_address"
      },
      {
        "astId": 3780,
        "contract": "PublicEditionDrop.sol:PublicEditionDrop",
        "label": "royaltyRecipient",
        "offset": 0,
        "slot": "7",
        "type": "t_address"
      },
      {
        "astId": 3783,
        "contract": "PublicEditionDrop.sol:PublicEditionDrop",
        "label": "royaltyBps",
        "offset": 20,
        "slot": "7",
        "type": "t_uint16"
      },
      {
        "astId": 3789,
        "contract": "PublicEditionDrop.sol:PublicEditionDrop",
        "label": "royaltyInfoForToken",
        "offset": 0,
        "slot": "8",
        "type": "t_mapping(t_uint256,t_struct(RoyaltyInfo)5435_storage)"
      },
      {
        "astId": 2308,
        "contract": "PublicEditionDrop.sol:PublicEditionDrop",
        "label": "batchIds",
        "offset": 0,
        "slot": "9",
        "type": "t_array(t_uint256)dyn_storage"
      },
      {
        "astId": 2313,
        "contract": "PublicEditionDrop.sol:PublicEditionDrop",
        "label": "baseURI",
        "offset": 0,
        "slot": "10",
        "type": "t_mapping(t_uint256,t_string_storage)"
      },
      {
        "astId": 2318,
        "contract": "PublicEditionDrop.sol:PublicEditionDrop",
        "label": "batchFrozen",
        "offset": 0,
        "slot": "11",
        "type": "t_mapping(t_uint256,t_bool)"
      },
      {
        "astId": 3425,
        "contract": "PublicEditionDrop.sol:PublicEditionDrop",
        "label": "nextTokenIdToLazyMint",
        "offset": 0,
        "slot": "12",
        "type": "t_uint256"
      },
      {
        "astId": 4593,
        "contract": "PublicEditionDrop.sol:PublicEditionDrop",
        "label": "_status",
        "offset": 0,
        "slot": "13",
        "type": "t_uint256"
      },
      {
        "astId": 823,
        "contract": "PublicEditionDrop.sol:PublicEditionDrop",
        "label": "totalSupply",
        "offset": 0,
        "slot": "14",
        "type": "t_mapping(t_uint256,t_uint256)"
      }
    ],
    "types": {
      "t_address": {
        "encoding": "inplace",
        "label": "address",
        "numberOfBytes": "20"
      },
      "t_array(t_uint256)dyn_storage": {
        "base": "t_uint256",
        "encoding": "dynamic_array",
        "label": "uint256[]",
        "numberOfBytes": "32"
      },
      "t_bool": {
        "encoding": "inplace",
        "label": "bool",
        "numberOfBytes": "1"
      },
      "t_mapping(t_address,t_bool)": {
        "encoding": "mapping",
        "key": "t_address",
        "label": "mapping(address => bool)",
        "numberOfBytes": "32",
        "value": "t_bool"
      },
      "t_mapping(t_address,t_mapping(t_address,t_bool))": {
        "encoding": "mapping",
        "key": "t_address",
        "label": "mapping(address => mapping(address => bool))",
        "numberOfBytes": "32",
        "value": "t_mapping(t_address,t_bool)"
      },
      "t_mapping(t_address,t_mapping(t_uint256,t_uint256))": {
        "encoding": "mapping",
        "key": "t_address",
        "label": "mapping(address => mapping(uint256 => uint256))",
        "numberOfBytes": "32",
        "value": "t_mapping(t_uint256,t_uint256)"
      },
      "t_mapping(t_uint256,t_bool)": {
        "encoding": "mapping",
        "key": "t_uint256",
        "label": "mapping(uint256 => bool)",
        "numberOfBytes": "32",
        "value": "t_bool"
      },
      "t_mapping(t_uint256,t_string_storage)": {
        "encoding": "mapping",
        "key": "t_uint256",
        "label": "mapping(uint256 => string)",
        "numberOfBytes": "32",
        "value": "t_string_storage"
      },
      "t_mapping(t_uint256,t_struct(RoyaltyInfo)5435_storage)": {
        "encoding": "mapping",
        "key": "t_uint256",
        "label": "mapping(uint256 => struct IRoyalty.RoyaltyInfo)",
        "numberOfBytes": "32",
        "value": "t_struct(RoyaltyInfo)5435_storage"
      },
      "t_mapping(t_uint256,t_uint256)": {
        "encoding": "mapping",
        "key": "t_uint256",
        "label": "mapping(uint256 => uint256)",
        "numberOfBytes": "32",
        "value": "t_uint256"
      },
      "t_string_storage": {
        "encoding": "bytes",
        "label": "string",
        "numberOfBytes": "32"
      },
      "t_struct(RoyaltyInfo)5435_storage": {
        "encoding": "inplace",
        "label": "struct IRoyalty.RoyaltyInfo",
        "members": [
          {
            "astId": 5432,
            "contract": "PublicEditionDrop.sol:PublicEditionDrop",
            "label": "recipient",
            "offset": 0,
            "slot": "0",
            "type": "t_address"
          },
          {
            "astId": 5434,
            "contract": "PublicEditionDrop.sol:PublicEditionDrop",
            "label": "bps",
            "offset": 0,
            "slot": "1",
            "type": "t_uint256"
          }
        ],
        "numberOfBytes": "64"
      },
      "t_uint16": {
        "encoding": "inplace",
        "label": "uint16",
        "numberOfBytes": "2"
      },
      "t_uint256": {
        "encoding": "inplace",
        "label": "uint256",
        "numberOfBytes": "32"
      }
    }
  },
  "userdoc": {
    "events": {
      "BatchMetadataUpdate(uint256,uint256)": {
        "notice": "So that the third-party platforms such as NFT market could timely update the images and related attributes of the NFTs."
      }
    },
    "kind": "user",
    "methods": {
      "balanceOf(address,uint256)": {
        "notice": "Get the balance of an account's Tokens."
      },
      "burn(address,uint256,uint256)": {
        "notice": "Lets an owner or approved operator burn NFTs of the given tokenId."
      },
      "burnBatch(address,uint256[],uint256[])": {
        "notice": "Lets an owner or approved operator burn NFTs of the given tokenIds."
      },
      "claim(address,uint256,uint256)": {
        "notice": "Lets an address claim multiple lazy minted NFTs at once to a recipient.                   This function prevents any reentrant calls, and is not allowed to be overridden.                   Contract creators should override `verifyClaim` and `transferTokensOnClaim`                   functions to create custom logic for verification and claiming,                   for e.g. price collection, allowlist, max quantity, etc."
      },
      "contractURI()": {
        "notice": "Returns the contract metadata URI."
      },
      "getBaseURICount()": {
        "notice": "Returns the count of batches of NFTs."
      },
      "getBatchIdAtIndex(uint256)": {
        "notice": "Returns the ID for the batch of tokens at the given index."
      },
      "getDefaultRoyaltyInfo()": {
        "notice": "Returns the defualt royalty recipient and BPS for this contract's NFTs."
      },
      "getRoyaltyInfoForToken(uint256)": {
        "notice": "View royalty info for a given token."
      },
      "isApprovedForAll(address,address)": {
        "notice": "Queries the approval status of an operator for a given owner."
      },
      "lazyMint(uint256,string,bytes)": {
        "notice": "Lets an authorized address lazy mint a given amount of NFTs."
      },
      "multicall(bytes[])": {
        "notice": "Receives and executes a batch of function calls on this contract."
      },
      "nextTokenIdToMint()": {
        "notice": "The tokenId assigned to the next new NFT to be lazy minted."
      },
      "owner()": {
        "notice": "Returns the owner of the contract."
      },
      "royaltyInfo(uint256,uint256)": {
        "notice": "View royalty info for a given token and sale price."
      },
      "setContractURI(string)": {
        "notice": "Lets a contract admin set the URI for contract-level metadata."
      },
      "setDefaultRoyaltyInfo(address,uint256)": {
        "notice": "Updates default royalty recipient and bps."
      },
      "setOwner(address)": {
        "notice": "Lets an authorized wallet set a new owner for the contract."
      },
      "setRoyaltyInfoForToken(uint256,address,uint256)": {
        "notice": "Updates default royalty recipient and bps for a particular token."
      },
      "totalSupply(uint256)": {
        "notice": "Returns the total supply of NFTs of a given tokenId"
      },
      "uri(uint256)": {
        "notice": "Returns the metadata URI for the given tokenId."
      },
      "verifyClaim(address,uint256,uint256)": {
        "notice": "Override this function to add logic for claim verification, based on conditions                   such as allowlist, price, max quantity etc."
      }
    },
    "version": 1
  }
}